:020000040000FA
:06000000020B170201D4FF
:03001B000202904E
:03002B000207D1F8
:030033000207AB16
:0300530002011493
:030073000202D7AF
:1000830002016801FF01010503010F10FEFF4F2666
:1000930000000000852500000000FF000000FF00B5
:1000A3000101881300000020FD00020000791A00FE
:1000B3000000000000331B000000000000000000EF
:1000C300000000000000000000000000000000002D
:1000D3000000000000000006FFFF010200C4120040
:1000E3000000E803FFFF3913E8036400020200087D
:1000F30000000502070101051E02051E020A0A018E
:1001030003B80B02803E0102E8030A050001220442
:1001130014C0E074F2120484A2AFE433F508D2AF42
:10012300AFA7AEA1EE5F5410600612180375A1EFDE
:10013300EE5F5408600812180975A1F78023EEA238
:10014300E092F0EFA2E082F05017906198E0F8900F
:100153000BDAE0C398A2D265D0335002E8F075A160
:10016300FEE5088063C0E074F2120484A2AFE433B6
:10017300FED2AF9061A4E0F8759B00E59158540856
:1001830060087591F71218518023E5915854106057
:10019300087591EF1218578014E591A2E092F0E8E8
:1001A300A2E082F05007E0C2E0F01219A19061A32F
:1001B300E0F8E5E9585404600E12197775E9FB90ED
:1001C3006193E0A2E640F2EEA2E092AF7F01020467
:1001D300E3C0E074F2120484A2AFE433FED2AF9022
:1001E30061A5E0F8E5BF585404600675BFFB12191A
:1001F300B980D4C3E498F8E499F91202378026C38E
:10020300E49AFAE49BFBE920E7E9120237E498F861
:10021300E499F922C3E498F8E499F9120237E498CF
:10022300F8E499F9C3E49AFAE49BFB22EB20E7CFC5
:10023300E920E7E0B90010BB0008E88AF084F8AAD7
:10024300F022E4FBC8FA22EB70227B10C833C8C942
:1002530033C9335007C39AC3DBF280069A50012A8D
:10026300DBEAC833F4C8C933F4C9FA2275F008E4E9
:10027300C833C8C933C933C99AC99B5004C92AC9E9
:100283003BD5F0ECFBC833F4C8E4C9FA22C0E074F0
:10029300F2120484A8F9E8C0E0900B40E0F874BFC0
:1002A30028F582E4340AF583D0E0F0900B3FE0F8C0
:1002B300A3E0687006E595900B42F0900B40E004D4
:1002C300F0C394804002E4F0A374C6F01223557F78
:1002D300010204E3C0E0C0D0E8C0E0E9C0E0C082AE
:1002E300C083900BC3E0F8A3E0687008539AF7A3A8
:1002F30074018022C2EA900BC3E0F8740128F07401
:100303004328F582E4340BF583E0F5F9900BC3E061
:10031300C394804002E4F0D083D082D0E0F9D0E0EF
:10032300F8D0D0D0E032080808EAC0E0EBC0E0869D
:10033300F0E7A4FA180986F0E7A42AFA180986F068
:10034300E7A42AFA180986F0E7A42AFA1986F0E73F
:10035300A4FBE5F02AFA190886F0E7A42BFBE5F0E5
:100363003AFA190886F0E7A42BFBE5F03AFA1818D5
:100373000986F0E7A4C5F02BFBE43AFA1908E7C5B0
:10038300F0C6A426F6E5F03BFBE43AFA1886F0E75C
:10039300A4F6E5F00826F6E43B08F6E43A08F6D0BE
:1003A300E0FBD0E0FA22E4CFC0E0E4CEC0E0E4CD4D
:1003B300C0E0E4CCC0E075F020E626F608E633F6AC
:1003C30008E633F608E633F6181818EC33FCED3379
:1003D300FDEE33FEEF33FFC3EC9709ED9709EE977C
:1003E30009EF97191919400FFFEC97FC09ED97FDD9
:1003F30009EE97FE191906D5F0BFECF709EDF709D9
:10040300EEF709EFF7191919D0E0FCD0E0FDD0E0C1
:10041300FED0E0FF222518C582C0E0E51934FFC5F0
:1004230083C0E0E518C3958224F810AF08858319CB
:100433008582188008858319858218D2AFCEF0A3F0
:10044300E520F0A37808E608F0A3DEFAEFF0A3E5D1
:100453008124FAF8E608F0A3E608F0A3E608F0A37F
:100463000808E608F0A3E608F0A315811581D0E09B
:10047300FED0E0F8158115811581E8C0E0EEC0E0FB
:1004830022C0D02518C582C0E0E51934FFC583C05A
:10049300E0E518C3958224F310AF0885831985829C
:1004A300188008858319858218D2AFC8F0A3E9F0B4
:1004B300A3EAF0A3EBF0A37908E709F0A3D8FAECD9
:1004C300F0A3EDF0A3EEF0A3EFF0A3D0E0F0A3D000
:1004D300E0F0A3D0E0F0A3E520F0A3E5F0F0A32241
:1004E300851983851882E0C0E0A3E0F9A3E0FAA3AD
:1004F300E0FBA37808E0F608A3DFFAE0FCA3E0FD45
:10050300A3E0FEA3E0FFA3E0C0E0A3E0C0E0A3E01C
:10051300F5D0A3E0F520A3E0A3F5F010AF088583A1
:10052300198582188008858319858218D2AFD082F5
:10053300D083D0E0F8D0E032120B9DB9000302055E
:100543007AE490030178C279118002F0A3D8FCD930
:10055300FA7AC27B13900086788F79018015E49331
:10056300A3AD82AE838A828B83F0A3AA82AB838DF1
:10057300828E83D8E9D9E77582FA7583DF74041212
:1005830008977582C7758323740012089775F01056
:100593008E1A8F1B85821F85831E8518828519837A
:1005A300E0CEA3E0CF851F82851E83EBC9EAC8EDA9
:1005B300CBECCAC3E833C8E933C9EA33CAEB33CB5C
:1005C300C3EA9EF51DEB9FF51CB35004AB1CAA1D9B
:1005D300EC33CCED33CDD5F0DAAE1AAF1B22D0839A
:1005E300D082ECC0E0EDC0E0E493A3FCE493A3FD70
:1005F300ED4C600D1206B9EC24FFFCED34FFFD80D9
:10060300EFE493A3FCE493A3FDED4C600D120756B6
:10061300EC24FFFCED34FFFD80EFD0E0FDD0E0FCE7
:10062300E493A3C0E0E493C0E02285198385188294
:10063300E0A3FEE0A3F5207808E0A3F608DFFAE0E4
:10064300A3FFE0A3C0E0E0A3C0E0E0A3C0E0E0A319
:10065300C0E0E0A3C0E010AF08858218858319804D
:1006630008858218858319D2AFD083D08202089D72
:10067300D083D082E9C0E0E493A3C386F0C5F095AC
:10068300F0F908E493A386F0C5F095F0700BE493BA
:10069300A3C3994005E9048002A3E475F002A425ED
:1006A30082F582E5F03583F583D0E0F9E493A3C0C6
:1006B300E0E493C0E022C0E0C3E49396087401939E
:1006C3009618400FE49366700808740193661870D7
:1006D300007019A3A3C3E49396087401939618A317
:1006E300A3400DD0E0D0E0D0E002061DA3A3A3A356
:1006F300A3A3D0E0227404800474028000CCC0E081
:10070300EDC0E0E518C39CCCAD1950011D10AF0638
:100713008C188D1980068C188D19D2AF120819D038
:10072300E0FDD0E0FC2274028000CCC0E0EDC0E02C
:10073300E518C39CCCAD1950011D10AF068C188D64
:100743001980068C188D19D2AF1207F7D0E0FDD0AF
:10075300E0FC22C0E0C0F088F0E4936670080874FF
:10076300019366187000A8F0A3A3700BD0F0D0E03B
:10077300D0E0D0E002061DA3A3D0F0D0E022D083C6
:10078300D082CCC0E0E493A360061208591470FA37
:10079300E493A3600612099D1470FAD0E0FCE4937D
:1007A300A3C0E0E493C0E022C0E074F2120484A288
:1007B300AFE433FED2AFE58BA2E050031216DD7532
:1007C3008B00C2E8EEA2E092AF7F010204E3C0E037
:1007D300C0D0E8C0E0E9C0E0A9A8D2AFC2C7E9A28F
:1007E300E7E433F8E9A2E792AFD0E0F9D0E0F8D03C
:1007F300D0D0E032CAC0E0E493A3C582CCC582C5A1
:1008030083CDC583F0A3C582CCC582C583CDC58303
:10081300DAE5D0E0CA22CAC0E0E0A3C582CCC58233
:10082300C583CDC583F0A3C582CCC582C583CDC5A1
:1008330083DAE6D0E0CA22C008C3E096F50808A32D
:10084300E096420808A3E096420808A3E09645080C
:100853007001D3D00822C0E0E493A3D39C5010E4EA
:1008630093A3C39C400AD0E0D0E0D0E002079EA34C
:10087300A3A3D0E0227009080808226016181818EC
:10088300C6C333C608C633C608C633C608C633C68E
:10089300D5E0EA22C09FF59FE473D09F22D083D096
:1008A30082C09FE493C0E0740193C0E0740293F5A7
:1008B3009F22C5822518C582C583351910AF07F558
:1008C300198582188007F519858218D2AFC583224E
:1008D3002518F58210AF08F518400C15198008F596
:1008E3001840021519D2AF8519832200C0D02518EC
:1008F30010AF08F518500C05198008F518500205BB
:1009030019D2AFD0D0227404800A74038006740213
:1009130080027401C0E0F4041208D3D0E0120B5437
:1009230022BB0102E722C082C08389828A83BB0083
:1009330003E08002E493D083D08222601608080883
:10094300C6C313C618C613C618C613C618C613C61D
:10095300D5E0EA22C3E0C696F608A3E0C696F608F9
:10096300A3E0C696F608A3E0C696F6222518F8E497
:100973003519F9222518FAE43519FB222518FCE468
:100983003519FD22251810AF08F518400C151980EC
:1009930008F51840021519D2AF22C0E0E493A36C06
:1009A3007009D0E0D0E0D0E002079EA3A3D0E022FC
:1009B300E76670100809E766700A0809E7667004BD
:1009C3000809E76622E066701008A3E066700A086B
:1009D300A3E066700408A3E06622C3E09608A3E0E0
:1009E3009608A3E09608A3E096A2D265D03322C36B
:1009F300E096F008A3E096F008A3E096F008A3E0E1
:100A030096F022C3E697F60809E697F60809E697F3
:100A1300F60809E697F622C3E493960874019396C1
:100A23000874029396087403939622700422600D4F
:100A330018C6C333C608C633C6D5E0F41822E64742
:100A4300F60809E647F60809E647F60809E647F611
:100A530022E026F008A3E036F008A3E036F008A36E
:100A6300E036F022E627F60809E637F60809E63706
:100A7300F60809E637F622E657F60809E657F608B8
:100A830009E657F60809E657F622E056F608A3E00A
:100A930056F608A3E056F608A3E056F622E026F63B
:100AA30008A3E036F608A3E036F608A3E036F622FC
:100AB300E056F008A3E056F008A3E056F008A3E0E0
:100AC30056F022E4C396F608E496F608E496F60890
:100AD300E496F622C3E7960809E7960809E796081D
:100AE30009E79622C6F4C608C6F4C608C6F4C608C3
:100AF300C6F4C622600D08C6A2E713C618C613C6FD
:100B0300D5E0F322C3E09608A3E09608A3E0960895
:100B1300A3E0962275D00075813F751801751903FE
:100B23000002053BE6F008A3E6F008A3E6F008A3FD
:100B3300E6F022600C08C6C313C618C613C6D5E078
:100B4300F422E0F608A3E0F608A3E0F608A3E0F633
:100B530022CAC0E0E6F0A308DAFAD0E0FA22E8F00D
:100B6300A3E9F0A3EAF0A3EBF022E0F8A3E0F9A3F2
:100B7300E0FAA3E0FB22ECF0A3EDF0A3EEF0A3EF89
:100B8300F022E0FCA3E0FDA3E0FEA3E0FF22E0FAF5
:100B9300A3E0FBA3E0FCA3E0FD22E5C754F8440176
:100BA300F5C77901222518F582E43519F58322C2A8
:100BB300AF75D69F020000221208A051B40212089A
:100BC300A0AAB5021208A03DB6021208A0C7B60239
:100BD3001208A02DB7021208A06CB7021208A0E2F7
:100BE300B7021208A037B9021208A0DAB902120834
:100BF300A0F2B9021208A095BA021208A01FBD0202
:100C03001208A0C0BE021208A0DEBE021208A0B9DC
:100C130028001208A01329001208A07D2900120839
:100C2300A0062A001208A0C22A001208A0512B0015
:100C33001208A06A2B001208A08F2B001208A0CD67
:100C43002B001208A01C2C001208A0452C0012082F
:100C5300A0942C001208A0402D001208A0082E001A
:100C63001208A06D2E001208A03A2F001208A080CF
:100C73002F001208A09C2F001208A0CE2F001208EC
:100C8300A07631001208A04D32001208A07932007C
:100C93001208A0AD32001208A0CE32001208A0DD67
:100CA30032001208A0E832001208A09C3300120898
:100CB300A00F34001208A08134001208A089340068
:100CC3001208A0AC35001208A0DF35001208A0A15D
:100CD30036001208A05037001208A09837001208F7
:100CE300A0FA37001208A01F38001208A097380096
:100CF3001208A01F39001208A08339001208A06847
:100D03003A001208A08D3A001208A0AE3B00120868
:100D1300A0C13B001208A0553C001208A09F3D0053
:100D23001208A0AF3D001208A0BE3E001208A03773
:100D33003F001208A0793F001208A0B53F00120837
:100D4300A08941001208A0EE43001208A00244004B
:100D53001208A00C44001208A01644001208A02098
:100D630044001208A02A44001208A04344001208B9
:100D7300A04D44001208A05744001208A06144008B
:100D83001208A08944001208A09444001208A0DEAF
:100D930044001208A0E844001208A0F3440012081B
:100DA300A01745001208A03B45001208A09C45006F
:100DB3001208A0E745001208A00346001208A06D20
:100DC30046001208A0B946001208A0014700120805
:100DD300A07C47001208A01648001208A0DA4900B8
:100DE3001208A0484A001208A07A4B001208A0A0DB
:100DF3004B001208A0104D001208A0C450001208A6
:100E0300A0C452001208A09C54001208A03555003B
:100E13001208A04757001208A00958001208A0554D
:100E230058001208A0BB58001208A0CD58001208A1
:100E3300A01D5B001208A04A5C001208A09C5C0085
:100E43001208A0415D001208A0FC5E001208A02D4C
:100E530060001208A04B60001208A0A060001208F6
:100E6300A09E61001208A0C661001208A0296200BA
:100E73001208A02A63001208A09D63001208A0CBE9
:100E830064001208A03665001208A0266600120846
:100E9300A08C68001208A0BA68001208A0B5690007
:100EA3001208A0536B001208A0A36B001208A05BEA
:100EB3006C001208A0106D001208A0746D001208D7
:100EC300A02D6E001208A0CD6E001208A0316F0095
:100ED3001208A07B6F001208A0B86F001208A020B0
:100EE30071001208A06D82011208A0A582011208E8
:100EF300A07E85011208A0C485011208A0E1860125
:100F03001208A04687011208A09788011208A0883A
:100F13008B011208A0A78C011208A07C970112086C
:100F2300A01D98011208A0109B011208A0109C019B
:100F33001208A0989C011208A0E89D011208A0CFF6
:100F43009E011208A038A1011208A046A3011208AD
:100F5300A0D3A3011208A0AFA4011208A0D8A40132
:100F63001208A085A5011208A070A6011208A048C6
:100F7300A7011208A0A8A7011208A0D1A70112086F
:100F8300A0FEA7011208A04FAA011208A02AAB01D4
:100F93001208A06EAB011208A0DFAB011208A098E3
:100FA300AC011208A0CAAC011208A011AD011208CD
:100FB300A044AD011208A0A9AD011208A0F8AD012B
:100FC3001208A0FDAD011208A051AE011208A09BAA
:100FD300AE011208A097AF011208A0FCAF011208DE
:100FE300A063B0011208A088B3011208A05CB40189
:100FF3001208A0C6B5011208A0A0B8011208A048A3
:10100300B9011208A06FBB011208A014BC01120899
:10101300A052BC011208A02BBE011208A03EBE01C3
:101023001208A047BE011208A050BE011208A06515
:10103300BE011208A084BE011208A063C0011208F9
:10104300A0CDC0011208A01CC2011208A065C201F4
:101053001208A045C3011208A070C4011208A026FB
:10106300C5011208A028C6011208A02AC701120848
:10107300A010C8011208A027C8011208A064C80163
:101083001208A06EC8011208A079C8011208A0971F
:10109300C8011208A0D9C8011208A037C901120853
:1010A300A05CC9011208A076C9011208A003CA01F5
:1010B3001208A03CCA011208A08ACB011208A0DCC6
:1010C300CB011208A0F6CC011208A01DCD01120815
:1010D300A0B9CD011208A035CE011208A081CF011D
:1010E3001208A09CD0011208A062D1011208A00C22
:1010F300D2011208A091D2011208A0F9D20112085C
:10110300A0AED3011208A000D4011208A066D40136
:101113001208A02FD5011208A052D5011208A00A67
:10112300D6011208A02ED6011208A050D60112082B
:10113300A0B1D6011208A0FCD8011208A0D7D9018A
:101143001208A081DA011208A0C2DC011208A01063
:10115300DD011208A053DD011208A0ABDD01120866
:10116300A009DE011208A033DE011208A057DE0138
:101173001208A088DE011208A0B2DE011208A0F94D
:10118300DE011208A04DDF011208A0A9DF01120839
:10119300A0AAE0011208A014E2011208A052E20181
:1011A3001208A07BE2011208A00CE3011208A0566A
:1011B300E3011208A07AE3011208A0CDE3011208AB
:1011C300A0E8E3011208A0A3E4011208A0CDE40102
:1011D3001208A010E5011208A066E5011208A0722A
:1011E300E8011208A0A5E8011208A062E9011208AB
:1011F300A03DEA011208A0CDEA011208A00EEB01FE
:101203001208A00080041208A03880041208A05914
:1012130080041208A09B80041208A0FF8004120817
:10122300A00981041208A01981041208A0508104A6
:101233001208A0F984041208A0C186041208A0B5FC
:1012430088041208A05389041208A0DA890412083A
:10125300A064BF021208A00DC0021208A0ECC002D5
:101263001208A007C2021208A027C2021208A0494E
:10127300C3021208A0E6C4021208A053C502120852
:10128300A029C6021208A02FC7021208A094C70201
:101293001208A0D0C7021208A029C8021208A0622F
:1012A300C8021208A0ABC8021208A03DC902120866
:1012B300A0DAC9021208A0AFCA021208A07CCB02AE
:1012C3001208A009CC021208A02FCC021208A05CBD
:1012D300CC021208A08DCC021208A062CD02120823
:1012E300A072CD021208A0C5CD021208A0D2CD0271
:1012F3001208A0DFCD021208A0E8CD021208A04C0C
:10130300CE021208A0AACE021208A0F5CE0212083D
:10131300A010CF021208A037CF021208A054CF02A8
:101323001208A060CF021208A004D1021208A01D67
:10133300D1021208A099D1021208A0ACD10212085E
:10134300A0BCD1021208A062D2021208A0D2D3021A
:101353001208A0E5D4021208A085D5021208A08FB6
:10136300D5021208A0FDD5021208A00ED60212085B
:10137300A04DD6021208A07BD6021208A048D702BD
:101383001208A09FD7021208A0E4D7021208A03ABD
:10139300D8021208A058D8021208A0A6D802120830
:1013A300A074D9021208A0C2D9021208A004DA025A
:1013B3001208A087DA021208A0B1DA021208A0E725
:1013C300DA021208A0F6DA021208A054DB021208AD
:1013D300A0CCDB021208A00DDC021208A05CDC0228
:1013E3001208A087DC021208A0A1DC021208A0BB2D
:1013F300DC021208A090DD021208A09ADD02120896
:10140300A0D5DD021208A0E5DD021208A036DE0237
:101413001208A04ADE021208A068DF021208A07DAB
:10142300DF021208A017E0021208A096E0021208D9
:10143300A039E1021208A044E1021208A091E202DD
:101443001208A0ADE2021208A005E3021208A0737D
:10145300E3021208A0BFE3021208A0D9E3021208B4
:10146300A039E4021208A0D7E4021208A022E50280
:101473001208A085E7021208A01DE8021208A09432
:10148300E8021208A0DAEA021208A0F2EA0212083D
:10149300A0F5EA021208A001EB021208A015EB0264
:1014A3001208A01DEB021208A054EB021208A04878
:1014B300EC021208A0D2EC021208A054ED021208AA
:1014C300A0C9ED021208A0A1EE021208A0C3EE0209
:1014D3001208A05AEF021208A066EF021208A0C376
:1014E300EF021208A0C6EF021208A035F00212089C
:1014F300A081F1021208A094F2021208A01FF302C5
:101503001208A032F4021208A0FCF4021208A02D63
:10151300F5021208A053F5021208A05CF5021208A6
:10152300A08BF5021208A03BF6021208A0EBF6020C
:101533001208A05EF7021208A010F8021208A08396
:10154300F8021208A0C2F8021208A00BF90212084E
:10155300A0C5E2031208A030E3031208A07CE30352
:101563001208A0CCE3031208A050E4031208A094CD
:10157300E6031208A0B2E8031208A032EC03120833
:10158300A06DEC031208A08BEC031208A0EBEC0394
:101593001208A013ED031208A044ED031208A07172
:1015A300ED031208A0DAED031208A09371001208EC
:1015B300A00F72001208A03B72001208A06D720007
:1015C3001208A0CF73001208A0EB73001208A02921
:1015D30074001208A0B674001208A0127500120855
:1015E300A0D875001208A09776001208A0DC760038
:1015F3001208A03D77001208A0B277001208A0DB02
:1016030077001208A01C78001208A0C37900120802
:10161300A0A77A001208A05E7B001208A04B7C00F2
:101623001208A0857C001208A0DD7C001208A0FF30
:101633007C001208A0977D001208A03E7E001208CD
:10164300A08CF6041208A0DCF6041208A0F5C3046B
:101653001208A014C4041208A022C4041208A00291
:10166300C5041208A0EDC6041208A0ECB7041208C2
:10167300A080B8041208A0C3F5041208A0D4F5048E
:101683001208A072F6041208A03EEB041208A04C44
:10169300EB041208A0EBFF011208A0DBF704120809
:1016A300A0EBF7041208A006F8041208A06EF804D1
:1016B3001208A0CCF3041208A050F4041208A0B638
:1016C300F4041208A08CEE041208A0AEEE04120873
:1016D300A01BEF041208A063EF041208A0BCEF04E0
:1016E3001208A03CE9041208A04AE9041208A06FFA
:1016F300E9041208A0A7E9041208A0ACA302120887
:10170300A03DEA041208A01EEB041208A033EB0468
:101713001208A099CE041208A0A7CE041208A02094
:10172300CF041208A0F5CF041208A0B4D104120804
:10173300A05AFA041208A0D8E4041208A022E5046F
:101743001208A0BBE5041208A017E6041208A0952E
:10175300E6041208A0AFE6041208A0C6E6041208C5
:10176300A0C9E6041208A0C4B1021208A012CB0457
:101773001208A024CB041208A0EACB041208A0BAD2
:10178300CC041208A045CD041208A065CD041208AC
:10179300A0EECD041208A065CE041208A040F90201
:1017A3001208A06CF9021208A012FC021208A06928
:1017B300FC021208A0A5FC021208A0B9FC02120840
:1017C300A0D2FC021208A0C3FD021208A09FFE02D1
:1017D3001208A0B3FE021208A08B7E001208A0AF6D
:1017E3007E001208A0C87E001208A0067F0012081F
:1017F300A03C7F001208A06F7F001208A0DB7F00CF
:101803001208A0DE7F001208A0E87F001208A0F5EE
:101813007F001208A099DA041208A0BCDA041208A7
:10182300A007DB041208A025DB041208A040DB0498
:101833001208A0A6DB041208A0B2DB041208A00F52
:10184300DC041208A033DC041208A0F9DC0412083B
:10185300A006DD041208A017DD041208A019FA047B
:101863001208A031FA041208A057FA041208A0497A
:10187300B3041208A0DFB4041208A0EDB4041208E4
:10188300A001B5041208A01EB5041208A033B504C4
:101893001208A046B5041208A0C8B5041208A02D6A
:1018A300B6041208A0C3B6041208A09CB704120819
:1018B300A0ACB7041208A0BBB7041208A042F704F7
:1018C3001208A066F7041208A08EF7041208A0B647
:1018D300F7041208A002D5041208A06ED50412085A
:1018E300A08DD5041208A002D6041208A0CCD704F8
:1018F3001208A0E5D7041208A0FCD7041208A0051B
:10190300D8041208A023D8041208A02DD804120862
:10191300A037D8041208A04AD8041208A0D7D804C4
:101923001208A040D9041208A06ED9041208A0BF5F
:10193300D9041208A00BDA041208A026DA0412084C
:10194300A030DA041208A041DA041208A084DA04F1
:101953001208A0EDF8041208A0CC9D041208A0F808
:101963009D041208A01B9E041208A02E9E041208B8
:10197300A0499E041208A0A99E041208A0D79E04A1
:101983001208A0DBA2041208A018A4041208A04A9B
:10199300A4041208A0B1A4041208A031A6041208DA
:1019A300A059A6041208A06EA6041208A07EA604DD
:1019B3001208A0BEA6041208A000A7041208A010D3
:1019C300A7041208A0FBEF041208A00BF0041208EE
:1019D300A02FF0041208A058F0041208A082F0040B
:1019E3001208A0A6F0041208A0BDF0041208A0EB90
:1019F300F0041208A00EF1041208A0D5F90412088D
:101A0300A084C7041208A094C7041208A0B0C80495
:101A13001208A0E2C8041208A008C9041208A030E2
:101A2300C9041208A042C9041208A07EC9041208FE
:101A3300A0E4C9041208A020CA041208A065CA04BD
:101A43001208A092CA041208A0BECA041208A08AEF
:101A5300F2041208A0A8F2041208A00AF304120860
:101A6300A0B7F3041208A0CFF4041208A0ECEC040E
:101A73001208A03DEE041208A025EE031208A0DB15
:101A8300EE031208A000EF031208A020EF031208D0
:101A9300A034EF031208A090EF031208A0B4EF03E1
:101AA3001208A02FF1031208A057F2031208A03165
:101AB300F3031208A08EF3031208A0C4F303120861
:101AC300A046F4031208A09FF4031208A0C0F40375
:101AD3001208A042F5031208A077F5031208A0DA52
:101AE300F5031208A098F7031208A064F80312087C
:101AF300A09CF8031208A0F0F8031208A010FE033C
:101B03001208A031FE031208A064FF031208A08E7E
:101B1300FF031208A045DD041208A0B9DD04120872
:101B2300A0C4DD041208A0E5DD041208A0DCC8038C
:101B33001208A0DFC8031208A0B1C9031208A0ED60
:101B4300C9031208A02DCA031208A05FCA03120812
:101B5300A08DCA031208A0CACA031208A0F8CA03B8
:101B63001208A0F6CB031208A03DCC031208A07FF5
:101B7300CC031208A0F8CC031208A095CD031208D9
:101B8300A0B8CD031208A022CE031208A090CF0361
:101B93001208A048D0031208A035D1031208A022CE
:101BA300D2031208A0DBD2031208A010D303120839
:101BB300A07CD3031208A017D4031208A045D403B2
:101BC3001208A0EDD5031208A06BD6031208A0AB30
:101BD300D6031208A018E7041208A03BE704120872
:101BE300A02CE8041208A00CE9041208A046F10492
:101BF3001208A07CF1041208A098F1041208A0DADC
:101C0300F1041208A0EAF1041208A07DF2041208FC
:101C1300A087F2041208A0868A041208A0908A04FE
:101C23001208A0D78A041208A0408B041208A061EE
:101C33008B041208A07A8B041208A02C8C041208BF
:101C4300A0968E041208A09F8E041208A0F08E04A2
:101C53001208A0268F041208A03D8F041208A0AA20
:101C63008F041208A03A90041208A070900412087E
:101C7300A0B990041208A01A91041208A054910468
:101C83001208A0BC91041208A00F92041208A052DB
:101C930092041208A08F92041208A0A192041208C1
:101CA300A0B392041208A0D292041208A0DB9204FB
:101CB3001208A0A093041208A0EC93041208A00435
:101CC300F9031208A04AFA031208A073FA031208D0
:101CD300A084FA031208A09CFC031208A0BCFC0316
:101CE3001208A038F9041208A094E2041208A0CA4A
:101CF300E2041208A019E3041208A075E404120810
:101D0300A0CFEB011208A00DED011208A049ED01CF
:101D13001208A018EF011208A042EF011208A0D97F
:101D2300F1011208A019F2011208A0AFF301120881
:101D3300A044F4011208A0A2F4011208A028F5019E
:101D43001208A060F5011208A0A2F5011208A01361
:101D5300F7011208A097F8011208A0C0FA011208AF
:101D6300A0EEFA011208A01AFB011208A023FB013E
:101D73001208A079FB011208A009FC011208A00CAB
:101D8300FF011208A08EFF011208A0DAFF02120859
:101D9300A0F0FF021208A025BC041208A03EBC0458
:101DA3001208A0E3BC041208A023BD041208A03C3F
:101DB300BD041208A06FBD041208A0BCBD04120824
:101DC300A0F0BD041208A032BE041208A01BC00478
:101DD3001208A0C7FE021208A039FF021208A0775A
:101DE300FF021208A0B8FF021208A0E29E03120825
:101DF300A03A9F031208A0C29F031208A0CAA0031F
:101E03001208A0A8A1031208A04FA2031208A09BC6
:101E1300A2031208A0F4A2031208A049A303120804
:101E2300A0B8A3031208A0F8A3031208A0F4A40304
:101E33001208A04FA5031208A06BA5031208A0BBAC
:101E4300A5031208A0F4A5031208A013A603120801
:101E5300A05EA6031208A074A6031208A08BA60313
:101E63001208A0BAA6031208A0CCA6031208A097D2
:101E7300A7031208A0A2A7031208A01CA803120814
:101E8300A06FA8031208A0AEA8031208A0DFA8033E
:101E93001208A042AB031208A073AB031208A0956B
:101EA300AC031208A0B9AC031208A034AD031208A6
:101EB300A006AE031208A048AE031208A0B2AE03F8
:101EC3001208A05DAF031208A087AF031208A09108
:101ED300AF031208A09BAF031208A09EAF03120822
:101EE300A006B0031208A03FB0031208A052B0032B
:101EF3001208A07FB0031208A0BAB0031208A0BD55
:101F0300B0031208A0C7B0031208A0F6B00312086A
:101F1300A010B1031208A02BB1031208A05AB103F9
:101F23001208A07AB1031208A0B7B1031208A0F2F5
:101F3300B1031208A0FEB2031208A088F904120824
:101F4300A0A0F9041208A0FCFF011208A040A704F6
:101F53001208A08FA7041208A04DA9041208A021FB
:101F6300AB041208A05FAB041208A06AAC04120809
:101F7300A074AD041208A096AD041208A0F2AD043B
:101F83001208A073AE041208A00080031208A01F59
:101F930080031208A0B080031208A0F9800312087E
:101FA300A05781031208A0D281031208A04982031B
:101FB3001208A09A82031208A00083031208A092B9
:101FC30083031208A00A84031208A0498403120899
:101FD300A0B188031208A0CE8A031208A0078B03BE
:101FE3001208A0468B031208A0D88C031208A0DBAA
:101FF3008C031208A0A28D031208A0CC8E03120832
:10200300A0C690031208A04793031208A0169403D6
:102013001208A03495031208A07E98031208A08E1C
:1020230098031208A0129A031208A0B09A03120888
:10203300A0E99B031208A0599C031208A0B79D03B3
:102043001208A01E9E031208A05DB4031208A0F894
:10205300B4031208A06BB5031208A07BB5031208E2
:10206300A003B6031208A05FB6031208A09AB70331
:102073001208A0BEB7031208A035B8031208A08641
:10208300B8031208A0E4B8031208A03FB90312086A
:10209300A0ECBB031208A0E3BC031208A059BD03C4
:1020A3001208A030BF031208A0D3BF031208A08CEC
:1020B300C0031208A0F1C0031208A060C1031208F4
:1020C300A083C2031208A049C4031208A069C50370
:1020D3001208A0F6C5031208A066C6031208A0786A
:1020E300C7031208A05AD7031208A0BFD7031208C8
:1020F300A007D8031208A05AD8031208A0C0D80317
:102103001208A022D9031208A097D9031208A0CE5F
:10211300DA031208A0F6DA031208A0D4DB031208CC
:10212300A0E5DB031208A0FDDB031208A0F4DC0327
:102133001208A034DD031208A03DDD031208A054E9
:10214300DD031208A072DD031208A04FDE0312089C
:10215300A009DF031208A013DF031208A015E00390
:102163001208A000E1031208A0A2E1031208A00FC5
:10217300E2031208A024E2031208A019D2041208F1
:10218300A0CCD2041208A094D3041208A0FCD30458
:102193001208A070D4041208A028C0041208A04694
:1021A300C0041208A08AC0041208A0B0C004120818
:1021B300A0D2C0041208A0EAC0041208A002C104FD
:1021C3001208A01AC1041208A0C4C1041208A00670
:1021D300C2041208A010C2041208A025C3041208E6
:1021E300A02EC3041208A037C3041208A040C304DE
:1021F3001208A04AC3041208A0A3AE041208A0CF79
:10220300B2041208A0DDB2041208A0E2B20412085C
:10221300A01AE1041208A02A94041208A0609404EE
:102223001208A09C94041208A00395041208A0C9E4
:10223300FA041208A078F8041208A092FA0412080B
:10224300A0F5FA041208A0DBFF031208A033A302CF
:102253001208A009A3021208A051A2021208A08426
:10226300A0021208A054A0021208A018A00212088B
:10227300A004A0021208A0459F021208A0929E0289
:102283001208A0419C021208A0169C021208A0B7D3
:102293009B021208A0289A021208A0B699021208FB
:1022A300A09399021208A0D798021208A07A970265
:1022B3001208A03197021208A00B97021208A04738
:1022C30096021208A09194021208A03194021208F7
:1022D300A00294021208A0FF93021208A046B102C2
:1022E3001208A0FFB0021208A066B0021208A0579D
:1022F300B0021208A044AD021208A091AA0212086B
:10230300A058A9021208A079A8021208A0EA930211
:102313001208A0AA93021208A09193021208A09B8C
:1023230092021208A0A5A6021208A05A920212084D
:10233300A0E791021208A0B491021208A0599102D9
:102343001208A02891021208A066A4021208A0F1A4
:102353008D021208A006E7041208A0038D021208DA
:10236300A0BD8B021208A0698B021208A05D8B022C
:102373001208A0C48A021208A09289021208A0EDD2
:1023830086021208A09084021208A0448402120854
:10239300A02983021208A0BE82021208A0E88102CB
:1023A3001208A0A481021208A06B80021208A005E3
:1023B300A4021208A03280021208A00080021208B0
:1023C300A0C8E90400000080FBE473000136360175
:1023D30001000102010001030100010401060605D9
:1023E300020000070100340801000F090401010D78
:1023F3000100FF0E08000017020000190100FF1A78
:102403000100011B0100FE1C0100081D0200001F4A
:1024130001000120010001210200002301000F241B
:102423000200002601000127010008280200FF2AFC
:102433000100072B0102402C0100002D0100012E99
:102443000100012F0100FF30010B1C310800003A8D
:102453000100083B01000F3C0100013D0100FF3E6C
:1024630004000042040000460400004A0400004E39
:1024730004000052040000560400005A0400005EE9
:1024830020FFFF0020202020202020202028282893
:102493002828202020202020202020202020202029
:1024A3002020202088101010101010101010101071
:1024B3001010101004040404040404040404101091
:1024C300101010101041414141414101010101012E
:1024D30001010101010101010101010101010110DA
:1024E3001010101010424242424242020202020203
:1024F30002020202020202020202020202020210AB
:102503001010102036000100060000000F0000002C
:102513000000000000000000000003FFFF000004B3
:1025230003FFFF0000FFFF0FF4010005C4040320B5
:10253300000100000B000000000000000003010F79
:102543000000000000000000000000000000000088
:102553000000000000000000000000000000000078
:102563000000000000000000000000000000000068
:102573000000000000000000000000000000000058
:1025830000000103710301030103010301030103BC
:1025930022030203010310030003000300030003EB
:1025A30000030003000342030003240306030003A4
:1025B3000003040312032503230325032303040356
:1025C3000403000300030003440300030003230385
:1025D30000036503210035038103000305030003A2
:1025E30000030003000325032303030271023001E8
:1025F3006002110270020102020202028002100252
:1026030061023A00410063027302720262024302F2
:102613000002130238000002000204021202000248
:1026230000020002000204020402370037003C02E9
:102633004402000239000002000265020002350272
:10264300810200020502820283020002030071007C
:10265300300160001100700031022003500480003B
:102663001000610000001400630073007200620038
:1026730043000000130006000000000004001200E5
:1026830000000000000000000400040037003700D1
:102693003C02440000000000000000006500000050
:1026A30035008100000005000000830000000101E7
:1026B3007101010101011101010131010101010157
:1026C3008001100161013B00140063017301720179
:1026D300620143010001130106013D0135000401BC
:1026E3001201000100010001000104010401330192
:1026F30033013C0144013201360000010001650150
:1027030000013500810100010501820183010001FF
:10271300030471040204600411047004020402043B
:102723000104020410046104000414046304730428
:102733007204620443040004130406040004000446
:10274300040412040004000400040004510464009F
:102753000004000400044404000400040004000412
:102763006504000435048104640005040004830443
:10277300000400008B201300FB1F01008B200200CC
:10278300AD1F0300B31F0400B91F0500BF1F0600E0
:10279300CB1F1100EF1F1400F51F1500DD1F1F00D5
:1027A300E31FFFFF000001210F06510F084B0F0B22
:1027B3005D0F10970E02270F053F0F072D0F0C0912
:1027C3000F0D150F64DB0CFF000007ECFDFDFDECA6
:1027D300DCDCCCBCACAC9C9C8C7C7C6C6C5C5C5CB6
:1027E3004C4C3C3C2C2C1C1C03EAF5E5D5D5C5B55B
:1027F300A595958585757565655555454535352586
:102803002515150500160F00000B150B02000222FB
:102813000F3300000E5A6967426565416C6C69614C
:102823006E6365303901030507090B0D0F000204C0
:1028330006080A0C0D0001191618161618230300B2
:1028430000393D3F373C3C362C442D0C0E020B0423
:102853000B0A0708000F303016181920231A1C1E04
:1028630030303017181921301B1D1F3000034A491F
:10287300434E181A2505020204020101010109024F
:1028830000000000000000BE040AE803000000008E
:1028930000000E003C003C007F00E8030A0503082B
:1028A300090003000CFF1E1E1005090C0104042877
:1028B3000815040C0308C082C0837900EA122ABEFB
:1028C3003BF583C082C083900342126EC3D083D092
:1028D30082C3E09CA3E09D500CEA240B12290B1247
:1028E30028EB600109023F72EA75F00BA4FAA8F025
:1028F30075F00BEBA428FB900344E02AF8A3E03B1C
:102903008882F583E0540F22F582E43B1250BC2207
:1029130074F71204188908124755A3E0F9E875F013
:102923000BA4F8ACF075F00BE9A42C122B39E8FEDC
:10293300E9FF7401650860067402650870228A82E3
:102943008B83122E65740265087021EA2403FA5002
:10295300010B120C33E970148E828F83E4F0800C28
:10296300EA2403FCE43B122E5C120C2D8E828F832F
:10297300E0D2E7F0121ED50243FD74F412041812DC
:102983002F1F79008E828F83E06075890A890B80FF
:1029930064E50A75F00BA4FAA8F075F00BE50B12C9
:1029A30028F77049E50A75F00BA4F8AAF075F00B47
:1029B300E50B122B1A8E828F83E0850882850983AB
:1029C300123F26122DDCEE2403FCE43F122AB1123F
:1029D3000C2D124590125AED123916D2E7F0121E41
:1029E300D57901900342E0F50AA3E0F50B050AE56A
:1029F3000A7002050B122D38E50A9AE50B9B4091EC
:102A0300024A4374F5120418EAFEEBFF750A0174D7
:102A13000B120BA8123509EC4D6015EC122ABE3DC2
:102A2300122F2D7901120C15E508450960758023D5
:102A3300E50845096044122ABC3509122F2D122AD4
:102A4300B2120C33E96401701BEEFAEFFB120C1B9C
:102A5300E9F50A850882850983122DD47902AA082B
:102A6300AB098011122E5D120C33E96401703479C5
:102A730003EEFAEFFB120C1580298E828F83A3E0FD
:102A830064FE7003A3E0F4700B122E5D120C33E9A5
:102A93006401700CEEFAEFFB120C1BE9F50A8003DC
:102AA300750A00023395E50A2403FCE4350BFDE5C2
:102AB300082403FAE43509FB22E508125EF22274C6
:102AC300F71204189003421246ADEA4B602FEA75E1
:102AD300F00BA4FAA8F075F00BEBA428FBEAFEEBCD
:102AE300FF121CF59003441246AD9003441250A705
:102AF3006012EEFCEFFD7900121C2980079003445D
:102B0300E4F0A3F00243FDF90232A8E875F00BA448
:102B1300F8AAF075F00BE9A42AF9900344E028F52C
:102B230008A3E039F50922F9E875F00BA4F8AAF037
:102B330075F00BE9A42AF9900344E028F8A3E039DF
:102B4300F9229003421243E4C3EE98EF9922C08224
:102B5300C083EC4D6005121DE580097C087D00797A
:102B630000121C29023F7274F61204187900EA4B12
:102B730060177800EA28F582E412580460047901AA
:102B8300780808E8C3940840EB0232A874F71204EB
:102B93001874F3120987ECFEEDFF851882851983FB
:102BA300E4F004120BA8EAF0A3EB1243D6120C5183
:102BB3007403120BA8AC82AD83EEFAEFFB120C2D5B
:102BC300EEFAEFFB120C330243F874F71204187495
:102BD300F3120987ECFEEDFF851882851983E4F073
:102BE300EAFCEBFD7403120BA8AA82AB83120C2D33
:102BF300AA18AB19120C577401120BA8123F338E8B
:102C0300828F831243C774FE68700374FF69600484
:102C13007901800279000243F874F7120418EAFE7E
:102C2300EBFF120C0FE9F508740165087011122C03
:102C330085F4FA88828983E05A4480F0121ED50213
:102C4300388B74F7120418EAFEEBFF7508008E82C6
:102C53008F83E0602A120C0FE9F508740165087090
:102C63001E122C85FA88828983E05A70128E828F15
:102C730083E04480FA88828983E04AF0121ED502F9
:102C8300388B124594123A63122B2A8E828F83E07B
:102C93002274F41204188A088B097C007D00EA125E
:102CA3002AB4120C2DE508122DF6790085088285C9
:102CB3000983A3E064FE7003A3E0F460757E007FE4
:102CC300008066EEFAEFFB1228EB6058EEFAEFFB9A
:102CD300EA75F00BA4FAA8F075F00BEBA428FB90AF
:102CE3000344E02AF50AA3E03BF50B850882850936
:102CF30083A31257DF850A82850B83A3E06A7003DF
:102D0300A3E06B701FE50A2403FAE4350BFB120CF6
:102D130033E964017006122AA9120C2D122DEB79E6
:102D230001126CF70EEE70010F122D38EE9AEF9B25
:102D33004091024A439003421250BEC32274F312DD
:102D430004188A088B098A828B83122DD4EA122DE8
:102D5300F6750C00EA122AB4120C33E96401706AA6
:102D63007E007F00805FEEF8EFF9E875F00BA4F8C2
:102D7300AAF075F00BE9A42AF9900344126D69E0F7
:102D8300540F603CEEF8EFF9E875F00BA4F8AAF0E5
:102D930075F00BE9A42AF9900344E028F50AA3E0AF
:102DA30039F50B122AA9121DDFE964017012850A95
:102DB30082850B83122DDC122DEB750C01126CF73F
:102DC3000EEE70010F122B45409CA90C7F050206E5
:102DD3002DA374FEF0A304F022A31243E48508821A
:102DE300850983A3123C4F22E508122E00EEF0A3BF
:102DF300EFF022122E0074FEF0A304F022125EF60E
:102E03003509F5832274F5120418EAFEEBFF8E826E
:102E13008F83122DD47C007D00122E5D120C2DEEBB
:102E2300FAEFFB120C0FE9F50A7401650A70271219
:102E330043DD122B0E850882F583122E65122AB20A
:102E4300120C33E96401700EE5082403FCE4350930
:102E5300122E5C120C2D023395FDEE2403FAE43F8F
:102E6300FB22A31257E9123C4F2274F21204187486
:102E7300E6120987122F1F750C01750800750900EA
:102E8300750A00750B00851882851983E4F0EE241A
:102E930003FCE43FFD7403120BA8AA82AB83120C5C
:102EA3002DAA18AB19120C57E96401701F740B1289
:102EB3000BA8122F2F7401120BA81257E37003A350
:102EC300E069604AA818A91988088909740D120BCA
:102ED300A8123F25A3123F33740E120BA81243C747
:102EE300740D120977120C51E964017009740D1203
:102EF300096F880A890B780A120911AC08AD09EE2B
:102F0300FAEFFB120C2174021208EEE9F50CEEFA4B
:102F1300EFFB120C4BA90C741A02573FEAFEEBFFAE
:102F230012459474FEF0A304F022F583123A63F978
:102F3300124594123C4F22C082C0837800790080EE
:102F43000508E8700109122D38E89AE99B5029E831
:102F5300FAE9FBEA75F00BA4FAACF075F00BEBA4FD
:102F63002CFB900344E02AFCA3E03B8C82F583E036
:102F7300540F70CD790080027901023F72C082C084
:102F8300839028B4E49375F016A4FCADF079FF7A2E
:102F93009C7B0C121C29023F7274F6120418EAF887
:102FA3007508007D008012ED1257F6C3994009E0C1
:102FB300FAE8C39A400205080D9028B4E493FAEDA9
:102FC300C39A40E3AA087B000232A874F0120418E3
:102FD30074F31209878A0C8B0D8C088D09890AEC0E
:102FE30045096016AA08AB09120C9F8A0E8B0FAE17
:102FF3000EAF0FEE4F60030230C17B0080010B1256
:103003005AE3500F12316970F5749C28FE740C3921
:10301300FF80047E007F00EE4F700302311590287D
:103023009312313C60217403650A60067404650AD7
:1030330070157A047903120C759028B4E493FC900C
:103043002893123142502990289112313C60287400
:1030530001650A60067402650A701C7A027901121E
:103063000C759028B4E493FC9028911231424007E8
:103073007A007B000231398518828519837401F047
:10308300120BA8E50CF0A3E50DF0AC08AD09740331
:10309300120BA8AA82AB83120C2DAA18AB19120C1F
:1030A30063740B120BA8123C488E828F83A3A3A3D5
:1030B300A3A3A3E4126EBFAA0CAB0D121167780091
:1030C300E50A6007C39405500278048E828F83E576
:1030D3000CF0A3E50D1264A3E50AF0E88E828F835A
:1030E300A3A3A3A3A3125AF45001097A027B0012EB
:1030F300022F12354FA312571FA3123593E50A600F
:103103000DC39403500812351E12315A8003123531
:1031130035F07A047900120C758A089028B4E49388
:10312300FAC3E5089AEB940040059013C5E4F01246
:103133001041EEFAEFFB0234F3123152E849221246
:103143003152ECC398F8E499F9C3EA98EB9922E475
:1031530093F8740193F922F9EE2414F582E43FF510
:1031630083E8F0A3E922EB75F016A4F8A9F0123571
:1031730088F42274F212041874F31209878A088BF4
:1031830009ECFEEDFF750A00EEFAEFFB120C9F8AC5
:103193000C8B0DA80CA90DE849700302323A888202
:1031A3008983E065087004A3E06509700302323A7D
:1031B30088828983A3A3A3A3E0C39405507988825B
:1031C3008983126323124811E0603488828983A3C0
:1031D300A3A3A3E0C394035026902897E493FA741F
:1031E3000193FB123789902899E493FA740193FBB6
:1031F300E82414F582E439F583EAF0A3EB800DE8C3
:103203002412123241F0E82414123241F08518825C
:103213008519837401F0120BA8126323F0EEFCEFFF
:10322300FD7403120BA8AA82AB83120C2DAA18AB50
:1032330019120C63750A01A90A740D02573FF5822E
:10324300E439F58374FEF0A3042274F61204181211
:103253000C998A088B09A808A909E849601488828F
:103263008983A3A3A3A3E06009C394055004790150
:1032730080027900802F74F6120418120C998A08C0
:103283008B09A808A909E849601488828983A3A344
:10329300A3A3E06009C39403500479018002790079
:1032A30080031208EE7F0202062D74F61204181230
:1032B3000C998A828B83E5824583600BA3A3A3A326
:1032C300E0700479018002790080DAC082C083EA69
:1032D300FCEBFD7A007B00023F6FC082C0837C0061
:1032E3007D00023F6F74F512041874F3120987EA24
:1032F300FEEBFF8C088D09C3EC94F8ED94FF4004BA
:10330300EE4F606A750A00801974FF6508700474D3
:10331300FF6509600B1266207004A3E06509603B3A
:10332300050A9028B4E493F8E50AC3985040E50AE7
:1033330012316A60EBEE4F60D012337C120BA8128D
:1033430043D2120C5DE960D87403120BA8AC82ADB2
:1033530083EEFAEFFB121DDFE960C5E50A75F0168F
:10336300A4F8A9F0749C28FA740C39FB80047A0041
:103373007B00740D1208EE801B85188285198374F7
:1033830001F0749E28F582740C39F5831243E474BA
:103393000B22A90A7F0302062D74F412041874F396
:1033A300120987750800120C9F8A0A8B0BAE0AAFAD
:1033B3000BEE4F601F1233FF12338F120BA8124311
:1033C300D2120C457C167D0079FFEEFAEFFB121C3E
:1033D300297508017A047900120C758A0A9028B4B9
:1033E300E493FAC3E50A9AEB940050099013C57469
:1033F30001F0121041A908740D024A408518828514
:1034030019837401F08E828F83A3A32274F71204AD
:1034130018E9FC74FE6A700374FF6B7D007003800F
:103423002C0D1234715026ED12316A60F4127104BE
:103433006A7003A3E06B70E98012ED75F016A4F8CF
:10344300A9F01270F76018E0640360130D12347171
:103453005015EC60E512357C60F2C3940550ED1213
:1034630068641257DC80047AFE7BFF0243FD9028D8
:10347300B4E493F8EDC39822120CB1023F72C082F8
:10348300C083790180F274F01204188A0A8B0B7AD4
:10349300047901120C758A0C8B0DEA450D6040EA24
:1034A3002AFAEB33FB121CF58A088B09AE08AF0925
:1034B300EE4F60267AFE7BFF120CB774FE6A700330
:1034C30074FF6B601E8508828509831246ADE5088B
:1034D3002402F50850E2050980DE750C0080047EA5
:1034E300007F00850A82850B83E50C1245E1800588
:1034F300740D1208EE7F0802062DE493F8ECC398CE
:1035030022126EC7EC22E0F508A3E0F509221208A7
:10351300EE7F0C02062D7F0702062D9028971231AD
:1035230052EE12685B123C4F902899E493F87401B1
:103533009322EE2412123543F0EE24141235432263
:10354300F582E43FF58374FEF0A30422E88E828FB4
:1035530083A3A3A3A3A3A3A3A31235747401123556
:1035630074A374AAF0EE2410F582E43FF583E4F02B
:10357300221264C6A3A3A3A322ED75F016A4F8A98F
:10358300F01235882274A028F582740C126FB322CE
:10359300A3F0124594E4F0EE240CF582E43FF583A6
:1035A300E4F0A3F0A3F0A3F022C082C0837D0080E7
:1035B30009EA24FF1AEB34FFFB0D12347150161283
:1035C300357CC3940550F2EA4B70E6749C28FA7478
:1035D3000C39FB80047A007B00023F7274F71204FB
:1035E3001874F31209877E00023677EF75F017A47B
:1035F300F8A9F01270DA1258C575F016A4FAABF0F8
:10360300749C2AF582740C125B177003A3E0696043
:1036130040EF75F017A4F8AAF0EAF91270DA39F559
:1036230083123F337401120BA8E0687003A3E069AF
:10363300601FEF75F017A4F8EAF9746C28FC740E98
:1036430039FD7403120BA8AA82AB83121DDFE96054
:1036530013EF75F017A4F8A9F0746A28FA740E39F9
:10366300FB1211730F9028ABE493F8EFC398500348
:103673000235EE0E9028B4126C49501FEE1270FD05
:10368300F47003A3E0F460EB12337C120BA8124333
:10369300D2120C5DE960DC7F0080CA0243F874F744
:1036A30012041874F31209879004151250A77003BB
:1036B30002374D750800802BE50875F016A4F8EA6B
:1036C300F974B028F582740C126FAF64FE7003A313
:1036D300E0F4600D74AE28F582740C39F58312574B
:1036E3003505089028B41256FE505FE50875F016AC
:1036F300A4F8AAF0EAF912358460E6C3940350E112
:1037030074AE28F582740C1250A470ACE50875F001
:1037130016A4F8EAF9749C28F8740C39F9E8FEE960
:10372300FF1237EB1237E11223CC1233FF12338F20
:10373300120BA81243D2120C5DE960A57403120B9D
:10374300A8AA82AB83120CAB80970243F874F612DB
:103753000418120C998A088B09A808A909E849607A
:103763002088828983A3A3A3A3E06011C394035099
:103773000CE82414F582E41257DC123789790180AE
:103783000279000232A8E82412F582E439F583EACB
:10379300F0A3EBF02274F7120418EAFEEBFF900497
:1037A3000F1250A760309004151250A760289004A0
:1037B300191250A760201269A51223CCE9701712C1
:1037C30037DC1223CCE96401700C8E828F83A3A3B0
:1037D3001269921223CC0243FD1237EBA3A31250BA
:1037E300BE90041512699C22902899E493FC7401FD
:1037F30093FD8E828F8322C082C08390034B7439E2
:10380300F0A3740FF090034D7433F0A3740FF09092
:103813000351744DF0A3740DF0023F7274F7120458
:1038230018EAFEEBFF900385E06408601CE0640483
:1038330060178E828F83E0540364017041125497A2
:10384300F8123890E0640670358E828F83A3A3E06C
:1038530064FE7003A3E0F460258E828F83A3A3121A
:103863005ED87003A3E0697008EE2415125ECD6084
:1038730005120FE18003120FE7E9F50880037508CD
:10388300C2EEFAEFFB121CFBA9080243FDA3E0F50D
:103893008388822274F41204188A088B09123A5F0F
:1038A300FAE82AFAE43400FB121CF58A0A8B0BAE01
:1038B3000AAF0BEE4F6055850882850983E0FC7DD6
:1038C300007900121C298E828F83A3122DD412102B
:1038D3001D8E828F83A3A3A3A3EAF0A3EB12391651
:1038E300F8EE28F8E43F122F32850882850983A376
:1038F300E0C0E0125AD9D0E0F012102F125ACFE9EB
:10390300123C3EE0C0E0123C34D0E0F0EEFAEFFBB4
:10391300024A43F0850882850983E02274F4120485
:103923001874E81209878A088B098C0A8D0BE9FE43
:10393300900385E064046005E06408700479C28044
:103943003CA37808120B27EE90038C123BA2121CA7
:10395300298518828519837808120B277405120BA1
:10396300A8EEF07404120BA87401F07407120BA8EC
:10397300E4F090038574021243D61221C3024A3E37
:1039830074F412041874E8120987EAFEEBFF90033B
:10399300461250A76003023A5A7A077B00121CF5BD
:1039A3009003461246AD9003461250A77003023AA5
:1039B300568E828F83120B6D900346E0FCA3E0F5D5
:1039C300838C82120B61EE2404F50AE43FF50B8528
:1039D3000A82F583E0C0E090034612507BA3A3A3C1
:1039E300D0E0F0EE2405F508E43FF509850882F5FB
:1039F30083E0C0E0900346125089D0E01243CCC06C
:103A0300E0900346123A63C82406F582E438F5834E
:103A1300D0E0123BA2121C298E828F83120B6D857C
:103A23001882851983120B61850A82850B83E0C096
:103A3300E07405120BA8D0E0123916C0E07404122A
:103A43000BA8D0E0F07407120BA8E41243D612219E
:103A5300C38006791080027901024A3E8A828B83F1
:103A6300E0F8A3E022C082C0839003461250A7600F
:103A7300109003461257DF121CFB900346E4F0A399
:103A8300F0120F57121113023F7274F412041874D8
:103A9300E81209878A0A8B0BECFEEDFF890874286C
:103AA300120BA8E0FC7429120BA8E0FD740F6C70D4
:103AB30005740F6D601290143BE064026005ECC363
:103AC3009D500579C1023B9F7424120BA8120B6D04
:103AD300900386120B61E50890038CF0EC90038A47
:103AE300F0EDA3F0742A120BA8E090038DF074FF9D
:103AF300650A700474FF650B702490144DE0F47034
:103B030003A3E0F4700C121C41900383EAF0A3EBCF
:103B1300801290144D126881E8F0A3E980069003A7
:103B230083125AEDF0EE4F6017EEFAEFFB1211C756
:103B3300E96401700BEEFCEFFD7A977B03121DE540
:103B4300900376E4F0A3F0900379F0A3F09003964A
:103B5300F090143BE06402700890038A740FF0A3A2
:103B6300F09003857405123BA2121C297404120BF6
:103B7300A8E4F0900386120B6D85188285198312D1
:103B83000B6190038CE0C0E07405120BA8D0E0F049
:103B93007407120BA8E41243D61221C3024A3EF063
:103BA3007C187D007900AA18AB1922C082C08390CB
:103BB300034AE07003121FE9120D11023F7274F001
:103BC30012041890034AE09013C4700FE060057963
:103BD30000121E9F9013C4E4F0804AE06401600861
:103BE30090034AE0F9121E9F9013C47401F09003EE
:103BF3004AE0F46030E0F50CE4F50DF50EF50FF056
:103C03009082377808120B45780C790812032978CB
:103C13000C1209097A807B009003D0E0F9121DAFE2
:103C230074041208EE7AC47B1379411221AB023477
:103C3300F8EE2411F582E43FF58322F085088285AE
:103C43000983A3A322125B0F123C4F22E8F0A3E9DE
:103C5300F02274F612041874E2120987851882851B
:103C63001983ECF0A3EDF0EAFEEBFF8908900385DE
:103C7300E064046005E06408700579C2023D7F7466
:103C830029120BA8E064FE7003A3E0F4700579C366
:103C9300023D7F7C197D0079007405120977121C9F
:103CA3002990038574031243D679501221AB7429EA
:103CB300120977794B1221AB851882851983123D3E
:103CC30098E508900378F07429120BA8123D8E74BE
:103CD30028120BA8E0F509900370123D84121DE52C
:103CE30074CE55094480C0E0741D120BA8D0E0F0D7
:103CF300742B120BA8E004900396F0741A120BA80D
:103D03007402F07429120BA8123F337412120BA819
:103D1300E8F0A3E9123F2C741B120BA81243C774DB
:103D230010120BA8E508F0740D120BA8E4F0900331
:103D33008B740FF07A8B7B0379541221AB90038A37
:103D4300740FF07A8A7B0379471221AB90038AE0E0
:103D5300C3940F501F7410120BA8E0C0E07402123A
:103D63000BA8D0E0F07404120BA87401F00412093C
:103D7300771221CF74051209771221B1741E023212
:103D8300A5F0EEFCEFFD7A977B03221243E4900348
:103D930079123C4F22126885123C4F2274F71204A9
:103DA30018EB90038DF0120F450243FD74F71204D4
:103DB3001874E9120987EAFEEBFF7508008E828FFB
:103DC30083A3A3A3E0C0E07406120BA8D0E01234CF
:103DD30007E0C0E07408120BA8D0E0F07409120BDE
:103DE300A87401123F261250A7600D8E828F831292
:103DF30057DF120C33E970357407120BA8E4F01285
:103E030010177404120BA81246AD900385E06404E6
:103E1300700E1210237402120BA8EAF0A3EB804871
:103E23007402120BA874FDF0A374FF803BAC18ADB1
:103E3300198E828F831257DF120C3F8E828F83A3DA
:103E4300A3A3A3E070307407120BA87401123F2CD4
:103E53007402120BA81243C78E828F83123F3374EE
:103E630004120BA8E8F0A3E9F07402120977121008
:103E73005FE9F508803E123F2D740A120BA8124326
:103E8300C77414120BA8123405A3E0C0E074151212
:103E93000BA8D0E0F07416120BA8123F25126EC3C4
:103EA300740C120BA8AA82AB83121DE5740A1209C3
:103EB30077121EB7A90874170243FA74F71204188D
:103EC30074F8120987EAFEEBFF7900900385E0643A
:103ED300086005E06404704585188285198374FDC4
:103EE300F0A374FFF01210177402120BA81246AD60
:103EF3007405120BA8123F25A3E0C0E07404120B53
:103F0300A8D0E0123F26E0C0E07406120BA8D0E070
:103F1300F07407120BA8E41243D612105F74080260
:103F230043FAE4F08E828F8322F085188285198309
:103F33001243E422C082C08390035774E9F0A37450
:103F43000DF09003FD74B9F0A37410F090035B744B
:103F53001FF0A3740EF090035D74E9F0A3740DF0E9
:103F630090035F7425F0A3740EF08003120CA5D0A8
:103F730083D08202089D74F412041874F91209871D
:103F83008A088B098C0A8D0B85188285198378081A
:103F9300120B277404120BA8E9F07405120BA8E4A2
:103FA300F07406120BA8E41243D6120CF97407023C
:103FB3004A4074F51204188A088B098A828B83128B
:103FC3006CFAEE4F700302416D9003141250A76018
:103FD300158A828B83A3A3E0F9EEFAEFFB90031516
:103FE3001238911223CC8E828F83A3A3A3A3A3A3FE
:103FF300A3A3A3E0640260030240D68E828F83A34F
:10400300A3A3A3A3A3E0540270030240FA8508828A
:10401300850983A3A3E064E970030240FA8508825B
:10402300850983A3A3E064CD70030240FA85088267
:10403300850983A3A3E064F070030240FA8E828FA4
:1040430083A3A3A3A3A3A3A3A3A3A3E07016901482
:104053003FE0048E828F83A3A3A3A3A3A3A3A3A35D
:10406300A3F0801012417E12108FE970077A307B23
:1040730001121F47850882850983A3A3E0701F757A
:104083000A0080097A367B01121F47050A850882D8
:10409300850983A3A3A3E0F8E50AC39840E68E82CB
:1040A3008F83A3A3A3A3A3A3A3A31264BAA3A3A3CA
:1040B300A37404F0901440125B09E8124170121DBE
:1040C300C1EA4B4C4D700C7A207B009003D0E0F991
:1040D300121C898E828F83A3A3A3A3A3A3A3A3A349
:1040E300E0640260128E828F83A3A3A3A3A3A3A37E
:1040F300A3A3E0640670738E828F83A3A3A3A3A3F9
:10410300A3E0A2E05064850882850983A3A3E0F9B4
:10411300EEFAEFFB12226B8E828F83A3A3A3A3A3DA
:10412300A3E054FEF012417E12108FE985088285C8
:104133000983A3A3702AE070237A2F7B01121F4700
:104143007E00850882850983A3A3A3E0F8EEC398C4
:1041530050187A367B01121F470E80E67A318005AC
:10416300E070077A2D7B01121F47023397F0A3E912
:10417300F07A207B009003D0E0F9228E828F8312A5
:10418300699C1250BE2274EC12041874DB12098766
:10419300EAFEEBFF8C108D11750E00740512097F7A
:1041A3001217677412120BA8E070087415120BA88B
:1041B300E060207405120BA8E0A2E6501B8E828FEC
:1041C30083A3A3A3A3A3A3A3A3A31257DF12108FB5
:1041D300E960057A350242D27405120BA8E0540C4B
:1041E30064047005750D018003750D00E0A2E550B0
:1041F30030750E01E50DA2E0402712101D8A088BD1
:1042030009A808A909125497687003A3E06960110B
:10421300740512097F125EE7122289E960030242E4
:10422300D07405120BA8E0A2E650227406120BA864
:10423300E0540370187405120BA8E0540C640C606E
:104243000CE0540C64086005750C018003750C00C8
:104253007405120BA8E05403F8740268700E740519
:1042630012097F125EE7120BC70243BC7401687028
:1042730041E50CA2E0500B740512097F125EE712B0
:104283000BBB740512096F7403120BA8E8F0A3E9C2
:104293001243DC851882851983E8F0A3E91243CC25
:1042A300C0E07402120BA8D0E01243D612239D0281
:1042B30043BCE860030243BC90036DE064017017E4
:1042C3008E828F83A3A3A3A3A3A3E0700A7A347B74
:1042D30001121F470243BC7424120BA87402124339
:1042E300DC741C120BA81243C7E50CA2E0500B743C
:1042F3000512097F125EE7120BBB7439120BA87803
:1043030008120B45E50DA2E0EE5072240F125ECDAC
:10431300C0E07417120BA8D0E0F09003161250A758
:1043230070030243BC12101D8A128B13A812A91327
:10433300741C120BA8E0687003A3E069707B780813
:10434300120909E50EF50878081209158E828F8384
:10435300A3A3A3A3E0F5087808120915781012099E
:1043630011A90C740D12097F742412097790031696
:104373001258511223CC74081208EE803C125ECB03
:10438300F50C780C1209157808120909E50EF508E1
:10439300780812091578101209119003831206FC8C
:1043A300EE2412125ECDF9742612097F740F1209DE
:1043B3007712225F740A1208EE7425023511A3A343
:1043C300A3A3A3A3E8123C50221264C2A3E022E8F1
:1043D300F0A3E9F0AA18AB1922F01245941243E4B2
:1043E300221243E822E0F8A3E0F92274F71204183A
:1043F300121E818005740D1208EE7F0102062D74D2
:10440300F7120418121E8780F174F7120418121E93
:104413009380E7C082C083121E8D023F7274F7122D
:104423000418121E9980D374F71204187409120B1E
:10443300A8E0F5087808120915121EAB740180B7BD
:10444300C082C083121EB7023F72C082C083121E95
:10445300BD023F7274F7120418121EC3809C74F7D6
:10446300120418EAFEEBFF890874016508701479D9
:1044730000120E619028A9E493FC7900EEFAEFFB99
:10448300120DD70243FD74F7120418121EB1024332
:10449300FD74F412041874F9120987E9FE8A088B73
:1044A300098C0A8D0B9012F91250A7602BEE851818
:1044B30082851983F07401120BA87808120B2774F4
:1044C30013120BA8123F337405120BA81243D29098
:1044D30012F91258511223CC023FB0C082C083128A
:1044E3001EFF023F7274F7120418121ECF0243FD1F
:1044F30074F71204189013C7E0F97E00800B12477B
:1045030063540D64017001190E1246FA5003E970E9
:10451300ED0243FD74F71204189013C8E0F97E000E
:10452300800B124763548D64817001190E1246FA91
:104533005003E970ED0243FD74F2120418890BE98C
:1045430075F006A4A9F0240CF508E439F509E5088B
:104553002AFAE43509FB121CF58A0C8B0DAE0CAF5D
:104563000DEE4F6021AC08AD097900121C291245EC
:1045730090E50BF0EE2508F8EF3509F98E828F836D
:10458300A3A3A31243C1EEFAEFFB025742124594D1
:1045930022EE125EF63FF5832274F6120418EAFE49
:1045A300EBFF120DB39013C6E0F8E9C398400990EE
:1045B30003531257DF120DB9EE2402F8E43FF988D2
:1045C300088909900355125C05900355E0041245D0
:1045D300E1120DBF850882850983E0022B0AF0EE04
:1045E300FAEFFB22C082C083790090035380010954
:1045F3001257DF8A828B83E582458370F2023F7212
:1046030074F7120418EAFEEBFFEE4F605A9003535F
:104613001250A76052888289837A007B00EE6582FC
:104623007003EF65836013AA82AB83123F338882E2
:104633008983E5824583602F80E39003531258C832
:10464300687002EF698E828F837008123F33900384
:1046530053800312698A1243C7EEFAEFFB12236DEC
:10466300EEFAEFFB121CFB0243FDC082C0839003F2
:10467300538004888289831250A7600A88828983C1
:104683001235044D70ED8A828B83E4F0A3F0E84980
:1046930060068882898380039003531246AD023FEC
:1046A30072EE241AF582E43FF583EAF0A3EBF022DD
:1046B3001250BEEA4B2274F712041890035380047D
:1046C3008A828B831246B360277E0080010E1246D6
:1046D300FA50EDEE75F006A4FCADF0EA2CFCEB3DD0
:1046E300FDEC2410F582E43DF583E06970DF80047E
:1046F3007A007B000243FD124759EEC3982274F7F8
:104703001204187D0080010D124755EDC398503BEC
:10471300ED75F006A4FEA8F0E8FFEA2EFEEB3FFFDE
:10472300EE2410125ECD6970DEED75F006A4FEE88E
:10473300FFEA2EFAEB3FFBEA2411F582E412580458
:104743004CF0EA240CFA50070B80047A007B000239
:1047530043FD12475922EA125EF63BF583E0F82245
:10476300EE75F006A4FCADF0EA2CFCEB3DFDEC2469
:1047730011F582E43DF583E02274F6120418120E5B
:10478300CD7B008016EB75F006A4F8A9F0125C331C
:10479300E4124811F0A3125BFBF00B9028AE125AFF
:1047A300E640E27A0080168A0875090074037808E7
:1047B300120A2E125706125B04A3E4F00A9028B8DB
:1047C300E493F8EAC39840DF7900801A89087509F1
:1047D3000074037808120A2E7492126D0274111277
:1047E3006B3B122DD5099028A312630940DE902854
:1047F300AFE493900361F09082371206F87A107B4E
:10480300009003D0E0F9121DB574040232A51263BF
:1048130017A32274F012041874F51209878A088BFF
:1048230009890A8C0BE9A2E050147508FC7509FF8D
:10483300A2E15005D2E40248DFD2E30248DF120EC0
:10484300B58A0C8B0DA80CA90D900376E068700354
:10485300A3E069600EAC0A7902AA08AB09120EAF95
:10486300E9700579000249B0E50AF50C780C1209E4
:104873001579027CFE7DFFAA08AB09120E2B740189
:104883001208EEE960030249AEE50AC2E5F50A90B3
:1048930003C3E07049E50AA2E64043740312097FAB
:1048A300AA08AB09120C39E9702E12508212115565
:1048B3008A0C8B0DAE0CAF0DEE4F6022EE2402FA84
:1048C300E43FFB120C33E96015EE2402FCE43FFDE8
:1048D3007403120977121DE5E50AD2E5F50A900380
:1048E30056E0F50C900376124B72780E1209117D87
:1048F300017C00900356E0F9AA0EAB0F120E6D7403
:10490300021208EEE9F8900356E004F0E8600302AF
:1049130049AEE50AA2E55004740E80027406C0E0B5
:104923007401120BA8D0E01243D61210778A0E8BB3
:104933000FAE0EAF0FEE4F606E12547412101712BB
:1049430046A41249C77401F07478550AA3126F2C58
:10495300E50C126F2CA3E508F0E5091249B5E4F064
:10496300E50AA2E5500F740312097FE82406FAE46E
:1049730039FB121DE58E828F83A3A374FDF0A3740C
:10498300FFF0E50B60189028AAE493F8E50BC398B1
:10499300500CEE2413F582E43FF583E50BF0EEFAB9
:1049A300EFFB120CE780067910800279C7740B02C3
:1049B30034F588828983A3A3A3A31249C122126376
:1049C3001BA3A322EE125EF23F1249D022F58312FB
:1049D30043E8888289832274F41204187A007B10D6
:1049E3009003D0E0F9121DC1EA4B4C4D60089003CF
:1049F300E27401F080439013AAE0640190143C70C8
:104A030006E0FC79018004E0FC79037A007B001264
:104A13000DD790289DE493F508740193F509E4F507
:104A23000AF50B78081209097A007B109003D0E08D
:104A3300F9121DAF74041208EE800574181208EE03
:104A43007F0402062D74F01204188A088B098C0A5D
:104A53008D0B890C12108FE960057AFF024B36909B
:104A6300143BE064026003024B629028A1E493F9D3
:104A7300AA08AB09120EDFE96003024B5C7900AAB6
:104A830008AB09120EB5A90C120EA98A0E8B0FAE34
:104A93000EAF0FEE4F7003024B488E828F83A3A39A
:104AA300A3A3A312621F70731257DF8E828F83A397
:104AB300A3A3A3A3A3E05418604D9028A8E4938E66
:104AC300828F83A3A3A3A3F07410120BA8126EC347
:104AD3007412120BA8124B72EA650A7003EB650B92
:104AE3006012EA6C7002EB6D600AEA650E7003EB0C
:104AF300650F701B780E120911AA0AAB0B121191E4
:104B030074021208EE80089003751264B1A3F07466
:104B1300FE6A700374FF6B601E8051A3A3A3E0645D
:104B230003602A8E828F83A3A3A3A3A3E0640470EC
:104B3300067AFE7BFF80358E828F83A3A3A3A3A374
:104B4300E0640270089003C2E0640270127907AA5D
:104B530008AB09120EDFE96006AA08AB09800DAAAB
:104B630008AB099003571258511223CC0234F8E0D2
:104B7300F50EA3E0F50F2274F7120418EAFEEBFF1B
:104B8300120C87E9700AEEFAEFFB120C93E9600648
:104B9300EEFAEFFB80047AFE7BFF0243FD74EE1214
:104BA30004188A0A8B0B8C0C8D0D890E7508001264
:104BB300108FE979006003024D06AA0AAB0B120EAF
:104BC300B5A90E120EA98A108B11AE10AF11EE4FBC
:104BD30060198E828F83A3A3A3A3A3E06402705200
:104BE3009003C2E064027003024D04AA0AAB0B12E5
:104BF300584E1223CC120C998A108B11A810A911AC
:104C0300E8497003024D0488828983A3A3A3A3A365
:104C1300E0A2E04003024D04750901A2E1504B7983
:104C230001AC0AAD0BAA0CAB0D120E07E9704702DB
:104C33004D048E828F83A3A3A3A3A3E06403602503
:104C43008E828F83A3A3A3A3A3E064016003024D19
:104C53000479078E828F83A3A31257DF120EDFE935
:104C63006003024D04750902801088828983A3A31F
:104C7300A3A3A3D2E1F0EE4F603A8E828F83A3A366
:104C8300A3A3A3A3E05418602B7508018E828F831E
:104C9300A3A31206FC7510FE7511FF7810120911FB
:104CA3007900AC0AAD0BAA0CAB0D120EC174041241
:104CB30008EE804D7900AA0CAB0D120EB58A108B4D
:104CC30011A810A911900376E0687003A3E069703E
:104CD300149028A9E493FCA90EAA0AAB0B120DD7D2
:104CE300750801801CA909AC0AAD0BAA0CAB0D1207
:104CF3000E07E9700C750801A90EAA0AAB0B120E78
:104D030061A90880031208EE7F0A02062D74EB12D4
:104D1300041874F01209878A0C8B0D8C088D0975A1
:104D230012069004031250A7601712508212117FCB
:104D33008A108B11EA451160088A828B83A3E06095
:104D430068E50C241DF50EE4350DF50F850E821272
:104D5300529EF51488828983A3A3A3E0FA888289EB
:104D630083A3A3A3A3E0F8E4C8F9EA28FEE439FF88
:104D7300AA08AB09120E67850E82850F831250892C
:104D8300E029F50BE50AA2E5500375120E74875569
:104D93000A700F7418550A6418600712506C651274
:104DA300600C7AD37B00121F477900025056530AD6
:104DB30078C3EE94F8EF94FF50247900EEFAEFFBFA
:104DC300120EA98A0E8B0FA80EA90FE849600F884F
:104DD300828983A3A3A3A3A3A3E0541870CB780869
:104DE3001209117D00AC0BA9141250B3120E6D748D
:104DF300021208EEE9F874036860AE7425120BA87A
:104E0300126D076003024ECD7418550A7003024FEA
:104E130088E50AD2E0F50AA2E45004D2E1F50AA932
:104E23000A1250B3120EA98A128B13A812A913E8FF
:104E330049605C88828983A3A3A3A3A3A3E0541836
:104E4300604D88828983A3A3A3A3A3E06401703F79
:104E5300E51045116039126EC088828983A3A312BD
:104E630057DF12117F8A128B13A812A913E8496026
:104E73001E88828983A3E06016851082851183A32F
:104E8300E0FA88828983A3E0C39A5003024DACE51C
:104E93000AF51078101209151250AD120E2B740179
:104EA3001208EEE970247C007D00850E82850F8355
:104EB30074FFF012548FA3A3A3E060061250601294
:104EC3006EC3A90B1250B3120D83850E82850F8317
:104ED300E0F47003A3E0F4603C9003C2E06402706A
:104EE30003024DAC1250B39003591258511223CC04
:104EF300EA65087003EB65096003024DACEEFAEF57
:104F0300FB9003591258511223CC850E82850F83CF
:104F1300EAF0A3EBF078081209117D01AC0BA91498
:104F23001250B3120E6D74021208EEA90AEEFAEFD4
:104F3300FB120EB58A088B09A808A909900376E02D
:104F4300687003A3E0696003025048EEFAEFFB12B6
:104F53000C998A088B09A808A909E849606F888217
:104F63008983A3A3A3A3E06401600D88828983A33B
:104F7300A3A3A3E064027055AC18AD19EEFAEFFBDE
:104F8300120C39805690036FE06014E50AF510782F
:104F9300101209151250AD120E2B74011208EEE512
:104FA3000AF510781012091579027CFE7DFFEEFADE
:104FB300EFFB120E2B74011208EEE96003024ECDD3
:104FC300850E82850F8374FFF0A3024F171210170B
:104FD300EAFCEBFDAA18AB19121DE5850C82850DC1
:104FE30083A3A3A3A3A3A3A3A3E06401700E1250FE
:104FF30060126EC37408120977121DE512528612ED
:105003005079E04430F50878081209157401120943
:105013006F880889097808120911740B12096F88BF
:105023000889097808120911E514F50878081209A6
:10503300157900EEFCEFFD1250B3120E0174061247
:1050430008EE024DAC125286F583125089E50BF03F
:1050530012102F74101208EE7F0D02062DE50C249A
:1050630015F582E4350DF58322E50C2417F582E46A
:10507300350DF583E022F583E0F8123890A32290F2
:1050830003831252BA2212699CA3A3A3A3A322E50A
:105093000D75F006A4F8AAF0EAF974F628F58274FF
:1050A3001039F5831243E4E849227901AC08AD09CC
:1050B300125EF0350D1250BC22F583E0FAA3E0FB3B
:1050C3002274EE12041874F01209878A0C8B0DEC0B
:1050D300FAEDFB750F089004031250A76031126EAE
:1050E300C012117F8A088B09AC08AD09EC4D601F13
:1050F3008C828D83A3E07017125AF95001097A024A
:105103007B0012022FE88C828D83F0A37407F012C8
:10511300528612529EF50E88828983125290E0FACB
:10512300E4CAFBEC2AFEE43BFF88828983A3A31233
:105133005290A3A3E0FBECF508E43BF509888289D0
:1051430083A3A3A3A3A3A3A3E0F50BE50AA2E450BF
:1051530003750F10A2E550067408250FF50F748F21
:10516300550A700712506C650F600A7AD37B0012E0
:105173001F47025281530A707800E50AA2E4501FC8
:10518300E50C241D1250702408FCA3E03400FD74C8
:1051930008120977121DE57808E50AC2E4F50AE565
:1051A3000AA2E55022E50C241D12507028F8A3E052
:1051B3003400F9E82408FCE439FDAA18AB19121DE0
:1051C300E5E50AC2E5F50AA90EEEFAEFFB120EA316
:1051D3009028B81263095029891075110074037857
:1051E30010120A2E74572510F58274113511F583A8
:1051F300E0F8E50BC3985007E50BF07800800480D6
:105203007D7804900376E06E7003A3E06F605FE83F
:105213007019E50AF50F780F1209151252AD120E27
:105223002B74011208EEE970558005740468704E02
:10523300780A120915740112096F880C890D780C0C
:10524300120911740B12096F880C890D780C12095D
:1052530011E50EF50A780A120915A90BAC08AD0978
:10526300EEFAEFFB120E0174061208EE8010780AB4
:105273001209151252AD120E2B74011208EE74109E
:10528300024D08E50C241DF582E4350D22A3A3A3EA
:10529300E0FC88828983A3A3A3A3221249D0A3E0BD
:1052A300F50A88828983A3A3E0227901125EF0358F
:1052B3000DF5831252BA22E0FCA3E0FDAA08AB0964
:1052C3002274EB12041874F51209878A088B098C6F
:1052D3000A8D0B89147420120BA8E0F511F9120E34
:1052E300A3E9F50C9028B8126309501B750D0074DF
:1052F30003780C120A2E7455250CF5827411350DA2
:10530300F583124B72801E9003591250A76010AAA6
:1053130008AB091238911223CC8A0E8B0F800675C5
:105323000EFE750FFF7401120BA87408F07425129A
:105333000BA8E0F510A2E450087401120BA8741036
:10534300F0E510A2E550097401120BA8E02408F05F
:10535300AA18AB191210778A0C8B0DAE0CAF0DEE99
:105363004F700302546F1254741210171246A47430
:1053730021120BA8E0F512A3E0F513740312097FC1
:10538300AA0EAB0F120C39E96013EE2416125477F0
:10539300740312096FEE241812315E8027E510A200
:1053A300E45022E50E65087004E50F65097016EEFA
:1053B3002416125477EE2418F582E43FF583E512A0
:1053C300F0A3E513F0125497F50CA3E0F50D850C4B
:1053D30082F5837402F0A3E510125481E51112548F
:1053E30081A3E508F0E509850C82850D83A3A3A3BA
:1053F30012548FE50AF0E50B850C82850D83A3A378
:10540300A3A3A3A3F0AA0EAB0F120E67E92514857D
:105413000C82850D83A3A3A3A3A3A3A3F075080004
:10542300E510A2E45013AC12AD13E50C2408FAE422
:10543300350DFB121DE5750808E510A2E5501B7438
:1054430023120BA8126EC3E50C2508F8E4350DF9F9
:10545300E82408FAE439FB121DE58E828F83A3A3A7
:10546300E50EF0A3E50F1245E1120CE7740B0250B1
:1054730058EE2417F582E43FF5837401F0221254A9
:105483008522F0850C82850D83A3A322A312548564
:10549300A3A3A322124594E02274F41204188A08E9
:1054A3008B09ECFEEDFF750B01900376E065087048
:1054B30004A3E065096013750B00780B120915123C
:1054C30010D174011208EEE9F50B7900AA08AB09B3
:1054D300120EB58A088B09A808A909900376E0681B
:1054E3007003A3E06970467900EEFAEFFB120EA990
:1054F300EA4B60308A828B83A3A3A3A3A3A3E054C4
:105503001860217508FE7509FF78081209118A824F
:105513008B83A3A31206FC126E1D120EC174041218
:1055230008EE80097901EEFAEFFB120D7DA90B025B
:105533004A4374F21204187EDA7F0F7A107B0090CC
:1055430003D0E0F9121DC1EA4B4C4D70179082371E
:105553001206F87A107B009003D0E0F9121DB5749F
:10556300041208EE900361E014F0600302561790F2
:1055730028AFE493900361F07C0079057A007B0007
:10558300120FA58A088B0902560E7C007905AA081A
:10559300AB09120FA58A0A8B0B850882850983A3A1
:1055A300A3A3A31250A7605DE5082404F8E435091A
:1055B300F988828983125735888289831250A770AC
:1055C30044850882850983A3A3A3A3A3A3E054046A
:1055D3006013850882850983A3A3A3A3A3A3A3A31D
:1055E300E0F9120E91850882850983A3A3A3A3A3DF
:1055F300A3A3A3A37406F07AF08508828509831216
:10560300638E120EFD850A08850B09E508450960BE
:105613000302558D75080080608E828F83A3A3A338
:10562300A3E0604CF46049EE2404125ECD14F070E4
:105633003F8E828F83A3A3A3A3A3E0640370157992
:10564300028E828F83126EC38E828F83A3A312571F
:10565300DF120E078E828F83A3A3A3A3A3E06401AB
:10566300600E8E828F8374FEF0A30412571FE4F042
:105673000508EE2407FE50010F9028B21256FE4093
:10568300987E008039120FC98E087509007403785B
:1056930008120A2E74522508FC74113509FD7A1379
:1056A3007B0E120FB7EA4B70DC8E0875090074038A
:1056B3007808120A2E125706125BFBE4F00E9028AC
:1056C300B8126C49501B8E087509007403780812D0
:1056D3000A2E125714E82407126FAC14F070DE8000
:1056E300A77B008009EB125723600214F00B90286C
:1056F300AE125AE640EF80479028AEE493F8E508EF
:10570300C3982212571488828983A374FEF0A304DA
:105713002274522508F874113509F9221264C22241
:1057230075F006A4F8A9F074F228F5827410126FCC
:10573300B322E024FFF0A3E034FFF0221208EE7F4F
:105743000602062D74F712041874DF120987ECFEA3
:10575300EDFF750800EE4F6069123A5FC8241FF52C
:1057630082E4381250A5605A8A828B831257DFACC9
:1057730018AD19EA241EF582E4125804F9EA241F2D
:1057830012290B120FFF740B120BA81257E37003AD
:10579300A3E069702D7402120BA8E06401702374F6
:1057A3001D120BA8125851E064017016741D120BE0
:1057B300A812507DA3E0F88E828F83E06870037592
:1057C3000801A90874210243FAE50D75F006A4F84F
:1057D300EAF974F628F582741039F5831250BE2263
:1057E3001257E9E068221257ED221243E88E828FA6
:1057F30083A32275F016A4FAABF074A02AF5827481
:105803000C3BF583E02274F4120418E97024790048
:1058130090035B1258511223CC8A0A8B0BAE0AAF4A
:105823000B74FE6E700374FF6F701A9028A4E493D8
:105833006013790190035B1258511223CC8A0A8BAF
:105843000BAE0AAF0B12104102390F90035D1269C0
:105853009C2274F612041874F3120987121C418AED
:10586300088B09AE08AF09900376E06E7003A3E0DE
:105873006F60E9121023EA6E7002EB6F60DEEEFADE
:10588300EFFB12108FE970D4EE4F60D0851882853C
:105893001983E4F004120BA8EEF0A3EF1243D6121F
:1058A3000C51E970B774FE6E700374FF6F60ADEE58
:1058B300FAEFFB740D0232A5C082C08312104102BD
:1058C3003F7239F5831243E4EE2274F2120418EAAC
:1058D300FEEBFF8C0A8D0B890874FC6E700374FF5A
:1058E3006F7003025AC07900120EB58A0C8B0DAE8D
:1058F3000CAF0D740E120BA8E0F509900376E06E61
:105903007003A3E06F7009E509A2E64003025AC0E1
:10591300A909120EA98A0C8B0DA80CA90DE84970D0
:105923004679007AFE7BFF120EA98A0C8B0DA80C18
:10593300A90DE84970317418550960267B00800170
:105943000B9028B2125AE65019EB75F007A4F8A988
:10595300F0126C50541870E874DA28F8740F39F99F
:10596300801D7902025AC288828983A3A3A3A3A3B9
:10597300A3E054186009741855097003025AC088CB
:10598300828983EEF0A3EFF074FE650A700474FF5E
:10599300650B600A88828983A3A3125AEDF088827B
:1059A3008983A3A3A3A3A3A3E509F0A2E0500D88D1
:1059B300828983A3A3A3A3A3A3D2E2F074016508FE
:1059C30088828983A3A3A3A3A370357401125B0404
:1059D300E0541860259028A8E49388828983A3A3C0
:1059E300A3A3126EBFAA0AAB0B12117F8B0DEA455C
:1059F3000D6003025AC07E008031900375E080DAA7
:105A0300E064017003025AC088828983A3A3A3A31D
:105A1300A3A3E0541860079028A8E493800490039C
:105A230074E01249B5E508025ABF0E9028AB126C18
:105A3300494003025AC07D00802BED75F007A4F89E
:105A4300A9F074DC28F582740F1258C575F017A4F9
:105A5300FAABF0746A2AF582740E125B177003A313
:105A6300E06960C60D9028B212347440CDE4936DA2
:105A730070B8EE75F017A4F8A9F0746A28FE740ED6
:105A830039FF7C177D007900EEFAEFFB121C298E9B
:105A9300828F83125AEDF0900383125B091243C184
:105AA300125AC574AAF0125ACF7401125AF4500153
:105AB300097A027B0012022F125AD9E8F079000208
:105AC3005742EE240FF582E43FF58322EE240EF5D0
:105AD30082E43FF58322EE240DF582E43FF5832231
:105AE3009028B4E493F8EBC39822E50AF0A3E50BFE
:105AF30022F0125AF9229028B7E49379002401F88E
:105B0300221249C1A322125B0FA3A3221257EDA3B2
:105B130022F582E43BF583E0682274F21204188ACA
:105B2300088B09890C12630240057905025BF812A0
