:020000040000FA
:06000000020B050201D411
:03001B000201F6E9
:03002B000207DDEC
:030033000207B70A
:0300530002011493
:0300730002024640
:1000830002016801FF01010503010F10FEFFDA25DC
:1000930000000000AE2400000000FF000000FF008D
:1000A3000101881300000020FD00020000491A002E
:1000B3000000000000031B0000000000000000001F
:1000C300000000000000000000000000000000002D
:1000D3000000000000000006FFFF010200B711004E
:1000E3000000E803FFFF2C12E8036400020200088B
:1000F30000000502070101051E02051E020A0A018E
:1001030003B80B02803E0102E8030A050001220442
:1001130014C0E074F212048DA2AFE433F508D2AF39
:10012300AFA7AEA1EE5F541060061217D375A1EF0F
:10013300EE5F540860081217D975A1F78023EEA269
:10014300E092F0EFA2E082F05017906198E0F8900F
:100153000ACDE0C398A2D265D0335002E8F075A16E
:10016300FEE5088063C0E074F212048DA2AFE433AD
:10017300FED2AF9061A4E0F8759B00E59158540856
:1001830060087591F71218218023E5915854106087
:10019300087591EF1218278014E591A2E092F0E818
:1001A300A2E082F05007E0C2E0F01219719061A35F
:1001B300E0F8E5E9585404600E12194775E9FB901D
:1001C3006193E0A2E640F2EEA2E092AF7F01020467
:1001D300ECC0E074F212048DA2AFE433FED2AF9010
:1001E30061A5E0F8E5BF585404600675BFFB12191A
:1001F3008980D4C0E074F212048DA8F9E8C0E090BD
:100203000A33E0F874B228F582E43409F583D0E0C8
:10021300F0900A32E0F8A3E0687006E595900A359D
:10022300F0900A33E004F0C394804002E4F0A37436
:10023300C6F0900A33E0C3941D40031217437F01B5
:100243000204ECC0E0C0D0E8C0E0E9C0E0C082C076
:1002530083900AB6E0F8A3E0687008539AF7A37492
:10026300018022C2EA900AB6E0F8740128F07436DD
:1002730028F582E4340AF583E0F5F9900AB6E0C381
:1002830094804002E4F0D083D082D0E0F9D0E0F84B
:10029300D0D0D0E032C3E498F8E499F91202D980BF
:1002A30026C3E49AFAE49BFBE920E7E91202D9E4C6
:1002B30098F8E499F922C3E498F8E499F91202D979
:1002C300E498F8E499F9C3E49AFAE49BFB22EB205F
:1002D300E7CFE920E7E0B90010BB0008E88AF08423
:1002E300F8AAF022E4FBC8FA22EB70227B10C83391
:1002F300C8C933C9335007C39AC3DBF280069A5087
:10030300012ADBEAC833F4C8C933F4C9FA2275F009
:1003130008E4C833C8C933C933C99AC99B5004C94F
:100323002AC93BD5F0ECFBC833F4C8E4C9FA220868
:100333000808EAC0E0EBC0E086F0E7A4FA180986F3
:10034300F0E7A42AFA180986F0E7A42AFA1809861E
:10035300F0E7A42AFA1986F0E7A4FBE5F02AFA19D4
:100363000886F0E7A42BFBE5F03AFA190886F0E7D4
:10037300A42BFBE5F03AFA18180986F0E7A4C5F0B8
:100383002BFBE43AFA1908E7C5F0C6A426F6E5F014
:100393003BFBE43AFA1886F0E7A4F6E5F00826F604
:1003A300E43B08F6E43A08F6D0E0FBD0E0FA22E4B6
:1003B300CFC0E0E4CEC0E0E4CDC0E0E4CCC0E07563
:1003C300F020E626F608E633F608E633F608E633C9
:1003D300F6181818EC33FCED33FDEE33FEEF33FF64
:1003E300C3EC9709ED9709EE9709EF97191919408F
:1003F3000FFFEC97FC09ED97FD09EE97FE1919061F
:10040300D5F0BFECF709EDF709EEF709EFF7191986
:1004130019D0E0FCD0E0FDD0E0FED0E0FF222518AB
:10042300C582C0E0E51934FFC583C0E0E518C39574
:100433008224F810AF088583198582188008858384
:1004430019858218D2AFCEF0A3E520F0A37808E691
:1004530008F0A3DEFAEFF0A3E58124FAF8E608F04A
:10046300A3E608F0A3E608F0A30808E608F0A3E66D
:1004730008F0A315811581D0E0FED0E0F8158115B1
:10048300811581E8C0E0EEC0E022C0D02518C58206
:10049300C0E0E51934FFC583C0E0E518C3958224A5
:1004A300F310AF0885831985821880088583198521
:1004B3008218D2AFC8F0A3E9F0A3EAF0A3EBF0A34C
:1004C3007908E709F0A3D8FAECF0A3EDF0A3EEF076
:1004D300A3EFF0A3D0E0F0A3D0E0F0A3D0E0F0A32B
:1004E300E520F0A3E5F0F0A322851983851882E0C7
:1004F300C0E0A3E0F9A3E0FAA3E0FBA37808E0F6E9
:1005030008A3DFFAE0FCA3E0FDA3E0FEA3E0FFA362
:10051300E0C0E0A3E0C0E0A3E0F5D0A3E0F520A3B2
:10052300E0A3F5F010AF088583198582188008854C
:100533008319858218D2AFD082D083D0E0F8D0E07F
:1005430032120B8BB90003020583E490030178B5E3
:1005530079108002F0A3D8FCD9FA7AB57B12900007
:1005630086788F79018015E493A3AD82AE838A8266
:100573008B83F0A3AA82AB838D828E83D8E9D9E7DC
:100583007582127583CF74041208A3758273758301
:100593002374001208A3E4730C75F0108E1A8F1BDA
:1005A30085821F85831E851882851983E0CEA3E08B
:1005B300CF851F82851E83EBC9EAC8EDCBECCAC386
:1005C300E833C8E933C9EA33CAEB33CBC3EA9EF550
:1005D3001DEB9FF51CB35004AB1CAA1DEC33CCEDF3
:1005E30033CDD5F0DAAE1AAF1B22D083D082ECC064
:1005F300E0EDC0E0E493A3FCE493A3FDED4C600DB8
:100603001206C5EC24FFFCED34FFFD80EFE493A359
:10061300FCE493A3FDED4C600D120762EC24FFFC98
:10062300ED34FFFD80EFD0E0FDD0E0FCE493A3C008
:10063300E0E493C0E022D083D082E9C0E0E493A356
:10064300C386F0C5F095F0F908E493A386F0C5F0EE
:1006530095F0700BE493A3C3994005E9048002A3CA
:10066300E475F002A42582F582E5F03583F583D0A5
:10067300E0F9E493A3C0E0E493C0E0228519838505
:100683001882E0A3FEE0A3F5207808E0A3F608DFD4
:10069300FAE0A3FFE0A3C0E0E0A3C0E0E0A3C0E072
:1006A300E0A3C0E0E0A3C0E010AF08858218858313
:1006B300198008858218858319D2AFD083D082022E
:1006C30008A9C0E0C3E49396087401939618400FF9
:1006D300E49366700808740193661870007019A398
:1006E300A3C3E49396087401939618A3A3400DD073
:1006F300E0D0E0D0E0020629A3A3A3A3A3A3D0E004
:10070300227404800474028000CCC0E0EDC0E0E5F4
:1007130018C39CCCAD1950011D10AF068C188D1950
:1007230080068C188D19D2AF120825D0E0FDD0E0D9
:10073300FC2274028000CCC0E0EDC0E0E518C39C4D
:10074300CCAD1950011D10AF068C188D1980068C85
:10075300188D19D2AF120803D0E0FDD0E0FC22C0FF
:10076300E0C0F088F0E4936670080874019366189B
:100773007000A8F0A3A3700BD0F0D0E0D0E0D0E0DD
:10078300020629A3A3D0F0D0E022D083D082CCC02C
:10079300E0E493A360061208841470FAE493A36060
:1007A3000612098B1470FAD0E0FCE493A3C0E0E4D2
:1007B30093C0E022C0E074F212048DA2AFE433FED2
:1007C300D2AFE58BA2E050031216C5758B00C2E8C9
:1007D300EEA2E092AF7F010204ECC0E0C0D0E8C01B
:1007E300E0E9C0E0A9A8D2AFC2C7E9A2E7E433F8C1
:1007F300E9A2E792AFD0E0F9D0E0F8D0D0D0E03270
:10080300CAC0E0E493A3C582CCC582C583CDC583AA
:10081300F0A3C582CCC582C583CDC583DAE5D0E01C
:10082300CA22CAC0E0E0A3C582CCC582C583CDC5B8
:1008330083F0A3C582CCC582C583CDC583DAE6D058
:10084300E0CA227009080808226016181818C6C3DF
:1008530033C608C633C608C633C608C633C6D5E092
:10086300EA22C008C3E096F50808A3E09642080808
:10087300A3E096420808A3E09645087001D3D00888
:1008830022C0E0E493A3D39C5010E493A3C39C4001
:100893000AD0E0D0E0D0E00207AAA3A3A3D0E022CD
:1008A300C09FF59FE473D09F22D083D082C09FE482
:1008B30093C0E0740193C0E0740293F59F2200C0DB
:1008C300D0251810AF08F518500C05198008F51835
:1008D30050020519D2AFD0D0222518F58210AF08E7
:1008E300F518400C15198008F51840021519D2AFF8
:1008F300851983227404800A7403800674028002BB
:100903007401C0E0F4041208DCD0E0120B4222BBF5
:100913000102E722C082C08389828A83BB0003E08D
:100923008002E493D083D082226016080808C6C3ED
:1009330013C618C613C618C613C618C613C6D5E001
:10094300EA222518F8E43519F9222518FAE43519AD
:10095300FB222518FCE43519FD22C3E0C696F608F0
:10096300A3E0C696F608A3E0C696F608A3E0C696EB
:10097300F622251810AF08F518400C15198008F554
:100983001840021519D2AF22C0E0E493A36C70099A
:10099300D0E0D0E0D0E00207AAA3A3D0E022E06633
:1009A300701008A3E066700A08A3E066700408A349
:1009B300E06622C3E09608A3E09608A3E09608A3A6
:1009C300E096A2D265D03322E76670100809E76685
:1009D300700A0809E76670040809E76622C3E0960F
:1009E300F008A3E096F008A3E096F008A3E096F0E1
:1009F30022C3E697F60809E697F60809E697F6088C
:100A030009E697F622C3E493960874019396087453
:100A1300029396087403939622700422600D18C6FD
:100A2300C333C608C633C6D5E0F41822E647F60832
:100A330009E647F60809E647F60809E647F622E01D
:100A430026F008A3E036F008A3E036F008A3E0366A
:100A5300F022E627F60809E637F60809E637F6082E
:100A630009E637F622E657F60809E657F60809E6D7
:100A730057F60809E657F622E056F008A3E056F0C9
:100A830008A3E056F008A3E056F022E026F608A3F8
:100A9300E036F608A3E036F608A3E036F622E05681
:100AA300F608A3E056F608A3E056F608A3E056F6C8
:100AB30022E4C396F608E496F608E496F608E4966C
:100AC300F622600D08C6A2E713C618C613C6D5E002
:100AD300F322C6F4C608C6F4C608C6F4C608C6F4AC
:100AE300C622C3E7960809E7960809E7960809E7C7
:100AF3009622C3E09608A3E09608A3E09608A3E035
:100B0300962275D00075813F75180175190300028F
:100B13000544E6F008A3E6F008A3E6F008A3E6F030
:100B230022600C08C6C313C618C613C6D5E0F42248
:100B3300E0F608A3E0F608A3E0F608A3E0F622CA6D
:100B4300C0E0E6F0A308DAFAD0E0FA22E8F0A3E97D
:100B5300F0A3EAF0A3EBF022E0F8A3E0F9A3E0FAB4
:100B6300A3E0FB22ECF0A3EDF0A3EEF0A3EFF02261
:100B7300E0FCA3E0FDA3E0FEA3E0FF22E0FAA3E094
:100B8300FBA3E0FCA3E0FD22E5C754F84401F5C74D
:100B93007901222518F582E43519F58322C2AF7550
:100BA300D69F020000221208ACC4B1021208AC5155
:100BB300B4021208ACAAB5021208AC3DB602120880
:100BC300ACC7B6021208AC2DB7021208AC6CB70260
:100BD3001208ACE2B7021208AC37B9021208ACDA59
:100BE300B9021208ACF2B9021208AC95BA021208A3
:100BF300AC1FBD021208ACC0BE021208ACDEBE02BE
:100C03001208ACE127001208AC3B28001208ACA57F
:100C130028001208AC2E29001208ACEA2900120899
:100C2300AC792A001208AC922A001208ACB72A0049
:100C33001208ACF52A001208AC442B001208AC6D64
:100C43002B001208ACBC2B001208AC682C00120855
:100C5300AC302D001208AC952D001208AC622E00AA
:100C63001208ACA82E001208ACC42E001208ACF671
:100C73002E001208AC9E30001208AC753100120829
:100C8300ACA131001208ACD531001208ACF631002A
:100C93001208AC0532001208AC1032001208ACC4C2
:100CA30032001208AC3733001208ACA93300120823
:100CB300ACB133001208ACD434001208AC073500D1
:100CC3001208ACC935001208AC7836001208ACC063
:100CD30036001208AC2237001208AC47370012085E
:100CE300ACBF37001208AC4738001208ACAB380071
:100CF3001208AC9039001208ACB539001208ACD612
:100D03003A001208ACE93A001208AC7D3B00120825
:100D1300ACC73C001208ACD73C001208ACE63D005F
:100D23001208AC5F3E001208ACA13E001208ACDD15
:100D33003E001208ACB140001208AC164300120882
:100D4300AC2A43001208AC3443001208AC3E430003
:100D53001208AC4843001208AC5243001208AC6BB3
:100D630043001208AC7543001208AC7F430012081D
:100D7300AC8943001208ACB143001208ACBC430079
:100D83001208AC0644001208AC1044001208AC1B55
:100D930044001208AC3F44001208AC63440012083C
:100DA300ACC444001208AC0F45001208AC2B45003C
:100DB3001208AC9545001208ACE145001208AC29B5
:100DC30046001208ACA446001208AC3E47001208C5
:100DD300AC0249001208AC7049001208ACA24A00E8
:100DE3001208ACC84A001208AC384C001208ACEC2C
:100DF3004F001208ACEC51001208ACC453001208A7
:100E0300AC5D54001208AC6F56001208AC315700A9
:100E13001208AC7D57001208ACE357001208ACF57A
:100E230057001208AC455A001208AC725B00120856
:100E3300ACC45B001208AC695C001208AC245E0011
:100E43001208AC555F001208AC735F001208ACC8FF
:100E53005F001208ACC660001208ACEE6000120816
:100E6300AC5161001208AC5262001208ACC56200BA
:100E73001208ACF363001208AC5E64001208AC4EB7
:100E830065001208ACB467001208ACE267001208F0
:100E9300ACDD68001208AC7B6A001208ACCB6A00B8
:100EA3001208AC836B001208AC386C001208AC9CBF
:100EB3006C001208AC556D001208ACF56D001208F9
:100EC300AC596E001208ACA36E001208ACE06E00C1
:100ED3001208AC4870001208AC1C82011208AC5412
:100EE30082011208AC2D85011208AC73850112082A
:100EF300AC9086011208ACF586011208AC46880155
:100F03001208AC378B011208AC568C011208AC2BBB
:100F130097011208ACCC97011208ACBF9A011208D2
:100F2300ACBF9B011208AC479C011208AC979D0112
:100F33001208AC7E9E011208ACE7A0011208ACF5C2
:100F4300A2011208AC82A3011208AC5EA40112082C
:100F5300AC87A4011208AC34A5011208AC1FA6018A
:100F63001208ACF7A6011208AC57A7011208AC800F
:100F7300A7011208ACADA7011208ACFEA901120823
:100F8300ACD9AA011208AC1DAB011208AC8EAB019F
:100F93001208AC47AC011208AC79AC011208ACC022
:100FA300AC011208ACF3AC011208AC58AD01120845
:100FB300ACA7AD011208ACACAD011208AC00AE0198
:100FC3001208AC4AAE011208AC46AF011208ACAB32
:100FD300AF011208AC12B0011208AC37B30112080A
:100FE300AC0BB4011208AC75B5011208AC4FB801D3
:100FF3001208ACF7B8011208AC1EBB011208ACC34F
:10100300BB011208AC01BC011208ACDABD01120825
:10101300ACEDBD011208ACF6BD011208ACFFBD0179
:101023001208AC14BE011208AC33BE011208AC1294
:10103300C0011208AC7CC0011208ACCBC10112087C
:10104300AC14C2011208ACF4C2011208AC1FC401F3
:101053001208ACD5C4011208ACD7C5011208ACD92B
:10106300C6011208ACBFC7011208ACD6C7011208EB
:10107300AC13C8011208AC1DC8011208AC28C80182
:101083001208AC46C8011208AC88C8011208ACE6C5
:10109300C8011208AC0BC9011208AC25C90112081A
:1010A300ACB2C9011208ACEBC9011208AC39CB01CF
:1010B3001208AC8BCB011208ACA5CC011208ACCC46
:1010C300CC011208AC68CD011208ACE4CD011208C2
:1010D300AC30CF011208AC4BD0011208AC11D101D6
:1010E3001208ACBBD1011208AC40D2011208ACA863
:1010F300D2011208AC5DD3011208ACAFD3011208C0
:10110300AC15D4011208ACDED4011208AC01D50130
:101113001208ACB9D5011208ACDDD5011208ACFF39
:10112300D5011208AC60D6011208ACABD801120885
:10113300AC86D9011208AC30DA011208AC71DC01BB
:101143001208ACBFDC011208AC02DD011208AC5A74
:10115300DD011208ACB8DD011208ACE2DD011208B2
:10116300AC06DE011208AC37DE011208AC61DE0109
:101173001208ACA8DE011208ACFCDE011208AC5860
:10118300DF011208AC59E0011208ACC3E1011208F7
:10119300AC01E2011208AC2AE2011208ACBBE20185
:1011A3001208AC05E3011208AC29E3011208AC7C78
:1011B300E3011208AC97E3011208AC52E4011208F0
:1011C300AC7CE4011208ACBFE4011208AC15E501E4
:1011D3001208AC21E8011208AC54E8011208AC1162
:1011E300E9011208ACECE9011208AC7CEA0112082F
:1011F300ACBDEA011208AC0080041208AC388004CC
:101203001208AC5980041208AC9B80041208ACFF8E
:1012130080041208AC0981041208AC198104120875
:10122300AC5081041208ACF984041208ACC18604E2
:101233001208ACB588041208AC5389041208ACDA5E
:1012430089041208AC64BF021208AC0DC002120874
:10125300ACECC0021208AC07C2021208AC27C202EF
:101263001208AC49C3021208ACE6C4021208AC531C
:10127300C5021208AC29C6021208AC2FC702120815
:10128300AC94C7021208ACD0C7021208AC29C8023A
:101293001208AC62C8021208ACABC8021208AC3D1B
:1012A300C9021208ACDAC9021208ACAFCA021208AA
:1012B300AC7CCB021208AC09CC021208AC2FCC02D6
:1012C3001208AC5CCC021208AC8DCC021208AC62E2
:1012D300CD021208AC72CD021208ACC5CD021208C1
:1012E300ACD2CD021208ACDFCD021208ACE8CD02BD
:1012F3001208AC4CCE021208ACAACE021208ACF50E
:10130300CE021208AC10CF021208AC37CF0212087B
:10131300AC54CF021208AC60CF021208AC04D10265
:101323001208AC1DD1021208AC99D1021208ACAC60
:10133300D1021208ACBCD1021208AC62D20212086C
:10134300ACD2D3021208ACE5D4021208AC85D502A4
:101353001208AC8FD5021208ACFDD5021208AC0EF0
:10136300D6021208AC4DD6021208AC7BD602120884
:10137300AC48D7021208AC9FD7021208ACE4D702DC
:101383001208AC3AD8021208AC58D8021208ACA61C
:10139300D8021208AC74D9021208ACC2D9021208DE
:1013A300AC04DA021208AC87DA021208ACB1DA0232
:1013B3001208ACE7DA021208ACF6DA021208AC54EF
:1013C300DB021208ACCCDB021208AC0DDC02120803
:1013D300AC5CDC021208AC87DC021208ACA1DC02B4
:1013E3001208ACBBDC021208AC90DD021208AC9A06
:1013F300DD021208ACD5DD021208ACE5DD021208ED
:10140300AC36DE021208AC4ADE021208AC68DF0218
:101413001208AC7DDF021208AC17E0021208AC968A
:10142300E0021208AC39E1021208AC44E1021208EE
:10143300AC91E2021208ACADE2021208AC05E30281
:101443001208AC73E3021208ACBFE3021208ACD972
:10145300E3021208AC39E4021208ACD7E402120822
:10146300AC22E5021208AC85E7021208AC1DE802C3
:101473001208AC94E8021208ACDAEA021208ACF2E1
:10148300EA021208ACF5EA021208AC01EB021208F8
:10149300AC15EB021208AC1DEB021208AC54EB02C4
:1014A3001208AC48EC021208ACD2EC021208AC549D
:1014B300ED021208ACC9ED021208ACA1EE0212084B
:1014C300ACC3EE021208AC5AEF021208AC66EF028C
:1014D3001208ACC3EF021208ACC6EF021208AC3517
:1014E300F0021208AC81F1021208AC94F202120865
:1014F300AC1FF3021208AC32F4021208ACFCF40283
:101503001208AC2DF5021208AC53F5021208AC5CBC
:10151300F5021208AC8BF5021208AC3BF602120876
:10152300ACEBF6021208AC5EF7021208AC10F8023C
:101533001208AC83F8021208ACC2F8021208AC0B12
:10154300F9021208ACDCE0031208AC47E10312080D
:10155300AC93E1031208ACE3E1031208AC67E203C6
:101563001208ACABE4031208ACC9E6031208AC4999
:10157300EA031208AC84EA031208ACA2EA031208D5
:10158300AC02EB031208AC2AEB031208AC5BEB03CF
:101593001208AC88EB031208ACF1EB031208AC7928
:1015A300C8031208ACF5C8031208AC21C90312081A
:1015B300AC53C9031208ACB5CA031208ACD1CA03B1
:1015C3001208AC0FCB031208AC9CCB031208ACF887
:1015D300CB031208ACBECC031208AC7DCD031208BA
:1015E300ACC2CD031208AC23CE031208AC98CE03D1
:1015F3001208ACC1CE031208AC02CF031208ACA987
:10160300D0031208AC8DD1031208AC44D2031208E4
:10161300AC31D3031208AC6BD3031208ACC3D303AE
:101623001208ACE5D3031208AC7DD4031208AC2432
:10163300D5031208AC68EB041208AC64CC0412089E
:10164300AC83CC041208AC99CC041208AC84CE044D
:101653001208ACC3B3041208AC35B4041208AC15B9
:10166300E9041208AC26E9041208ACC4E904120820
:10167300AC90DE041208AC9EDE041208ACF7EC0456
:101683001208ACDEE9041208ACEEE9041208AC0659
:10169300EA041208AC6EEA041208AC1EE70412084E
:1016A300ACA2E7041208AC08E8041208ACDEE104BB
:1016B3001208AC00E2041208AC6DE2041208ACB5E7
:1016C300E2041208AC0EE3041208AC33A3021208BE
:1016D300AC0BDB041208AC43DB041208AC64DB0480
:1016E3001208ACD9DB041208ACBADC041208AC0350
:1016F300BB041208AC11BB041208AC8ABB04120869
:10170300AC5FBC041208AC1EBE041208AC33EC047C
:101713001208AC31D4041208AC82D4041208AC1BF6
:10172300D5041208AC7DD5041208ACFBD50412080D
:10173300AC46B1021208AC2CD6041208AC2FD60466
:101743001208AC6CD6041208ACACD1041208ACBEBF
:10175300D1041208AC84D2041208AC54D304120886
:10176300AC74D3041208ACFDD3041208AC40F902E4
:101773001208AC6CF9021208AC12FC021208AC6934
:10178300FC021208ACA5FC021208ACB9FC02120858
:10179300ACD2FC021208ACC3FD021208AC9FFE02DD
:1017A3001208ACB3FE021208AC7EFE031208ACA210
:1017B300FE031208ACBBFE031208ACF9FE031208C9
:1017C300AC2FFF031208AC62FF031208ACCEFF0379
:1017D3001208ACD1FF031208ACDBFF031208ACE81C
:1017E300FF031208AC03C7041208AC26C70412088F
:1017F300AC71C7041208AC8FC7041208ACAAC704A3
:101803001208AC10C8041208AC1CC8041208AC7946
:10181300C8041208AC9DC8041208AC63C9041208BA
:10182300AC70C9041208AC81C9041208ACF2EB0411
:101833001208AC0AEC041208AC30EC041208AC50E9
:10184300A7041208ACE6A8041208ACF4A804120812
:10185300AC08A9041208AC25A9041208AC3AA904DF
:101863001208AC4DA9041208ACCFA9041208AC3479
:10187300AA041208ACCAAA041208ACA3AB04120847
:10188300ACB3AB041208ACC2AB041208AC407F008B
:101893001208AC647F001208AC8C7F001208ACB451
:1018A3007F001208AC6CC1041208ACD8C104120842
:1018B300ACF7C1041208AC6CC2041208AC36C40401
:1018C3001208AC4FC4041208AC66C4041208AC6F0F
:1018D300C4041208AC8DC4041208AC97C4041208E3
:1018E300ACA1C4041208ACB4C4041208AC41C504CE
:1018F3001208ACAAC5041208ACD8C5041208AC2956
:10190300C6041208AC75C6041208AC90C6041208CB
:10191300AC9AC6041208ACABC6041208ACEEC604FB
:101923001208AC80EA041208AC2A94041208AC56DC
:1019330094041208AC7994041208AC8C9404120831
:10194300ACA794041208AC0795041208AC359504AF
:101953001208AC3999041208AC769A041208ACA8A0
:101963009A041208AC0F9B041208AC8F9C04120853
:10197300ACB79C041208ACCC9C041208ACDC9C04ED
:101983001208AC1C9D041208AC5E9D041208AC6ED8
:101993009D041208AC4DE3041208AC5DE304120885
:1019A300AC81E3041208ACAAE3041208ACD4E30448
:1019B3001208ACF8E3041208AC0FE4041208AC3DBF
:1019C300E4041208AC60E4041208ACAEEB041208A1
:1019D300AC75B7041208AC85B7041208ACA1B804FF
:1019E3001208ACD3B8041208ACF9B8041208AC213D
:1019F300B9041208AC33B9041208AC6FB904120865
:101A0300ACD5B9041208AC11BA041208AC56BA0426
:101A13001208AC83BA041208ACAFBA041208ACDCE7
:101A2300E5041208ACFAE5041208AC5CE6041208FB
:101A3300AC09E7041208AC21E8041208AC3EE00448
:101A43001208AC8FE1041208AC3CEC031208ACF2B0
:101A5300EC031208AC17ED031208AC37ED031208C0
:101A6300AC4BED031208ACA7ED031208ACCBED03AE
:101A73001208AC46EF031208AC6EF0031208AC4830
:101A8300F1031208ACA5F1031208ACDBF103120851
:101A9300AC5DF2031208ACB6F2031208ACD7F20342
:101AA3001208AC59F3031208AC8EF3031208ACF11D
:101AB300F3031208ACAFF5031208AC7BF60312086C
:101AC300ACB3F6031208AC07F7031208ACC5DC0489
:101AD3001208ACE6DC041208AC19DE041208AC43AD
:101AE300DE041208ACAFC9041208AC23CA041208FE
:101AF300AC2ECA041208AC4FCA041208ACBB700067
:101B03001208ACBE70001208AC9071001208ACCC85
:101B130071001208AC0C72001208AC3E720012087D
:101B2300AC6C72001208ACA972001208ACD7720038
:101B33001208ACD573001208AC1C74001208AC5E1A
:101B430074001208ACD774001208AC747500120844
:101B5300AC9775001208AC0176001208AC6F7700E1
:101B63001208AC2778001208AC1479001208AC01F3
:101B73007A001208ACBA7A001208ACEF7A001208A5
:101B8300AC5B7B001208ACF67B001208AC247C0033
:101B93001208ACCC7D001208AC4A7E001208AC8A55
:101BA3007E001208ACC2D8041208ACE5D8041208AF
:101BB300ACD6D9041208ACB6DA041208AC98E40423
:101BC3001208ACCEE4041208ACEAE4041208AC2C0C
:101BD300E5041208AC3CE5041208ACCFE504120896
:101BE300ACD9E5041208AC868A041208AC908A04C6
:101BF3001208ACD78A041208AC408B041208AC61FB
:101C03008B041208AC7A8B041208AC2C8C041208D7
:101C1300AC968E041208AC9F8E041208ACF08E04AE
:101C23001208AC268F041208AC3D8F041208ACAA2C
:101C33008F041208AC3A90041208AC709004120896
:101C4300ACB990041208AC1A91041208AC54910474
:101C53001208ACBC91041208AC0F92041208AC52E7
:101C630092041208AC8F92041208ACA192041208D9
:101C7300ACB392041208ACD292041208ACDB920407
:101C83001208ACA093041208ACEC93041208AC9EA7
:101C93009D041208ACE49E041208AC0D9F041208C4
:101CA300AC1E9F041208AC36A1041208AC56A10462
:101CB3001208ACCBEA041208AC7ED6041208ACB40A
:101CC300D6041208AC03D7041208AC5FD804120878
:101CD300AC5DB4031208AC9BB5031208ACD7B503D3
:101CE3001208ACA6B7031208ACD0B7031208AC674E
:101CF300BA031208ACA7BA031208AC3DBC0312081E
:101D0300ACD2BC031208AC30BD031208ACB6BD03A1
:101D13001208ACEEBD031208AC30BE031208ACA12E
:101D2300BF031208AC25C1031208AC4EC30312084B
:101D3300AC7CC3031208ACA8C3031208ACB1C30341
:101D43001208AC07C4031208AC97C4031208AC9A78
:101D5300C7031208AC1CC8031208ACD97F001208D1
:101D6300ACEF7F001208ACF3AB041208AC0CAC046C
:101D73001208ACB1AC041208ACF1AC041208AC0A02
:101D8300AD041208AC3DAD041208AC8AAD041208D0
:101D9300ACBEAD041208AC00AE041208ACE9AF044B
:101DA3001208ACC7FE021208AC39FF021208AC7766
:101DB300FF021208ACB8FF021208ACE29E0312083D
:101DC300AC3A9F031208ACC29F031208ACCAA0032B
:101DD3001208ACA8A1031208AC4FA2031208AC9BD3
:101DE300A2031208ACF4A2031208AC49A30312081D
:101DF300ACB8A3031208ACF8A3031208ACF4A40311
:101E03001208AC4FA5031208AC6BA5031208ACBBB8
:101E1300A5031208ACF4A5031208AC13A603120819
:101E2300AC5EA6031208AC74A6031208AC8BA6031F
:101E33001208ACBAA6031208ACCCA6031208AC97DE
:101E4300A7031208ACA2A7031208AC1CA80312082C
:101E5300AC6FA8031208ACAEA8031208ACDFA8034A
:101E63001208AC42AB031208AC73AB031208AC9577
:101E7300AC031208ACB9AC031208AC34AD031208BE
:101E8300AC06AE031208AC48AE031208ACB2AE0304
:101E93001208AC5DAF031208AC87AF031208AC9114
:101EA300AF031208AC9BAF031208AC9EAF0312083A
:101EB300AC06B0031208AC3FB0031208AC52B00337
:101EC3001208AC7FB0031208ACBAB0031208ACBD61
:101ED300B0031208ACC7B0031208ACF6B003120883
:101EE300AC10B1031208AC2BB1031208AC5AB10306
:101EF3001208AC7AB1031208ACB7B1031208ACF202
:101F0300B1031208ACFEB2031208AC1BEB041208B7
:101F1300AC33EB041208ACF97F001208AC1BF703D7
:101F23001208AC6AF7031208AC28F9031208ACFCD8
:101F3300FA031208AC3AFB031208AC45FC0312087F
:101F4300AC4FFD031208AC71FD031208ACCDFD03C9
:101F53001208AC4EFE031208AC0080031208AC1F3B
:101F630080031208ACB080031208ACF98003120896
:101F7300AC5781031208ACD281031208AC49820327
:101F83001208AC9A82031208AC0083031208AC92C5
:101F930083031208AC0A84031208AC4984031208B1
:101FA300ACB188031208ACCE8A031208AC078B03CA
:101FB3001208AC468B031208ACD88C031208ACDBB6
:101FC3008C031208ACA28D031208ACCC8E0312084A
:101FD300ACC690031208AC4793031208AC169403E3
:101FE3001208AC3495031208AC7E98031208AC8E29
:101FF30098031208AC129A031208ACB09A031208A1
:10200300ACE99B031208AC599C031208ACB79D03BF
:102013001208AC1E9E031208AC7EEB011208AC1929
:10202300EC011208AC8CEC011208AC9CEC01120818
:10203300AC24ED011208AC80ED011208ACBBEE013B
:102043001208ACDFEE011208AC56EF011208ACA780
:10205300EF011208AC05F0011208AC60F0011208A0
:10206300AC0DF3011208AC04F4011208AC7AF401CC
:102073001208AC51F6011208ACF4F6011208ACAD2B
:10208300F7011208AC12F8011208AC81F80112082A
:10209300ACA4F9011208AC6AFB011208AC8AFC017A
:1020A3001208AC17FD011208AC87FD011208AC99A8
:1020B300FE011208AC71D5031208ACD6D503120881
:1020C300AC1ED6031208AC71D6031208ACD7D603E4
:1020D3001208AC39D7031208ACAED7031208ACE52B
:1020E300D8031208AC0DD9031208ACEBD9031208BC
:1020F300ACFCD9031208AC14DA031208AC0BDB03F3
:102103001208AC4BDB031208AC54DB031208AC6BB4
:10211300DB031208AC89DB031208AC66DC0312088C
:10212300AC20DD031208AC2ADD031208AC2CDE035D
:102133001208AC17DF031208ACB9DF031208AC2690
:10214300E0031208AC3BE0031208AC83BE041208A0
:10215300AC36BF041208ACFEBF041208AC66C00460
:102163001208ACDAC0041208ACF6AF041208AC14BF
:10217300B0041208AC58B0041208AC7EB0041208C4
:10218300ACA0B0041208ACB8B0041208ACD0B004D0
:102193001208ACE8B0041208AC92B1041208ACD433
:1021A300B1041208ACDEB1041208ACF3B204120895
:1021B300ACFCB2041208AC05B3041208AC0EB304B1
:1021C3001208AC18B3041208ACAAA2041208ACD6C5
:1021D300A6041208ACE4A6041208ACE9A60412088B
:1021E300AC32D0041208ACA2EC041208AC6BEC04C1
:1021F3001208ACCEEC041208ACDAFF021208AC09E8
:10220300A3021208AC51A2021208AC84A002120865
:10221300AC54A0021208AC18A0021208AC04A0022D
:102223001208AC459F021208AC929E021208AC4100
:102233009C021208AC169C021208ACB79B0212084F
:10224300AC289A021208ACB699021208AC93990210
:102253001208ACD798021208AC7A97021208AC3174
:1022630097021208AC0B97021208AC4796021208A9
:10227300AC9194021208AC3194021208AC0294029D
:102283001208ACFF93021208ACEA93021208ACFFE7
:10229300B0021208AC66B0021208AC57B0021208C2
:1022A300AC44AD021208AC91AA021208AC58A902C0
:1022B3001208AC79A8021208ACA5A6021208ACAAAF
:1022C30093021208AC9193021208AC9B920212087B
:1022D300AC5A92021208AC66A4021208ACE791024F
:1022E3001208ACB491021208AC5991021208AC283E
:1022F30091021208AC05A4021208ACF18D02120877
:10230300AC15D6041208AC038D021208ACBD8B02C7
:102313001208AC698B021208AC5D8B021208ACC4C4
:102323008A021208AC9289021208ACED86021208E6
:10233300AC9084021208AC4484021208AC298302D4
:102343001208ACBE82021208ACE881021208ACA4E7
:1023530081021208AC6B80021208ACACA302120813
:10236300AC3280021208AC0080021208ACE6DA0438
:1023730000000080FB00013636010100010201006C
:102383000103010001040106060502000007010024
:10239300340801000F090401010D0100FF0E0800BC
:1023A3000017020000190100FF1A0100011B0100C0
:1023B300FE1C0100081D0200001F01000120010096
:1023C30001210200002301000F2402000026010066
:1023D3000127010008280200FF2A0100072B010240
:1023E300402C0100002D0100012E0100012F0100EE
:1023F300FF30010B1C310800003A0100083B0100CB
:102403000F3C0100013D0100FF3E040000420400B7
:1024130000460400004A0400004E04000052040079
:1024230000560400005A0400005E20FFFF3600013E
:1024330000060000000F0000000000000000000084
:1024430000000003FFFF00000403FFFF0000FFFF85
:102453000FF4010005C4040320000100000B000079
:1024630000000000000003010F0000000000000056
:102473000000000000000000000000000000000059
:102483000000000000000000000000000000000049
:102493000000000000000000000000000000000039
:1024A30000000000000000000000000103710301B0
:1024B30003010301030103010322030203010310C8
:1024C30003000300030003000300030003000342AF
:1024D300030003240306030003000304031203257C
:1024E300032303250323030403040300030003005E
:1024F30003440300030003230300036503210035A2
:102503000381030003050300030003000300032505
:10251300032303030471040204600411047004021E
:10252300040204010402041004610400041404639B
:1025330004730472046204430400041304060400D5
:102543000400040404120400040004000400045101
:1025530004640000040004000444040004000400B4
:1025630004000465040004350481046400050400C8
:10257300048304000403027102300160021102703B
:10258300020102020202028002100261023A0041C9
:1025930000630273027202620243020002130238F2
:1025A3000000020002040212020002000200020004
:1025B3000204020402370037003C024402000239DD
:1025C30000000200026502000235028102000205DA
:1025D30002820283020002030071003001600011D5
:1025E30000700031022003500480001000610000DD
:1025F30000140063007300720062004300000013C4
:1026030000060000000000040012000000000000AB
:1026130000000004000400370037003C02440000BF
:10262300000000000000006500000035008100008C
:102633000005000000830000000101710101010198
:102643000111010101310101010101800110016149
:10265300013B001400630173017201620143010035
:1026630001130106013D01350004011201000100BF
:10267300010001000104010401330133013C014461
:1026830001320136000001000165010001350081BE
:10269300010001050182018301000100005B201399
:1026A30000CB1F01005B2002007D1F0300831F047A
:1026B30000891F05008F1F06009B1F1100BF1F14F9
:1026C30000C51F1500AD1F1F00B31FFFFF00000152
:1026D300150F06450F083F0F0B510F108B0E021BF2
:1026E3000F05330F07210F0CFD0E0D090F64CF0CDF
:1026F300FF000007ECFDFDFDECDCDCCCBCACAC9CCE
:102703009C8C7C7C6C6C5C5C5C4C4C3C3C2C2C1C36
:102713001C03EAF5E5D5D5C5B5A5959585857575EC
:102723006565555545453535252515150500160FA0
:1027330000000B150B020002220F3300000E5A6932
:1027430067426565416C6C69616E6365303901038D
:102753000507090B0D0F00020406080A0C0D3030A3
:1027630017181921301B1D1F30303016181920235C
:102773001A1C1E3000393D3F373C3C362C442D009B
:10278300034A49434E181A25050200011916181663
:1027930016182303000C0E020B040B0A0708000F84
:1027A300020402010101010902000000000000E827
:1027B30003000000BE040A3C00000000003C007F50
:1027C30000E8030E000A0305080910040008FF1EB1
:1027D3001E0C05280903040400081501030CC0821C
:1027E300C0837900EA1229E63BF583C082C0839057
:1027F3000342126DEBD083D082C3E09CA3E09D50D3
:102803000CEA240B122833122813600109023E9AA2
:10281300EA75F00BA4FAA8F075F00BEBA428FB9073
:102823000344E02AF8A3E03B8882F583E0540F22B7
:10283300F582E43B124FE42274F712042189081253
:10284300467DA3E0F9E875F00BA4F8ACF075F00B46
:10285300E9A42C122A61E8FEE9FF74016508600609
:102863007402650870228A828B83122D8D7402652F
:10287300087021EA2403FA50010B120C27E97014A3
:102883008E828F83E4F0800CEA2403FCE43B122D58
:1028930084120C218E828F83E0D2E7F0121EA502F0
:1028A300432574F4120421122E4779008E828F83FC
:1028B300E06075890A890B8064E50A75F00BA4FA58
:1028C300A8F075F00BE50B12281F7049E50A75F0A7
:1028D3000BA4F8AAF075F00BE50B122A428E828F37
:1028E30083E0850882850983123E4E122D04EE246F
:1028F30003FCE43F1229D9120C211244B8125A15D1
:1029030012383ED2E7F0121EA57901900342E0F59A
:102913000AA3E0F50B050AE50A7002050B122C6009
:10292300E50A9AE50B9B409102496B74F512042169
:10293300EAFEEBFF750A01740B120B96123431ECAD
:102943004D6015EC1229E63D122E557901120C0942
:10295300E508450960758023E508450960441229A7
:10296300E43509122E551229DA120C27E964017095
:102973001BEEFAEFFB120C0FE9F50A8508828509B5
:1029830083122CFC7902AA08AB098011122D85123F
:102993000C27E9640170347903EEFAEFFB120C099A
:1029A30080298E828F83A3E064FE7003A3E0F4701A
:1029B3000B122D85120C27E96401700CEEFAEFFB64
:1029C300120C0FE9F50A8003750A000232BDE50A0D
:1029D3002403FCE4350BFDE5082403FAE43509FB85
:1029E30022E508125E1A2274F712042190034212A0
:1029F30045D5EA4B602FEA75F00BA4FAA8F075F001
:102A03000BEBA428FBEAFEEBFF121CC59003441258
:102A130045D5900344124FCF6012EEFCEFFD7900D1
:102A2300121BF98007900344E4F0A3F0024325F955
:102A33000231D0E875F00BA4F8AAF075F00BE9A405
:102A43002AF9900344E028F508A3E039F50922F9AF
:102A5300E875F00BA4F8AAF075F00BE9A42AF99035
:102A63000344E028F8A3E039F92290034212430C0F
:102A7300C3EE98EF9922C082C083EC4D6005121D0E
:102A8300B580097C087D007900121BF9023E9A7417
:102A9300F61204217900EA4B60177800EA28F582E0
:102AA300E412572C60047901780808E8C3940840BD
:102AB300EB0231D074F712042174F3120975ECFEA2
:102AC300EDFF851882851983E4F004120B96EAF072
:102AD300A3EB1242FE120C457403120B96AC82ADAB
:102AE30083EEFAEFFB120C21EEFAEFFB120C270236
:102AF300432074F712042174F3120975ECFEEDFF01
:102B0300851882851983E4F0EAFCEBFD7403120B4C
:102B130096AA82AB83120C21AA18AB19120C4B7420
:102B230001120B96123E5B8E828F831242EF74FE6C
:102B330068700374FF6960047901800279000243BD
:102B43002074F7120421EAFEEBFF120C03E9F508E7
:102B5300740165087011122BADF4FA88828983E041
:102B63005A4480F0121EA50237B374F7120421EA07
:102B7300FEEBFF7508008E828F83E0602A120C0340
:102B8300E9F50874016508701E122BADFA88828975
:102B930083E05A70128E828F83E04480FA888289A0
:102BA30083E04AF0121EA50237B31244BC12398BDC
:102BB300122A528E828F83E02274F41204218A082F
:102BC3008B097C007D00EA1229DC120C21E5081236
:102BD3002D1E7900850882850983A3E064FE7003B6
:102BE300A3E0F460757E007F008066EEFAEFFB12CF
:102BF30028136058EEFAEFFBEA75F00BA4FAA8F07D
:102C030075F00BEBA428FB900344E02AF50AA3E03C
:102C13003BF50B850882850983A3125707850A8232
:102C2300850B83A3E06A7003A3E06B701FE50A249E
:102C330003FAE4350BFB120C27E964017006122931
:102C4300D1120C21122D137901126C1F0EEE70019B
:102C53000F122C60EE9AEF9B409102496B90034256
:102C6300124FE6C32274F31204218A088B098A8265
:102C73008B83122CFCEA122D1E750C00EA1229DC40
:102C8300120C27E96401706A7E007F00805FEEF812
:102C9300EFF9E875F00BA4F8AAF075F00BE9A42A94
:102CA300F9900344126C91E0540F603CEEF8EFF995
:102CB300E875F00BA4F8AAF075F00BE9A42AF990D3
:102CC3000344E028F50AA3E039F50B1229D1121DBC
:102CD300AFE964017012850A82850B83122D0412F9
:102CE3002D13750C01126C1F0EEE70010F122A6D5D
:102CF300409CA90C7F0502067FA374FEF0A304F099
:102D030022A312430C850882850983A3123B7722F1
:102D1300E508122D28EEF0A3EFF022122D2874FE01
:102D2300F0A304F022125E1E3509F5832274F51216
:102D33000421EAFEEBFF8E828F83122CFC7C007D44
:102D430000122D85120C21EEFAEFFB120C03E9F5AC
:102D53000A7401650A7027124305122A3685088210
:102D6300F583122D8D1229DA120C27E96401700EF6
:102D7300E5082403FCE43509122D84120C210232E8
:102D8300BDFDEE2403FAE43FFB22A3125711123BCD
:102D9300772274F212042174E6120975122E477514
:102DA3000C01750800750900750A00750B0085187C
:102DB30082851983E4F0EE2403FCE43FFD740312DF
:102DC3000B96AA82AB83120C21AA18AB19120C4BD7
:102DD300E96401701F740B120B96122E57740112C3
:102DE3000B9612570B7003A3E069604AA818A91940
:102DF30088088909740D120B96123E4DA3123E5B8F
:102E0300740E120B961242EF740D12094D120C45FB
:102E1300E964017009740D120945880A890B780A5F
:102E23001208FFAC08AD09EEFAEFFB120C157402A1
:102E33001208C1E9F50CEEFAEFFB120C3FA90C7472
:102E43001A025667EAFEEBFF1244BC74FEF0A304B9
:102E5300F022F58312398BF91244BC123B7722C05E
:102E630082C08378007900800508E8700109122C7C
:102E730060E89AE99B5029E8FAE9FBEA75F00BA4AC
:102E8300FAACF075F00BEBA42CFB900344E02AFCA6
:102E9300A3E03B8C82F583E0540F70CD7900800270
:102EA3007901023E9AC082C0839027DDE49375F0D6
:102EB30016A4FCADF079FF7A8F7B0B121BF9023E4F
:102EC3009A74F6120421EAF87508007D008012ED69
:102ED30012571EC3994009E0FAE8C39A4002050855
:102EE3000D9027DDE493FAEDC39A40E3AA087B0033
:102EF3000231D074F012042174F31209758A0C8B19
:102F03000D8C088D09890AEC45096016AA08AB09DE
:102F1300120C938A0E8B0FAE0EAF0FEE4F600302AF
:102F23002FE97B0080010B125A0B500F1230917066
:102F3300F5748F28FE740B39FF80047E007F00EE4A
:102F43004F700302303D9027BE123064602174033A
:102F5300650A60067404650A70157A047903120C15
:102F6300699027DDE493FC9027BE12306A502990C4
:102F730027BC12306460287401650A600674026518
:102F83000A701C7A027901120C699027DDE493FC24
:102F93009027BC12306A40077A007B0002306185BB
:102FA30018828519837401F0120B96E50CF0A3E5E2
:102FB3000DF0AC08AD097403120B96AA82AB831211
:102FC3000C21AA18AB19120C57740B120B96123B57
:102FD300708E828F83A3A3A3A3A3A3E4126DE7AA96
:102FE3000CAB0D12115B7800E50A6007C394055022
:102FF3000278048E828F83E50CF0A3E50D1263CB78
:10300300E50AF0E88E828F83A3A3A3A3A3125A1C1D
:103013005001097A027B001202D1123477A31256AF
:1030230047A31234BBE50A600DC39403500812345E
:1030330046123082800312345DF07A047900120C58
:10304300698A089027DDE493FAC3E5089AEB9400B4
:1030530040059012B8E4F0121035EEFAEFFB02349B
:103063001B12307AE8492212307AECC398F8E499BB
:10307300F9C3EA98EB9922E493F8740193F922F9DE
:10308300EE2414F582E43FF583E8F0A3E922EB751F
:10309300F016A4F8A9F01234B0F42274F212042149
:1030A30074F31209758A088B09ECFEEDFF750A00AB
:1030B300EEFAEFFB120C938A0C8B0DA80CA90DE80A
:1030C30049700302316288828983E065087004A332
:1030D300E06509700302316288828983A3A3A3A3F5
:1030E300E0C3940550798882898312624B12473971
:1030F300E0603488828983A3A3A3A3E0C39403502D
:10310300269027BAE493FA740193FB1236B1902701
:10311300C0E493FA740193FBE82414F582E439F5CF
:1031230083EAF0A3EB800DE82412123169F0E8245E
:1031330014123169F08518828519837401F0120B1A
:103143009612624BF0EEFCEFFD7403120B96AA820B
:10315300AB83120C21AA18AB19120C57750A01A9DB
:103163000A740D025667F582E439F58374FEF0A301
:10317300042274F6120421120C8D8A088B09A80804
:10318300A909E849601488828983A3A3A3A3E06003
:1031930009C394055004790180027900802F74F6E5
:1031A300120421120C8D8A088B09A808A909E84981
:1031B300601488828983A3A3A3A3E06009C3940353
:1031C300500479018002790080031208C17F020252
:1031D300067F74F6120421120C8D8A828B83E5829A
:1031E3004583600BA3A3A3A3E07004790180027954
:1031F3000080DAC082C083EAFCEBFD7A007B000228
:103203003E97C082C0837C007D00023E9774F51216
:10321300042174F3120975EAFEEBFF8C088D09C3D0
:10322300EC94F8ED94FF4004EE4F606A750A008059
:103233001974FF6508700474FF6509600B12654813
:103243007004A3E06509603B050A9027DDE493F869
:10325300E50AC3985040E50A12309260EBEE4F60E6
:10326300D01232A4120B961242FA120C51E960D812
:103273007403120B96AC82AD83EEFAEFFB121DAF13
:10328300E960C5E50A75F016A4F8A9F0748F28FA69
:10329300740B39FB80047A007B00740D1208C18023
:1032A3001B8518828519837401F0749128F5827443
:1032B3000B39F58312430C740B22A90A7F03020610
:1032C3007F74F412042174F3120975750800120C4B
:1032D300938A0A8B0BAE0AAF0BEE4F601F12332794
:1032E3001232B7120B961242FA120C397C167D0079
:1032F30079FFEEFAEFFB121BF97508017A047900E6
:10330300120C698A0A9027DDE493FAC3E50A9AEB63
:10331300940050099012B87401F0121035A9087482
:103323000D0249688518828519837401F08E828F96
:1033330083A3A32274F7120421E9FC74FE6A7003C9
:1033430074FF6B7D007003802C0D1233995026EDB2
:1033530012309260F412702C6A7003A3E06B70E970
:103363008012ED75F016A4F8A9F012701F6018E032
:10337300640360130D1233995015EC60E51234A405
:1033830060F2C3940550ED12678C12570480047ADF
:10339300FE7BFF0243259027DDE493F8EDC39822DB
:1033A300120CA5023E9AC082C083790180F274F0A8
:1033B3001204218A0A8B0B7A047901120C698A0C94
:1033C3008B0DEA450D6040EA2AFAEB33FB121CC56C
:1033D3008A088B09AE08AF09EE4F60267AFE7BFFA1
:1033E300120CAB74FE6A700374FF6B601E85088257
:1033F3008509831245D5E5082402F50850E205093D
:1034030080DE750C0080047E007F00850A82850BB8
:1034130083E50C1245098005740D1208C17F08026B
:10342300067FE493F8ECC39822126DEFEC22E0F5EB
:1034330008A3E0F509221208C17F0C02067F7F076B
:1034430002067F9027BA12307AEE126783123B7717
:103453009027C0E493F874019322EE241212346B84
:10346300F0EE241412346B22F582E43FF58374FEEC
:10347300F0A30422E88E828F83A3A3A3A3A3A3A311
:10348300A312349C740112349CA374AAF0EE24108A
:10349300F582E43FF583E4F0221263EEA3A3A3A332
:1034A30022ED75F016A4F8A9F01234B02274932813
:1034B300F582740B126EDB22A3F01244BCE4F0EE2F
:1034C300240CF582E43FF583E4F0A3F0A3F0A3F02A
:1034D30022C082C0837D008009EA24FF1AEB34FFF7
:1034E300FB0D12339950161234A4C3940550F2EA1B
:1034F3004B70E6748F28FA740B39FB80047A007BD7
:1035030000023E9A74F712042174F31209757E00C7
:1035130002359FEF75F017A4F8A9F0127002125745
:10352300ED75F016A4FAABF0748F2AF582740B12C2
:103533005A3F7003A3E0696040EF75F017A4F8AA3F
:10354300F0EAF912700239F583123E5B7401120B33
:1035530096E0687003A3E069601FEF75F017A4F8A5
:10356300EAF9745F28FC740D39FD7403120B96AAF3
:1035730082AB83121DAFE96013EF75F017A4F8A9AE
:10358300F0745D28FA740D39FB1211670F9027CD83
:10359300E493F8EFC39850030235160E9027DD121B
:1035A3006B71501FEE127025F47003A3E0F460EB0F
:1035B3001232A4120B961242FA120C51E960DC7F0C
:1035C3000080CA02432074F712042174F3120975B0
:1035D300900415124FCF7003023675750800802BC7
:1035E300E50875F016A4F8EAF974A328F582740BBC
:1035F300126ED764FE7003A3E0F4600D74A128F586
:1036030082740B39F58312565D05089027DD125637
:1036130026505FE50875F016A4F8AAF0EAF912340B
:10362300AC60E6C3940350E174A128F582740B12D5
:103633004FCC70ACE50875F016A4F8EAF9748F283E
:10364300F8740B39F9E8FEE9FF1237131237091240
:1036530005991233271232B7120B961242FA120C43
:1036630051E960A57403120B96AA82AB83120C9FD7
:10367300809702432074F6120421120C8D8A088B62
:1036830009A808A909E849602088828983A3A3A31C
:10369300A3E06011C39403500CE82414F582E412F0
:1036A30057041236B17901800279000231D0E8243F
:1036B30012F582E439F583EAF0A3EBF02274F712F2
:1036C3000421EAFEEBFF90040F124FCF6030900409
:1036D30015124FCF6028900419124FCF6020126843
:1036E300CD120599E97017123704120599E964019F
:1036F300700C8E828F83A3A31268BA1205990243BA
:1037030025123713A3A3124FE69004151268C4229F
:103713009027C0E493FC740193FD8E828F8322C0B3
:1037230082C08390034B742DF0A3740FF090034D6C
:103733007427F0A3740FF09003517441F0A3740D38
:10374300F0023E9A74F7120421EAFEEBFF90038520
:10375300E06408601CE0640460178E828F83E05489
:1037630003640170411253BFF81237B8E064067066
:10377300358E828F83A3A3E064FE7003A3E0F4601D
:10378300258E828F83A3A3125E007003A3E069706A
:1037930008EE2415125DF56005120FD58003120F94
:1037A300DBE9F50880037508C2EEFAEFFB121CCBC8
:1037B300A908024325A3E0F58388822274F4120446
:1037C300218A088B09123987FAE82AFAE43400FBC4
:1037D300121CC58A0A8B0BAE0AAF0BEE4F605585E0
:1037E3000882850983E0FC7D007900121BF98E8233
:1037F3008F83A3122CFC1210118E828F83A3A3A399
:10380300A3EAF0A3EB12383EF8EE28F8E43F122EB9
:103813005A850882850983A3E0C0E0125A01D0E0EB
:10382300F01210231259F7E9123B66E0C0E0123B95
:103833005CD0E0F0EEFAEFFB02496BF0850882857D
:103843000983E02274F412042174E81209758A08CA
:103853008B098C0A8D0BE9FE900385E064046005F7
:10386300E06408700479C2803CA37808120B15EE5B
:1038730090038C123ACA121BF98518828519837832
:1038830008120B157405120B96EEF07404120B96C6
:103893007401F07407120B96E4F09003857402121E
:1038A30042FE12219302496674F412042174E81251
:1038B3000975EAFEEBFF900346124FCF600302390E
:1038C300827A077B00121CC59003461245D59003EC
:1038D30046124FCF700302397E8E828F83120B5BA9
:1038E300900346E0FCA3E0F5838C82120B4FEE2499
:1038F30004F50AE43FF50B850A82F583E0C0E09006
:103903000346124FA3A3A3A3D0E0F0EE2405F508CA
:10391300E43FF509850882F583E0C0E09003461291
:103923004FB1D0E01242F4C0E090034612398BC885
:103933002406F582E438F583D0E0123ACA121BF963
:103943008E828F83120B5B851882851983120B4F2E
:10395300850A82850B83E0C0E07405120B96D0E0E4
:1039630012383EC0E07404120B96D0E0F0740712D4
:103973000B96E41242FE122193800679108002799D
:10398300010249668A828B83E0F8A3E022C082C0E9
:1039930083900346124FCF601090034612570712CD
:1039A3001CCB900346E4F0A3F0120F4B1211070255
:1039B3003E9A74F412042174E81209758A0A8B0B77
:1039C300ECFEEDFF89087428120B96E0FC742912B3
:1039D3000B96E0FD740F6C7005740F6D60129013FD
:1039E3002EE064026005ECC39D500579C1023AC71D
:1039F3007424120B96120B5B900386120B4FE5088F
:103A030090038CF0EC90038AF0EDA3F0742A120B70
:103A130096E090038DF074FF650A700474FF650BE4
:103A23007024901340E0F47003A3E0F4700C121CB4
:103A330011900383EAF0A3EB80129013401267A95D
:103A4300E8F0A3E98006900383125A15F0EE4F6065
:103A530017EEFAEFFB1211BBE96401700BEEFCEFFA
:103A6300FD7A977B03121DB5900376E4F0A3F090E3
:103A73000379F0A3F0900396F090132EE0640270A4
:103A83000890038A740FF0A3F09003857405123A2B
:103A9300CA121BF97404120B96E4F0900386120BFE
:103AA3005B851882851983120B4F90038CE0C0E06D
:103AB3007405120B96D0E0F07407120B96E41242D1
:103AC300FE122193024966F07C187D007900AA1842
:103AD300AB1922C082C08390034AE07003121FB95E
:103AE300120D05023E9A74F012042190034AE090ED
:103AF30012B7700FE060057900121E6F9012B7E4E1
:103B0300F0804AE06401600890034AE0F9121E6FF6
:103B13009012B77401F090034AE0F46030E0F50CC2
:103B2300E4F50DF50EF50FF090820E7808120B33C5
:103B3300780C7908120332780C1208F77A807B002C
:103B43009003D0E0F9121D7F74041208C17AB77B89
:103B530012794112217B023420EE2411F582E43FD5
:103B6300F58322F0850882850983A3A322125A379D
:103B7300123B7722E8F0A3E9F02274F612042174D1
:103B8300E2120975851882851983ECF0A3EDF0EA3A
:103B9300FEEBFF8908900385E064046005E0640898
:103BA300700579C2023CA77429120B96E064FE707B
:103BB30003A3E0F4700579C3023CA77C197D007967
:103BC30000740512094D121BF99003857403124208
:103BD300FE795012217B742912094D794B12217BF6
:103BE300851882851983123CC0E508900378F07428
:103BF30029120B96123CB67428120B96E0F5099025
:103C03000370123CAC121DB574CE55094480C0E05C
:103C1300741D120B96D0E0F0742B120B96E00490F7
:103C23000396F0741A120B967402F07429120B9611
:103C3300123E5B7412120B96E8F0A3E9123E547421
:103C43001B120B961242EF7410120B96E508F074D8
:103C53000D120B96E4F090038B740FF07A8B7B03B9
:103C6300795412217B90038A740FF07A8A7B03794B
:103C73004712217B90038AE0C3940F501F741012E4
:103C83000B96E0C0E07402120B96D0E0F0740412BD
:103C93000B967401F00412094D12219F7405120949
:103CA3004D122181741E0231CDF0EEFCEFFD7A97A7
:103CB3007B032212430C900379123B77221267ADE8
:103CC300123B772274F7120421EB90038DF0120F4D
:103CD3003902432574F712042174E9120975EAFEC7
:103CE300EBFF7508008E828F83A3A3A3E0C0E0746B
:103CF30006120B96D0E012332FE0C0E07408120BCB
:103D030096D0E0F07409120B967401123E4E124FD6
:103D1300CF600D8E828F83125707120C27E97035FF
:103D23007407120B96E4F012100B7404120B961224
:103D330045D5900385E06404700E121017740212C7
:103D43000B96EAF0A3EB80487402120B9674FDF015
:103D5300A374FF803BAC18AD198E828F8312570773
:103D6300120C338E828F83A3A3A3A3E07030740756
:103D7300120B967401123E547402120B961242EF08
:103D83008E828F83123E5B7404120B96E8F0A3E9D4
:103D9300F0740212094D121053E9F508803E123EE9
:103DA30055740A120B961242EF7414120B961233C7
:103DB3002DA3E0C0E07415120B96D0E0F074161238
:103DC3000B96123E4D126DEB740C120B96AA82AB3E
:103DD30083121DB5740A12094D121E87A9087417A0
:103DE30002432274F712042174F8120975EAFEEBF8
:103DF300FF7900900385E064086005E06404704582
:103E030085188285198374FDF0A374FFF012100BDB
:103E13007402120B961245D57405120B96123E4D81
:103E2300A3E0C0E07404120B96D0E0123E4EE0C053
:103E3300E07406120B96D0E0F07407120B96E412AE
:103E430042FE1210537408024322E4F08E828F83E1
:103E530022F085188285198312430C22C082C08305
:103E630090035774DDF0A3740DF09003FD74ADF06F
:103E7300A37410F090035B7413F0A3740EF090031B
:103E83005D74DDF0A3740DF090035F7419F0A374F7
:103E93000EF08003120C99D083D0820208A974F427
:103EA30012042174F91209758A088B098C0A8D0B87
:103EB3008518828519837808120B157404120B96E2
:103EC300E9F07405120B96E4F07406120B96E412F3
:103ED30042FE120CED740702496874F51204218A3C
:103EE300088B098A828B83126C22EE4F7003024087
:103EF30095900314124FCF60158A828B83A3A3E09E
:103F0300F9EEFAEFFB9003151237B91205998E8279
:103F13008F83A3A3A3A3A3A3A3A3A3E06402600328
:103F2300023FFE8E828F83A3A3A3A3A3A3E0540225
:103F33007003024022850882850983A3A3E064E914
:103F43007003024022850882850983A3A3E064CD20
:103F53007003024022850882850983A3A3E064F0ED
:103F630070030240228E828F83A3A3A3A3A3A3A3E0
:103F7300A3A3A3E07016901332E0048E828F83A371
:103F8300A3A3A3A3A3A3A3A3A3F080101240A612E9
:103F93001083E970077A307B01121F178508828529
:103FA3000983A3A3E0701F750A0080097A367B0199
:103FB300121F17050A850882850983A3A3A3E0F8C6
:103FC300E50AC39840E68E828F83A3A3A3A3A3A38A
:103FD300A3A31263E2A3A3A3A37404F09013331265
:103FE3005A31E8124098121D91EA4B4C4D700C7AED
:103FF300207B009003D0E0F9121C598E828F83A39B
:10400300A3A3A3A3A3A3A3A3E0640260128E828F3E
:1040130083A3A3A3A3A3A3A3A3A3E0640670738EA4
:10402300828F83A3A3A3A3A3A3E0A2E05064850884
:1040330082850983A3A3E0F9EEFAEFFB1222178E20
:10404300828F83A3A3A3A3A3A3E054FEF01240A6ED
:10405300121083E9850882850983A3A3702AE0707F
:10406300237A2F7B01121F177E008508828509831F
:10407300A3A3A3E0F8EEC39850187A367B01121F6E
:10408300170E80E67A318005E070077A2D7B0112E6
:104093001F170232BFF0A3E9F07A207B009003D010
:1040A300E0F9228E828F831268C4124FE62274ECE9
:1040B30012042174DB120975EAFEEBFF8C108D11DB
:1040C300750E007405120955120BA97412120B9682
:1040D300E070087415120B96E060207405120B96BD
:1040E300E0A2E6501B8E828F83A3A3A3A3A3A3A363
:1040F300A3A3125707121083E960057A350241FA28
:104103007405120B96E0540C64047005750D018060
:1041130003750D00E0A2E55030750E01E50DA2E038
:1041230040271210118A088B09A808A9091253BF46
:10413300687003A3E06960117405120955125E0FDC
:10414300122235E960030241F87405120B96E0A2CE
:10415300E650227406120B96E0540370187405128D
:104163000B96E0540C640C600CE0540C640860057E
:10417300750C018003750C007405120B96E0540353
:10418300F8740268700E7405120955125E0F120B53
:10419300BB0242E47401687041E50CA2E0500B7469
:1041A30005120955125E0F120BAF740512094574FF
:1041B30003120B96E8F0A3E91243048518828519CC
:1041C30083E8F0A3E91242F4C0E07402120B96D024
:1041D300E01242FE1223490242E4E860030242E491
:1041E30090036DE0640170178E828F83A3A3A3A352
:1041F300A3A3E0700A7A347B01121F170242E4740E
:1042030024120B967402124304741C120B9612426E
:10421300EFE50CA2E0500B7405120955125E0F1264
:104223000BAF7439120B967808120B33E50DA2E02D
:10423300EE5072240F125DF5C0E07417120B96D086
:10424300E0F0900316124FCF70030242E4121011F4
:104253008A128B13A812A913741C120B96E06870B0
:1042630003A3E069707B78081208F7E50EF5087878
:10427300081209038E828F83A3A3A3A3E0F5087812
:104283000812090378101208FFA90C740D120955BE
:10429300742412094D900316125779120599740864
:1042A3001208C1803C125DF3F50C780C12090378F7
:1042B300081208F7E50EF5087808120903781012BA
:1042C30008FF900383120708EE2412125DF5F974B8
:1042D30026120955740F12094D12220B740A120883
:1042E300C17425023439A3A3A3A3A3A3E8123B7883
:1042F300221263EAA3E022E8F0A3E9F0AA18AB19BB
:1043030022F01244BC12430C2212431022E0F8A301
:10431300E0F92274F7120421121E518005740D1264
:1043230008C17F0102067F74F7120421121E578011
:10433300F174F7120421121E6380E7C082C0831256
:104343001E5D023E9A74F7120421121E6980D37413
:10435300F71204217409120B96E0F5087808120984
:1043630003121E7B740180B7C082C083121E8702B2
:104373003E9AC082C083121E8D023E9A74F71204C5
:1043830021121E93809C74F7120421EAFEEBFF892D
:10439300087401650870147900120E559027D2E451
:1043A30093FC7900EEFAEFFB120DCB02432574F771
:1043B300120421121E8102432574F412042174F99C
:1043C300120975E9FE8A088B098C0A8D0B9011EC92
:1043D300124FCF602BEE851882851983F07401127A
:1043E3000B967808120B157413120B96123E5B741E
:1043F30005120B961242FA9011EC12577912059995
:10440300023ED8C082C083121ECF023E9A74F712B6
:104413000421121E9F02432574F71204219012BA3D
:10442300E0F97E00800B12468B540D640170011974
:104433000E1246225003E970ED02432574F712046D
:10444300219012BBE0F97E00800B12468B548D64E1
:10445300817001190E1246225003E970ED024325C3
:1044630074F2120421890BE975F006A4A9F0240C57
:10447300F508E439F509E5082AFAE43509FB121CC5
:10448300C58A0C8B0DAE0CAF0DEE4F6021AC08ADA1
:10449300097900121BF91244B8E50BF0EE2508F870
:1044A300EF3509F98E828F83A3A3A31242E9EEFAB3
:1044B300EFFB02566A1244BC22EE125E1E3FF583E6
:1044C3002274F6120421EAFEEBFF120DA79012B933
:1044D300E0F8E9C3984009900353125707120DAD52
:1044E300EE2402F8E43FF988088909900355125B2A
:1044F3002D900355E004124509120DB385088285FA
:104503000983E0022A32F0EEFAEFFB22C082C08375
:1045130079009003538001091257078A828B83E540
:1045230082458370F2023E9A74F7120421EAFEEB8D
:10453300FFEE4F605A900353124FCF605288828927
:10454300837A007B00EE65827003EF65836013AAB4
:1045530082AB83123E5B88828983E5824583602F29
:1045630080E39003531257F0687002EF698E828FD5
:10457300837008123E5B90035380031268B21242A9
:10458300EFEEFAEFFB122319EEFAEFFB121CCB024C
:104593004325C082C0839003538004888289831299
:1045A3004FCF600A8882898312342C4D70ED8A8242
:1045B3008B83E4F0A3F0E849600688828983800353
:1045C3009003531245D5023E9AEE241AF582E43F36
:1045D300F583EAF0A3EBF022124FE6EA4B2274F7DD
:1045E30012042190035380048A828B831245DB607B
:1045F300277E0080010E12462250EDEE75F006A4D0
:10460300FCADF0EA2CFCEB3DFDEC2410F582E43D1F
:10461300F583E06970DF80047A007B000243251292
:104623004681EEC3982274F71204217D0080010DA8
:1046330012467DEDC398503BED75F006A4FEA8F03D
:10464300E8FFEA2EFEEB3FFFEE2410125DF56970E2
:10465300DEED75F006A4FEE8FFEA2EFAEB3FFBEA77
:104663002411F582E412572C4CF0EA240CFA50077B
:104673000B80047A007B0002432512468122EA1252
:104683005E1E3BF583E0F822EE75F006A4FCADF068
:10469300EA2CFCEB3DFDEC2411F582E43DF583E0CF
:1046A3002274F6120421120EC17B008016EB75F002
:1046B30006A4F8A9F0125B5BE4124739F0A3125B7E
:1046C30023F00B9027E0125A0E40E27A0080168AFC
:1046D3000875090074037808120A1C12562E125A20
:1046E3002CA3E4F00A9027D0E493F8EAC39840DFC0
:1046F3007900801A890875090074037808120A1C66
:104703007485126C2A7410126A63122CFD099027A7
:10471300CC12623140DE9027DEE493900361F09087
:10472300820E1207047A107B009003D0E0F9121D69
:104733008574040231CD12623FA32274F012042166
:1047430074F51209758A088B09890A8C0BE9A2E0B2
:1047530050147508FC7509FFA2E15005D2E4024824
:1047630007D2E3024807120EA98A0C8B0DA80CA9E5
:104773000D900376E0687003A3E069600EAC0A79DC
:1047830002AA08AB09120EA3E9700579000248D802
:10479300E50AF50C780C12090379027CFE7DFFAA69
:1047A30008AB09120E1F74011208C1E96003024825
:1047B300D6E50AC2E5F50A9003C3E07049E50AA20B
:1047C300E640437403120955AA08AB09120C2DE9FC
:1047D300702E124FAA1211498A0C8B0DAE0CAF0D1D
:1047E300EE4F6022EE2402FAE43FFB120C27E9604D
:1047F30015EE2402FCE43FFD740312094D121DB5AE
:10480300E50AD2E5F50A900356E0F50C900376121B
:104813004A9A780E1208FF7D017C00900356E0F956
:10482300AA0EAB0F120E6174021208C1E9F89003CD
:1048330056E004F0E860030248D6E50AA2E5500416
:10484300740E80027406C0E07401120B96D0E0125D
:1048530042FE12106B8A0E8B0FAE0EAF0FEE4F603F
:104863006E12539C12100B1245CC1248EF7401F0D8
:104873007478550AA3126E54E50C126E54A3E5081E
:10488300F0E5091248DDE4F0E50AA2E5500F7403F0
:10489300120955E82406FAE439FB121DB58E828FFE
:1048A30083A3A374FDF0A374FFF0E50B60189027B6
:1048B300D3E493F8E50BC398500CEE2413F582E48C
:1048C3003FF583E50BF0EEFAEFFB120CDB80067984
:1048D30010800279C7740B02341D88828983A3A3D5
:1048E300A3A31248E922126243A3A322EE125E1A83
:1048F3003F1248F822F58312431088828983227479
:10490300F41204217A007B109003D0E0F9121D9178
:10491300EA4B4C4D60089003E27401F0804390121F
:104923009DE0640190132F7006E0FC79018004E0A0
:10493300FC79037A007B00120DCB9027C4E493F536
:1049430008740193F509E4F50AF50B78081208F7E2
:104953007A007B109003D0E0F9121D7F74041208D3
:10496300C1800574181208C17F0402067F74F01217
:1049730004218A088B098C0A8D0B890C121083E998
:1049830060057AFF024A5E90132EE0640260030220
:104993004A8A9027DFE493F9AA08AB09120ED3E9F8
:1049A3006003024A847900AA08AB09120EA9A90C74
:1049B300120E9D8A0E8B0FAE0EAF0FEE4F700302D9
:1049C3004A708E828F83A3A3A3A3A312614770733C
:1049D3001257078E828F83A3A3A3A3A3A3E0541824
:1049E300604D9027D1E4938E828F83A3A3A3A3F07A
:1049F3007410120B96126DEB7412120B96124A9AE4
:104A0300EA650A7003EB650B6012EA6C7002EB6DEA
:104A1300600AEA650E7003EB650F701B780E1208CF
:104A2300FFAA0AAB0B12118574021208C180089009
:104A330003751263D9A3F074FE6A700374FF6B608D
:104A43001E8051A3A3A3E06403602A8E828F83A3F5
:104A5300A3A3A3A3E0640470067AFE7BFF80358ED4
:104A6300828F83A3A3A3A3A3E0640270089003C26D
:104A7300E0640270127907AA08AB09120ED3E96049
:104A830006AA08AB09800DAA08AB09900357125771
:104A930079120599023420E0F50EA3E0F50F227494
:104AA300F7120421EAFEEBFF120C7BE9700AEEFA1F
:104AB300EFFB120C87E96006EEFAEFFB80047AFE47
:104AC3007BFF02432574EE1204218A0A8B0B8C0CA4
:104AD3008D0D890E750800121083E97900600302B9
:104AE3004C2EAA0AAB0B120EA9A90E120E9D8A1008
:104AF3008B11AE10AF11EE4F60198E828F83A3A37B
:104B0300A3A3A3E0640270529003C2E064027003A3
:104B1300024C2CAA0AAB0B125776120599120C8D74
:104B23008A108B11A810A911E8497003024C2C8834
:104B3300828983A3A3A3A3A3E0A2E04003024C2C96
:104B4300750901A2E1504B7901AC0AAD0BAA0CAB7C
:104B53000D120DFBE97047024C2C8E828F83A3A3A9
:104B6300A3A3A3E0640360258E828F83A3A3A3A3DF
:104B7300A3E064016003024C2C79078E828F83A328
:104B8300A3125707120ED3E96003024C2C750902D6
:104B9300801088828983A3A3A3A3A3D2E1F0EE4F5D
:104BA300603A8E828F83A3A3A3A3A3A3E0541860C8
:104BB3002B7508018E828F83A3A31207087510FE3D
:104BC3007511FF78101208FF7900AC0AAD0BAA0C1F
:104BD300AB0D120EB574041208C1804D7900AA0CF6
:104BE300AB0D120EA98A108B11A810A91190037690
:104BF300E0687003A3E06970149027D2E493FCA9E2
:104C03000EAA0AAB0B120DCB750801801CA909ACC7
:104C13000AAD0BAA0CAB0D120DFBE9700C75080164
:104C2300A90EAA0AAB0B120E55A90880031208C1DC
:104C33007F0A02067F74EB12042174F01209758A4D
:104C43000C8B0D8C088D09751206900403124FCF3F
:104C53006017124FAA1211738A108B11EA45116063
:104C6300088A828B83A3E06068E50C241DF50EE4BB
:104C7300350DF50F850E821251C6F514888289838E
:104C8300A3A3A3E0FA88828983A3A3A3A3E0F8E400
:104C9300C8F9EA28FEE439FFAA08AB09120E5B85BE
:104CA3000E82850F83124FB1E029F50BE50AA2E5C9
:104CB300500375120E7487550A700F7418550A64E1
:104CC300186007124F946512600C7AD37B00121F91
:104CD300177900024F7E530A78C3EE94F8EF94FFDE
:104CE30050247900EEFAEFFB120E9D8A0E8B0FA86B
:104CF3000EA90FE849600F88828983A3A3A3A3A306
:104D0300A3E0541870CB78081208FF7D00AC0BA900
:104D130014124FDB120E6174021208C1E9F8740316
:104D23006860AE7425120B96126C2F6003024DF56A
:104D33007418550A7003024EB0E50AD2E0F50AA2D0
:104D4300E45004D2E1F50AA90A124FDB120E9D8A40
:104D5300128B13A812A913E849605C88828983A384
:104D6300A3A3A3A3A3E05418604D88828983A3A3BC
:104D7300A3A3A3E06401703FE51045116039126DF0
:104D8300E888828983A3A31257071211738A128BAF
:104D930013A812A913E849601E88828983A3E060DF
:104DA30016851082851183A3E0FA88828983A3E0A4
:104DB300C39A5003024CD4E50AF510781012090384
:104DC300124FD5120E1F74011208C1E970247C0022
:104DD3007D00850E82850F8374FFF01253B7A3A362
:104DE300A3E06006124F88126DEBA90B124FDB1282
:104DF3000D77850E82850F83E0F47003A3E0F460E2
:104E03003C9003C2E064027003024CD4124FDB9067
:104E13000359125779120599EA65087003EB65097E
:104E23006003024CD4EEFAEFFB9003591257791248
:104E33000599850E82850F83EAF0A3EBF0780812BB
:104E430008FF7D01AC0BA914124FDB120E61740233
:104E53001208C1A90AEEFAEFFB120EA98A088B0900
:104E6300A808A909900376E0687003A3E0696003CA
:104E7300024F70EEFAEFFB120C8D8A088B09A8081B
:104E8300A909E849606F88828983A3A3A3A3E06487
:104E930001600D88828983A3A3A3A3E064027055F4
:104EA300AC18AD19EEFAEFFB120C2D805690036F80
:104EB300E06014E50AF5107810120903124FD512B9
:104EC3000E1F74011208C1E50AF5107810120903C8
:104ED30079027CFE7DFFEEFAEFFB120E1F740112C6
:104EE30008C1E96003024DF5850E82850F8374FFC7
:104EF300F0A3024E3F12100BEAFCEBFDAA18AB190C
:104F0300121DB5850C82850D83A3A3A3A3A3A3A31D
:104F1300A3E06401700E124F88126DEB740812093E
:104F23004D121DB51251AE124FA1E04430F5087871
:104F330008120903740112094588088909780812BF
:104F430008FF740B1209458808890978081208FFBD
:104F5300E514F50878081209037900EEFCEFFD1259
:104F63004FDB120DF574061208C1024CD41251AE78
:104F7300F583124FB1E50BF012102374101208C120
:104F83007F0D02067FE50C2415F582E4350DF583CC
:104F930022E50C2417F582E4350DF583E022F58331
:104FA300E0F81237B8A3229003831251E222126869
:104FB300C4A3A3A3A3A322E50D75F006A4F8AAF046
:104FC300EAF974E928F582740F39F58312430CE882
:104FD30049227901AC08AD09125E18350D124FE470
:104FE30022F583E0FAA3E0FB2274EE12042174F0AD
:104FF3001209758A0C8B0DECFAEDFB750F08900402
:1050030003124FCF6031126DE81211738A088B09B6
:10501300AC08AD09EC4D601F8C828D83A3E0701743
:10502300125A215001097A027B001202D1E88C82C4
:105033008D83F0A37407F01251AE1251C6F50E889A
:105043008289831251B8E0FAE4CAFBEC2AFEE43BFE
:10505300FF88828983A3A31251B8A3A3E0FBECF5D5
:1050630008E43BF50988828983A3A3A3A3A3A3A38D
:10507300E0F50BE50AA2E45003750F10A2E5500614
:105083007408250FF50F748F550A7007124F946536
:105093000F600A7AD37B00121F170251A9530A70BB
:1050A3007800E50AA2E4501FE50C241D124F982452
:1050B30008FCA3E03400FD740812094D121DB578F5
:1050C30008E50AC2E4F50AE50AA2E55022E50C2444
:1050D3001D124F9828F8A3E03400F9E82408FCE4F3
:1050E30039FDAA18AB19121DB5E50AC2E5F50AA9DF
:1050F3000EEEFAEFFB120E979027D0126231502971
:10510300891075110074037810120A1C744A251053
:10511300F58274103511F583E0F8E50BC398500759
:10512300E50BF078008004807D7804900376E06ED0
:105133007003A3E06F605FE87019E50AF50F780F5D
:105143001209031251D5120E1F74011208C1E9701E
:10515300558005740468704E780A120903740112AD
:105163000945880C890D780C1208FF740B12094548
:10517300880C890D780C1208FFE50EF50A780A12DF
:105183000903A90BAC08AD09EEFAEFFB120DF57498
:10519300061208C18010780A1209031251D5120EA3
:1051A3001F74011208C17410024C30E50C241DF564
:1051B30082E4350D22A3A3A3E0FC88828983A3A301
:1051C300A3A3221248F8A3E0F50A88828983A3A344
:1051D300E0227901125E18350DF5831251E222E0C7
:1051E300FCA3E0FDAA08AB092274EB12042174F5B9
:1051F3001209758A088B098C0A8D0B891474201285
:105203000B96E0F511F9120E97E9F50C9027D012E1
:105213006231501B750D007403780C120A1C74481C
:10522300250CF5827410350DF583124A9A801E9071
:105233000359124FCF6010AA08AB091237B91205F0
:10524300998A0E8B0F8006750EFE750FFF7401127F
:105253000B967408F07425120B96E0F510A2E45037
:10526300087401120B967410F0E510A2E55009744E
:1052730001120B96E02408F0AA18AB1912106B8ADE
:105283000C8B0DAE0CAF0DEE4F7003025397125300
:105293009C12100B1245CC7421120B96E0F512A34D
:1052A300E0F5137403120955AA0EAB0F120C2DE986
:1052B3006013EE241612539F7403120945EE24184B
:1052C3001230868027E510A2E45022E50E650870AF
:1052D30004E50F65097016EE241612539FEE241889
:1052E300F582E43FF583E512F0A3E513F01253BF13
:1052F300F50CA3E0F50D850C82F5837402F0A3E5AC
:10530300101253A9E5111253A9A3E508F0E5098585
:105313000C82850D83A3A3A31253B7E50AF0E50B13
:10532300850C82850D83A3A3A3A3A3A3F0AA0EAB2D
:105333000F120E5BE92514850C82850D83A3A3A3AD
:10534300A3A3A3A3F0750800E510A2E45013AC12C5
:10535300AD13E50C2408FAE4350DFB121DB57508F1
:1053630008E510A2E5501B7423120B96126DEBE5B2
:105373000C2508F8E4350DF9E82408FAE439FB12A2
:105383001DB58E828F83A3A3E50EF0A3E50F12450F
:1053930009120CDB740B024F80EE2417F582E43FF5
:1053A300F5837401F0221253AD22F0850C82850D32
:1053B30083A3A322A31253ADA3A3A3221244BCE04D
:1053C3002274F41204218A088B09ECFEEDFF750B9D
:1053D30001900376E065087004A3E0650960137526
:1053E3000B00780B1209031210C574011208C1E9EE
:1053F300F50B7900AA08AB09120EA98A088B09A834
:1054030008A909900376E0687003A3E06970467900
:1054130000EEFAEFFB120E9DEA4B60308A828B831B
:10542300A3A3A3A3A3A3E0541860217508FE7509E1
:10543300FF78081208FF8A828B83A3A3120708123E
:105443006D45120EB574041208C180097901EEFA94
:10545300EFFB120D71A90B02496B74F21204217E4A
:10546300CD7F0E7A107B009003D0E0F9121D91EAF4
:105473004B4C4D701790820E1207047A107B0090EC
:1054830003D0E0F9121D8574041208C1900361E092
:1054930014F0600302553F9027DEE493900361F01C
:1054A3007C0079057A007B00120F998A088B090228
:1054B30055367C007905AA08AB09120F998A0A8B25
:1054C3000B850882850983A3A3A3A3124FCF605D35
:1054D300E5082404F8E43509F98882898312565DC6
:1054E30088828983124FCF7044850882850983A3FC
:1054F300A3A3A3A3A3E054046013850882850983AF
:10550300A3A3A3A3A3A3A3A3E0F9120E85850882F3
:10551300850983A3A3A3A3A3A3A3A3A37406F07AD8
:10552300F08508828509831262B6120EF1850A0896
:10553300850B09E508450960030254B57508008029
:10554300608E828F83A3A3A3A3E0604CF46049EE33
:105553002404125DF514F0703F8E828F83A3A3A3FE
:10556300A3A3E06403701579028E828F83126DEB1F
:105573008E828F83A3A3125707120DFB8E828F8314
:10558300A3A3A3A3A3E06401600E8E828F8374FEA2
:10559300F0A304125647E4F00508EE2407FE500179
:1055A3000F9027D612562640987E008039120FBDE1
:1055B3008E0875090074037808120A1C74452508BF
:1055C300FC74103509FD7A077B0E120FABEA4B70A2
:1055D300DC8E0875090074037808120A1C12562E13
:1055E300125B23E4F00E9027D0126B71501B8E08D0
:1055F30075090074037808120A1C12563CE8240744
:10560300126ED414F070DE80A77B008009EB125673
:105613004B600214F00B9027E0125A0E40EF8047C4
:105623009027E0E493F8E508C3982212563C888259
:105633008983A374FEF0A3042274452508F874102B
:105643003509F9221263EA2275F006A4F8A9F07469
:10565300E528F582740F126EDB22E024FFF0A3E04D
:1056630034FFF0221208C17F0602067F74F712048A
:105673002174DF120975ECFEEDFF750800EE4F6033
:1056830069123987C8241FF582E438124FCD605A56
:105693008A828B83125707AC18AD19EA241EF58250
:1056A300E412572CF9EA241F122833120FF3740B58
:1056B300120B9612570B7003A3E069702D7402123C
:1056C3000B96E064017023741D120B96125779E058
:1056D30064017016741D120B96124FA5A3E0F88E89
:1056E300828F83E0687003750801A908742102435F
:1056F30022E50D75F006A4F8EAF974E928F5827439
:105703000F39F583124FE622125711E06822125720
:1057130015221243108E828F83A32275F016A4FAEA
:10572300ABF074932AF582740B3BF583E02274F497
:10573300120421E97024790090035B125779120552
:10574300998A0A8B0BAE0AAF0B74FE6E700374FF5B
:105753006F701A9027DBE4936013790190035B1257
:1057630057791205998A0A8B0BAE0AAF0B121035C3
:1057730002383790035D1268C42274F61204217450
:10578300F3120975121C118A088B09AE08AF099030
:105793000376E06E7003A3E06F60E9121017EA6E00
:1057A3007002EB6F60DEEEFAEFFB121083E970D448
:1057B300EE4F60D0851882851983E4F004120B96AE
:1057C300EEF0A3EF1242FE120C45E970B774FE6EC1
:1057D300700374FF6F60ADEEFAEFFB740D0231CD11
:1057E300C082C083121035023E9A39F58312430CEE
:1057F300EE2274F2120421EAFEEBFF8C0A8D0B8970
:105803000874FC6E700374FF6F70030259E879002B
:10581300120EA98A0C8B0DAE0CAF0D740E120B96E3
:10582300E0F509900376E06E7003A3E06F7009E57D
:1058330009A2E640030259E8A909120E9D8A0C8BBE
:105843000DA80CA90DE849704679007AFE7BFF127A
:105853000E9D8A0C8B0DA80CA90DE84970317418A4
:10586300550960267B0080010B9027D6125A0E50F3
:1058730019EB75F007A4F8A9F0126B78541870E8C7
:1058830074CD28F8740E39F9801D79020259EA881B
:10589300828983A3A3A3A3A3A3E054186009741864
:1058A300550970030259E888828983EEF0A3EFF06B
:1058B30074FE650A700474FF650B600A888289832D
:1058C300A3A3125A15F088828983A3A3A3A3A3A336
:1058D300E509F0A2E0500D88828983A3A3A3A3A3C3
:1058E300A3D2E2F07401650888828983A3A3A3A3EA
:1058F300A370357401125A2CE0541860259027D1F7
:10590300E49388828983A3A3A3A3126DE7AA0AABB6
:105913000B1211738B0DEA450D60030259E87E00EB
:105923008031900375E080DAE0640170030259E886
:1059330088828983A3A3A3A3A3A3E0541860079039
:1059430027D1E4938004900374E01248DDE5080254
:1059530059E70E9027CD126B7140030259E87D0081
:10596300802BED75F007A4F8A9F074CF28F58274A5
:105973000E1257ED75F017A4FAABF0745D2AF58299
:10598300740D125A3F7003A3E06960C60D9027D6C9
:1059930012339C40CDE4936D70B8EE75F017A4F804
:1059A300A9F0745D28FE740D39FF7C177D00790022
:1059B300EEFAEFFB121BF98E828F83125A15F090C9
:1059C3000383125A311242E91259ED74AAF01259A3
:1059D300F77401125A1C5001097A027B001202D19A
:1059E300125A01E8F0790002566AEE240FF582E4B8
:1059F3003FF58322EE240EF582E43FF58322EE2465
:105A03000DF582E43FF583229027DDE493F8EBC3A1
:105A13009822E50AF0A3E50B22F0125A21229027DF
:105A2300C9E49379002401F8221248E9A322125A07
:105A330037A3A322125715A322F582E43BF583E093
:105A4300682274F21204218A088B09890C12622AD3
:105A530040057905025B20121ED5AA08AB09120E78
:105A630031E9F50D9027E0E493650D700A7AFE7B2A
:105A7300FF120E31E9F50D9027E0E493F8E50DC32D
:105A8300984003025B1E124FBA60061256F4121CB2
:105A9300CBE50C602BE50D75F006A4F8A9F0125CBC
:105AA3005EF8500109880A890BAA0CEA2AFAE43342
:105AB300FB121CC5125B34124FCF701B7901805D42
:105AC300E50D75F006A4F8A9F074E928F582740FC2
:105AD30039F583E4F0A3F0E50D125B4612624B1235
:105AE3005B23A3AA82AB83E50C125B298A828B8397
:105AF300E06024124FBA601F8E088F09750A007880
:105B0300081208FBAC0CEC2CFCE433FD1256F41227
:105B13001BED74031208C179008002790702566AEB
:105B2300F08882898322F0901330E088828983F0A1
