:020000040000FA
:06000000020B3D0201D4D9
:03001B000201F6E9
:03002B00020815B3
:030033000207EFD2
:0300530002011493
:0300730002027E08
:1000830002016801FF01010503010F10FEFF1226A3
:1000930000000000E62400000000FF000000FF0055
:1000A3000101881300000020FD00020000811A00F6
:1000B30000000000003B1B000000000000000000E7
:1000C300000000000000000000000000000000002D
:1000D3000000000000000006FFFF010200B711004E
:1000E3000000E803FFFF2C12E8036400020200088B
:1000F30000000502070101051E02051E020A0A018E
:1001030003B80B02803E0102E8030A050001220442
:1001130014C0E074F21204C5A2AFE433F508D2AF01
:10012300AFA7AEA1EE5F5410600612180B75A1EFD6
:10013300EE5F5408600812181175A1F78023EEA230
:10014300E092F0EFA2E082F05017906198E0F8900F
:100153000ACDE0C398A2D265D0335002E8F075A16E
:10016300FEE5088063C0E074F21204C5A2AFE43375
:10017300FED2AF9061A4E0F8759B00E59158540856
:1001830060087591F71218598023E591585410604F
:10019300087591EF12185F8014E591A2E092F0E8E0
:1001A300A2E082F05007E0C2E0F01219A99061A327
:1001B300E0F8E5E9585404600E12197F75E9FB90E5
:1001C3006193E0A2E640F2EEA2E092AF7F01020566
:1001D30024C0E074F21204C5A2AFE433FED2AF90A0
:1001E30061A5E0F8E5BF585404600675BFFB12191A
:1001F300C180D4C0E074F21204C574FE1209ADA824
:10020300F9E8C0E0900A33E0F874B228F582E434E8
:1002130009F583D0E0F0900A32E0F8A3E0687006B5
:10022300E595900A35F0900A33E004F0C3948040DA
:1002330002E4F0A374C6F012177B900A33E0243073
:10024300851882851983F07401120BCEE4F0F97AD4
:10025300007B801223A579007AB27B091223A5794A
:1002630000AA18AB191223A579007A007B80122308
:10027300A574021208F97F01020524C0E0C0D0E88A
:10028300C0E0E9C0E0C082C083900AB6E0F8A3E012
:10029300687008539AF7A374018022C2EA900AB6E1
:1002A300E0F8740128F0743628F582E4340AF58303
:1002B300E0F5F9900AB6E0C394804002E4F0D083FD
:1002C300D082D0E0F9D0E0F8D0D0D0E032C3E498C7
:1002D300F8E499F91203118026C3E49AFAE49BFB2C
:1002E300E920E7E9120311E498F8E499F922C3E459
:1002F30098F8E499F9120311E498F8E499F9C3E43E
:100303009AFAE49BFB22EB20E7CFE920E7E0B90070
:1003130010BB0008E88AF084F8AAF022E4FBC8FACC
:1003230022EB70227B10C833C8C933C9335007C3CB
:100333009AC3DBF280069A50012ADBEAC833F4C879
:10034300C933F4C9FA2275F008E4C833C8C933C9FC
:1003530033C99AC99B5004C92AC93BD5F0ECFBC8E1
:1003630033F4C8E4C9FA22080808EAC0E0EBC0E0A5
:1003730086F0E7A4FA180986F0E7A42AFA18098692
:10038300F0E7A42AFA180986F0E7A42AFA1986F0F6
:10039300E7A4FBE5F02AFA190886F0E7A42BFBE5AE
:1003A300F03AFA190886F0E7A42BFBE5F03AFA18BD
:1003B300180986F0E7A4C5F02BFBE43AFA1908E71D
:1003C300C5F0C6A426F6E5F03BFBE43AFA1886F03E
:1003D300E7A4F6E5F00826F6E43B08F6E43A08F667
:1003E300D0E0FBD0E0FA22E4CFC0E0E4CEC0E0E40A
:1003F300CDC0E0E4CCC0E075F020E626F608E63395
:10040300F608E633F608E633F6181818EC33FCED75
:1004130033FDEE33FEEF33FFC3EC9709ED9709EE9F
:100423009709EF97191919400FFFEC97FC09ED97FE
:10043300FD09EE97FE191906D5F0BFECF709EDF7A4
:1004430009EEF709EFF7191919D0E0FCD0E0FDD058
:10045300E0FED0E0FF222518C582C0E0E51934FF95
:10046300C583C0E0E518C3958224F810AF088583DF
:10047300198582188008858319858218D2AFCEF03A
:10048300A3E520F0A37808E608F0A3DEFAEFF0A3D3
:10049300E58124FAF8E608F0A3E608F0A3E608F0FD
:1004A300A30808E608F0A3E608F0A315811581D098
:1004B300E0FED0E0F8158115811581E8C0E0EEC0BB
:1004C300E022C0D02518C582C0E0E51934FFC583FA
:1004D300C0E0E518C3958224F310AF08858319851E
:1004E30082188008858319858218D2AFC8F0A3E9E2
:1004F300F0A3EAF0A3EBF0A37908E709F0A3D8FA95
:10050300ECF0A3EDF0A3EEF0A3EFF0A3D0E0F0A3A3
:10051300D0E0F0A3D0E0F0A3E520F0A3E5F0F0A352
:1005230022851983851882E0C0E0A3E0F9A3E0FAED
:10053300A3E0FBA37808E0F608A3DFFAE0FCA3E05E
:10054300FDA3E0FEA3E0FFA3E0C0E0A3E0C0E0A3BF
:10055300E0F5D0A3E0F520A3E0A3F5F010AF088504
:1005630083198582188008858319858218D2AFD0B4
:1005730082D083D0E0F8D0E032120BC3B90003027B
:1005830005BBE490030178B579108002F0A3D8FC91
:10059300D9FA7AB57B12900086788F79018015E4B9
:1005A30093A3AD82AE838A828B83F0A3AA82AB83AB
:1005B3008D828E83D8E9D9E77582377583CF74042A
:1005C3001208DB7582AB75832374001208DBE473B6
:1005D3000C75F0108E1A8F1B85821F85831E85185C
:1005E30082851983E0CEA3E0CF851F82851E83EB2E
:1005F300C9EAC8EDCBECCAC3E833C8E933C9EA3367
:10060300CAEB33CBC3EA9EF51DEB9FF51CB3500435
:10061300AB1CAA1DEC33CCED33CDD5F0DAAE1AAF5B
:100623001B22D083D082ECC0E0EDC0E0E493A3FCB6
:10063300E493A3FDED4C600D1206FDEC24FFFCEDED
:1006430034FFFD80EFE493A3FCE493A3FDED4C6042
:100653000D12079AEC24FFFCED34FFFD80EFD0E090
:10066300FDD0E0FCE493A3C0E0E493C0E022D08398
:10067300D082E9C0E0E493A3C386F0C5F095F0F916
:1006830008E493A386F0C5F095F0700BE493A3C33D
:10069300994005E9048002A3E475F002A42582F5DC
:1006A30082E5F03583F583D0E0F9E493A3C0E0E479
:1006B30093C0E022851983851882E0A3FEE0A3F5A9
:1006C300207808E0A3F608DFFAE0A3FFE0A3C0E088
:1006D300E0A3C0E0E0A3C0E0E0A3C0E0E0A3C0E08B
:1006E30010AF088582188583198008858218858351
:1006F30019D2AFD083D0820208E1C0E0C3E493965D
:10070300087401939618400FE49366700808740107
:1007130093661870007019A3A3C3E4939608740139
:10072300939618A3A3400DD0E0D0E0D0E002066179
:10073300A3A3A3A3A3A3D0E0227404800474028020
:1007430000CCC0E0EDC0E0E518C39CCCAD1950016E
:100753001D10AF068C188D1980068C188D19D2AF19
:1007630012085DD0E0FDD0E0FC2274028000CCC012
:10077300E0EDC0E0E518C39CCCAD1950011D10AFEE
:10078300068C188D1980068C188D19D2AF12083B70
:10079300D0E0FDD0E0FC22C0E0C0F088F0E4936636
:1007A30070080874019366187000A8F0A3A3700B77
:1007B300D0F0D0E0D0E0D0E0020661A3A3D0F0D027
:1007C300E022D083D082CCC0E0E493A36006120879
:1007D300BC1470FAE493A360061209C31470FAD030
:1007E300E0FCE493A3C0E0E493C0E022C0E074F231
:1007F3001204C5A2AFE433FED2AFE58BA2E05003EF
:100803001216FD758B00C2E8EEA2E092AF7F0102E3
:100813000524C0E0C0D0E8C0E0E9C0E0A9A8D2AF99
:10082300C2C7E9A2E7E433F8E9A2E792AFD0E0F95F
:10083300D0E0F8D0D0D0E032CAC0E0E493A3C582C0
:10084300CCC582C583CDC583F0A3C582CCC582C583
:1008530083CDC583DAE5D0E0CA22CAC0E0E0A3C5F0
:1008630082CCC582C583CDC583F0A3C582CCC582A6
:10087300C583CDC583DAE6D0E0CA2270090808082B
:10088300226016181818C6C333C608C633C608C66E
:1008930033C608C633C6D5E0EA22C008C3E096F5DE
:1008A3000808A3E096420808A3E096420808A3E0DC
:1008B3009645087001D3D00822C0E0E493A3D39CEB
:1008C3005010E493A3C39C400AD0E0D0E0D0E002F0
:1008D30007E2A3A3A3D0E022C09FF59FE473D09FB8
:1008E30022D083D082C09FE493C0E0740193C0E020
:1008F300740293F59F2200C0D0251810AF08F51895
:10090300500C05198008F51850020519D2AFD0D044
:10091300222518F58210AF08F518400C1519800828
:10092300F51840021519D2AF851983227404800A81
:1009330074038006740280027401C0E0F404120997
:1009430014D0E0120B7A22BB0102E722C082C083DB
:1009530089828A83BB0003E08002E493D083D08240
:10096300226016080808C6C313C618C613C618C6DD
:1009730013C618C613C6D5E0EA222518F8E43519BC
:10098300F9222518FAE43519FB222518FCE4351958
:10099300FD22C3E0C696F608A3E0C696F608A3E0D8
:1009A300C696F608A3E0C696F622251810AF08F5FA
:1009B30018400C15198008F51840021519D2AF22FA
:1009C300C0E0E493A36C7009D0E0D0E0D0E002076C
:1009D300E2A3A3D0E022E066701008A3E066700AE9
:1009E30008A3E066700408A3E06622C3E09608A3A8
:1009F300E09608A3E09608A3E096A2D265D033223E
:100A0300E76670100809E766700A0809E76670046C
:100A13000809E76622C3E096F008A3E096F008A36E
:100A2300E096F008A3E096F022C3E697F60809E6FD
:100A330097F60809E697F60809E697F622C3E493C2
:100A43009608740193960874029396087403939618
:100A530022700422600D18C6C333C608C633C6D538
:100A6300E0F41822E647F60809E647F60809E647E0
:100A7300F60809E647F622E026F008A3E036F00878
:100A8300A3E036F008A3E036F022E627F60809E6ED
:100A930037F60809E637F60809E637F622E657F689
:100AA3000809E657F60809E657F60809E657F62255
:100AB300E056F008A3E056F008A3E056F008A3E0E0
:100AC30056F022E026F608A3E036F608A3E036F651
:100AD30008A3E036F622E056F608A3E056F608A38C
:100AE300E056F608A3E056F622E4C396F608E49629
:100AF300F608E496F608E496F622600D08C6A2E727
:100B030013C618C613C6D5E0F322C6F4C608C6F446
:100B1300C608C6F4C608C6F4C622C3E7960809E7A2
:100B2300960809E7960809E79622C3E09608A3E02A
:100B33009608A3E09608A3E0962275D00075813F3E
:100B43007518017519030002057CE6F008A3E6F0A9
:100B530008A3E6F008A3E6F022600C08C6C313C698
:100B630018C613C6D5E0F422E0F608A3E0F608A3FE
:100B7300E0F608A3E0F622CAC0E0E6F0A308DAFA3A
:100B8300D0E0FA22E8F0A3E9F0A3EAF0A3EBF02225
:100B9300E0F8A3E0F9A3E0FAA3E0FB22ECF0A3ED75
:100BA300F0A3EEF0A3EFF022E0FCA3E0FDA3E0FE50
:100BB300A3E0FF22E0FAA3E0FBA3E0FCA3E0FD2215
:100BC300E5C754F84401F5C77901222518F582E4F5
:100BD3003519F58322C2AF75D69F02000022120891
:100BE300E4C4B1021208E451B4021208E4AAB50243
:100BF3001208E43DB6021208E4C7B6021208E42D57
:100C0300B7021208E46CB7021208E4E2B702120852
:100C1300E437B9021208E4DAB9021208E4F2B902BD
:100C23001208E495BA021208E41FBD021208E4C0D8
:100C3300BE021208E4DEBE021208E41928001208FC
:100C4300E47328001208E4DD28001208E466290092
:100C53001208E4222A001208E4B12A001208E4CAA6
:100C63002A001208E4EF2A001208E42D2B001208D0
:100C7300E47C2B001208E4A52B001208E4F42B00FB
:100C83001208E4A02C001208E4682D001208E4CD39
:100C93002D001208E49A2E001208E4E02E00120838
:100CA300E4FC2E001208E42E2F001208E4D63000D4
:100CB3001208E4AD31001208E4D931001208E40D42
:100CC30032001208E42E32001208E43D320012080A
:100CD300E44832001208E4FC32001208E46F3300E7
:100CE3001208E4E133001208E4E933001208E40CCB
:100CF30035001208E43F35001208E40136001208FB
:100D0300E4B036001208E4F836001208E45A37005B
:100D13001208E47F37001208E4F737001208E47F73
:100D230038001208E4E338001208E4C83900120856
:100D3300E4ED39001208E40E3B001208E4213B0005
:100D43001208E4B53B001208E4FF3C001208E40F6C
:100D53003D001208E41E3E001208E4973E0012080C
:100D6300E4D93E001208E4153F001208E4E940000C
:100D73001208E44E43001208E46243001208E46CD4
:100D830043001208E47643001208E480430012088B
:100D9300E48A43001208E4A343001208E4AD4300CD
:100DA3001208E4B743001208E4C143001208E4E95F
:100DB30043001208E4F443001208E43E440012081E
:100DC300E44844001208E45344001208E477440062
:100DD3001208E49B44001208E4FC44001208E447B0
:100DE30045001208E46345001208E4CD45001208EB
:100DF300E41946001208E46146001208E4DC4600E8
:100E03001208E47647001208E43A49001208E4A8FD
:100E130049001208E4DA4A001208E4004B00120801
:100E2300E4704C001208E42450001208E424520039
:100E33001208E4FC53001208E49554001208E4A7D6
:100E430056001208E46957001208E4B55700120867
:100E5300E41B58001208E42D58001208E47D5A00E0
:100E63001208E4AA5B001208E4FC5B001208E4A188
:100E73005C001208E45C5E001208E48D5F00120857
:100E8300E4AB5F001208E40060001208E4FE6000B7
:100E93001208E42661001208E48961001208E48A5A
:100EA30062001208E4FD62001208E42B64001208D9
:100EB300E49664001208E48665001208E4EC670017
:100EC3001208E41A68001208E41569001208E4B372
:100ED3006A001208E4036B001208E4BB6B001208FB
:100EE300E4706C001208E4D46C001208E48D6D0009
:100EF3001208E42D6E001208E4916E001208E4DB80
:100F03006E001208E4186F001208E48070001208E3
:100F1300E44B82011208E48382011208E45C850138
:100F23001208E4A285011208E4BF86011208E42432
:100F330087011208E47588011208E4668B01120820
:100F4300E4858C011208E45A97011208E4FB970127
:100F53001208E4EE9A011208E4EE9B011208E4760B
:100F63009C011208E4C69D011208E4AD9E0112081B
:100F7300E416A1011208E424A3011208E4B1A301B9
:100F83001208E48DA4011208E4B6A4011208E46374
:100F9300A5011208E44EA6011208E426A7011208CF
:100FA300E486A7011208E4AFA7011208E4DCA70155
:100FB3001208E42DAA011208E408AB011208E44C5C
:100FC300AB011208E4BDAB011208E476AC011208D0
:100FD300E4A8AC011208E4EFAC011208E422AD016D
:100FE3001208E487AD011208E4D6AD011208E4DB70
:100FF300AD011208E42FAE011208E479AE01120824
:10100300E475AF011208E4DAAF011208E441B0015C
:101013001208E466B3011208E43AB4011208E4A426
:10102300B5011208E47EB8011208E426B9011208DA
:10103300E44DBB011208E4F2BB011208E430BC0129
:101043001208E409BE011208E41CBE011208E425DB
:10105300BE011208E42EBE011208E443BE011208C9
:10106300E462BE011208E441C0011208E4ABC0010E
:101073001208E4FAC1011208E443C2011208E4238E
:10108300C3011208E44EC4011208E404C5011208A6
:10109300E406C6011208E408C7011208E4EEC7011A
:1010A3001208E405C8011208E442C8011208E44C1E
:1010B300C8011208E457C8011208E475C8011208F0
:1010C300E4B7C8011208E415C9011208E43AC901DA
:1010D3001208E454C9011208E4E1C9011208E41A30
:1010E300CA011208E468CB011208E4BACB01120862
:1010F300E4D4CC011208E4FBCC011208E497CD013F
:101103001208E413CE011208E45FCF011208E47A57
:10111300D0011208E440D1011208E4EAD101120817
:10112300E46FD2011208E4D7D2011208E48CD30190
:101133001208E4DED3011208E444D4011208E40DDA
:10114300D5011208E430D5011208E4E8D5011208EC
:10115300E40CD6011208E42ED6011208E48FD6015E
:101163001208E4DAD8011208E4B5D9011208E45FE1
:10117300DA011208E4A0DC011208E4EEDC01120833
:10118300E431DD011208E489DD011208E4E7DD0141
:101193001208E411DE011208E435DE011208E466E8
:1011A300DE011208E490DE011208E4D7DE01120822
:1011B300E42BDF011208E487DF011208E488E00171
:1011C3001208E4F2E1011208E430E2011208E459E2
:1011D300E2011208E4EAE2011208E434E30112082E
:1011E300E458E3011208E4ABE3011208E4C6E301A7
:1011F3001208E481E4011208E4ABE4011208E4EE0E
:10120300E4011208E444E5011208E450E80112087D
:10121300E483E8011208E440E9011208E41BEA014F
:101223001208E4ABEA011208E4ECEA011208E40054
:1012330080041208E43880041208E4598004120878
:10124300E49B80041208E4FF80041208E40981048B
:101253001208E41981041208E45081041208E4F925
:1012630084041208E4C186041208E4B58804120851
:10127300E45389041208E4DA89041208E464BF021F
:101283001208E40DC0021208E4ECC0021208E407DD
:10129300C2021208E427C2021208E449C302120878
:1012A300E4E6C4021208E453C5021208E429C602A4
:1012B3001208E42FC7021208E494C7021208E4D00C
:1012C300C7021208E429C8021208E462C80212081D
:1012D300E4ABC8021208E43DC9021208E4DAC90209
:1012E3001208E4AFCA021208E47CCB021208E40934
:1012F300CC021208E42FCC021208E45CCC021208E0
:10130300E48DCC021208E462CD021208E472CD022D
:101313001208E4C5CD021208E4D2CD021208E4DFBC
:10132300CD021208E4E8CD021208E44CCE02120802
:10133300E4AACE021208E4F5CE021208E410CF02AA
:101343001208E437CF021208E454CF021208E46013
:10135300CF021208E404D1021208E41DD1021208DC
:10136300E499D1021208E4ACD1021208E4BCD10220
:101373001208E462D2021208E4D2D3021208E4E5AE
:10138300D4021208E485D5021208E48FD5021208AC
:10139300E4FDD5021208E40ED6021208E44DD6028B
:1013A3001208E47BD6021208E448D7021208E49F2D
:1013B300D7021208E4E4D7021208E43AD80212086A
:1013C300E458D8021208E4A6D8021208E474D90239
:1013D3001208E4C2D9021208E404DA021208E4870C
:1013E300DA021208E4B1DA021208E4E7DA021208B8
:1013F300E4F6DA021208E454DB021208E4CCDB025E
:101403001208E40DDC021208E45CDC021208E48733
:10141300DC021208E4A1DC021208E4BBDC021208BD
:10142300E490DD021208E49ADD021208E4D5DD023D
:101433001208E4E5DD021208E436DE021208E44A8B
:10144300DE021208E468DF021208E47DDF021208FC
:10145300E417E0021208E496E0021208E439E1021C
:101463001208E444E1021208E491E2021208E4AD36
:10147300E2021208E405E3021208E473E30212082D
:10148300E4BFE3021208E4D9E3021208E439E402F8
:101493001208E4D7E4021208E422E5021208E48504
:1014A300E7021208E41DE8021208E494E8021208B5
:1014B300E4DAEA021208E4F2EA021208E4F5EA02C4
:1014C3001208E401EB021208E415EB021208E41D12
:1014D300EB021208E454EB021208E448EC0212088F
:1014E300E4D2EC021208E454ED021208E4C9ED025E
:1014F3001208E4A1EE021208E4C3EE021208E45A51
:10150300EF021208E466EF021208E4C3EF021208C6
:10151300E4C6EF021208E435F0021208E481F10296
:101523001208E494F2021208E41FF3021208E432F0
:10153300F4021208E4FCF4021208E42DF502120886
:10154300E453F5021208E45CF5021208E48BF50299
:101553001208E43BF6021208E4EBF6021208E45E1A
:10156300F7021208E410F8021208E483F8021208E2
:10157300E4C2F8021208E40BF9021208E43FE103A3
:101583001208E4AAE1031208E4F6E1031208E446B0
:10159300E2031208E4CAE2031208E40EE5031208A8
:1015A300E42CE7031208E4ACEA031208E4E7EA03D5
:1015B3001208E405EB031208E465EB031208E48D5B
:1015C300EB031208E4BEEB031208E4EBEB0312088F
:1015D300E454EC031208E4DCC8031208E458C9031A
:1015E3001208E484C9031208E4B6C9031208E41814
:1015F300CB031208E434CB031208E472CB031208C2
:10160300E4FFCB031208E45BCC031208E421CD030F
:101613001208E4E0CD031208E425CE031208E486A1
:10162300CE031208E4FBCE031208E424CF0312080E
:10163300E465CF031208E40CD1031208E4F0D103EC
:101643001208E4A7D2031208E494D3031208E4CEE9
:10165300D3031208E426D4031208E448D40312087F
:10166300E4E0D4031208E487D5031208E470EC0421
:101673001208E411C7041208E430C7041208E44650
:10168300C7041208E431C9041208E4C3B3041208FE
:10169300E42CB4041208E4D0E9041208E4E1E904F8
:1016A3001208E47FEA041208E4DADE041208E4E82C
:1016B300DE041208E4E4FF031208E439EB04120821
:1016C300E449EB041208E461EB041208E4C9EB04F7
:1016D3001208E4E1FE031208E465FF031208E4CBF9
:1016E300FF031208E49CE3041208E4BEE3041208B7
:1016F300E42BE4041208E473E4041208E4CCE404E5
:101703001208E433A3021208E455DB041208E48D43
:10171300DB041208E4AEDB041208E423DC04120841
:10172300E404DD041208E41BBB041208E429BB042F
:101733001208E4A2BB041208E477BC041208E436DE
:10174300BE041208E4C47F001208E456D40412084D
:10175300E4A0D4041208E457D5041208E4C7D5045E
:101763001208E445D6041208E446B1021208E476EE
:10177300D6041208E479D6041208E4B6D604120893
:10178300E4D1D1041208E4E3D1041208E4A9D20499
:101793001208E479D3041208E499D3041208E4226A
:1017A300D4041208E440F9021208E46CF9021208A6
:1017B300E412FC021208E469FC021208E4A5FC022C
:1017C3001208E4B9FC021208E4D2FC021208E4C3D2
:1017D300FD021208E49FFE021208E4B3FE0212089F
:1017E300E428E2041208E44CE2041208E465E2048B
:1017F3001208E4A3E2041208E4D9E2041208E40C98
:10180300E3041208E478E3041208E47BE304120817
:10181300E485E3041208E492E3041208E4D6C9045D
:101823001208E4F9C9041208E444CA041208E46281
:10183300CA041208E47DCA041208E4E3CA041208C5
:10184300E4EFCA041208E44CCB041208E470CB049E
:101853001208E436CC041208E443CC041208E4541E
:10186300CC041208E4FAEC041208E412ED041208A2
:10187300E438ED041208E450A7041208E4E6A804CF
:101883001208E4F4A8041208E408A9041208E425E1
:10189300A9041208E43AA9041208E44DA9041208A1
:1018A300E4CFA9041208E434AA041208E4CAAA047F
:1018B3001208E4A3AB041208E4B3AB041208E4C2B5
:1018C300AB041208E4A0EA041208E4C4EA04120810
:1018D300E4ECEA041208E414EB041208E484C104FF
:1018E3001208E4F0C1041208E40FC2041208E484ED
:1018F300C2041208E44EC4041208E467C4041208C4
:10190300E47EC4041208E487C4041208E4A5C404F2
:101913001208E4AFC4041208E4B9C4041208E4CC06
:10192300C4041208E459C5041208E4C2C504120829
:10193300E4F0C5041208E441C6041208E48DC604A9
:101943001208E4A8C6041208E4B2C6041208E4C3E9
:10195300C6041208E406C7041208E4797F001208DB
:10196300E42A94041208E45694041208E4799404D3
:101973001208E48C94041208E4A794041208E40700
:1019830095041208E43595041208E4399904120801
:10199300E4769A041208E4A89A041208E40F9B045C
:1019A3001208E48F9C041208E4B79C041208E4CCE8
:1019B3009C041208E4DC9C041208E41C9D04120835
:1019C300E45E9D041208E46E9D041208E40BE50432
:1019D3001208E41BE5041208E43FE5041208E46876
:1019E300E5041208E492E5041208E4B6E5041208DB
:1019F300E4CDE5041208E4FBE5041208E41EE60462
:101A03001208E4B6EC041208E48DB7041208E49D4E
:101A1300B7041208E4B9B8041208E4EBB8041208D6
:101A2300E411B9041208E439B9041208E44BB90407
:101A33001208E487B9041208E4EDB9041208E42992
:101A4300BA041208E46EBA041208E49BBA0412083A
:101A5300E4C7BA041208E49AE7041208E4B8E704F6
:101A63001208E41AE8041208E4C7E8041208E4DCE4
:101A7300E8041208E488E0041208E4D9E104120837
:101A8300E49FEC031208E455ED031208E47AED0336
:101A93001208E49AED031208E4AEED031208E40A17
:101AA300EE031208E42EEE031208E4A9EF03120872
:101AB300E4D1F0031208E4ABF1031208E408F203E3
:101AC3001208E43EF2031208E4C0F2031208E41918
:101AD300F3031208E43AF3031208E4BCF303120815
:101AE300E4F1F3031208E454F4031208E412F603D6
:101AF3001208E4DEF6031208E416F7031208E46A98
:101B0300F7031208E40FDD041208E430DD041208C1
:101B1300E463DE041208E48DDE041208E482CC04DC
:101B23001208E4F6CC041208E401CD041208E422FE
:101B3300CD041208E4F370001208E4F670001208F2
:101B4300E4C871001208E40472001208E44472004D
:101B53001208E47672001208E4A472001208E4E1A9
:101B630072001208E40F73001208E40D74001208E7
:101B7300E45474001208E49674001208E40F75002C
:101B83001208E4AC75001208E4CF75001208E439BA
:101B930076001208E4A777001208E45F78001208C1
:101BA300E44C79001208E4397A001208E4F27A006E
:101BB3001208E4277B001208E4937B001208E42E4A
:101BC3007C001208E45C7C001208E4047E00120826
:101BD300E4827E001208E4C27E001208E40CD904F9
:101BE3001208E42FD9041208E420DA041208E400EE
:101BF300DB041208E456E6041208E48CE604120837
:101C0300E4A8E6041208E4EAE6041208E4FAE604A7
:101C13001208E48DE7041208E497E7041208E48647
:101C23008A041208E4908A041208E4D78A0412088A
:101C3300E4408B041208E4618B041208E47A8B04F9
:101C43001208E42C8C041208E4968E041208E49F14
:101C53008E041208E4F08E041208E4268F0412089E
:101C6300E43D8F041208E4AA8F041208E43A9004B6
:101C73001208E47090041208E4B990041208E41AFC
:101C830091041208E45491041208E4BC910412086C
:101C9300E40F92041208E45292041208E48F9204AF
:101CA3001208E4A192041208E4B392041208E4D2E5
:101CB30092041208E4DB92041208E4A093041208CD
:101CC300E4EC93041208E49E9D041208E4E49E04E9
:101CD3001208E40D9F041208E41E9F041208E43660
:101CE300A1041208E456A1041208E4D3EB04120879
:101CF300E4C8D6041208E4FED6041208E44DD7045F
:101D03001208E4A9D8041208E4ADEB011208E4EBCD
:101D1300EC011208E427ED011208E4F6EE011208C3
:101D2300E420EF011208E4B7F1011208E4F7F1012E
:101D33001208E48DF3011208E422F4011208E4808E
:101D4300F4011208E406F5011208E43EF501120855
:101D5300E480F5011208E4F1F6011208E475F801D4
:101D63001208E49EFA011208E4CCFA011208E4F81E
:101D7300FA011208E401FB011208E457FB011208FF
:101D8300E4E7FB011208E4EAFE011208E46CFF0138
:101D93001208E4DAFF021208E4F0FF021208E4F387
:101DA300AB041208E40CAC041208E4B1AC0412084E
:101DB300E4F1AC041208E40AAD041208E43DAD04F6
:101DC3001208E48AAD041208E4BEAD041208E4006C
:101DD300AE041208E4E9AF041208E4C7FE021208D5
:101DE300E439FF021208E477FF021208E4B8FF02A5
:101DF3001208E4E29E031208E43A9F031208E4C2C5
:101E03009F031208E4CAA0031208E4A8A10312085E
:101E1300E44FA2031208E49BA2031208E4F4A20312
:101E23001208E449A3031208E4B8A3031208E4F870
:101E3300A3031208E4F4A4031208E44FA503120851
:101E4300E46BA5031208E4BBA5031208E4F4A5039D
:101E53001208E413A6031208E45EA6031208E4744E
:101E6300A6031208E48BA6031208E4BAA603120819
:101E7300E4CCA6031208E497A7031208E4A2A7037D
:101E83001208E41CA8031208E46FA8031208E4AEC6
:101E9300A8031208E4DFA8031208E442AB03120804
:101EA300E473AB031208E495AC031208E4B9AC0382
:101EB3001208E434AD031208E406AE031208E44842
:101EC300AE031208E4B2AE031208E45DAF031208D6
:101ED300E487AF031208E491AF031208E49BAF0356
:101EE3001208E49EAF031208E406B0031208E43FAD
:101EF300B0031208E452B0031208E47FB0031208DF
:101F0300E4BAB0031208E4BDB0031208E4C7B00397
:101F13001208E4F6B0031208E410B1031208E42B2C
:101F2300B1031208E45AB1031208E47AB1031208A8
:101F3300E4B7B1031208E4F2B1031208E4FEB203FA
:101F43001208E423EC041208E43BEC041208E4FC5A
:101F53007F001208E47EF7031208E4CDF7031208AA
:101F6300E48BF9031208E45FFB031208E49DFB030F
:101F73001208E4A8FC031208E4B2FD031208E4D437
:101F8300FD031208E430FE031208E4B1FE03120855
:101F9300E40080031208E41F80031208E4B0800306
:101FA3001208E4F980031208E45781031208E4D20B
:101FB30081031208E44982031208E49A8203120897
:101FC300E40083031208E49283031208E40A8403FF
:101FD3001208E44984031208E4B188031208E4CE2A
:101FE3008A031208E4078B031208E4468B031208E2
:101FF300E4D88C031208E4DB8C031208E4A28D03FB
:102003001208E4CC8E031208E4C690031208E447D6
:1020130093031208E41694031208E4349503120898
:10202300E47E98031208E48E98031208E4129A03DC
:102033001208E4B09A031208E4E99B031208E45976
:102043009C031208E4B79D031208E41E9E031208C2
:10205300E45DB4031208E4F8B4031208E46BB503B7
:102063001208E47BB5031208E403B6031208E45F25
:10207300B6031208E49AB7031208E4BEB7031208C2
:10208300E435B8031208E486B8031208E4E4B8039D
:102093001208E43FB9031208E4ECBB031208E4E3BB
:1020A300BC031208E459BD031208E430BF0312084D
:1020B300E4D3BF031208E48CC0031208E4F1C003A5
:1020C3001208E460C1031208E483C2031208E4495E
:1020D300C4031208E469C5031208E4F6C503120831
:1020E300E466C6031208E478C7031208E4D4D503F0
:1020F3001208E439D6031208E481D6031208E4D4A3
:10210300D6031208E43AD7031208E49CD703120853
:10211300E411D8031208E448D9031208E470D90380
:102123001208E44EDA031208E45FDA031208E477D4
:10213300DA031208E46EDB031208E4AEDB031208D1
:10214300E4B7DB031208E4CEDB031208E4ECDB03A1
:102153001208E4C9DC031208E483DD031208E48DEA
:10216300DD031208E48FDE031208E47ADF031208AA
:10217300E41CE0031208E489E0031208E49EE00390
:102183001208E49BBE041208E44EBF041208E416CE
:10219300C0041208E47EC0041208E4F2C00412086A
:1021A300E4F6AF041208E414B0041208E458B004CF
:1021B3001208E47EB0041208E4A0B0041208E4B8E4
:1021C300B0041208E4D0B0041208E4E8B004120822
:1021D300E492B1041208E4D4B1041208E4DEB104B9
:1021E3001208E4F3B2041208E4FCB2041208E40592
:1021F300B3041208E40EB3041208E418B30412087B
:10220300E4AAA2041208E4D6A6041208E4E4A6048D
:102213001208E4E9A6041208E457D0041208E43BC8
:10222300ED041208E4C9FF011208E467ED04120883
:10223300E490ED041208E409A3021208E451A20297
:102243001208E484A0021208E454A0021208E4185D
:10225300A0021208E404A0021208E4459F02120837
:10226300E4929E021208E4419C021208E4169C02C6
:102273001208E4B79B021208E4289A021208E4B693
:1022830099021208E49399021208E4D798021208FB
:10229300E47A97021208E43197021208E40B9702DA
:1022A3001208E44796021208E49194021208E431FA
:1022B30094021208E40294021208E4FF9302120843
:1022C300E4EA93021208E4FFB0021208E466B002E3
:1022D3001208E457B0021208E444AD021208E49174
:1022E300AA021208E458A9021208E479A802120803
:1022F300E4A5A6021208E4AA93021208E491930249
:102303001208E49B92021208E45A92021208E4664D
:10231300A4021208E4E791021208E4B4910212083D
:10232300E45991021208E42891021208E405A40278
:102333001208E4F18D021208E45FD6041208E403E4
:102343008D021208E4BD8B021208E4698B021208A5
:10235300E45D8B021208E4C48A021208E492890243
:102363001208E4ED86021208E49084021208E444A1
:1023730084021208E42983021208E4BE82021208CE
:10238300E4E881021208E4A481021208E46B8002EB
:102393001208E4ACA3021208E43280021208E4003B
:1023A30080021208E430DB0400000080FB000136E9
:1023B30036010100010201000103010001040106CD
:1023C3000605020000070100340801000F0904019B
:1023D300010D0100FF0E08000017020000190100A3
:1023E300FF1A0100011B0100FE1C0100081D020071
:1023F300001F010001200100012102000023010050
:102403000F24020000260100012701000828020012
:10241300FF2A0100072B0102402C0100002D0100BF
:10242300012E0100012F0100FF30010B1C310800B8
:10243300003A0100083B01000F3C0100013D01008F
:10244300FF3E04000042040000460400004A04006A
:10245300004E04000052040000560400005A040019
:10246300005E20FFFF36000100060000000F0000A1
:10247300000000000000000000000003FFFF000058
:102483000403FFFF0000FFFF0FF4010005C4040372
:1024930020000100000B0000000000000000030109
:1024A3000F0000000000000000000000000000001A
:1024B3000000000000000000000000000000000019
:1024C3000000000000000000000000000000000009
:1024D30000000000000000000000000000000000F9
:1024E3000000000103710301030103010301030160
:1024F300032203020301031003000300030003008C
:102503000300030003000342030003240306030044
:1025130003000304031203250323032503230304F6
:102523000304030003000300034403000300032325
:102533000300036503210035038103000305030042
:1025430003000300030003250323030304710402B0
:102553000460041104700402040204010402041060
:1025630004610400041404630473047204620443E6
:102573000400041304060400040004040412040009
:102583000400040004000451046400000400040077
:10259300044404000400040004000465040004353A
:1025A300048104640005040004830400040302712D
:1025B3000230016002110270020102020202028073
:1025C30002100261023A0041006302730272026266
:1025D3000243020002130238000002000204021246
:1025E3000200020002000200020402040237003764
:1025F300003C0244020002390000020002650200AE
:1026030002350281020002050282028302000203F4
:10261300007100300160001100700031022003508E
:102623000480001000610000001400630073007256
:1026330000620043000000130006000000000004D5
:102643000012000000000000000000040004003736
:102653000037003C02440000000000000000006559
:102663000000003500810000000500000083000029
:102673000001017101010101011101010131010198
:102683000101018001100161013B0014006301732A
:10269300017201620143010001130106013D01358D
:1026A3000004011201000100010001000104010402
:1026B30001330133013C01440132013600000100C2
:1026C30001650100013500810100010501820183DB
:1026D3000100010000932013000320010093200256
:1026E30000B51F0300BB1F0400C11F0500C71F0661
:1026F30000D31F1100F71F1400FD1F1500E51F1F56
:1027030000EB1FFFFF0000014D0F067D0F08770F41
:102713000B890F10C30E02530F056B0F07590F0CD4
:10272300350F0D410F64070DFF000007ECFDFDFDA4
:10273300ECDCDCCCBCACAC9C9C8C7C7C6C6C5C5CC6
:102743005C4C4C3C3C2C2C1C1C03EAF5E5D5D5C554
:10275300B5A5959585857575656555554545353596
:10276300252515150500160F00000B150B02000299
:10277300220F3300000E5A6967426565416C6C692C
:10278300616E6365303901030507090B0D0F000204
:102793000406080A0C0D303017181921301B1D1FB1
:1027A30030303016181920231A1C1E3000393D3FD3
:1027B300373C3C362C442D00034A49434E181A2516
:1027C300050200011916181616182303000C0E0231
:1027D3000B040B0A0708000F02040201010101099F
:1027E30002000000000000E803000000BE040A3CF1
:1027F30000000000003C007F00E8030E000A030510
:10280300080910040008FF1E1E0C05280903040410
:1028130000081501030CC082C0837900EA122A1E46
:102823003BF583C082C083900342126E23D083D0D2
:1028330082C3E09CA3E09D500CEA240B12286B1288
:10284300284B600109023ED2EA75F00BA4FAA8F006
:1028530075F00BEBA428FB900344E02AF8A3E03BBC
:102863008882F583E0540F22F582E43B12501C2248
:1028730074F712045989081246B5A3E0F9E875F014
:102883000BA4F8ACF075F00BE9A42C122A99E8FE1E
:10289300E9FF7401650860067402650870228A8284
:1028A3008B83122DC5740265087021EA2403FA5044
:1028B300010B120C5FE970148E828F83E4F0800C9D
:1028C300EA2403FCE43B122DBC120C598E828F8345
:1028D300E0D2E7F0121EDD02435D74F412045912D4
:1028E3002E7F79008E828F83E06075890A890B8041
:1028F30064E50A75F00BA4FAA8F075F00BE50B126A
:1029030028577049E50A75F00BA4F8AAF075F00B87
:10291300E50B122A7A8E828F83E0850882850983EC
:10292300123E86122D3CEE2403FCE43F122A1112C0
:102933000C591244F0125A4D123876D2E7F0121E97
:10294300DD7901900342E0F50AA3E0F50B050AE502
:102953000A7002050B122C98E50A9AE50B9B40912D
:102963000249A374F5120459EAFEEBFF750A0174D8
:102973000B120BCE123469EC4D6015EC122A1E3D7E
:10298300122E8D7901120C41E508450960758023EB
:10299300E50845096044122A1C3509122E8D122AB6
:1029A30012120C5FE96401701BEEFAEFFB120C4785
:1029B300E9F50A850882850983122D347902AA086C
:1029C300AB098011122DBD120C5FE96401703479DB
:1029D30003EEFAEFFB120C4180298E828F83A3E072
:1029E30064FE7003A3E0F4700B122DBD120C5FE9BB
:1029F3006401700CEEFAEFFB120C47E9F50A800351
:102A0300750A000232F5E50A2403FCE4350BFDE503
:102A1300082403FAE43509FB22E508125E52227406
:102A2300F712045990034212460DEA4B602FEA75E0
:102A3300F00BA4FAA8F075F00BEBA428FBEAFEEB6D
:102A4300FF121CFD90034412460D900344125007DD
:102A53006012EEFCEFFD7900121C318007900344F5
:102A6300E4F0A3F002435DF9023208E875F00BA429
:102A7300F8AAF075F00BE9A42AF9900344E028F5CD
:102A830008A3E039F50922F9E875F00BA4F8AAF0D8
:102A930075F00BE9A42AF9900344E028F8A3E03980
:102AA300F922900342124344C3EE98EF9922C08265
:102AB300C083EC4D6005121DED80097C087D007913
:102AC30000121C31023ED274F61204597900EA4B0B
:102AD30060177800EA28F582E412576460047901EC
:102AE300780808E8C3940840EB02320874F712042C
:102AF3005974F31209ADECFEEDFF85188285198335
:102B0300E4F004120BCEEAF0A3EB124336120C7D71
:102B13007403120BCEAC82AD83EEFAEFFB120C59A9
:102B2300EEFAEFFB120C5F02435874F71204597468
:102B3300F31209ADECFEEDFF851882851983E4F0ED
:102B4300EAFCEBFD7403120BCEAA82AB83120C5981
:102B5300AA18AB19120C837401120BCE123E938E7A
:102B6300828F8312432774FE68700374FF696004C5
:102B730079018002790002435874F7120459EAFE7E
:102B8300EBFF120C3BE9F508740165087011122B79
:102B9300E5F4FA88828983E05A4480F0121EDD024C
:102BA30037EB74F7120459EAFEEBFF7508008E82C7
:102BB3008F83E0602A120C3BE9F508740165087005
:102BC3001E122BE5FA88828983E05A70128E828F57
:102BD30083E04480FA88828983E04AF0121EDD0292
:102BE30037EB1244F41239C3122A8A8E828F83E0A0
:102BF3002274F41204598A088B097C007D00EA12BE
:102C03002A14120C59E508122D567900850882857D
:102C13000983A3E064FE7003A3E0F460757E007F84
:102C2300008066EEFAEFFB12284B6058EEFAEFFBDA
:102C3300EA75F00BA4FAA8F075F00BEBA428FB904F
:102C43000344E02AF50AA3E03BF50B8508828509D6
:102C530083A312573F850A82850B83A3E06A70031F
:102C6300A3E06B701FE50A2403FAE4350BFB120C97
:102C73005FE964017006122A09120C59122D4B796F
:102C830001126C570EEE70010F122C98EE9AEF9B07
:102C930040910249A390034212501EC32274F312BF
:102CA30004598A088B098A828B83122D34EA122DE8
:102CB30056750C00EA122A14120C5FE96401706A5B
:102CC3007E007F00805FEEF8EFF9E875F00BA4F863
:102CD300AAF075F00BE9A42AF9900344126CC9E039
:102CE300540F603CEEF8EFF9E875F00BA4F8AAF086
:102CF30075F00BE9A42AF9900344E028F50AA3E050
:102D030039F50B122A09121DE7E964017012850ACD
:102D130082850B83122D3C122D4B750C01126C57BF
:102D23000EEE70010F122AA5409CA90C7F05020626
:102D3300B7A374FEF0A304F022A3124344850882D0
:102D4300850983A3123BAF22E508122D60EEF0A3A1
:102D5300EFF022122D6074FEF0A304F022125E56EF
:102D63003509F5832274F5120459EAFEEBFF8E82CE
:102D73008F83122D347C007D00122DBD120C59EE71
:102D8300FAEFFB120C3BE9F50A7401650A7027128E
:102D9300433D122A6E850882F583122DC5122A122D
:102DA300120C5FE96401700EE5082403FCE43509A5
:102DB300122DBC120C590232F5FDEE2403FAE43F46
:102DC300FB22A3125749123BAF2274F21204597427
:102DD300E61209AD122E7F750C0175080075090006
:102DE300750A00750B00851882851983E4F0EE24BB
:102DF30003FCE43FFD7403120BCEAA82AB83120CD7
:102E030059AA18AB19120C83E96401701F740B12D1
:102E13000BCE122E8F7401120BCE1257437003A3E5
:102E2300E069604AA818A91988088909740D120B6A
:102E3300CE123E85A3123E93740E120BCE1243277D
:102E4300740D120985120C7DE964017009740D1269
:102E5300097D880A890B780A120937AC08AD09EE97
:102E6300FAEFFB120C4D74021208F9E9F50CEEFAB5
:102E7300EFFB120C77A90C741A02569FEAFEEBFFC4
:102E83001244F474FEF0A304F022F5831239C3F95B
:102E93001244F4123BAF22C082C0837800790080D1
:102EA3000508E8700109122C98E89AE99B5029E873
:102EB300FAE9FBEA75F00BA4FAACF075F00BEBA49E
:102EC3002CFB900344E02AFCA3E03B8C82F583E0D7
:102ED300540F70CD790080027901023ED2C082C0C6
:102EE30083902815E49375F016A4FCADF079FF7A6E
:102EF3008F7B0B121C31023ED274F6120459EAF88E
:102F03007508007D008012ED125756C3994009E001
:102F1300FAE8C39A400205080D902815E493FAEDE8
:102F2300C39A40E3AA087B0002320874F0120459E2
:102F330074F31209AD8A0C8B0D8C088D09890AEC88
:102F430045096016AA08AB09120CCB8A0E8B0FAE8B
:102F53000EAF0FEE4F60030230217B0080010B1296
:102F63005A43500F1230C970F5748F28FE740B3911
:102F7300FF80047E007F00EE4F70030230759027C0
:102F8300F612309C60217403650A60067404650AB6
:102F930070157A047903120CA1902815E493FC9020
:102FA30027F61230A250299027F412309C6028741F
:102FB30001650A60067402650A701C7A02790112BF
:102FC3000CA1902815E493FC9027F41230A240073B
:102FD3007A007B000230998518828519837401F089
:102FE300120BCEE50CF0A3E50DF0AC08AD097403AC
:102FF300120BCEAA82AB83120C59AA18AB19120C6E
:103003008F740B120BCE123BA88E828F83A3A3A3C4
:10301300A3A3A3E4126E1FAA0CAB0D1211937800A5
:10302300E50A6007C39405500278048E828F83E516
:103033000CF0A3E50D126403E50AF0E88E828F839A
:10304300A3A3A3A3A3125A545001097A027B00122B
:1030530003091234AFA312567FA31234F3E50A60B7
:103063000DC39403500812347E1230BA8003123415
:1030730095F07A047900120CA18A08902815E4933C
:10308300FAC3E5089AEB940040059012B8E4F012F5
:10309300106DEEFAEFFB0234531230B2E8492212FC
:1030A30030B2ECC398F8E499F9C3EA98EB9922E4B7
:1030B30093F8740193F922F9EE2414F582E43FF5B1
:1030C30083E8F0A3E922EB75F016A4F8A9F0123413
:1030D300E8F42274F212045974F31209AD8A088BCE
:1030E30009ECFEEDFF750A00EEFAEFFB120CCB8A3A
:1030F3000C8B0DA80CA90DE849700302319A888244
:103103008983E065087004A3E06509700302319ABE
:1031130088828983A3A3A3A3E0C3940550798882FB
:103123008983126283124771E0603488828983A3A2
:10313300A3A3A3E0C3940350269027F2E493FA7465
:103143000193FB1236E99027F8E493FA740193FB99
:10315300E82414F582E439F583EAF0A3EB800DE863
:1031630024121231A1F0E824141231A1F08518823F
:103173008519837401F0120BCE126283F0EEFCEF1B
:10318300FD7403120BCEAA82AB83120C59AA18AB9F
:1031930019120C8F750A01A90A740D02569FF58244
:1031A300E439F58374FEF0A3042274F61204591271
:1031B3000CC58A088B09A808A909E8496014888204
:1031C3008983A3A3A3A3E06009C3940550047901F1
:1031D30080027900802F74F6120459120CC58A08F4
:1031E3008B09A808A909E849601488828983A3A3E5
:1031F300A3A3E06009C3940350047901800279001A
:1032030080031208F97F020206B774F612045912FA
:103213000CC58A828B83E5824583600BA3A3A3A39A
:10322300E0700479018002790080DAC082C083EA09
:10323300FCEBFD7A007B00023ECFC082C0837C00A2
:103243007D00023ECF74F512045974F31209ADEAFE
:10325300FEEBFF8C088D09C3EC94F8ED94FF40045A
:10326300EE4F606A750A00801974FF650870047474
:10327300FF6509600B1265807004A3E06509603B7C
:10328300050A902815E493F8E50AC3985040E50A27
:103293001230CA60EBEE4F60D01232DC120BCE124A
:1032A3004332120C89E960D87403120BCEAC82ADA1
:1032B30083EEFAEFFB121DE7E960C5E50A75F01628
:1032C300A4F8A9F0748F28FA740B39FB80047A00F0
:1032D3007B00740D1208F9801B851882851983748D
:1032E30001F0749128F582740B39F5831243447409
:1032F3000B22A90A7F030206B774F412045974F36C
:103303001209AD750800120CCB8A0A8B0BAE0AAFFB
:103313000BEE4F601F12335F1232EF120BCE1243CC
:1033230032120C717C167D0079FFEEFAEFFB121C52
:10333300317508017A047900120CA18A0A902815C4
:10334300E493FAC3E50A9AEB940050099012B87417
:1033530001F012106DA908740D0249A08518828529
:1033630019837401F08E828F83A3A32274F712044E
:1033730059E9FC74FE6A700374FF6B7D007003806F
:103383002C0D1233D15026ED1230CA60F412706442
:103393006A7003A3E06B70E98012ED75F016A4F870
:1033A300A9F01270576018E0640360130D1233D153
:1033B3005015EC60E51234DC60F2C3940550ED1255
:1033C30067C412573C80047AFE7BFF02435D90285A
:1033D30015E493F8EDC39822120CDD023ED2C082AD
:1033E300C083790180F274F01204598A0A8B0B7A34
:1033F300047901120CA18A0C8B0DEA450D6040EA99
:103403002AFAEB33FB121CFD8A088B09AE08AF09BD
:10341300EE4F60267AFE7BFF120CE374FE6A7003A4
:1034230074FF6B601E85088285098312460DE508CB
:103433002402F50850E2050980DE750C0080047E45
:10344300007F00850A82850B83E50C1245418005C8
:10345300740D1208F97F080206B7E493F8ECC398D9
:1034630022126E27EC22E0F508A3E0F509221208E8
:10347300F97F0C0206B77F070206B79027F21230D6
:10348300B2EE1267BB123BAF9027F8E493F87401D6
:103493009322EE24121234A3F0EE24141234A32246
:1034A300F582E43FF58374FEF0A30422E88E828F55
:1034B30083A3A3A3A3A3A3A3A31234D47401123499
:1034C300D4A374AAF0EE2410F582E43FF583E4F06C
:1034D30022126426A3A3A3A322ED75F016A4F8A9D0
:1034E300F01234E822749328F582740B126F1322BE
:1034F300A3F01244F4E4F0EE240CF582E43FF583E8
:10350300E4F0A3F0A3F0A3F022C082C0837D008087
:1035130009EA24FF1AEB34FFFB0D1233D1501612C4
:1035230034DCC3940550F2EA4B70E6748F28FA74C6
:103533000B39FB80047A007B00023ED274F712043D
:103543005974F31209AD7E000235D7EF75F017A455
:10355300F8A9F012703A12582575F016A4FAABF0D8
:10356300748F2AF582740B125A777003A3E0696093
:1035730040EF75F017A4F8AAF0EAF912703A39F59A
:1035830083123E937401120BCEE0687003A3E069CB
:10359300601FEF75F017A4F8EAF9745F28FC740D47
:1035A30039FD7403120BCEAA82AB83121DE7E960C7
:1035B30013EF75F017A4F8A9F0745D28FA740D39A8
:1035C300FB12119F0F902805E493F8EFC398500363
:1035D30002354E0E902815126BA9501FEE12705D26
:1035E300F47003A3E0F460EB1232DC120BCE12434F
:1035F30032120C89E960DC7F0080CA02435874F7F9
:1036030012045974F31209AD900415125007700394
:103613000236AD750800802BE50875F016A4F8EAAC
:10362300F974A328F582740B126F0F64FE7003A361
:10363300E0F4600D74A128F582740B39F5831256FA
:1036430095050890281512565E505FE50875F0162B
:10365300A4F8AAF0EAF91234E460E6C3940350E153
:1036630074A128F582740B12500470ACE50875F050
:1036730016A4F8EAF9748F28F8740B39F9E8FEE90F
:10368300FF12374B1237411205D112335F1232EF5B
:10369300120BCE124332120C89E960A57403120B8C
:1036A300CEAA82AB83120CD7809702435874F612CA
:1036B3000459120CC58A088B09A808A909E84960AE
:1036C3002088828983A3A3A3A3E06011C39403503A
:1036D3000CE82414F582E412573C1236E979018090
:1036E300027900023208E82412F582E439F583EA0C
:1036F300F0A3EBF02274F7120459EAFEEBFF9004F7
:103703000F12500760309004151250076028900480
:103713001912500760201269051205D1E9701712BA
:10372300373C1205D1E96401700C8E828F83A3A309
:103733001268F21205D102435D12374BA3A3125054
:103743001E9004151268FC229027F8E493FC740180
:1037530093FD8E828F8322C082C08390034B746556
:10376300F0A3740FF090034D745FF0A3740FF09007
:1037730003517479F0A3740DF0023ED274F712046E
:1037830059EAFEEBFF900385E06408601CE06404E3
:1037930060178E828F83E05403640170411253F7E4
:1037A300F81237F0E0640670358E828F83A3A3E0AE
:1037B30064FE7003A3E0F460258E828F83A3A312BB
:1037C3005E387003A3E0697008EE2415125E2D6065
:1037D3000512100D8003121013E9F5088003750814
:1037E300C2EEFAEFFB121D03A90802435DA3E0F545
:1037F3008388822274F41204598A088B091239BF10
:10380300FAE82AFAE43400FB121CFD8A0A8B0BAE99
:103813000AAF0BEE4F6055850882850983E0FC7D76
:10382300007900121C318E828F83A3122D34121063
:10383300498E828F83A3A3A3A3EAF0A3EB12387666
:10384300F8EE28F8E43F122E92850882850983A3B7
:10385300E0C0E0125A39D0E0F012105B125A2FE99F
:10386300123B9EE0C0E0123B94D0E0F0EEFAEFFB97
:103873000249A3F0850882850983E02274F41204C7
:103883005974E81209AD8A088B098C0A8D0BE9FE7D
:10389300900385E064046005E06408700479C280E5
:1038A3003CA37808120B4DEE90038C123B02121CC2
:1038B300318518828519837808120B4D7405120B14
:1038C300CEEEF07404120BCE7401F07407120BCE1B
:1038D300E4F090038574021243361221CB02499E11
:1038E30074F412045974E81209ADEAFEEBFF900375
:1038F3004612500760030239BA7A077B00121CFD97
:1039030090034612460D9003461250077003023986
:10391300B68E828F83120B93900346E0FCA3E0F5EF
:10392300838C82120B87EE2404F50AE43FF50B85A2
:103933000A82F583E0C0E0900346124FDBA3A3A302
:10394300D0E0F0EE2405F508E43FF509850882F59B
:1039530083E0C0E0900346124FE9D0E012432CC04D
:10396300E09003461239C3C82406F582E438F58390
:10397300D0E0123B02121C318E828F83120B93858F
:103983001882851983120B87850A82850B83E0C011
:10399300E07405120BCED0E0123876C0E074041246
:1039A3000BCED0E0F07407120BCEE4124336122193
:1039B300CB800679108002790102499E8A828B832B
:1039C300E0F8A3E022C082C0839003461250076050
:1039D3001090034612573F121D03900346E4F0A3D1
:1039E300F0120F8312113F023ED274F41204597481
:1039F300E81209AD8A0A8B0BECFEEDFF89087428E7
:103A0300120BCEE0FC7429120BCEE0FD740F6C7028
:103A130005740F6D601290132EE064026005ECC311
:103A23009D500579C1023AFF7424120BCE120B93F9
:103A3300900386120B87E50890038CF0EC90038AC1
:103A4300F0EDA3F0742A120BCEE090038DF074FF17
:103A5300650A700474FF650B7024901340E0F470E2
:103A630003A3E0F4700C121C49900383EAF0A3EB68
:103A730080129013401267E1E8F0A3E980069003F7
:103A830083125A4DF0EE4F6017EEFAEFFB1211F36B
:103A9300E96401700BEEFCEFFD7A977B03121DEDD9
:103AA300900376E4F0A3F0900379F0A3F0900396EB
:103AB300F090132EE06402700890038A740FF0A351
:103AC300F09003857405123B02121C317404120B2F
:103AD300CEE4F0900386120B938518828519831226
:103AE3000B8790038CE0C0E07405120BCED0E0F09E
:103AF3007407120BCEE41243361221CB02499EF017
:103B03007C187D007900AA18AB1922C082C083906B
:103B1300034AE07003121FF1120D3D023ED274F00E
:103B230012045990034AE09012B7700FE0600579D0
:103B330000121EA79012B7E4F0804AE06401600807
:103B430090034AE0F9121EA79012B77401F0900394
:103B53004AE0F46030E0F50CE4F50DF50EF50FF0F6
:103B630090821D7808120B6B780C790812036A781F
:103B73000C12092F7A807B009003D0E0F9121DB755
:103B830074041208F97AB77B1279411221B3023413
:103B930058EE2411F582E43FF58322F085088285EF
:103BA3000983A3A322125A6F123BAF22E8F0A3E9C1
:103BB300F02274F612045974E21209AD8518828555
:103BC3001983ECF0A3EDF0EAFEEBFF89089003857F
:103BD300E064046005E06408700579C2023CDF74A8
:103BE30029120BCEE064FE7003A3E0F4700579C3E1
:103BF300023CDF7C197D0079007405120985121CD3
:103C030031900385740312433679501221B374291A
:103C1300120985794B1221B3851882851983123CC9
:103C2300F8E508900378F07429120BCE123CEE7479
:103C330028120BCEE0F509900370123CE4121DED3F
:103C430074CE55094480C0E0741D120BCED0E0F051
:103C5300742B120BCEE004900396F0741A120BCE61
:103C63007402F07429120BCE123E937412120BCE0F
:103C7300E8F0A3E9123E8C741B120BCE1243277497
:103C830010120BCEE508F0740D120BCEE4F0900386
:103C93008B740FF07A8B7B0379541221B390038AD0
:103CA300740FF07A8A7B0379471221B390038AE079
:103CB300C3940F501F7410120BCEE0C0E0740212B5
:103CC3000BCED0E0F07404120BCE7401F004120991
:103CD300851221D774051209851221B9741E023287
:103CE30005F0EEFCEFFD7A977B0322124344900329
:103CF30079123BAF221267E5123BAF2274F712042D
:103D030059EB90038DF0120F7102435D74F71204A7
:103D13005974E91209ADEAFEEBFF7508008E828F34
:103D230083A3A3A3E0C0E07406120BCED0E012334A
:103D330067E0C0E07408120BCED0E0F07409120BF8
:103D4300CE7401123E86125007600D8E828F83124D
:103D5300573F120C5FE970357407120BCEE4F01273
:103D630010437404120BCE12460D900385E06404D5
:103D7300700E12104F7402120BCEEAF0A3EB8048C0
:103D83007402120BCE74FDF0A374FF803BAC18AD2C
:103D9300198E828F8312573F120C6B8E828F83A3EF
:103DA300A3A3A3E070307407120BCE7401123E8CF0
:103DB3007402120BCE1243278E828F83123E9374AA
:103DC30004120BCEE8F0A3E9F07402120985121075
:103DD3008BE9F508803E123E8D740A120BCE124316
:103DE300277414120BCE123365A3E0C0E0741512CE
:103DF3000BCED0E0F07416120BCE123E85126E235A
:103E0300740C120BCEAA82AB83121DED740A120935
:103E130085121EBFA908741702435A74F712045976
:103E230074F81209ADEAFEEBFF7900900385E064B4
:103E3300086005E06404704585188285198374FD64
:103E4300F0A374FFF01210437402120BCE12460D4E
:103E53007405120BCE123E85A3E0C0E07404120B6E
:103E6300CED0E0123E86E0C0E07406120BCED0E066
:103E7300F07407120BCEE412433612108B7408024F
:103E8300435AE4F08E828F8322F08518828519834A
:103E930012434422C082C0839003577415F0A37465
:103EA3000EF09003FD74E5F0A37410F090035B74BF
:103EB3004BF0A3740EF090035D7415F0A3740EF031
:103EC30090035F7451F0A3740EF08003120CD1D0F1
:103ED30083D0820208E174F412045974F91209AD13
:103EE3008A088B098C0A8D0B8518828519837808BB
:103EF300120B4D7404120BCEE9F07405120BCEE4D1
:103F0300F07406120BCEE4124336120D2574070229
:103F130049A074F51204598A088B098A828B83128B
:103F23006C5AEE4F70030240CD9003141250076099
:103F3300158A828B83A3A3E0F9EEFAEFFB900315B6
:103F43001237F11205D18E828F83A3A3A3A3A3A358
:103F5300A3A3A3E0640260030240368E828F83A38F
:103F6300A3A3A3A3A3E05402700302405A850882CB
:103F7300850983A3A3E064E9700302405A8508829C
:103F8300850983A3A3E064CD700302405A850882A8
:103F9300850983A3A3E064F0700302405A8E828FE5
:103FA30083A3A3A3A3A3A3A3A3A3A3E07016901324
:103FB30032E0048E828F83A3A3A3A3A3A3A3A3A30B
:103FC300A3F080101240DE1210BBE970077A307B39
:103FD30001121F4F850882850983A3A3E0701F7513
:103FE3000A0080097A367B01121F4F050A85088271
:103FF300850983A3A3A3E0F8E50AC39840E68E826C
:104003008F83A3A3A3A3A3A3A3A312641AA3A3A30A
:10401300A37404F0901333125A69E81240D0121DAE
:10402300C9EA4B4C4D700C7A207B009003D0E0F929
:10403300121C918E828F83A3A3A3A3A3A3A3A3A3E1
:10404300E0640260128E828F83A3A3A3A3A3A3A31E
:10405300A3A3E0640670738E828F83A3A3A3A3A399
:10406300A3E0A2E05064850882850983A3A3E0F955
:10407300EEFAEFFB12224F8E828F83A3A3A3A3A397
:10408300A3E054FEF01240DE1210BBE985088285DE
:104093000983A3A3702AE070237A2F7B01121F4F99
:1040A3007E00850882850983A3A3A3E0F8EEC39865
:1040B30050187A367B01121F4F0E80E67A31800545
:1040C300E070077A2D7B01121F4F0232F7F0A3E94C
:1040D300F07A207B009003D0E0F9228E828F831246
:1040E30068FC12501E2274EC12045974DB1209ADE1
:1040F300EAFEEBFF8C108D11750E00740512098D0D
:10410300120BE17412120BCEE070087415120BCE71
:10411300E060207405120BCEE0A2E6501B8E828F66
:1041230083A3A3A3A3A3A3A3A3A312573F1210BBC9
:10413300E960057A350242327405120BCEE0540C65
:1041430064047005750D018003750D00E0A2E55050
:1041530030750E01E50DA2E040271210498A088B45
:1041630009A808A9091253F7687003A3E06960114D
:10417300740512098D125E4712226DE96003024233
:10418300307405120BCEE0A2E650227406120BCE59
:10419300E0540370187405120BCEE0540C640C60E9
:1041A3000CE0540C64086005750C018003750C0069
:1041B3007405120BCEE05403F8740268700E740594
:1041C30012098D125E47120BF302431C74016870CF
:1041D30041E50CA2E0500B740512098D125E4712E3
:1041E3000BE7740512097D7403120BCEE8F0A3E903
:1041F30012433C851882851983E8F0A3E912432C06
:10420300C0E07402120BCED0E012433612238102B7
:10421300431CE8600302431C90036DE064017017C4
:104223008E828F83A3A3A3A3A3A3E0700A7A347B14
:1042330001121F4F02431C7424120BCE740212434B
:104243003C741C120BCE124327E50CA2E0500B74F6
:104253000512098D125E47120BE77439120BCE78E3
:1042630008120B6BE50DA2E0EE5072240F125E2DC7
:10427300C0E07417120BCED0E0F090031612500773
:10428300700302431C1210498A128B13A812A9133C
:10429300741C120BCEE0687003A3E069707B78088E
:1042A30012092FE50EF508780812093B8E828F83D9
:1042B300A3A3A3A3E0F508780812093B7810120919
:1042C30037A90C740D12098D7424120985900316F5
:1042D3001257B11205D174081208F9803C125E2BF3
:1042E300F50C780C12093B780812092FE50EF50836
:1042F300780812093B78101209379003831207409C
:10430300EE2412125E2DF9742612098D740F120910
:1043130085122243740A1208F97425023471A3A387
:10432300A3A3A3A3E8123BB022126422A3E022E8D2
:10433300F0A3E9F0AA18AB1922F01244F412434493
:104343002212434822E0F8A3E0F92274F712045939
:10435300121E898005740D1208F97F010206B774D5
:10436300F7120459121E8F80F174F7120459121EAA
:104373009B80E7C082C083121E95023ED274F7125F
:104383000459121EA180D374F71204597409120B35
:10439300CEE0F508780812093B121EB3740180B70A
:1043A300C082C083121EBF023ED2C082C083121ECF
:1043B300C5023ED274F7120459121ECB809C74F7C7
:1043C300120459EAFEEBFF89087401650870147939
:1043D30000120E8D90280AE493FC7900EEFAEFFBAD
:1043E300120E0302435D74F7120459121EB90243FD
:1043F3005D74F412045974F91209ADE9FE8A088B4D
:10440300098C0A8D0B9011EC125007602BEE851866
:1044130082851983F07401120BCE7808120B4D7448
:1044230013120BCE123E937405120BCE124332902D
:1044330011EC1257B11205D1023F10C082C0831292
:104443001F07023ED274F7120459121ED702435DAE
:1044530074F71204599012BAE0F97E00800B1246E9
:10446300C3540D64017001190E12465A5003E970CA
:10447300ED02435D74F71204599012BBE0F97E001C
:10448300800B1246C3548D64817001190E12465A73
:104493005003E970ED02435D74F2120459890BE98C
:1044A30075F006A4A9F0240CF508E439F509E5082C
:1044B3002AFAE43509FB121CFD8A0C8B0DAE0CAFF6
:1044C3000DEE4F6021AC08AD097900121C31124486
:1044D300F0E50BF0EE2508F8EF3509F98E828F83AE
:1044E300A3A3A3124321EEFAEFFB0256A21244F454
:1044F30022EE125E563FF5832274F6120459EAFE49
:10450300EBFF120DDF9012B9E0F8E9C39840099070
:10451300035312573F120DE5EE2402F8E43FF988E6
:10452300088909900355125B65900355E004124511
:1045330041120DEB850882850983E0022A6AF0EEB9
:10454300FAEFFB22C082C0837900900353800109F4
:1045530012573F8A828B83E582458370F2023ED2F3
:1045630074F7120459EAFEEBFFEE4F605A900353BF
:104573001250076052888289837A007B00EE65823D
:104583007003EF65836013AA82AB83123E93888224
:104593008983E5824583602F80E390035312582873
:1045A300687002EF698E828F837008123E939003C6
:1045B3005380031268EA124327EEFAEFFB122351EA
:1045C300EEFAEFFB121D0302435DC082C08390032A
:1045D30053800488828983125007600A8882898302
:1045E3001234644D70ED8A828B83E4F0A3F0E849C2
:1045F300600688828983800390035312460D023E2E
:10460300D2EE241AF582E43FF583EAF0A3EBF0221D
:1046130012501EEA4B2274F712045990035380047C
:104623008A828B8312461360277E0080010E124616
:104633005A50EDEE75F006A4FCADF0EA2CFCEB3D10
:10464300FDEC2410F582E43DF583E06970DF80041E
:104653007A007B0002435D1246B9EEC3982274F7D9
:104663001204597D0080010D1246B5EDC398503BED
:10467300ED75F006A4FEA8F0E8FFEA2EFEEB3FFF7F
:10468300EE2410125E2D6970DEED75F006A4FEE8CF
:10469300FFEA2EFAEB3FFBEA2411F582E41257649A
:1046A3004CF0EA240CFA50070B80047A007B0002DA
:1046B300435D1246B922EA125E563BF583E0F822C7
:1046C300EE75F006A4FCADF0EA2CFCEB3DFDEC240A
:1046D30011F582E43DF583E02274F6120459120EBB
:1046E300F97B008016EB75F006A4F8A9F0125B9332
:1046F300E4124771F0A3125B5BF00B902818125A77
:104703004640E27A0080168A087509007403780827
:10471300120A54125666125A64A3E4F00A90280847
:10472300E493F8EAC39840DF7900801A8908750991
:104733000074037808120A547485126C62741012A0
:104743006A9B122D350990280412626940DE902875
:1047530016E493900361F090821D12073C7A107B5C
:10476300009003D0E0F9121DBD74040232051262F9
:1047730077A32274F012045974F51209AD8A088BD9
:1047830009890A8C0BE9A2E050147508FC7509FF2E
:10479300A2E15005D2E402483FD2E302483F120EA1
:1047A300E18A0C8B0DA80CA90D900376E0687003C9
:1047B300A3E069600EAC0A7902AA08AB09120EDB0A
:1047C300E970057900024910E50AF50C780C120925
:1047D3003B79027CFE7DFFAA08AB09120E577401D8
:1047E3001208F9E9600302490EE50AC2E5F50A90E9
:1047F30003C3E07049E50AA2E64043740312098D3E
:10480300AA08AB09120C65E9702E124FE21211814E
:104813008A0C8B0DAE0CAF0DEE4F6022EE2402FA24
:10482300E43FFB120C5FE96015EE2402FCE43FFD5C
:104833007403120985121DEDE50AD2E5F50A90030A
:1048430056E0F50C900376124AD2780E1209377DA2
:10485300017C00900356E0F9AA0EAB0F120E997477
:10486300021208F9E9F8900356E004F0E860030245
:10487300490EE50AA2E55004740E80027406C0E0F6
:104883007401120BCED0E01243361210A38A0E8BA2
:104893000FAE0EAF0FEE4F606E1253D412104312D1
:1048A30046041249277401F07478550AA3126E8CDA
:1048B300E50C126E8CA3E508F0E509124915E4F046
:1048C300E50AA2E5500F740312098DE82406FAE401
:1048D30039FB121DED8E828F83A3A374FDF0A374A5
:1048E300FFF0E50B601890280BE493F8E50BC398F1
:1048F300500CEE2413F582E43FF583E50BF0EEFA5A
:10490300EFFB120D1380067910800279C7740B0236
:10491300345588828983A3A3A3A312492122126257
:104923007BA3A322EE125E523F12493022F583127B
:104933004348888289832274F41204597A007B10D5
:104943009003D0E0F9121DC9EA4B4C4D6008900367
:10495300E27401F0804390129DE0640190132F7084
:1049630006E0FC79018004E0FC79037A007B001205
:104973000E039027FCE493F508740193F509E4F51D
:104983000AF50B780812092F7A007B109003D0E008
:10499300F9121DB774041208F9800574181208F986
:1049A3007F040206B774F01204598A088B098C0A33
:1049B3008D0B890C1210BBE960057AFF024A9690B1
:1049C300132EE064026003024AC2902817E493F9AD
:1049D300AA08AB09120F0BE96003024ABC7900AACB
:1049E30008AB09120EE1A90C120ED58A0E8B0FAE7D
:1049F3000EAF0FEE4F7003024AA88E828F83A3A3DC
:104A0300A3A3A312617F707312573F8E828F83A378
:104A1300A3A3A3A3A3E05418604D902809E4938EA5
:104A2300828F83A3A3A3A3F07410120BCE126E2361
:104A33007412120BCE124AD2EA650A7003EB650BAD
:104A43006012EA6C7002EB6D600AEA650E7003EBAC
:104A5300650F701B780E120937AA0AAB0B1211BD32
:104A630074021208F98008900375126411A3F0749C
:104A7300FE6A700374FF6B601E8051A3A3A3E064FE
:104A830003602A8E828F83A3A3A3A3A3E06404708D
:104A9300067AFE7BFF80358E828F83A3A3A3A3A315
:104AA300E0640270089003C2E0640270127907AAFE
:104AB30008AB09120F0BE96006AA08AB09800DAA1F
:104AC30008AB099003571257B11205D1023458E0CD
:104AD300F50EA3E0F50F2274F7120459EAFEEBFF7B
:104AE300120CB3E9700AEEFAEFFB120CBFE9600691
:104AF300EEFAEFFB80047AFE7BFF02435D74EE1255
:104B030004598A0A8B0B8C0C8D0D890E75080012C3
:104B130010BBE979006003024C66AA0AAB0B120EC4
:104B2300E1A90E120ED58A108B11AE10AF11EE4F04
:104B330060198E828F83A3A3A3A3A3E064027052A0
:104B43009003C2E064027003024C64AA0AAB0B1226
:104B530057AE1205D1120CC58A108B11A810A911DA
:104B6300E8497003024C6488828983A3A3A3A3A3A7
:104B7300E0A2E04003024C64750901A2E1504B79C5
:104B830001AC0AAD0BAA0CAB0D120E33E970470250
:104B93004C648E828F83A3A3A3A3A3E06403602545
:104BA3008E828F83A3A3A3A3A3E064016003024CBB
:104BB3006479078E828F83A3A312573F120F0BE9E9
:104BC3006003024C64750902801088828983A3A361
:104BD300A3A3A3D2E1F0EE4F603A8E828F83A3A307
:104BE300A3A3A3A3E05418602B7508018E828F83BF
:104BF300A3A31207407510FE7511FF781012093731
:104C03007900AC0AAD0BAA0CAB0D120EED740412B5
:104C130008F9804D7900AA0CAB0D120EE18A108BB6
:104C230011A810A911900376E0687003A3E06970DE
:104C33001490280AE493FCA90EAA0AAB0B120E03E4
:104C4300750801801CA909AC0AAD0BAA0CAB0D12A7
:104C53000E33E9700C750801A90EAA0AAB0B120EEC
:104C63008DA90880031208F97F0A0206B774EB12B4
:104C7300045974F01209AD8A0C8B0D8C088D0975DB
:104C830012069004031250076017124FE21211AB81
:104C93008A108B11EA451160088A828B83A3E06036
:104CA30068E50C241DF50EE4350DF50F850E821213
:104CB30051FEF51488828983A3A3A3E0FA8882892D
:104CC30083A3A3A3A3E0F8E4C8F9EA28FEE439FF29
:104CD300AA08AB09120E93850E82850F83124FE942
:104CE300E029F50BE50AA2E5500375120E7487550A
:104CF3000A700F7418550A64186007124FCC6512B6
:104D0300600C7AD37B00121F4F7900024FB6530A0F
:104D130078C3EE94F8EF94FF50247900EEFAEFFB9A
:104D2300120ED58A0E8B0FA80EA90FE849600F88C3
:104D3300828983A3A3A3A3A3A3E0541870CB780809
:104D43001209377D00AC0BA914125013120E99747B
:104D5300021208F9E9F874036860AE7425120BCEE9
:104D6300126C676003024E2D7418550A7003024ECD
:104D7300E8E50AD2E0F50AA2E45004D2E1F50AA973
:104D83000A125013120ED58A128B13A812A913E814
:104D930049605C88828983A3A3A3A3A3A3E05418D7
:104DA300604D88828983A3A3A3A3A3E06401703F1A
:104DB300E51045116039126E2088828983A3A312FE
:104DC300573F1211AB8A128B13A812A913E849603B
:104DD3001E88828983A3E06016851082851183A3D0
:104DE300E0FA88828983A3E0C39A5003024D0CE55D
:104DF3000AF510781012093B12500D120E57740168
:104E03001208F9E970247C007D00850E82850F83EA
:104E130074FFF01253EFA3A3A3E06006124FC01276
:104E23006E23A90B125013120DAF850E82850F83CB
:104E3300E0F47003A3E0F4603C9003C2E06402700A
:104E430003024D0C1250139003591257B11205D19E
:104E5300EA65087003EB65096003024D0CEEFAEF97
:104E6300FB9003591257B11205D1850E82850F832A
:104E7300EAF0A3EBF078081209377D01AC0BA91413
:104E8300125013120E9974021208F9A90AEEFAEFDE
:104E9300FB120EE18A088B09A808A909900376E0A2
:104EA300687003A3E0696003024FA8EEFAEFFB12F8
:104EB3000CC58A088B09A808A909E849606F88828C
:104EC3008983A3A3A3A3E06401600D88828983A3DC
:104ED300A3A3A3E064027055AC18AD19EEFAEFFB7F
:104EE300120C65805690036FE06014E50AF51078A4
:104EF3001012093B12500D120E5774011208F9E5F6
:104F03000AF510781012093B79027CFE7DFFEEFA58
:104F1300EFFB120E5774011208F9E96003024E2DDC
:104F2300850E82850F8374FFF0A3024E7712104320
:104F3300EAFCEBFDAA18AB19121DED850C82850D59
:104F430083A3A3A3A3A3A3A3A3E06401700E124F9F
:104F5300C0126E237408120985121DED1251E61258
:104F63004FD9E04430F508780812093B740112095F
:104F73007D880889097808120937740B12097D881E
:104F83000889097808120937E514F5087808120921
:104F93003B7900EEFCEFFD125013120E2D74061236
:104FA30008F9024D0C1251E6F583124FE9E50BF0B7
:104FB30012105B74101208F97F0D0206B7E50C247A
:104FC30015F582E4350DF58322E50C2417F582E40B
:104FD300350DF583E022F583E0F81237F0A3229034
:104FE300038312521A221268FCA3A3A3A3A322E5EC
:104FF3000D75F006A4F8AAF0EAF974E928F58274AD
:105003000F39F583124344E849227901AC08AD090D
:10501300125E50350D12501C22F583E0FAA3E0FB1B
:105023002274EE12045974F01209AD8A0C8B0DEC44
:10503300FAEDFB750F089004031250076031126EEE
:10504300201211AB8A088B09AC08AD09EC4D601F27
:105053008C828D83A3E07017125A595001097A028A
:105063007B00120309E88C828D83F0A37407F0128E
:1050730051E61251FEF50E888289831251F0E0FA4F
:10508300E4CAFBEC2AFEE43BFF88828983A3A312D4
:1050930051F0A3A3E0FBECF508E43BF50988828912
:1050A30083A3A3A3A3A3A3A3E0F50BE50AA2E45060
:1050B30003750F10A2E550067408250FF50F748FC2
:1050C300550A7007124FCC650F600A7AD37B001222
:1050D3001F4F0251E1530A707800E50AA2E4501F02
:1050E300E50C241D124FD02408FCA3E03400FD740A
:1050F30008120985121DED7808E50AC2E4F50AE5F0
:105103000AA2E55022E50C241D124FD028F8A3E093
:105113003400F9E82408FCE439FDAA18AB19121D80
:10512300EDE50AC2E5F50AA90EEEFAEFFB120ECF82
:105133009028081262695029891075110074037848
:1051430010120A54744A2510F58274103511F58330
:10515300E0F8E50BC3985007E50BF0780080048076
:105163007D7804900376E06E7003A3E06F605FE8E0
:105173007019E50AF50F780F12093B12520D120E42
:105183005774011208F9E970558005740468704E6C
:10519300780A12093B740112097D880C890D780C79
:1051A300120937740B12097D880C890D780C1209CA
:1051B30037E50EF50A780A12093BA90BAC08AD09CD
:1051C300EEFAEFFB120E2D74061208F98010780A1E
:1051D30012093B12520D120E5774011208F9741082
:1051E300024C68E50C241DF582E4350D22A3A3A32C
:1051F300E0FC88828983A3A3A3A322124930A3E0FE
:10520300F50A88828983A3A3E0227901125E5035CF
:105213000DF58312521A22E0FCA3E0FDAA08AB09A4
:105223002274EB12045974F51209AD8A088B098CA8
:105233000A8D0B89147420120BCEE0F511F9120EAE
:10524300CFE9F50C902808126269501B750D0074A4
:1052530003780C120A547448250CF5827410350D2A
:10526300F583124AD2801E9003591250076010AA88
:1052730008AB091237F11205D18A0E8B0F80067520
:105283000EFE750FFF7401120BCE7408F074251215
:105293000BCEE0F510A2E450087401120BCE74108B
:1052A300F0E510A2E550097401120BCEE02408F0DA
:1052B300AA18AB191210A38A0C8B0DAE0CAF0DEE0E
:1052C3004F70030253CF1253D41210431246047487
:1052D30021120BCEE0F512A3E0F513740312098D2E
:1052E300AA0EAB0F120C65E96013EE24161253D706
:1052F300740312097DEE24181230BE8027E510A234
:10530300E45022E50E65087004E50F65097016EE9A
:1053130024161253D7EE2418F582E43FF583E512E1
:10532300F0A3E513F01253F7F50CA3E0F50D850C8C
:1053330082F5837402F0A3E5101253E1E5111253D1
:10534300E1A3E508F0E509850C82850D83A3A3A3FA
:105353001253EFE50AF0E50B850C82850D83A3A3B9
:10536300A3A3A3A3F0AA0EAB0F120E93E9251485F2
:105373000C82850D83A3A3A3A3A3A3A3F0750800A5
:10538300E510A2E45013AC12AD13E50C2408FAE4C3
:10539300350DFB121DED750808E510A2E5501B74D1
:1053A30023120BCE126E23E50C2508F8E4350DF914
:1053B300E82408FAE439FB121DED8E828F83A3A340
:1053C300E50EF0A3E50F124541120D13740B024FC6
:1053D300B8EE2417F582E43FF5837401F0221253EB
:1053E300E522F0850C82850D83A3A322A31253E546
:1053F300A3A3A3221244F4E02274F41204598A08EA
:105403008B09ECFEEDFF750B01900376E0650870E8
:1054130004A3E065096013750B00780B12093B12B6
:1054230010FD74011208F9E9F50B7900AA08AB091C
:10543300120EE18A088B09A808A909900376E0688F
:105443007003A3E06970467900EEFAEFFB120ED504
:10545300EA4B60308A828B83A3A3A3A3A3A3E05464
:105463001860217508FE7509FF78081209378A82CA
:105473008B83A3A3120740126D7D120EED740412E9
:1054830008F980097901EEFAEFFB120DA9A90B02C5
:1054930049A374F21204597ECD7F0E7A107B0090DB
:1054A30003D0E0F9121DC9EA4B4C4D701790821DD1
:1054B30012073C7A107B009003D0E0F9121DBD74F3
:1054C300041208F9900361E014F060030255779029
:1054D3002816E493900361F07C0079057A007B0041
:1054E300120FD18A088B0902556E7C007905AA0830
:1054F300AB09120FD18A0A8B0B850882850983A316
:10550300A3A3A3125007605DE5082404F8E435095A
:10551300F98882898312569588828983125007708D
:1055230044850882850983A3A3A3A3A3A3E054040A
:105533006013850882850983A3A3A3A3A3A3A3A3BD
:10554300E0F9120EBD850882850983A3A3A3A3A353
:10555300A3A3A3A37406F07AF085088285098312B6
:1055630062EE120F29850A08850B09E508450960D3
:10557300030254ED75080080608E828F83A3A3A37A
:10558300A3E0604CF46049EE2404125E2D14F07025
:105593003F8E828F83A3A3A3A3A3E0640370157933
:1055A300028E828F83126E238E828F83A3A3125760
:1055B3003F120E338E828F83A3A3A3A3A3E06401C0
:1055C300600E8E828F8374FEF0A30412567FE4F084
:1055D3000508EE2407FE50010F90280E12565E4078
:1055E300987E008039120FF58E08750900740378D0
:1055F30008120A5474452508FC74103509FD7A3FD6
:105603007B0E120FE3EA4B70DC8E087509007403FE
:105613007808120A54125666125B5BE4F00E902867
:1056230008126BA9501B8E087509007403780812C1
:105633000A54125674E82407126F0C14F070DE80BB
:10564300A77B008009EB125683600214F00B9028AD
:1056530018125A4640EF8047902818E493F8E5085B
:10566300C3982212567488828983A374FEF0A3041C
:105673002274452508F874103509F9221264222290
:1056830075F006A4F8A9F074E528F582740F126F7B
:105693001322E024FFF0A3E034FFF0221208F97F85
:1056A300060206B774F712045974DF1209ADECFE53
:1056B300EDFF750800EE4F60691239BFC8241FF56E
:1056C30082E438125005605A8A828B8312573FACAA
:1056D30018AD19EA241EF582E4125764F9EA241F6F
:1056E30012286B12102B740B120BCE12574370033C
:1056F300A3E069702D7402120BCEE0640170237471
:105703001D120BCE1257B1E064017016741D120BFB
:10571300CE124FDDA3E0F88E828F83E068700375AD
:105723000801A908742102435AE50D75F006A4F88F
:10573300EAF974E928F582740F39F58312501E22B1
:10574300125749E0682212574D221243488E828F26
:1057530083A32275F016A4FAABF074932AF582742E
:105763000B3BF583E02274F4120459E970247900A9
:1057730090035B1257B11205D18A0A8B0BAE0AAFA5
:105783000B74FE6E700374FF6F701A902813E4930A
:105793006013790190035B1257B11205D18A0A8B0A
:1057A3000BAE0AAF0B12106D02386F90035D1268D7
:1057B300FC2274F612045974F31209AD121C498ABF
:1057C300088B09AE08AF09900376E06E7003A3E07F
:1057D3006F60E912104FEA6E7002EB6F60DEEEFA53
:1057E300EFFB1210BBE970D4EE4F60D085188285B1
:1057F3001983E4F004120BCEEEF0A3EF124336123A
:105803000C7DE970B774FE6E700374FF6F60ADEECC
:10581300FAEFFB740D023205C082C08312106D02D1
:105823003ED239F583124344EE2274F2120459EA4C
:10583300FEEBFF8C0A8D0B890874FC6E700374FFFA
:105843006F7003025A207900120EE18A0C8B0DAEA1
:105853000CAF0D740E120BCEE0F509900376E06EDB
:105863007003A3E06F7009E509A2E64003025A2022
:10587300A909120ED58A0C8B0DA80CA90DE8497045
:105883004679007AFE7BFF120ED58A0C8B0DA80C8D
:10589300A90DE84970317418550960267B00800111
:1058A3000B90280E125A465019EB75F007A4F8A96D
:1058B300F0126BB0541870E874CD28F8740E39F9EF
:1058C300801D7902025A2288828983A3A3A3A3A3FA
:1058D300A3E054186009741855097003025A20880C
:1058E300828983EEF0A3EFF074FE650A700474FFFF
:1058F300650B600A88828983A3A3125A4DF08882BC
:105903008983A3A3A3A3A3A3E509F0A2E0500D8871
:10591300828983A3A3A3A3A3A3D2E2F0740165089E
:1059230088828983A3A3A3A3A370357401125A6445
:10593300E054186025902809E49388828983A3A3FF
:10594300A3A3126E1FAA0AAB0B1211AB8B0DEA4570
:105953000D6003025A207E008031900375E080DAE7
:10596300E064017003025A2088828983A3A3A3A35E
:10597300A3A3E054186007902809E49380049003DC
:1059830074E0124915E508025A1F0E902805126BA0
:10599300A94003025A207D00802BED75F007A4F87F
:1059A300A9F074CF28F582740E12582575F017A448
:1059B300FAABF0745D2AF582740D125A777003A363
:1059C300E06960C60D90280E1233D440CDE4936D88
:1059D30070B8EE75F017A4F8A9F0745D28FE740D85
:1059E30039FF7C177D007900EEFAEFFB121C318E34
:1059F300828F83125A4DF0900383125A6912432106
:105A0300125A2574AAF0125A2F7401125A545001D3
:105A1300097A027B00120309125A39E8F07900026D
:105A230056A2EE240FF582E43FF58322EE240EF511
:105A330082E43FF58322EE240DF582E43FF58322D1
:105A4300902815E493F8EBC39822E50AF0A3E50B3D
:105A530022F0125A5922902801E49379002401F884
:105A630022124921A322125A6FA3A32212574DA334
:105A730022F582E43BF583E0682274F21204598A2A
:105A8300088B09890C12626240057905025B581282
:105A93001F0DAA08AB09120E69E9F50D902818E449
:105AA30093650D700A7AFE7BFF120E69E9F50D907E
:105AB3002818E493F8E50DC3984003025B56124F90
:105AC300F2600612572C121D03E50C602BE50D75D1
:105AD300F006A4F8A9F0125C96F8500109880A8927
:105AE3000BAA0CEA2AFAE433FB121CFD125B6C12BC
:105AF3005007701B7901805DE50D75F006A4F8A9C8
:105B0300F074E928F582740F39F583E4F0A3F0E526
:105B13000D125B7E126283125B5BA3AA82AB83E5E9
:105B23000C125B618A828B83E06024124FF2601F48
