:020000040000FA
:06000000020B0D0201DC01
:03001B000201FEE1
:03002B000207E5E4
:030033000207BF02
:0300530002011C8B
:0300730002024E38
:1000830002017001FF01010503010F10FEFF372676
:10009300000000006D2500000000FF000000FF00CD
:1000A3000101881300000020FD00020000751A0002
:1000B30000000000002F1B000000000000000000F3
:1000C300000000000000000000000000000000002D
:1000D3000000000000000006FFFF010200C0110045
:1000E3000000E803FFFF3512E80364000202000882
:1000F30000000502070101051E02051E020A0A018E
:1001030003B80B02803E0102E8030A050001220442
:10011300140A000000D0FFFFFFC0E074F212049540
:10012300A2AFE433F508D2AFAFA7AEA1EE5F541090
:1001330060061217FF75A1EFEE5F540860081218EE
:100143000575A1F78023EEA2E092F0EFA2E082F022
:100153005017906198E0F8900AD6E0C398A2D26550
:10016300D0335002E8F075A1FEE5088063C0E07467
:10017300F2120495A2AFE433FED2AF9061A4E0F88B
:10018300759B00E59158540860087591F712184D56
:100193008023E59158541060087591EF121853802D
:1001A30014E591A2E092F0E8A2E082F05007E0C2E9
:1001B300E0F012199D9061A3E0F8E5E9585404605A
:1001C3000E12197375E9FB906193E0A2E640F2EE1B
:1001D300A2E092AF7F010204F4C0E074F21204952E
:1001E300A2AFE433FED2AF9061A5E0F8E5BF585467
:1001F30004600675BFFB1219B580D4C0E074F21217
:100203000495A8F9E8C0E0900A3CE0F874BB28F52F
:1002130082E43409F583D0E0F0900A3BE0F8A3E0F0
:10022300687006E595900A3EF0900A3CE004F0C33E
:1002330094804002E4F0A374C6F0900A3CE0C394B7
:100243001D40031217697F010204F4C0E0C0D0E827
:10025300C0E0E9C0E0C082C083900ABFE0F8A3E039
:10026300687008539AF7A374018022C2EA900ABF08
:10027300E0F8740128F0743F28F582E4340AF5832A
:10028300E0F5F9900ABFE0C394804002E4F0D08324
:10029300D082D0E0F9D0E0F8D0D0D0E032C3E498F7
:1002A300F8E499F91202E18026C3E49AFAE49BFB8D
:1002B300E920E7E91202E1E498F8E499F922C3E4BA
:1002C30098F8E499F91202E1E498F8E499F9C3E49F
:1002D3009AFAE49BFB22EB20E7CFE920E7E0B900A1
:1002E30010BB0008E88AF084F8AAF022E4FBC8FAFD
:1002F30022EB70227B10C833C8C933C9335007C3FC
:100303009AC3DBF280069A50012ADBEAC833F4C8A9
:10031300C933F4C9FA2275F008E4C833C8C933C92C
:1003230033C99AC99B5004C92AC93BD5F0ECFBC811
:1003330033F4C8E4C9FA22080808EAC0E0EBC0E0D5
:1003430086F0E7A4FA180986F0E7A42AFA180986C2
:10035300F0E7A42AFA180986F0E7A42AFA1986F026
:10036300E7A4FBE5F02AFA190886F0E7A42BFBE5DE
:10037300F03AFA190886F0E7A42BFBE5F03AFA18ED
:10038300180986F0E7A4C5F02BFBE43AFA1908E74D
:10039300C5F0C6A426F6E5F03BFBE43AFA1886F06E
:1003A300E7A4F6E5F00826F6E43B08F6E43A08F697
:1003B300D0E0FBD0E0FA22E4CFC0E0E4CEC0E0E43A
:1003C300CDC0E0E4CCC0E075F020E626F608E633C5
:1003D300F608E633F608E633F6181818EC33FCEDA6
:1003E30033FDEE33FEEF33FFC3EC9709ED9709EED0
:1003F3009709EF97191919400FFFEC97FC09ED972F
:10040300FD09EE97FE191906D5F0BFECF709EDF7D4
:1004130009EEF709EFF7191919D0E0FCD0E0FDD088
:10042300E0FED0E0FF222518C582C0E0E51934FFC5
:10043300C583C0E0E518C3958224F810AF0885830F
:10044300198582188008858319858218D2AFCEF06A
:10045300A3E520F0A37808E608F0A3DEFAEFF0A303
:10046300E58124FAF8E608F0A3E608F0A3E608F02D
:10047300A30808E608F0A3E608F0A315811581D0C8
:10048300E0FED0E0F8158115811581E8C0E0EEC0EB
:10049300E022C0D02518C582C0E0E51934FFC5832A
:1004A300C0E0E518C3958224F310AF08858319854E
:1004B30082188008858319858218D2AFC8F0A3E912
:1004C300F0A3EAF0A3EBF0A37908E709F0A3D8FAC5
:1004D300ECF0A3EDF0A3EEF0A3EFF0A3D0E0F0A3D4
:1004E300D0E0F0A3D0E0F0A3E520F0A3E5F0F0A383
:1004F30022851983851882E0C0E0A3E0F9A3E0FA1E
:10050300A3E0FBA37808E0F608A3DFFAE0FCA3E08E
:10051300FDA3E0FEA3E0FFA3E0C0E0A3E0C0E0A3EF
:10052300E0F5D0A3E0F520A3E0A3F5F010AF088534
:1005330083198582188008858319858218D2AFD0E4
:1005430082D083D0E0F8D0E032120B9FB9000302CF
:10055300058BE490030178BE79108002F0A3D8FCE8
:10056300D9FA7ABE7B12900086789779018015E4D8
:1005730093A3AD82AE838A828B83F0A3AA82AB83DB
:100583008D828E83D8E9D9E77582017583D6740489
:100593001208AB7582B175832374001208ABE47340
:1005A3000A75F0108E1A8F1B85821F85831E85188E
:1005B30082851983E0CEA3E0CF851F82851E83EB5E
:1005C300C9EAC8EDCBECCAC3E833C8E933C9EA3397
:1005D300CAEB33CBC3EA9EF51DEB9FF51CB3500466
:1005E300AB1CAA1DEC33CCED33CDD5F0DAAE1AAF8C
:1005F3001B22D083D082ECC0E0EDC0E0E493A3FCE7
:10060300E493A3FDED4C600D1206CDEC24FFFCED4D
:1006130034FFFD80EFE493A3FCE493A3FDED4C6072
:100623000D12076AEC24FFFCED34FFFD80EFD0E0F0
:10063300FDD0E0FCE493A3C0E0E493C0E022D083C8
:10064300D082E9C0E0E493A3C386F0C5F095F0F946
:1006530008E493A386F0C5F095F0700BE493A3C36D
:10066300994005E9048002A3E475F002A42582F50C
:1006730082E5F03583F583D0E0F9E493A3C0E0E4A9
:1006830093C0E022851983851882E0A3FEE0A3F5D9
:10069300207808E0A3F608DFFAE0A3FFE0A3C0E0B8
:1006A300E0A3C0E0E0A3C0E0E0A3C0E0E0A3C0E0BB
:1006B30010AF088582188583198008858218858381
:1006C30019D2AFD083D0820208B1C0E0C3E49396BD
:1006D300087401939618400FE49366700808740138
:1006E30093661870007019A3A3C3E493960874016A
:1006F300939618A3A3400DD0E0D0E0D0E0020631DA
:10070300A3A3A3A3A3A3D0E0227404800474028050
:1007130000CCC0E0EDC0E0E518C39CCCAD1950019E
:100723001D10AF068C188D1980068C188D19D2AF49
:1007330012082DD0E0FDD0E0FC2274028000CCC072
:10074300E0EDC0E0E518C39CCCAD1950011D10AF1E
:10075300068C188D1980068C188D19D2AF12080BD0
:10076300D0E0FDD0E0FC22C0E0C0F088F0E4936666
:1007730070080874019366187000A8F0A3A3700BA7
:10078300D0F0D0E0D0E0D0E0020631A3A3D0F0D087
:10079300E022D083D082CCC0E0E493A360061208A9
:1007A3008C1470FAE493A360061209931470FAD0C0
:1007B300E0FCE493A3C0E0E493C0E022C0E074F261
:1007C300120495A2AFE433FED2AFE58BA2E050034F
:1007D3001216DF758B00C2E8EEA2E092AF7F010232
:1007E30004F4C0E0C0D0E8C0E0E9C0E0A9A8D2AFFB
:1007F300C2C7E9A2E7E433F8E9A2E792AFD0E0F990
:10080300D0E0F8D0D0D0E032CAC0E0E493A3C582F0
:10081300CCC582C583CDC583F0A3C582CCC582C5B3
:1008230083CDC583DAE5D0E0CA22CAC0E0E0A3C520
:1008330082CCC582C583CDC583F0A3C582CCC582D6
:10084300C583CDC583DAE6D0E0CA2270090808085B
:10085300226016181818C6C333C608C633C608C69E
:1008630033C608C633C6D5E0EA22C008C3E096F50E
:100873000808A3E096420808A3E096420808A3E00C
:100883009645087001D3D00822C0E0E493A3D39C1B
:100893005010E493A3C39C400AD0E0D0E0D0E00220
:1008A30007B2A3A3A3D0E022C09FF59FE473D09F18
:1008B30022D083D082C09FE493C0E0740193C0E050
:1008C300740293F59F2200C0D0251810AF08F518C5
:1008D300500C05198008F51850020519D2AFD0D075
:1008E300222518F58210AF08F518400C1519800859
:1008F300F51840021519D2AF851983227404800AB2
:1009030074038006740280027401C0E0F4041208C8
:10091300E4D0E0120B4A22BB0102E722C082C0836B
:1009230089828A83BB0003E08002E493D083D08270
:10093300226016080808C6C313C618C613C618C60D
:1009430013C618C613C6D5E0EA222518F8E43519EC
:10095300F9222518FAE43519FB222518FCE4351988
:10096300FD22C3E0C696F608A3E0C696F608A3E008
:10097300C696F608A3E0C696F622251810AF08F52A
:1009830018400C15198008F51840021519D2AF222A
:10099300C0E0E493A36C7009D0E0D0E0D0E002079C
:1009A300B2A3A3D0E022E066701008A3E066700A49
:1009B30008A3E066700408A3E06622C3E09608A3D8
:1009C300E09608A3E09608A3E096A2D265D033226E
:1009D300E76670100809E766700A0809E76670049D
:1009E3000809E76622C3E096F008A3E096F008A39F
:1009F300E096F008A3E096F022C3E697F60809E62E
:100A030097F60809E697F60809E697F622C3E493F2
:100A13009608740193960874029396087403939648
:100A230022700422600D18C6C333C608C633C6D568
:100A3300E0F41822E647F60809E647F60809E64710
:100A4300F60809E647F622E026F008A3E036F008A8
:100A5300A3E036F008A3E036F022E627F60809E61D
:100A630037F60809E637F60809E637F622E657F6B9
:100A73000809E657F60809E657F60809E657F62285
:100A8300E056F008A3E056F008A3E056F008A3E010
:100A930056F022E026F608A3E036F608A3E036F681
:100AA30008A3E036F622E056F608A3E056F608A3BC
:100AB300E056F608A3E056F622E4C396F608E49659
:100AC300F608E496F608E496F622600D08C6A2E757
:100AD30013C618C613C6D5E0F322C6F4C608C6F477
:100AE300C608C6F4C608C6F4C622C3E7960809E7D3
:100AF300960809E7960809E79622C3E09608A3E05B
:100B03009608A3E09608A3E0962275D00075813F6E
:100B13007518017519030002054CE6F008A3E6F009
:100B230008A3E6F008A3E6F022600C08C6C313C6C8
:100B330018C613C6D5E0F422E0F608A3E0F608A32E
:100B4300E0F608A3E0F622CAC0E0E6F0A308DAFA6A
:100B5300D0E0FA22E8F0A3E9F0A3EAF0A3EBF02255
:100B6300E0F8A3E0F9A3E0FAA3E0FB22ECF0A3EDA5
:100B7300F0A3EEF0A3EFF022E0FCA3E0FDA3E0FE80
:100B8300A3E0FF22EAF0A3EBF0A3ECF0A3EDF02245
:100B9300E0FAA3E0FBA3E0FCA3E0FD22E5C754F8E1
:100BA3004401F5C77901222518F582E43519F58347
:100BB30022C2AF75D69F020000221208B451B402BC
:100BC3001208B4AAB5021208B43DB6021208B4C79B
:100BD300B6021208B42DB7021208B46CB702120899
:100BE300B4E2B7021208B437B9021208B4DAB90290
:100BF3001208B4F2B9021208B495BA021208B41F6B
:100C0300BD021208B4C0BE021208B4DEBE0212084E
:100C1300B4A028001208B4FA28001208B46429000A
:100C23001208B4ED29001208B4A92A001208B43836
:100C33002B001208B4512B001208B4762B001208B3
:100C4300B4B42B001208B4032C001208B42C2C00EB
:100C53001208B47B2C001208B4272D001208B4EF3D
:100C63002D001208B4542E001208B4212F001208CC
:100C7300B4672F001208B4832F001208B4B52F00F5
:100C83001208B45D31001208B43432001208B460A3
:100C930032001208B49432001208B4B532001208BC
:100CA300B4C432001208B4CF32001208B483330044
:100CB3001208B4F633001208B46834001208B47092
:100CC30034001208B49335001208B4C63500120874
:100CD300B48836001208B43737001208B47F3700DF
:100CE3001208B4E137001208B40638001208B47EC3
:100CF30038001208B40639001208B46A3900120821
:100D0300B44F3A001208B4743A001208B4953B0089
:100D13001208B4A83B001208B43C3C001208B48685
:100D23003D001208B4963D001208B4A53E00120817
:100D3300B41E3F001208B4603F001208B49C3F0089
:100D43001208B47041001208B4D543001208B4E984
:100D530043001208B4F343001208B4FD4300120821
:100D6300B40744001208B41144001208B42A440022
:100D73001208B43444001208B43E44001208B448C4
:100D830044001208B47044001208B47B44001208F3
:100D9300B4C544001208B4CF44001208B4DA4400C6
:100DA3001208B4FE44001208B42245001208B483AA
:100DB30045001208B4CE45001208B4EA45001208F3
:100DC300B45446001208B4A046001208B4E8460022
:100DD3001208B46347001208B4FD47001208B4C1F7
:100DE30049001208B42F4A001208B4614B001208DC
:100DF300B4874B001208B4F74C001208B4AB500090
:100E03001208B4AB52001208B48354001208B41C85
:100E130055001208B42E57001208B4F057001208F8
:100E2300B43C58001208B4A258001208B4B45800D5
:100E33001208B4045B001208B4315C001208B483D6
:100E43005C001208B4285D001208B4E35E001208C7
:100E5300B41460001208B43260001208B487600052
:100E63001208B48561001208B4AD61001208B41011
:100E730062001208B41163001208B48463001208FC
:100E8300B4B264001208B41D65001208B40D660004
:100E93001208B47368001208B4A168001208B49C65
:100EA30069001208B43A6B001208B48A6B00120886
:100EB300B4426C001208B4F76C001208B45B6D0006
:100EC3001208B4146E001208B4B46E001208B418F9
:100ED3006F001208B4626F001208B49F6F0012080B
:100EE300B40771001208B41782011208B44F8201CB
:100EF3001208B42885011208B46E85011208B48B58
:100F030086011208B4F086011208B4418801120860
:100F1300B4328B011208B4518C011208B426970124
:100F23001208B4C797011208B4BA9A011208B4BAE6
:100F33009B011208B4429C011208B4929D0112084D
:100F4300B4799E011208B4E2A0011208B4F0A20120
:100F53001208B47DA3011208B459A4011208B48283
:100F6300A4011208B42FA5011208B41AA60112088D
:100F7300B4F2A6011208B452A7011208B47BA70168
:100F83001208B4A8A7011208B4F9A9011208B4D42D
:100F9300AA011208B418AB011208B489AB011208F4
:100FA300B442AC011208B474AC011208B4BBAC0176
:100FB3001208B4EEAC011208B453AD011208B4A286
:100FC300AD011208B4A7AD011208B4FBAD011208BC
:100FD300B445AE011208B441AF011208B4A6AF0183
:100FE3001208B40DB0011208B432B3011208B406EA
:100FF300B4011208B470B5011208B44AB80112085A
:10100300B4F2B8011208B419BB011208B4BEBB0193
:101013001208B4FCBB011208B4D5BD011208B4E830
:10102300BD011208B4F1BD011208B4FABD011208E2
:10103300B40FBE011208B42EBE011208B40DC001D4
:101043001208B477C0011208B4C6C1011208B40F64
:10105300C2011208B4EFC2011208B41AC401120883
:10106300B4D0C4011208B4D2C5011208B4D4C60165
:101073001208B4BAC7011208B4D1C7011208B40EDA
:10108300C8011208B418C8011208B423C801120811
:10109300B441C8011208B483C8011208B4E1C801FD
:1010A3001208B406C9011208B420C9011208B4AD6C
:1010B300C9011208B4E6C9011208B434CB011208FD
:1010C300B486CB011208B4A0CC011208B4C7CC017A
:1010D3001208B463CD011208B4DFCD011208B42B9A
:1010E300CF011208B446D0011208B40CD101120882
:1010F300B4B6D1011208B43BD2011208B4A3D20191
:101103001208B458D3011208B4AAD3011208B410B8
:10111300D4011208B4D9D4011208B4FCD4011208C2
:10112300B4B4D5011208B4D8D5011208B4FAD50164
:101133001208B45BD6011208B4A6D8011208B48110
:10114300D9011208B42BDA011208B46CDC011208BD
:10115300B4BADC011208B4FDDC011208B455DD0198
:101163001208B4B3DD011208B4DDDD011208B401C5
:10117300DE011208B432DE011208B45CDE0112088B
:10118300B4A3DE011208B4F7DE011208B453DF0181
:101193001208B454E0011208B4BEE1011208B4FC11
:1011A300E1011208B425E2011208B4B6E201120803
:1011B300B400E3011208B424E3011208B477E30195
:1011C3001208B492E3011208B44DE4011208B47793
:1011D300E4011208B4BAE4011208B410E5011208DC
:1011E300B41CE8011208B44FE8011208B40CE90179
:1011F3001208B4E7E9011208B477EA011208B4B897
:10120300EA011208B40080041208B43880041208FA
:10121300B45980041208B49B80041208B4FF8004FC
:101223001208B40981041208B41981041208B450D5
:1012330081041208B4F984041208B4C186041208A4
:10124300B4B588041208B45389041208B4DA8904C3
:101253001208B464BF021208B40DC0021208B4EC41
:10126300C0021208B407C2021208B427C20212084D
:10127300B449C3021208B4E6C4021208B453C50247
:101283001208B429C6021208B42FC7021208B49474
:10129300C7021208B4D0C7021208B429C802120840
:1012A300B462C8021208B4ABC8021208B43DC90242
:1012B3001208B4DAC9021208B4AFCA021208B47C25
:1012C300CB021208B409CC021208B42FCC021208C4
:1012D300B45CCC021208B48DCC021208B462CD0205
:1012E3001208B472CD021208B4C5CD021208B4D2EA
:1012F300CD021208B4DFCD021208B4E8CD02120801
:10130300B44CCE021208B4AACE021208B4F5CE022F
:101313001208B410CF021208B437CF021208B45423
:10132300CF021208B460CF021208B404D10212082B
:10133300B41DD1021208B499D1021208B4ACD1027F
:101343001208B4BCD1021208B462D2021208B4D299
:10135300D3021208B4E5D4021208B485D5021208E8
:10136300B48FD5021208B4FDD5021208B40ED6020A
:101373001208B44DD6021208B47BD6021208B44840
:10138300D7021208B49FD7021208B4E4D702120896
:10139300B43AD8021208B458D8021208B4A6D80234
:1013A3001208B474D9021208B4C2D9021208B404E0
:1013B300DA021208B487DA021208B4B1DA021208A8
:1013C300B4E7DA021208B4F6DA021208B454DB0204
:1013D3001208B4CCDB021208B40DDC021208B45CB0
:1013E300DC021208B487DC021208B4A1DC02120882
:1013F300B4BBDC021208B490DD021208B49ADD0219
:101403001208B4D5DD021208B4E5DD021208B436C1
:10141300DE021208B44ADE021208B468DF021208C0
:10142300B47DDF021208B417E0021208B496E0029A
:101433001208B439E1021208B444E1021208B4916B
:10144300E2021208B4ADE2021208B405E302120884
:10145300B473E3021208B4BFE3021208B4D9E3027F
:101463001208B439E4021208B4D7E4021208B42211
:10147300E5021208B485E7021208B41DE802120857
:10148300B494E8021208B4DAEA021208B4F2EA02E7
:101493001208B4F5EA021208B401EB021208B415FB
:1014A300EB021208B41DEB021208B454EB0212084B
:1014B300B448EC021208B4D2EC021208B454ED02A0
:1014C3001208B4C9ED021208B4A1EE021208B4C3A3
:1014D300EE021208B45AEF021208B466EF021208C1
:1014E300B4C3EF021208B4C6EF021208B435F00217
:1014F3001208B481F1021208B494F2021208B41F64
:10150300F3021208B432F4021208B4FCF402120813
:10151300B42DF5021208B453F5021208B45CF502B7
:101523001208B48BF5021208B43BF6021208B4EBAE
:10153300F6021208B45EF7021208B410F802120899
:10154300B483F8021208B4C2F8021208B40BF90209
:101553001208B4DCE0031208B447E1031208B493A1
:10156300E1031208B4E3E1031208B467E2031208CB
:10157300B4ABE4031208B4C9E6031208B449EA039E
:101583001208B484EA031208B4A2EA031208B402EC
:10159300EB031208B42AEB031208B45BEB03120843
:1015A300B488EB031208B4F1EB031208B479C8034F
:1015B3001208B4F5C8031208B421C9031208B453BE
:1015C300C9031208B4B5CA031208B4D1CA03120876
:1015D300B40FCB031208B49CCB031208B4F8CB03AB
:1015E3001208B4BECC031208B47DCD031208B4C2F2
:1015F300CD031208B423CE031208B498CE03120805
:10160300B4C1CE031208B402CF031208B4A9D003A5
:101613001208B48DD1031208B444D2031208B431B2
:10162300D3031208B46BD3031208B4C3D303120851
:10163300B4E5D3031208B47DD4031208B424D5034C
:101643001208B4D7F1041208B4EFA7041208B40EB9
:10165300A8041208B41CA8041208B454A80412085D
:10166300B472AA041208B45DAC041208B49E9D04BB
:101673001208B4109E041208B4A2ED041208B4B305
:10168300ED041208B451EE041208B41DE304120869
:10169300B42BE3041208B484F3041208B4BAEF04BD
:1016A3001208B4CAEF041208B4E5EF041208B44DEB
:1016B300F0041208B4ABEB041208B42FEC041208C4
:1016C300B495EC041208B46BE6041208B48DE60476
:1016D3001208B4FAE6041208B442E7041208B49BF1
:1016E300E7041208B450DF041208B45EDF041208E2
:1016F300B433A3021208B4BBDF041208B4DCDF0462
:101703001208B451E0041208B432E1041208B447D9
:10171300E1041208B497C1041208B4A5C104120865
:10172300B41EC2041208B4F3C2041208B4B2C4044F
:101733001208B4A2F2041208B49BD8041208B4EC41
:10174300D8041208B485D9041208B4E7D9041208DE
:10175300B465DA041208B4C4B1021208B496DA0408
:101763001208B499DA041208B4D6DA041208B417CA
:10177300C5041208B429C5041208B4EFC50412083D
:10178300B4CCC6041208B4ECC6041208B475C7047A
:101793001208B4ECC7041208B440F9021208B46C7E
:1017A300F9021208B412FC021208B469FC0212080E
:1017B300B4A5FC021208B4B9FC021208B4D2FC02AC
:1017C3001208B4C3FD021208B49FFE021208B4B398
:1017D300FE021208B47EFE031208B4A2FE0312082E
:1017E300B4BBFE031208B4F9FE031208B42FFF03BF
:1017F3001208B462FF031208B4CEFF031208B4D177
:10180300FF031208B4DBFF031208B4E8FF03120856
:10181300B4A0D0041208B4C3D0041208B40ED10487
:101823001208B42CD1041208B447D1041208B4AD81
:10183300D1041208B4B9D1041208B416D2041208A0
:10184300B43AD2041208B400D3041208B40DD3047A
:101853001208B41ED3041208B461F2041208B47956
:10186300F2041208B49FF2041208B496B1041208E9
:10187300B42CB3041208B43AB3041208B44EB3043C
:101883001208B46BB3041208B480B3041208B493FF
:10189300B3041208B415B4041208B47AB4041208D9
:1018A300B410B5041208B4E9B5041208B4F9B504C8
:1018B3001208B408B6041208B421EF041208B445A0
:1018C300EF041208B46DEF041208B495EF04120884
:1018D300B409CB041208B475CB041208B494CB0436
:1018E3001208B409CC041208B4D3CD041208B4EC22
:1018F300CD041208B403CE041208B40CCE041208AB
:10190300B42ACE041208B434CE041208B43ECE0472
:101913001208B451CE041208B4DECE041208B44740
:10192300CF041208B475CF041208B4C6CF0412084A
:10193300B412D0041208B42DD0041208B437D00462
:101943001208B448D0041208B48BD0041208B4EFC0
:10195300F0041208B42A94041208B456940412082A
:10196300B47994041208B48C94041208B4A79404B0
:101973001208B40795041208B43595041208B43953
:1019830099041208B4769A041208B4A89A041208A7
:10199300B40F9B041208B48F9C041208B4B79C04C0
:1019A3001208B4CC9C041208B4DC9C041208B41CC6
:1019B3009D041208B45E9D041208B46E9D041208BF
:1019C300B4DAE7041208B4EAE7041208B40EE80430
:1019D3001208B437E8041208B461E8041208B485A5
:1019E300E8041208B49CE8041208B4CAE804120814
:1019F300B4EDE8041208B41DF2041208B409BE04DD
:101A03001208B419BE041208B435BF041208B4672F
:101A1300BF041208B48DBF041208B4B5BF04120882
:101A2300B4C7BF041208B403C0041208B469C004E5
:101A33001208B4A5C0041208B4EAC0041208B4170B
:101A4300C1041208B443C1041208B469EA041208B9
:101A5300B487EA041208B4E9EA041208B496EB0462
:101A63001208B4AEEC041208B4CBE4041208B41C9C
:101A7300E6041208B43CEC031208B4F2EC031208B7
:101A8300B417ED031208B437ED031208B44BED039A
:101A93001208B4A7ED031208B4CBED031208B44641
:101AA300EF031208B46EF0031208B448F1031208EE
:101AB300B4A5F1031208B4DBF1031208B45DF20319
:101AC3001208B4B6F2031208B4D7F2031208B459D9
:101AD300F3031208B48EF3031208B4F1F3031208EC
:101AE300B4AFF5031208B47BF6031208B4B3F603DC
:101AF3001208B407F7031208B452E1041208B473CE
:101B0300E1041208B4A6E2041208B4D0E2041208F5
:101B1300B44CD3041208B4C0D3041208B4CBD30416
:101B23001208B4ECD3041208B47A71001208B47D1D
:101B330071001208B44F72001208B48B72001208BD
:101B4300B4CB72001208B4FD72001208B42B7300F8
:101B53001208B46873001208B49673001208B494A0
:101B630074001208B4DB74001208B41D7500120867
:101B7300B49675001208B43376001208B456760092
:101B83001208B4C076001208B42E78001208B4E626
:101B930078001208B4D379001208B4C07A0012088E
:101BA300B4797B001208B4AE7B001208B41A7C002F
:101BB3001208B4B57C001208B4E37C001208B48B9D
:101BC3007E001208B4097F001208B4497F0012088E
:101BD300B42CDD041208B44FDD041208B440DE0453
:101BE3001208B420DF041208B425E9041208B45B18
:101BF300E9041208B477E9041208B4B9E904120835
:101C0300B4C9E9041208B45CEA041208B466EA042D
:101C13001208B4868A041208B4908A041208B4D74E
:101C23008A041208B4408B041208B4618B041208AE
:101C3300B47A8B041208B42C8C041208B4968E0464
:101C43001208B49F8E041208B4F08E041208B4264E
:101C53008F041208B43D8F041208B4AA8F0412082B
:101C6300B43A90041208B47090041208B4B9900402
:101C73001208B41A91041208B45491041208B4BCA3
:101C830091041208B40F92041208B4529204120879
:101C9300B48F92041208B4A192041208B4B392044C
:101CA3001208B4D292041208B4DB92041208B4A04E
:101CB30093041208B4EC93041208B4E3A2041208C8
:101CC300B429A4041208B452A4041208B463A404EB
:101CD3001208B47BA6041208B49BA6041208B43AF3
:101CE300F1041208B4E8DA041208B41EDB04120883
:101CF300B46DDB041208B4C9DC041208B45DB40388
:101D03001208B49BB5031208B4D7B5031208B4A6DE
:101D1300B7031208B4D0B7031208B467BA031208A2
:101D2300B4A7BA031208B43DBC031208B4D2BC036F
:101D33001208B430BD031208B4B6BD031208B4EEE2
:101D4300BD031208B430BE031208B4A1BF031208C6
:101D5300B425C1031208B44EC3031208B47CC303F1
:101D63001208B4A8C3031208B4B1C3031208B4071A
:101D7300C4031208B497C4031208B49AC703120821
:101D8300B41CC8031208B4DAFF021208B4F0FF024D
:101D93001208B439B6041208B452B6041208B4F7E0
:101DA300B6041208B437B7041208B450B7041208C3
:101DB300B483B7041208B4D0B7041208B404B80447
:101DC3001208B446B8041208B42FBA041208B4C7F0
:101DD300FE021208B439FF021208B477FF02120898
:101DE300B4B8FF021208B4E29E031208B43A9F0388
:101DF3001208B4C29F031208B4CAA0031208B4A8FD
:101E0300A1031208B44FA2031208B49BA203120841
:101E1300B4F4A2031208B449A3031208B4B8A30389
:101E23001208B4F8A3031208B4F4A4031208B44FBD
:101E3300A5031208B46BA5031208B4BBA5031208CB
:101E4300B4F4A5031208B413A6031208B45EA603E0
:101E53001208B474A6031208B48BA6031208B4BA0A
:101E6300A6031208B4CCA6031208B497A70312085A
:101E7300B4A2A7031208B41CA8031208B46FA803E2
:101E83001208B4AEA8031208B4DFA8031208B442C0
:101E9300AB031208B473AB031208B495AC03120876
:101EA300B4B9AC031208B434AD031208B406AE03DC
:101EB3001208B448AE031208B4B2AE031208B45DFC
:101EC300AF031208B487AF031208B491AF0312082B
:101ED300B49BAF031208B49EAF031208B406B00359
:101EE3001208B43FB0031208B452B0031208B47F0F
:101EF300B0031208B4BAB0031208B4BDB003120899
:101F0300B4C7B0031208B4F6B0031208B410B10397
:101F13001208B42BB1031208B45AB1031208B47AED
:101F2300B1031208B4B7B1031208B4F2B103120833
:101F3300B4FEB2031208B48AF1041208B4A2F10485
:101F43001208B4F87F001208B41BF7031208B46A2E
:101F5300F7031208B428F9031208B4FCFA031208B1
:101F6300B43AFB031208B445FC031208B44FFD0353
:101F73001208B471FD031208B4CDFD031208B44E68
:101F8300FE031208B40080031208B41F8003120872
:101F9300B4B080031208B4F980031208B457810364
:101FA3001208B4D281031208B44982031208B49A06
:101FB30082031208B40083031208B4928303120845
:101FC300B40A84031208B44984031208B4B1880321
:101FD3001208B4CE8A031208B4078B031208B4465E
:101FE3008B031208B4D88C031208B4DB8C031208D9
:101FF300B4A28D031208B4CC8E031208B4C69003A6
:102003001208B44793031208B41694031208B434A5
:1020130095031208B47E98031208B48E980312082D
:10202300B4129A031208B4B09A031208B4E99B03DA
:102033001208B4599C031208B4B79D031208B41EC6
:102043009E031208B479EB011208B414EC011208D0
:10205300B487EC011208B497EC011208B41FED0128
:102063001208B47BED011208B4B6EE011208B4DA1B
:10207300EE011208B451EF011208B4A2EF011208E5
:10208300B400F0011208B45BF0011208B408F301C4
:102093001208B4FFF3011208B475F4011208B44C2A
:1020A300F6011208B4EFF6011208B4A8F7011208FA
:1020B300B40DF8011208B47CF8011208B49FF901B9
:1020C3001208B465FB011208B485FC011208B412AE
:1020D300FD011208B482FD011208B494FE01120836
:1020E300B471D5031208B4D6D5031208B41ED603AF
:1020F3001208B471D6031208B4D7D6031208B43940
:10210300D7031208B4AED7031208B4E5D8031208F4
:10211300B40DD9031208B4EBD9031208B4FCD903E4
:102123001208B414DA031208B40BDB031208B44B1D
:10213300DB031208B454DB031208B46BDB0312088D
:10214300B489DB031208B466DC031208B420DD0390
:102153001208B42ADD031208B42CDE031208B417E4
:10216300DF031208B4B9DF031208B426E003120830
:10217300B43BE0031208B420C8041208B4D3C80463
:102183001208B49BC9041208B403CA041208B47732
:10219300CA041208B43CBA041208B45ABA041208A6
:1021A300B49EBA041208B4C4BA041208B4E6BA045A
:1021B3001208B4FEBA041208B416BB041208B42EF3
:1021C300BB041208B4D8BB041208B41ABC04120826
:1021D300B424BC041208B439BD041208B442BD04CB
:1021E3001208B44BBD041208B454BD041208B45E03
:1021F300BD041208B4F0AC041208B41CB1041208F4
:10220300B42AB1041208B42FB1041208B421D704BC
:102213001208B457F0041208B46BEE041208B41198
:10222300F3041208B4DAF2041208B43DF3041208FA
:10223300B466F3041208B409A3021208B451A2024B
:102243001208B484A0021208B454A0021208B418ED
:10225300A0021208B404A0021208B4459F02120897
:10226300B4929E021208B4419C021208B4169C0256
:102273001208B4B79B021208B4289A021208B4B623
:1022830099021208B49399021208B4D7980212085B
:10229300B47A97021208B43197021208B40B97026A
:1022A3001208B44796021208B49194021208B4318A
:1022B30094021208B40294021208B4FF93021208A3
:1022C300B4EA93021208B446B1021208B4FFB00292
:1022D3001208B466B0021208B457B0021208B4442C
:1022E300AD021208B491AA021208B458A902120846
:1022F300B479A8021208B4A5A6021208B4AA9302DC
:102303001208B49193021208B49B92021208B45AB1
:1023130092021208B466A4021208B4E791021208EA
:10232300B4B491021208B45991021208B42891026C
:102333001208B405A4021208B4F18D021208B47F86
:10234300DA041208B4038D021208B4BD8B0212081A
:10235300B4698B021208B45D8B021208B4C48A02FA
:102363001208B49289021208B4ED86021208B490DE
:1023730084021208B44484021208B42983021208A6
:10238300B4BE82021208B4E881021208B4A4810226
:102393001208B46B80021208B4ACA3021208B43260
:1023A30080021208B40080021208B483DF04000024
:1023B3000080FB0001363601010001020100010328
:1023C30001000104010606050200000701003408AC
:1023D30001000F090401010D0100FF0E08000017A1
:1023E300020000190100FF1A0100011B0100FE1C7D
:1023F3000100081D0200001F01000120010001214E
:102403000200002301000F2402000026010001271F
:10241300010008280200FF2A0100072B0102402CBB
:102423000100002D0100012E0100012F0100FF30EA
:10243300010B1C310800003A0100083B01000F3C6E
:102443000100013D0100FF3E04000042040000467C
:102453000400004A0400004E040000520400005629
:102463000400005A0400005E20FFFF00202020200B
:102473002020202020282828282820202020202031
:102483002020202020202020202020208810101011
:102493001010101010101010101010100404040469
:1024A30004040404040410101010101010414141DE
:1024B3004141410101010101010101010101010149
:1024C30001010101010101101010101010424242DC
:1024D3004242420202020202020202020202020219
:1024E3000202020202020210101010203600010044
:1024F300060000000F0000000000000000000000C4
:10250300000003FFFF00000403FFFF0000FFFF0FB5
:10251300F4010005C4040320000100000B000000C7
:10252300000000000003010F000000000000000095
:102533000000000000000000000000000000000098
:102543000000000000000000000000000000000088
:102553000000000000000000000000000000000078
:1025630000000000000000000000010371030103EC
:102573000103010301030103220302030103100307
:1025830000030003000300030003000300034203EE
:1025930000032403060300030003040312032503BB
:1025A300230325032303040304030003000300039D
:1025B30044030003000323030003650321003503E1
:1025C3008103000305030003000300030003250345
:1025D300230303027102300160021102700201023F
:1025E300020202028002100261023A004100630209
:1025F30073027202620243020002130238000002F5
:10260300000204021202000200020002000204029D
:102613000402370037003C02440200023900000282
:1026230000026502000235028102000205028202F5
:10263300830200020300710030016000110070008A
:1026430031022003500480001000610000001400D8
:102653006300730072006200430000001300060071
:102663000000000004001200000000000000000051
:1026730004000400370037003C024400000000005F
:102683000000000065000000350081000000050027
:10269300000083000000010171010101010111012A
:1026A30001013101010101018001100161013B00C0
:1026B30014006301730172016201430100011301FC
:1026C30006013D0135000401120100010001000172
:1026D300000104010401330133013C0144013201CF
:1026E3003600000100016501000135008101000190
:1026F30005018201830100010304710402046004E3
:1027030011047004020402040104020410046104AD
:102713000004140463047304720462044304000495
:102723001304060400040004040412040004000457
:102733000004000451046400000400040004440481
:10274300000400040004000465040004350481044B
:1027530064000504000483040004000087201300C0
:10276300F71F010087200200A91F0300AF1F040009
:10277300B51F0500BB1F0600C71F1100EB1F140088
:10278300F11F1500D91F1F00DF1FFFFF00000123EA
:102793000F06530F084D0F0B5F0F10990E02290FF1
:1027A30005410F072F0F0C0B0F0D170F64DD0CFFE7
:1027B300000007ECFDFDFDECDCDCCCBCACAC9C9C70
:1027C3008C7C7C6C6C5C5C5C4C4C3C3C2C2C1C1CF6
:1027D30003EAF5E5D5D5C5B5A595958585757565E3
:1027E30065555545453535252515150500160F0045
:1027F300000B150B020002220F3300000E5A69670B
:10280300426565416C6C69616E636530390103052E
:1028130007090B0D0F00020406080A0C0D0001192D
:10282300161816161823030000393D3F373C3C3673
:102833002C442D0C0E020B040B0A0708000F30303A
:1028430016181920231A1C1E30303017181921307E
:102853001B1D1F3000034A49434E181A2505020267
:10286300040201010101090200000000000000BE92
:10287300040AE8030000000000000E003C003C00D6
:102883007F00E803050308090003000CFF1E1E1068
:1028930005090C010404280815040C0308C082C0B0
:1028A300837900EA122AA53BF583C082C083900393
:1028B30042126EAAD083D082C3E09CA3E09D500C49
:1028C300EA240B1228F21228D2600109023F59EAC6
:1028D30075F00BA4FAA8F075F00BEBA428FB90039A
:1028E30044E02AF8A3E03B8882F583E0540F22F505
:1028F30082E43B1250A32274F71204298908124779
:102903003CA3E0F9E875F00BA4F8ACF075F00BE923
:10291300A42C122B20E8FEE9FF74016508600674FD
:1029230002650870228A828B83122E4C740265081A
:102933007021EA2403FA50010B120C35E970148E4E
:10294300828F83E4F0800CEA2403FCE43B122E43E1
:10295300120C2F8E828F83E0D2E7F0121ED1024336
:10296300E474F4120429122F0679008E828F83E017
:102973006075890A890B8064E50A75F00BA4FAA8CF
:10298300F075F00BE50B1228DE7049E50A75F00BC4
:10299300A4F8AAF075F00BE50B122B018E828F833E
:1029A300E0850882850983123F0D122DC3EE2403AF
:1029B300FCE43F122A98120C2F124577125AD412B4
:1029C30038FDD2E7F0121ED17901900342E0F50AF7
:1029D300A3E0F50B050AE50A7002050B122D1FE5AE
:1029E3000A9AE50B9B4091024A2A74F5120429EADC
:1029F300FEEBFF750A01740B120BAA1234F0EC4DB7
:102A03006015EC122AA53D122F147901120C17E55B
:102A130008450960758023E50845096044122AA327
:102A23003509122F14122A99120C35E96401701B0F
:102A3300EEFAEFFB120C1DE9F50A8508828509837E
:102A4300122DBB7902AA08AB098011122E44120C75
:102A530035E9640170347903EEFAEFFB120C178049
:102A6300298E828F83A3E064FE7003A3E0F4700BCE
:102A7300122E44120C35E96401700CEEFAEFFB12CE
:102A83000C1DE9F50A8003750A0002337CE50A246C
:102A930003FCE4350BFDE5082403FAE43509FB22C6
:102AA300E508125ED92274F71204299003421246F4
:102AB30094EA4B602FEA75F00BA4FAA8F075F00BBB
:102AC300EBA428FBEAFEEBFF121CF1900344124631
:102AD3009490034412508E6012EEFCEFFD790012C5
:102AE3001C258007900344E4F0A3F00243E4F902B9
:102AF300328FE875F00BA4F8AAF075F00BE9A42A5D
:102B0300F9900344E028F508A3E039F50922F9E830
:102B130075F00BA4F8AAF075F00BE9A42AF9900359
:102B230044E028F8A3E039F9229003421243CBC3CF
:102B3300EE98EF9922C082C083EC4D6005121DE12F
:102B430080097C087D007900121C25023F5974F628
:102B53001204297900EA4B60177800EA28F582E429
:102B63001257EB60047901780808E8C3940840EB36
:102B730002328F74F712042974F312097DECFEED0F
:102B8300FF851882851983E4F004120BAAEAF0A3E7
:102B9300EB1243BD120C537403120BAAAC82AD8328
:102BA300EEFAEFFB120C2FEEFAEFFB120C35024399
:102BB300DF74F712042974F312097DECFEEDFF852F
:102BC3001882851983E4F0EAFCEBFD7403120BAA67
:102BD300AA82AB83120C2FAA18AB19120C597401D9
:102BE300120BAA123F1A8E828F831243AE74FE68B1
:102BF300700374FF6960047901800279000243DF86
:102C030074F7120429EAFEEBFF120C11E9F50874BC
:102C13000165087011122C6CF4FA88828983E05ADA
:102C23004480F0121ED102387274F7120429EAFEAE
:102C3300EBFF7508008E828F83E0602A120C11E986
:102C4300F50874016508701E122C6CFA888289835A
:102C5300E05A70128E828F83E04480FA88828983DF
:102C6300E04AF0121ED102387212457B123A4A1220
:102C73002B118E828F83E02274F41204298A088B2D
:102C8300097C007D00EA122A9B120C2FE508122D05
:102C9300DD7900850882850983A3E064FE7003A3C0
:102CA300E0F460757E007F008066EEFAEFFB122889
:102CB300D26058EEFAEFFBEA75F00BA4FAA8F075B0
:102CC300F00BEBA428FB900344E02AF50AA3E03BB6
:102CD300F50B850882850983A31257C6850A828569
:102CE3000B83A3E06A7003A3E06B701FE50A240360
:102CF300FAE4350BFB120C35E964017006122A90D5
:102D0300120C2F122DD27901126CDE0EEE70010F10
:102D1300122D1FEE9AEF9B4091024A2A9003421212
:102D230050A5C32274F31204298A088B098A828B63
:102D330083122DBBEA122DDD750C00EA122A9B12B9
:102D43000C35E96401706A7E007F00805FEEF8EF66
:102D5300F9E875F00BA4F8AAF075F00BE9A42AF9C9
:102D6300900344126D50E0540F603CEEF8EFF9E825
:102D730075F00BA4F8AAF075F00BE9A42AF99003F7
:102D830044E028F50AA3E039F50B122A90121DDB63
:102D9300E964017012850A82850B83122DC3122DFB
:102DA300D2750C01126CDE0EEE70010F122B2C404B
:102DB3009CA90C7F05020687A374FEF0A304F022EE
:102DC300A31243CB850882850983A3123C3622E5EF
:102DD30008122DE7EEF0A3EFF022122DE774FEF0B8
:102DE300A304F022125EDD3509F5832274F5120483
:102DF30029EAFEEBFF8E828F83122DBB7C007D00C0
:102E0300122E44120C2FEEFAEFFB120C11E9F50A05
:102E13007401650A70271243C4122AF5850882F5E6
:102E230083122E4C122A99120C35E96401700EE5B7
:102E3300082403FCE43509122E43120C2F02337CC1
:102E4300FDEE2403FAE43FFB22A31257D0123C36D3
:102E53002274F212042974E612097D122F06750CEE
:102E630001750800750900750A00750B0085188245
:102E7300851983E4F0EE2403FCE43FFD7403120B95
:102E8300AAAA82AB83120C2FAA18AB19120C59E908
:102E93006401701F740B120BAA122F167401120B0C
:102EA300AA1257CA7003A3E069604AA818A919882F
:102EB300088909740D120BAA123F0CA3123F1A744E
:102EC3000E120BAA1243AE740D120955120C53E9DC
:102ED30064017009740D12094D880A890B780A126E
:102EE3000907AC08AD09EEFAEFFB120C23740212CA
:102EF30008C9E9F50CEEFAEFFB120C4DA90C741A94
:102F0300025726EAFEEBFF12457B74FEF0A304F0A2
:102F130022F583123A4AF912457B123C3622C082CB
:102F2300C08378007900800508E8700109122D1F1D
:102F3300E89AE99B5029E8FAE9FBEA75F00BA4FA51
:102F4300ACF075F00BEBA42CFB900344E02AFCA33C
:102F5300E03B8C82F583E0540F70CD7900800279D9
:102F630001023F59C082C08390289BE49375F016F9
:102F7300A4FCADF079FF7A987B0B121C25023F5914
:102F830074F6120429EAF87508007D008012ED1228
:102F930057DDC3994009E0FAE8C39A400205080DDA
:102FA30090289BE493FAEDC39A40E3AA087B0002BE
:102FB300328F74F012042974F312097D8A0C8B0D7D
:102FC3008C088D09890AEC45096016AA08AB091219
:102FD3000CA18A0E8B0FAE0EAF0FEE4F60030230C3
:102FE300A87B0080010B125ACA500F12315070F5A2
:102FF300749828FE740B39FF80047E007F00EE4F27
:1030030070030230FC90287B123123602174036526
:103013000A60067404650A70157A047903120C7742
:1030230090289BE493FC90287B1231295029902807
:103033007912312360287401650A60067402650AF7
:10304300701C7A027901120C7790289BE493FC9010
:10305300287912312940077A007B00023120851834
:10306300828519837401F0120BAAE50CF0A3E50D18
:10307300F0AC08AD097403120BAAAA82AB83120C3D
:103083002FAA18AB19120C65740B120BAA123C2F42
:103093008E828F83A3A3A3A3A3A3E4126EA6AA0C79
:1030A300AB0D1211697800E50A6007C3940550025D
:1030B30078048E828F83E50CF0A3E50D12648AE514
:1030C3000AF0E88E828F83A3A3A3A3A3125ADB5033
:1030D30001097A027B001202D9123536A312570670
:1030E300A312357AE50A600DC3940350081235051F
:1030F300123141800312351CF07A047900120C77E7
:103103008A0890289BE493FAC3E5089AEB9400405D
:10311300059012C1E4F0121043EEFAEFFB0234DA29
:10312300123139E84922123139ECC398F8E499F99C
:10313300C3EA98EB9922E493F8740193F922F9EE28
:103143002414F582E43FF583E8F0A3E922EB75F05C
:1031530016A4F8A9F012356FF42274F2120429743C
:10316300F312097D8A088B09ECFEEDFF750A00EE68
:10317300FAEFFB120CA18A0C8B0DA80CA90DE849E0
:10318300700302322188828983E065087004A3E01A
:103193006509700302322188828983A3A3A3A3E074
:1031A300C3940550798882898312630A1247F8E031
:1031B300603488828983A3A3A3A3E0C39403502626
:1031C30090287FE493FA740193FB1237709028815F
:1031D300E493FA740193FBE82414F582E439F5834C
:1031E300EAF0A3EB800DE82412123228F0E824144D
:1031F300123228F08518828519837401F0120BAA04
:1032030012630AF0EEFCEFFD7403120BAAAA82AB61
:1032130083120C2FAA18AB19120C65750A01A90A9F
:10322300740D025726F582E439F58374FEF0A30486
:103233002274F6120429120C9B8A088B09A808A988
:1032430009E849601488828983A3A3A3A3E06009E2
:10325300C394055004790180027900802F74F6121B
:103263000429120C9B8A088B09A808A909E849605C
:103273001488828983A3A3A3A3E06009C3940350A2
:103283000479018002790080031208C97F020206D3
:103293008774F6120429120C9B8A828B83E582457C
:1032A30083600BA3A3A3A3E07004790180027900D8
:1032B30080DAC082C083EAFCEBFD7A007B00023F28
:1032C30056C082C0837C007D00023F5674F5120411
:1032D3002974F312097DEAFEEBFF8C088D09C3EC18
:1032E30094F8ED94FF4004EE4F606A750A0080196C
:1032F30074FF6508700474FF6509600B126607703C
:1033030004A3E06509603B050A90289BE493F8E574
:103313000AC3985040E50A12315160EBEE4F60D07A
:10332300123363120BAA1243B9120C5FE960D8740B
:1033330003120BAAAC82AD83EEFAEFFB121DDBE99D
:1033430060C5E50A75F016A4F8A9F0749828FA7414
:103353000B39FB80047A007B00740D1208C9801BB3
:103363008518828519837401F0749A28F582740B89
:1033730039F5831243CB740B22A90A7F0302068714
:1033830074F412042974F312097D750800120CA158
:103393008A0A8B0BAE0AAF0BEE4F601F1233E61295
:1033A3003376120BAA1243B9120C477C167D0079AF
:1033B300FFEEFAEFFB121C257508017A047900125F
:1033C3000C778A0A90289BE493FAC3E50A9AEB9454
:1033D3000050099012C17401F0121043A908740D32
:1033E300024A278518828519837401F08E828F83A0
:1033F300A3A32274F7120429E9FC74FE6A70037410
:10340300FF6B7D007003802C0D1234585026ED1293
:10341300315160F41270EB6A7003A3E06B70E980C2
:1034230012ED75F016A4F8A9F01270DE6018E064CE
:103433000360130D1234585015EC60E512356360C8
:10344300F2C3940550ED12684B1257C380047AFE01
:103453007BFF0243E490289BE493F8EDC398221288
:103463000CB3023F59C082C083790180F274F01219
:1034730004298A0A8B0B7A047901120C778A0C8B44
:103483000DEA450D6040EA2AFAEB33FB121CF18A80
:10349300088B09AE08AF09EE4F60267AFE7BFF1258
:1034A3000CB974FE6A700374FF6B601E8508828515
:1034B3000983124694E5082402F50850E2050980C1
:1034C300DE750C0080047E007F00850A82850B83F5
:1034D300E50C1245C88005740D1208C97F08020661
:1034E30087E493F8ECC39822126EAEEC22E0F50861
:1034F300A3E0F509221208C97F0C0206877F0702A1
:10350300068790287F123139EE126842123C3690BA
:103513002881E493F874019322EE241212352AF0E1
:10352300EE241412352A22F582E43FF58374FEF06B
:10353300A30422E88E828F83A3A3A3A3A3A3A3A39D
:1035430012355B740112355BA374AAF0EE2410F5F7
:1035530082E43FF583E4F0221264ADA3A3A3A32284
:10356300ED75F016A4F8A9F012356F22749C28F5B6
:1035730082740B126F9A22A3F012457BE4F0EE24BF
:103583000CF582E43FF583E4F0A3F0A3F0A3F0226B
:10359300C082C0837D008009EA24FF1AEB34FFFB5D
:1035A3000D1234585016123563C3940550F2EA4B8A
:1035B30070E6749828FA740B39FB80047A007B0058
:1035C300023F5974F712042974F312097D7E000235
:1035D300365EEF75F017A4F8A9F01270C11258AC5B
:1035E30075F016A4FAABF074982AF582740B125A8C
:1035F300FE7003A3E0696040EF75F017A4F8AAF02A
:10360300EAF91270C139F583123F1A7401120BAA39
:10361300E0687003A3E069601FEF75F017A4F8EA90
:10362300F9746828FC740D39FD7403120BAAAA827D
:10363300AB83121DDBE96013EF75F017A4F8A9F053
:10364300746628FA740D39FB1211750F902892E4F1
:1036530093F8EFC39850030235D50E90289B126C54
:1036630030501FEE1270E4F47003A3E0F460EB1229
:103673003363120BAA1243B9120C5FE960DC7F00BB
:1036830080CA0243DF74F712042974F312097D9090
:10369300041512508E7003023734750800802BE531
:1036A3000875F016A4F8EAF974AC28F582740B12C5
:1036B3006F9664FE7003A3E0F4600D74AA28F5828C
:1036C300740B39F58312571C050890289B1256E595
:1036D300505FE50875F016A4F8AAF0EAF912356B05
:1036E30060E6C3940350E174AA28F582740B125068
:1036F3008B70ACE50875F016A4F8EAF9749828F80D
:10370300740B39F9E8FEE9FF1237D21237C81205F4
:10371300A11233E6123376120BAA1243B9120C5FCD
:10372300E960A57403120BAAAA82AB83120CAD80C5
:10373300970243DF74F6120429120C9B8A088B0943
:10374300A808A909E849602088828983A3A3A3A3C1
:10375300E06011C39403500CE82414F582E412577B
:10376300C312377079018002790002328FE8241284
:10377300F582E439F583EAF0A3EBF02274F712043F
:1037830029EAFEEBFF90040F12508E60309004156F
:1037930012508E602890041912508E602012698C8A
:1037A3001205A1E970171237C31205A1E96401706C
:1037B3000C8E828F83A3A31269791205A10243E4BD
:1037C3001237D2A3A31250A5900415126983229035
:1037D3002881E493FC740193FD8E828F8322C0823F
:1037E300C08390034B743BF0A3740FF090034D74AC
:1037F30035F0A3740FF0900351744FF0A3740DF0E0
:10380300023F5974F7120429EAFEEBFF900385E0A7
:103813006408601CE0640460178E828F83E05403A5
:103823006401704112547EF8123877E064067035F3
:103833008E828F83A3A3E064FE7003A3E0F460256C
:103843008E828F83A3A3125EBF7003A3E069700807
:10385300EE2415125EB46005120FE38003120FE924
:10386300E9F50880037508C2EEFAEFFB121CF7A90D
:10387300080243E4A3E0F58388822274F412042946
:103883008A088B09123A46FAE82AFAE43400FB1252
:103893001CF18A0A8B0BAE0AAF0BEE4F60558508FD
:1038A30082850983E0FC7D007900121C258E828FBE
:1038B30083A3122DBB12101F8E828F83A3A3A3A3F6
:1038C300EAF0A3EB1238FDF8EE28F8E43F122F19C3
:1038D300850882850983A3E0C0E0125AC0D0E0F0D6
:1038E300121031125AB6E9123C25E0C0E0123C1B1B
:1038F300D0E0F0EEFAEFFB024A2AF0850882850950
:1039030083E02274F412042974E812097D8A088B77
:10391300098C0A8D0BE9FE900385E064046005E0E1
:103923006408700479C2803CA37808120B1DEE90E2
:10393300038C123B89121C2585188285198378080C
:10394300120B1D7405120BAAEEF07404120BAA7469
:1039530001F07407120BAAE4F0900385740212437A
:10396300BD1221BF024A2574F412042974E8120916
:103973007DEAFEEBFF90034612508E6003023A414C
:103983007A077B00121CF19003461246949003467B
:1039930012508E7003023A3D8E828F83120B639016
:1039A3000346E0FCA3E0F5838C82120B57EE24045C
:1039B300F50AE43FF50B850A82F583E0C0E0900346
:1039C30046125062A3A3A3D0E0F0EE2405F508E469
:1039D3003FF509850882F583E0C0E0900346125065
:1039E30070D0E01243B3C0E0900346123A4AC824B1
:1039F30006F582E438F583D0E0123B89121C258E4C
:103A0300828F83120B63851882851983120B578566
:103A13000A82850B83E0C0E07405120BAAD0E01282
:103A230038FDC0E07404120BAAD0E0F07407120B47
:103A3300AAE41243BD1221BF8006791080027901E6
:103A4300024A258A828B83E0F8A3E022C082C083E6
:103A530090034612508E60109003461257C6121CF4
:103A6300F7900346E4F0A3F0120F59121115023F29
:103A73005974F412042974E812097D8A0A8B0BEC39
:103A8300FEEDFF89087428120BAAE0FC7429120BBF
:103A9300AAE0FD740F6C7005740F6D6012901337FC
:103AA300E064026005ECC39D500579C1023B867456
:103AB30024120BAA120B63900386120B57E508908E
:103AC300038CF0EC90038AF0EDA3F0742A120BAA96
:103AD300E090038DF074FF650A700474FF650B704A
:103AE30024901349E0F47003A3E0F4700C121C3D1E
:103AF300900383EAF0A3EB8012901349126868E8FD
:103B0300F0A3E98006900383125AD4F0EE4F6017B6
:103B1300EEFAEFFB1211C9E96401700BEEFCEFFD45
:103B23007A977B03121DE1900376E4F0A3F09003F0
:103B330079F0A3F0900396F0901337E064027008D5
:103B430090038A740FF0A3F09003857405123B89E8
:103B5300121C257404120BAAE4F0900386120B6363
:103B6300851882851983120B5790038CE0C0E0748B
:103B730005120BAAD0E0F07407120BAAE41243BD9E
:103B83001221BF024A25F07C187D007900AA18ABE8
:103B93001922C082C08390034AE07003121FE5120A
:103BA3000D13023F5974F012042990034AE0901256
:103BB300C0700FE060057900121E9B9012C0E4F004
:103BC300804AE06401600890034AE0F9121E9B906A
:103BD30012C07401F090034AE0F46030E0F50CE4A5
:103BE300F50DF50EF50FF09081E17808120B3B7897
:103BF3000C790812033A780C1208FF7A807B009044
:103C030003D0E0F9121DAB74041208C97AC07B1209
:103C130079411221A70234DFEE2411F582E43FF546
:103C23008322F0850882850983A3A322125AF61200
:103C33003C3622E8F0A3E9F02274F612042974E278
:103C430012097D851882851983ECF0A3EDF0EAFE55
:103C5300EBFF8908900385E064046005E064087065
:103C63000579C2023D667429120BAAE064FE700353
:103C7300A3E0F4700579C3023D667C197D007900E9
:103C83007405120955121C2590038574031243BD54
:103C930079501221A77429120955794B1221A7854E
:103CA3001882851983123D7FE508900378F0742903
:103CB300120BAA123D757428120BAAE0F5099003A2
:103CC30070123D6B121DE174CE55094480C0E0743F
:103CD3001D120BAAD0E0F0742B120BAAE004900380
:103CE30096F0741A120BAA7402F07429120BAA121A
:103CF3003F1A7412120BAAE8F0A3E9123F13741BC4
:103D0300120BAA1243AE7410120BAAE508F0740D3D
:103D1300120BAAE4F090038B740FF07A8B7B037978
:103D2300541221A790038A740FF07A8A7B03794790
:103D33001221A790038AE0C3940F501F7410120B33
:103D4300AAE0C0E07402120BAAD0E0F07404120BD4
:103D5300AA7401F0041209551221CB7405120955F6
:103D63001221AD741E02328CF0EEFCEFFD7A977BCC
:103D730003221243CB900379123C362212686C1251
:103D83003C362274F7120429EB90038DF0120F478F
:103D93000243E474F712042974E912097DEAFEEB85
:103DA300FF7508008E828F83A3A3A3E0C0E074068F
:103DB300120BAAD0E01233EEE0C0E07408120BAA93
:103DC300D0E0F07409120BAA7401123F0D12508E49
:103DD300600D8E828F831257C6120C35E9703574CD
:103DE30007120BAAE4F01210197404120BAA12465C
:103DF30094900385E06404700E1210257402120B74
:103E0300AAEAF0A3EB80487402120BAA74FDF0A394
:103E130074FF803BAC18AD198E828F831257C61284
:103E23000C418E828F83A3A3A3A3E0703074071287
:103E33000BAA7401123F137402120BAA1243AE8E23
:103E4300828F83123F1A7404120BAAE8F0A3E9F0DD
:103E53007402120955121061E9F508803E123F14ED
:103E6300740A120BAA1243AE7414120BAA1233EC87
:103E7300A3E0C0E07415120BAAD0E0F07416120B85
:103E8300AA123F0C126EAA740C120BAAAA82AB835D
:103E9300121DE1740A120955121EB3A90874170200
:103EA30043E174F712042974F812097DEAFEEBFF6B
:103EB3007900900385E064086005E064047045853B
:103EC300188285198374FDF0A374FFF0121019741E
:103ED30002120BAA1246947405120BAA123F0CA3EA
:103EE300E0C0E07404120BAAD0E0123F0DE0C0E082
:103EF3007406120BAAD0E0F07407120BAAE4124363
:103F0300BD12106174080243E1E4F08E828F8322B4
:103F1300F08518828519831243CB22C082C0839017
:103F2300035774EBF0A3740DF09003FD74BBF0A37F
:103F33007410F090035B7421F0A3740EF090035D92
:103F430074EBF0A3740DF090035F7427F0A3740E69
:103F5300F08003120CA7D083D0820208B174F4124C
:103F6300042974F912097D8A088B098C0A8D0B8543
:103F730018828519837808120B1D7404120BAAE9A1
:103F8300F07405120BAAE4F07406120BAAE41243B0
:103F9300BD120CFB7407024A2774F51204298A0820
:103FA3008B098A828B83126CE1EE4F7003024154BA
:103FB30090031412508E60158A828B83A3A3E0F9B9
:103FC300EEFAEFFB9003151238781205A18E828F5B
:103FD30083A3A3A3A3A3A3A3A3A3E06402600302F5
:103FE30040BD8E828F83A3A3A3A3A3A3E054027037
:103FF300030240E1850882850983A3A3E064E97095
:10400300030240E1850882850983A3A3E064CD70A0
:10401300030240E1850882850983A3A3E064F0706D
:10402300030240E18E828F83A3A3A3A3A3A3A3A32D
:10403300A3A3E0701690133BE0048E828F83A3A3A7
:10404300A3A3A3A3A3A3A3A3F080101241651210FB
:1040530091E970077A307B01121F43850882850935
:1040630083A3A3E0701F750A0080097A367B0112CF
:104073001F43050A850882850983A3A3A3E0F8E506
:104083000AC39840E68E828F83A3A3A3A3A3A3A30B
:10409300A31264A1A3A3A3A37404F090133C125A24
:1040A300F0E8124157121DBDEA4B4C4D700C7A20BB
:1040B3007B009003D0E0F9121C858E828F83A3A32B
:1040C300A3A3A3A3A3A3A3E0640260128E828F839E
:1040D300A3A3A3A3A3A3A3A3A3E0640670738E82E5
:1040E3008F83A3A3A3A3A3A3E0A2E05064850882C4
:1040F300850983A3A3E0F9EEFAEFFB12224F8E8228
:104103008F83A3A3A3A3A3A3E054FEF012416512DC
:104113001091E9850882850983A3A3702AE070239F
:104123007A2F7B01121F437E00850882850983A3B2
:10413300A3A3E0F8EEC39850187A367B01121F430D
:104143000E80E67A318005E070077A2D7B01121F1D
:104153004302337EF0A3E9F07A207B009003D0E0A2
:10416300F9228E828F831269831250A52274EC1276
:10417300042974DB12097DEAFEEBFF8C108D1175A7
:104183000E00740512095D1217577412120BAAE080
:1041930070087415120BAAE060207405120BAAE0D4
:1041A300A2E6501B8E828F83A3A3A3A3A3A3A3A3DF
:1041B300A31257C6121091E960057A350242B97409
:1041C30005120BAAE0540C64047005750D018003FD
:1041D300750D00E0A2E55030750E01E50DA2E0403B
:1041E3002712101F8A088B09A808A90912547E6890
:1041F3007003A3E0696011740512095D125ECE12AB
:10420300226DE960030242B77405120BAAE0A2E62D
:1042130050227406120BAAE0540370187405120B93
:10422300AAE0540C640C600CE0540C64086005753F
:104233000C018003750C007405120BAAE05403F8FB
:10424300740268700E740512095D125ECE120BC9FA
:104253000243A37401687041E50CA2E0500B74059E
:1042630012095D125ECE120BBD740512094D740363
:10427300120BAAE8F0A3E91243C3851882851983B8
:10428300E8F0A3E91243B3C0E07402120BAAD0E032
:104293001243BD1223870243A3E860030243A390A2
:1042A300036DE0640170178E828F83A3A3A3A3A37E
:1042B300A3E0700A7A347B01121F430243A37424E0
:1042C300120BAA74021243C3741C120BAA1243AE3C
:1042D300E50CA2E0500B740512095D125ECE120BC1
:1042E300BD7439120BAA7808120B3BE50DA2E0EE60
:1042F3005072240F125EB4C0E07417120BAAD0E000
:10430300F090031612508E70030243A312101F8AFB
:10431300128B13A812A913741C120BAAE068700362
:10432300A3E069707B78081208FFE50EF5087808AA
:1043330012090B8E828F83A3A3A3A3E0F508780849
:1043430012090B7810120907A90C740D12095D7478
:10435300241209559003161258381205A174081235
:1043630008C9803C125EB2F50C780C12090B780870
:104373001208FFE50EF508780812090B78101209E8
:1043830007900383120710EE2412125EB4F9742609
:1043930012095D740F120955122243740A1208C9D7
:1043A30074250234F8A3A3A3A3A3A3E8123C3722E2
:1043B3001264A9A3E022E8F0A3E9F0AA18AB19223A
:1043C300F012457B1243CB221243CF22E0F8A3E045
:1043D300F92274F7120429121E7D8005740D120848
:1043E300C97F0102068774F7120429121E8380F124
:1043F30074F7120429121E8F80E7C082C083121E35
:1044030089023F5974F7120429121E9580D374F759
:104413001204297409120BAAE0F508780812090B93
:10442300121EA7740180B7C082C083121EB3023F5D
:1044330059C082C083121EB9023F5974F71204296E
:10444300121EBF809C74F7120429EAFEEBFF890851
:104453007401650870147900120E63902890E49338
:10446300FC7900EEFAEFFB120DD90243E474F71264
:104473000429121EAD0243E474F412042974F912E0
:10448300097DE9FE8A088B098C0A8D0B9011F512C0
:10449300508E602BEE851882851983F07401120B00
:1044A300AA7808120B1D7413120BAA123F1A740573
:1044B300120BAA1243B99011F51258381205A10232
:1044C3003F97C082C083121EFB023F5974F7120448
:1044D30029121ECB0243E474F71204299012C3E09D
:1044E300F97E00800B12474A540D64017001190EC6
:1044F3001246E15003E970ED0243E474F712042914
:104503009012C4E0F97E00800B12474A548D6481F7
:104513007001190E1246E15003E970ED0243E47491
:10452300F2120429890BE975F006A4A9F0240CF50D
:1045330008E439F509E5082AFAE43509FB121CF108
:104543008A0C8B0DAE0CAF0DEE4F6021AC08AD099C
:104553007900121C25124577E50BF0EE2508F8EFDC
:104563003509F98E828F83A3A3A31243A8EEFAEF32
:10457300FB02572912457B22EE125EDD3FF58322B3
:1045830074F6120429EAFEEBFF120DB59012C2E095
:10459300F8E9C39840099003531257C6120DBBEEB6
:1045A3002402F8E43FF988088909900355125BEC6B
:1045B300900355E0041245C8120DC1850882850990
:1045C30083E0022AF1F0EEFAEFFB22C082C0837986
:1045D300009003538001091257C68A828B83E582B8
:1045E300458370F2023F5974F7120429EAFEEBFF88
:1045F300EE4F605A90035312508E60528882898323
:104603007A007B00EE65827003EF65836013AA82F4
:10461300AB83123F1A88828983E5824583602F80AA
:10462300E39003531258AF687002EF698E828F8351
:104633007008123F1A90035380031269711243AE3C
:10464300EEFAEFFB122357EEFAEFFB121CF70243CD
:10465300E4C082C08390035380048882898312500C
:104663008E600A888289831234EB4D70ED8A828BC7
:1046730083E4F0A3F0E8496006888289838003908D
:104683000353124694023F59EE241AF582E43FF590
:1046930083EAF0A3EBF0221250A5EA4B2274F7123F
:1046A300042990035380048A828B8312469A6027DD
:1046B3007E0080010E1246E150EDEE75F006A4FC7B
:1046C300ADF0EA2CFCEB3DFDEC2410F582E43DF566
:1046D30083E06970DF80047A007B000243E41247C1
:1046E30040EEC3982274F71204297D0080010D1255
:1046F300473CEDC398503BED75F006A4FEA8F0E8E7
:10470300FFEA2EFEEB3FFFEE2410125EB46970DE6B
:10471300ED75F006A4FEE8FFEA2EFAEB3FFBEA2470
:1047230011F582E41257EB4CF0EA240CFA50070B14
:1047330080047A007B000243E412474022EA125EBF
:10474300DD3BF583E0F822EE75F006A4FCADF0EA5C
:104753002CFCEB3DFDEC2411F582E43DF583E022D6
:1047630074F6120429120ECF7B008016EB75F00647
:10477300A4F8A9F0125C1AE41247F8F0A3125BE262
:10478300F00B902895125ACD40E27A0080168A08E1
:1047930075090074037808120A241256ED125AEBB5
:1047A300A3E4F00A90289FE493F8EAC39840DF79E2
:1047B30000801A890875090074037808120A2474A2
:1047C3008E126CE97410126B22122DBC0990288A88
:1047D3001262F040DE902896E493900361F090819A
:1047E300E112070C7A107B009003D0E0F9121DB19F
:1047F300740402328C1262FEA32274F01204297430
:10480300F512097D8A088B09890A8C0BE9A2E0500D
:10481300147508FC7509FFA2E15005D2E40248C6ED
:10482300D2E30248C6120EB78A0C8B0DA80CA90D51
:10483300900376E0687003A3E069600EAC0A790226
:10484300AA08AB09120EB1E970057900024997E590
:104853000AF50C780C12090B79027CFE7DFFAA087D
:10486300AB09120E2D74011208C9E96003024995C0
:10487300E50AC2E5F50A9003C3E07049E50AA2E63A
:104883004043740312095DAA08AB09120C3BE9709B
:104893002E1250691211578A0C8B0DAE0CAF0DEE10
:1048A3004F6022EE2402FAE43FFB120C35E9601557
:1048B300EE2402FCE43FFD7403120955121DE1E5E9
:1048C3000AD2E5F50A900356E0F50C900376124BF5
:1048D30059780E1209077D017C00900356E0F9AA6E
:1048E3000EAB0F120E6F74021208C9E9F89003564B
:1048F300E004F0E86003024995E50AA2E550047478
:104903000E80027406C0E07401120BAAD0E01243B9
:10491300BD1210798A0E8B0FAE0EAF0FEE4F606E85
:1049230012545B12101912468B1249AE7401F074C3
:1049330078550AA3126F13E50C126F13A3E508F061
:10494300E50912499CE4F0E50AA2E5500F7403124D
:10495300095DE82406FAE439FB121DE18E828F8398
:10496300A3A374FDF0A374FFF0E50B6018902891E6
:10497300E493F8E50BC398500CEE2413F582E43F5F
:10498300F583E50BF0EEFAEFFB120CE980067910E4
:10499300800279C7740B0234DC88828983A3A3A3C2
:1049A300A31249A822126302A3A322EE125ED93FE7
:1049B3001249B722F5831243CF888289832274F484
:1049C3001204297A007B109003D0E0F9121DBDEA8E
:1049D3004B4C4D60089003E27401F080439012A6A3
:1049E300E064019013387006E0FC79018004E0FC78
:1049F30079037A007B00120DD9902885E493F5089A
:104A0300740193F509E4F50AF50B78081208FF7AA7
:104A1300007B109003D0E0F9121DAB74041208C997
:104A2300800574181208C97F0402068774F0120403
:104A3300298A088B098C0A8D0B890C121091E96065
:104A4300057AFF024B1D901337E064026003024BAB
:104A530049902888E493F9AA08AB09120EE1E960AA
:104A630003024B437900AA08AB09120EB7A90C1233
:104A73000EAB8A0E8B0FAE0EAF0FEE4F7003024BD1
:104A83002F8E828F83A3A3A3A3A312620670731234
:104A930057C68E828F83A3A3A3A3A3A3E054186056
:104AA3004D90288FE4938E828F83A3A3A3A3F074E6
:104AB30010120BAA126EAA7412120BAA124B59EA05
:104AC300650A7003EB650B6012EA6C7002EB6D60B4
:104AD3000AEA650E7003EB650F701B780E12090767
:104AE300AA0AAB0B12119374021208C9800890032F
:104AF30075126498A3F074FE6A700374FF6B601EF2
:104B03008051A3A3A3E06403602A8E828F83A3A3AF
:104B1300A3A3A3E0640470067AFE7BFF80358E8234
:104B23008F83A3A3A3A3A3E0640270089003C2E04E
:104B3300640270127907AA08AB09120EE1E9600654
:104B4300AA08AB09800DAA08AB099003571258387D
:104B53001205A10234DFE0F50EA3E0F50F2274F78E
:104B6300120429EAFEEBFF120C89E9700AEEFAEF50
:104B7300FB120C95E96006EEFAEFFB80047AFE7BEC
:104B8300FF0243E474EE1204298A0A8B0B8C0C8D0A
:104B93000D890E750800121091E979006003024C2B
:104BA300EDAA0AAB0B120EB7A90E120EAB8A108B2D
:104BB30011AE10AF11EE4F60198E828F83A3A3A3A2
:104BC300A3A3E0640270529003C2E0640270030284
:104BD3004CEBAA0AAB0B1258351205A1120C9B8A97
:104BE300108B11A810A911E8497003024CEB8882BD
:104BF3008983A3A3A3A3A3E0A2E04003024CEB7524
:104C03000901A2E1504B7901AC0AAD0BAA0CAB0D23
:104C1300120E09E97047024CEB8E828F83A3A3A384
:104C2300A3A3E0640360258E828F83A3A3A3A3A31E
:104C3300E064016003024CEB79078E828F83A3A3A8
:104C43001257C6120EE1E96003024CEB75090280AC
:104C53001088828983A3A3A3A3A3D2E1F0EE4F60BC
:104C63003A8E828F83A3A3A3A3A3A3E05418602B3C
:104C73007508018E828F83A3A31207107510FE752A
:104C830011FF78101209077900AC0AAD0BAA0CAB1F
:104C93000D120EC374041208C9804D7900AA0CAB1F
:104CA3000D120EB78A108B11A810A911900376E08C
:104CB300687003A3E0697014902890E493FCA90E34
:104CC300AA0AAB0B120DD9750801801CA909AC0AFD
:104CD300AD0BAA0CAB0D120E09E9700C750801A9F6
:104CE3000EAA0AAB0B120E63A90880031208C97F30
:104CF3000A02068774EB12042974F012097D8A0CE8
:104D03008B0D8C088D0975120690040312508E606A
:104D1300171250691211818A108B11EA451160082C
:104D23008A828B83A3E06068E50C241DF50EE435CD
:104D33000DF50F850E82125285F51488828983A39F
:104D4300A3A3E0FA88828983A3A3A3A3E0F8E4C81A
:104D5300F9EA28FEE439FFAA08AB09120E69850EA9
:104D630082850F83125070E029F50BE50AA2E55006
:104D73000375120E7487550A700F7418550A641858
:104D830060071250536512600C7AD37B00121F43E5
:104D9300790002503D530A78C3EE94F8EF94FF5024
:104DA300247900EEFAEFFB120EAB8A0E8B0FA80EDE
:104DB300A90FE849600F88828983A3A3A3A3A3A3B0
:104DC300E0541870CB78081209077D00AC0BA914C6
:104DD30012509A120E6F74021208C9E9F87403682C
:104DE30060AE7425120BAA126CEE6003024EB4740B
:104DF30018550A7003024F6FE50AD2E0F50AA2E4E0
:104E03005004D2E1F50AA90A12509A120EAB8A1283
:104E13008B13A812A913E849605C88828983A3A332
:104E2300A3A3A3A3E05418604D88828983A3A3A3FB
:104E3300A3A3E06401703FE51045116039126EA72A
:104E430088828983A3A31257C61211818A128B13F6
:104E5300A812A913E849601E88828983A3E060161B
:104E6300851082851183A3E0FA88828983A3E0C336
:104E73009A5003024D93E50AF510781012090B12AC
:104E83005094120E2D74011208C9E970247C007D20
:104E930000850E82850F8374FFF0125476A3A3A3BB
:104EA300E06006125047126EAAA90B12509A120D17
:104EB30085850E82850F83E0F47003A3E0F4603CE4
:104EC3009003C2E064027003024D9312509A900360
:104ED300591258381205A1EA65087003EB65096099
:104EE30003024D93EEFAEFFB900359125838120563
:104EF300A1850E82850F83EAF0A3EBF078081209EF
:104F0300077D01AC0BA91412509A120E6F74021292
:104F130008C9A90AEEFAEFFB120EB78A088B09A893
:104F230008A909900376E0687003A3E069600302AF
:104F3300502FEEFAEFFB120C9B8A088B09A808A9E5
:104F430009E849606F88828983A3A3A3A3E064016E
:104F5300600D88828983A3A3A3A3E064027055AC88
:104F630018AD19EEFAEFFB120C3B805690036FE07D
:104F73006014E50AF510781012090B125094120E02
:104F83002D74011208C9E50AF510781012090B797E
:104F9300027CFE7DFFEEFAEFFB120E2D7401120868
:104FA300C9E96003024EB4850E82850F8374FFF056
:104FB300A3024EFE121019EAFCEBFDAA18AB19125C
:104FC3001DE1850C82850D83A3A3A3A3A3A3A3A3A0
:104FD300E06401700E125047126EAA74081209554C
:104FE300121DE112526D125060E04430F50878084A
:104FF30012090B740112094D8808890978081209EE
:1050030007740B12094D880889097808120907E506
:1050130014F508780812090B7900EEFCEFFD125025
:105023009A120E0374061208C9024D9312526DF5BB
:1050330083125070E50BF012103174101208C97FFF
:105043000D020687E50C2415F582E4350DF5832260
:10505300E50C2417F582E4350DF583E022F583E0B2
:10506300F8123877A3229003831252A12212698384
:10507300A3A3A3A3A322E50D75F006A4F8AAF0EA5F
:10508300F974F228F582740F39F5831243CBE8499A
:10509300227901AC08AD09125ED7350D1250A32257
:1050A300F583E0FAA3E0FB2274EE12042974F012F4
:1050B300097D8A0C8B0DECFAEDFB750F0890040348
:1050C30012508E6031126EA71211818A088B09ACBF
:1050D30008AD09EC4D601F8C828D83A3E07017121D
:1050E3005AE05001097A027B001202D9E88C828DC2
:1050F30083F0A37407F012526D125285F50E888265
:105103008983125277E0FAE4CAFBEC2AFEE43BFF00
:1051130088828983A3A3125277A3A3E0FBECF5084B
:10512300E43BF50988828983A3A3A3A3A3A3A3E0F4
:10513300F50BE50AA2E45003750F10A2E5500674BF
:1051430008250FF50F748F550A7007125053650F1A
:10515300600A7AD37B00121F43025268530A7078A5
:1051630000E50AA2E4501FE50C241D125057240841
:10517300FCA3E03400FD7408120955121DE1780800
:10518300E50AC2E4F50AE50AA2E55022E50C241D6E
:1051930012505728F8A3E03400F9E82408FCE43956
:1051A300FDAA18AB19121DE1E50AC2E5F50AA90E1D
:1051B300EEFAEFFB120EA590289F1262F050298998
:1051C3001075110074037810120A2474532510F516
:1051D3008274103511F583E0F8E50BC3985007E5A9
:1051E3000BF078008004807D7804900376E06E7085
:1051F30003A3E06F605FE87019E50AF50F780F12FB
:10520300090B125294120E2D74011208C9E970553C
:105213008005740468704E780A12090B7401120930
:105223004D880C890D780C120907740B12094D88EF
:105233000C890D780C120907E50EF50A780A120994
:105243000BA90BAC08AD09EEFAEFFB120E037406C3
:105253001208C98010780A12090B125294120E2DEB
:1052630074011208C97410024CEFE50C241DF58279
:10527300E4350D22A3A3A3E0FC88828983A3A3A31F
:10528300A3221249B7A3E0F50A88828983A3A3E086
:10529300227901125ED7350DF5831252A122E0FC6B
:1052A300A3E0FDAA08AB092274EB12042974F512DA
:1052B300097D8A088B098C0A8D0B89147420120BC3
:1052C300AAE0F511F9120EA5E9F50C90289F1262D8
:1052D300F0501B750D007403780C120A24745125C9
:1052E3000CF5827410350DF583124B59801E900313
:1052F3005912508E6010AA08AB091238781205A112
:105303008A0E8B0F8006750EFE750FFF7401120B4C
:10531300AA7408F07425120BAAE0F510A2E4500851
:105323007401120BAA7410F0E510A2E55009740180
:10533300120BAAE02408F0AA18AB191210798A0CF0
:105343008B0DAE0CAF0DEE4F700302545612545B2F
:1053530012101912468B7421120BAAE0F512A3E066
:10536300F513740312095DAA0EAB0F120C3BE9602F
:1053730013EE241612545E740312094DEE24181210
:1053830031458027E510A2E45022E50E650870043C
:10539300E50F65097016EE241612545EEE2418F517
:1053A30082E43FF583E512F0A3E513F012547EF592
:1053B3000CA3E0F50D850C82F5837402F0A3E510D0
:1053C300125468E511125468A3E508F0E509850C49
:1053D30082850D83A3A3A3125476E50AF0E50B851A
:1053E3000C82850D83A3A3A3A3A3A3F0AA0EAB0FE3
:1053F300120E69E92514850C82850D83A3A3A3A34B
:10540300A3A3A3F0750800E510A2E45013AC12ADFA
:1054130013E50C2408FAE4350DFB121DE1750808A9
:10542300E510A2E5501B7423120BAA126EAAE50C19
:105433002508F8E4350DF9E82408FAE439FB121DD0
:10544300E18E828F83A3A3E50EF0A3E50F1245C877
:10545300120CE9740B02503FEE2417F582E43FF57A
:10546300837401F02212546C22F0850C82850D8323
:10547300A3A322A312546CA3A3A32212457BE0226D
:1054830074F41204298A088B09ECFEEDFF750B01F5
:10549300900376E065087004A3E065096013750B5B
:1054A30000780B12090B1210D374011208C9E9F525
:1054B3000B7900AA08AB09120EB78A088B09A80852
:1054C300A909900376E0687003A3E0697046790048
:1054D300EEFAEFFB120EABEA4B60308A828B83A3AA
:1054E300A3A3A3A3A3E0541860217508FE7509FFC5
:1054F30078081209078A828B83A3A3120710126EFE
:1055030004120EC374041208C980097901EEFAEF7C
:10551300FB120D7FA90B024A2A74F21204297ED6CC
:105523007F0E7A107B009003D0E0F9121DBDEA4B89
:105533004C4D70179081E112070C7A107B00900399
:10554300D0E0F9121DB174041208C9900361E0148C
:10555300F060030255FE902896E493900361F07C7B
:105563000079057A007B00120FA78A088B09025580
:10557300F57C007905AA08AB09120FA78A0A8B0BE1
:10558300850882850983A3A3A3A312508E605DE5DA
:10559300082404F8E43509F98882898312571C88A2
:1055A30082898312508E7044850882850983A3A360
:1055B300A3A3A3A3E054046013850882850983A3EE
:1055C300A3A3A3A3A3A3A3E0F9120E938508828543
:1055D3000983A3A3A3A3A3A3A3A3A37406F07AF0AD
:1055E300850882850983126375120EFF850A088573
:1055F3000B09E508450960030255747508008060CE
:105603008E828F83A3A3A3A3E0604CF46049EE24AE
:1056130004125EB414F0703F8E828F83A3A3A3A3FE
:10562300A3E06403701579028E828F83126EAA8EB3
:10563300828F83A3A31257C6120E098E828F83A370
:10564300A3A3A3A3E06401600E8E828F8374FEF094
:10565300A304125706E4F00508EE2407FE50010FD9
:105663009028991256E540987E008039120FCB8E10
:105673000875090074037808120A24744E2508FC7F
:1056830074103509FD7A157B0E120FB9EA4B70DCE5
:105693008E0875090074037808120A241256ED1255
:1056A3005BE2E4F00E90289F126C30501B8E08755D
:1056B300090074037808120A241256FBE82407121F
:1056C3006F9314F070DE80A77B008009EB12570AFA
:1056D300600214F00B902895125ACD40EF8047904A
:1056E3002895E493F8E508C398221256FB8882892B
:1056F30083A374FEF0A30422744E2508F8741035B6
:1057030009F9221264A92275F006A4F8A9F074EE2F
:1057130028F582740F126F9A22E024FFF0A3E0347D
:10572300FFF0221208C97F0602068774F7120429C4
:1057330074DF12097DECFEEDFF750800EE4F606922
:10574300123A46C8241FF582E43812508C605A8AF4
:10575300828B831257C6AC18AD19EA241EF582E476
:105763001257EBF9EA241F1228F2121001740B12DC
:105773000BAA1257CA7003A3E069702D7402120BAF
:10578300AAE064017023741D120BAA125838E06456
:10579300017016741D120BAA125064A3E0F88E82D6
:1057A3008F83E0687003750801A90874210243E13F
:1057B300E50D75F006A4F8EAF974F228F582740F82
:1057C30039F5831250A5221257D0E068221257D41C
:1057D300221243CF8E828F83A32275F016A4FAABD5
:1057E300F0749C2AF582740B3BF583E02274F41267
:1057F3000429E97024790090035B1258381205A13B
:105803008A0A8B0BAE0AAF0B74FE6E700374FF6FC4
:10581300701A90288BE4936013790190035B1258FC
:10582300381205A18A0A8B0BAE0AAF0B1210430282
:1058330038F690035D1269832274F612042974F317
:1058430012097D121C3D8A088B09AE08AF0990032B
:1058530076E06E7003A3E06F60E9121025EA6E70C4
:1058630002EB6F60DEEEFAEFFB121091E970D4EEFB
:105873004F60D0851882851983E4F004120BAAEED9
:10588300F0A3EF1243BD120C53E970B774FE6E70B0
:105893000374FF6F60ADEEFAEFFB740D02328CC040
:1058A30082C083121043023F5939F5831243CBEE72
:1058B3002274F2120429EAFEEBFF8C0A8D0B89088D
:1058C30074FC6E700374FF6F7003025AA7790012A1
:1058D3000EB78A0C8B0DAE0CAF0D740E120BAAE033
:1058E300F509900376E06E7003A3E06F7009E50994
:1058F300A2E64003025AA7A909120EAB8A0C8B0D2C
:10590300A80CA90DE849704679007AFE7BFF120EB8
:10591300AB8A0C8B0DA80CA90DE84970317418558E
:105923000960267B0080010B902899125ACD5019EB
:10593300EB75F007A4F8A9F0126C37541870E874EB
:10594300D628F8740E39F9801D7902025AA9888283
:105953008983A3A3A3A3A3A3E054186009741855D0
:10596300097003025AA788828983EEF0A3EFF074CB
:10597300FE650A700474FF650B600A88828983A33D
:10598300A3125AD4F088828983A3A3A3A3A3A3E574
:1059930009F0A2E0500D88828983A3A3A3A3A3A344
:1059A300D2E2F07401650888828983A3A3A3A3A329
:1059B30070357401125AEBE05418602590288FE477
:1059C3009388828983A3A3A3A3126EA6AA0AAB0B0F
:1059D3001211818B0DEA450D6003025AA77E0080E8
:1059E30031900375E080DAE064017003025AA788FE
:1059F300828983A3A3A3A3A3A3E0541860079028D9
:105A03008FE4938004900374E012499CE508025AE2
:105A1300A60E902892126C304003025AA77D008094
:105A23002BED75F007A4F8A9F074D828F582740E4D
:105A33001258AC75F017A4FAABF074662AF58274A9
:105A43000D125AFE7003A3E06960C60D90289912E7
:105A5300345B40CDE4936D70B8EE75F017A4F8A9EC
:105A6300F0746628FE740D39FF7C177D007900EE13
:105A7300FAEFFB121C258E828F83125AD4F0900307
:105A830083125AF01243A8125AAC74AAF0125AB6EF
:105A93007401125ADB5001097A027B001202D912F7
:105AA3005AC0E8F07900025729EE240FF582E43F4B
:105AB300F58322EE240EF582E43FF58322EE240DD6
:105AC300F582E43FF5832290289BE493F8EBC39897
:105AD30022E50AF0A3E50B22F0125AE02290289E59
:105AE300E49379002401F8221249A8A322125AF65A
:105AF300A3A3221257D4A322F582E43BF583E068E3
:105B03002274F21204298A088B09890C1262E94073
:105B1300057905025BDF121F01AA08AB09120E3FCC
:105B2300E9F50D902895E493650D700A7AFE7BFFE5
