:020000040000FA
:06000000020B170201D4FF
:03001B000202904E
:03002B000207D1F8
:030033000207AB16
:0300530002011493
:030073000202D7AF
:1000830002016801FF01010503010F10FEFF3D2678
:1000930000000000732500000000FF000000FF00C7
:1000A3000101881300000020FD00020000671A0010
:1000B3000000000000211B00000000000000000001
:1000C300000000000000000000000000000000002D
:1000D3000000000000000006FFFF010200C0110045
:1000E3000000E803FFFF3512E80364000202000882
:1000F30000000502070101051E02051E020A0A018E
:1001030003B80B02803E0102E8030A050001220442
:1001130014C0E074F2120484A2AFE433F508D2AF42
:10012300AFA7AEA1EE5F541060061217F175A1EFF1
:10013300EE5F540860081217F775A1F78023EEA24B
:10014300E092F0EFA2E082F05017906198E0F8900F
:100153000AD6E0C398A2D265D0335002E8F075A165
:10016300FEE5088063C0E074F2120484A2AFE433B6
:10017300FED2AF9061A4E0F8759B00E59158540856
:1001830060087591F712183F8023E5915854106069
:10019300087591EF1218458014E591A2E092F0E8FA
:1001A300A2E082F05007E0C2E0F012198F9061A341
:1001B300E0F8E5E9585404600E12196575E9FB90FF
:1001C3006193E0A2E640F2EEA2E092AF7F01020467
:1001D300E3C0E074F2120484A2AFE433FED2AF9022
:1001E30061A5E0F8E5BF585404600675BFFB12191A
:1001F300A780D4C3E498F8E499F91202378026C3A0
:10020300E49AFAE49BFBE920E7E9120237E498F861
:10021300E499F922C3E498F8E499F9120237E498CF
:10022300F8E499F9C3E49AFAE49BFB22EB20E7CFC5
:10023300E920E7E0B90010BB0008E88AF084F8AAD7
:10024300F022E4FBC8FA22EB70227B10C833C8C942
:1002530033C9335007C39AC3DBF280069A50012A8D
:10026300DBEAC833F4C8C933F4C9FA2275F008E4E9
:10027300C833C8C933C933C99AC99B5004C92AC9E9
:100283003BD5F0ECFBC833F4C8E4C9FA22C0E074F0
:10029300F2120484A8F9E8C0E0900A3CE0F874BBC9
:1002A30028F582E43409F583D0E0F0900A3BE0F8C6
:1002B300A3E0687006E595900A3EF0900A3CE004DE
:1002C300F0C394804002E4F0A374C6F01217557F84
:1002D300010204E3C0E0C0D0E8C0E0E9C0E0C082AE
:1002E300C083900ABFE0F8A3E0687008539AF7A3AD
:1002F30074018022C2EA900ABFE0F8740128F07406
:100303003F28F582E4340AF583E0F5F9900ABFE06B
:10031300C394804002E4F0D083D082D0E0F9D0E0EF
:10032300F8D0D0D0E032080808EAC0E0EBC0E0869D
:10033300F0E7A4FA180986F0E7A42AFA180986F068
:10034300E7A42AFA180986F0E7A42AFA1986F0E73F
:10035300A4FBE5F02AFA190886F0E7A42BFBE5F0E5
:100363003AFA190886F0E7A42BFBE5F03AFA1818D5
:100373000986F0E7A4C5F02BFBE43AFA1908E7C5B0
:10038300F0C6A426F6E5F03BFBE43AFA1886F0E75C
:10039300A4F6E5F00826F6E43B08F6E43A08F6D0BE
:1003A300E0FBD0E0FA22E4CFC0E0E4CEC0E0E4CD4D
:1003B300C0E0E4CCC0E075F020E626F608E633F6AC
:1003C30008E633F608E633F6181818EC33FCED3379
:1003D300FDEE33FEEF33FFC3EC9709ED9709EE977C
:1003E30009EF97191919400FFFEC97FC09ED97FDD9
:1003F30009EE97FE191906D5F0BFECF709EDF709D9
:10040300EEF709EFF7191919D0E0FCD0E0FDD0E0C1
:10041300FED0E0FF222518C582C0E0E51934FFC5F0
:1004230083C0E0E518C3958224F810AF08858319CB
:100433008582188008858319858218D2AFCEF0A3F0
:10044300E520F0A37808E608F0A3DEFAEFF0A3E5D1
:100453008124FAF8E608F0A3E608F0A3E608F0A37F
:100463000808E608F0A3E608F0A315811581D0E09B
:10047300FED0E0F8158115811581E8C0E0EEC0E0FB
:1004830022C0D02518C582C0E0E51934FFC583C05A
:10049300E0E518C3958224F310AF0885831985829C
:1004A300188008858319858218D2AFC8F0A3E9F0B4
:1004B300A3EAF0A3EBF0A37908E709F0A3D8FAECD9
:1004C300F0A3EDF0A3EEF0A3EFF0A3D0E0F0A3D000
:1004D300E0F0A3D0E0F0A3E520F0A3E5F0F0A32241
:1004E300851983851882E0C0E0A3E0F9A3E0FAA3AD
:1004F300E0FBA37808E0F608A3DFFAE0FCA3E0FD45
:10050300A3E0FEA3E0FFA3E0C0E0A3E0C0E0A3E01C
:10051300F5D0A3E0F520A3E0A3F5F010AF088583A1
:10052300198582188008858319858218D2AFD082F5
:10053300D083D0E0F8D0E032120B9DB9000302055E
:100543007AE490030178BE79108002F0A3D8FCD935
:10055300FA7ABE7B12900086788F79018015E49336
:10056300A3AD82AE838A828B83F0A3AA82AB838DF1
:10057300828E83D8E9D9E775829C7583E27404126D
:1005830008977582B5758323740012089775F01068
:100593008E1A8F1B85821F85831E8518828519837A
:1005A300E0CEA3E0CF851F82851E83EBC9EAC8EDA9
:1005B300CBECCAC3E833C8E933C9EA33CAEB33CB5C
:1005C300C3EA9EF51DEB9FF51CB35004AB1CAA1D9B
:1005D300EC33CCED33CDD5F0DAAE1AAF1B22D0839A
:1005E300D082ECC0E0EDC0E0E493A3FCE493A3FD70
:1005F300ED4C600D1206B9EC24FFFCED34FFFD80D9
:10060300EFE493A3FCE493A3FDED4C600D120756B6
:10061300EC24FFFCED34FFFD80EFD0E0FDD0E0FCE7
:10062300E493A3C0E0E493C0E02285198385188294
:10063300E0A3FEE0A3F5207808E0A3F608DFFAE0E4
:10064300A3FFE0A3C0E0E0A3C0E0E0A3C0E0E0A319
:10065300C0E0E0A3C0E010AF08858218858319804D
:1006630008858218858319D2AFD083D08202089D72
:10067300D083D082E9C0E0E493A3C386F0C5F095AC
:10068300F0F908E493A386F0C5F095F0700BE493BA
:10069300A3C3994005E9048002A3E475F002A425ED
:1006A30082F582E5F03583F583D0E0F9E493A3C0C6
:1006B300E0E493C0E022C0E0C3E49396087401939E
:1006C3009618400FE49366700808740193661870D7
:1006D300007019A3A3C3E49396087401939618A317
:1006E300A3400DD0E0D0E0D0E002061DA3A3A3A356
:1006F300A3A3D0E0227404800474028000CCC0E081
:10070300EDC0E0E518C39CCCAD1950011D10AF0638
:100713008C188D1980068C188D19D2AF120819D038
:10072300E0FDD0E0FC2274028000CCC0E0EDC0E02C
:10073300E518C39CCCAD1950011D10AF068C188D64
:100743001980068C188D19D2AF1207F7D0E0FDD0AF
:10075300E0FC22C0E0C0F088F0E4936670080874FF
:10076300019366187000A8F0A3A3700BD0F0D0E03B
:10077300D0E0D0E002061DA3A3D0F0D0E022D083C6
:10078300D082CCC0E0E493A360061208591470FA37
:10079300E493A3600612099D1470FAD0E0FCE4937D
:1007A300A3C0E0E493C0E022C0E074F2120484A288
:1007B300AFE433FED2AFE58BA2E050031216D77538
:1007C3008B00C2E8EEA2E092AF7F010204E3C0E037
:1007D300C0D0E8C0E0E9C0E0A9A8D2AFC2C7E9A28F
:1007E300E7E433F8E9A2E792AFD0E0F9D0E0F8D03C
:1007F300D0D0E032CAC0E0E493A3C582CCC582C5A1
:1008030083CDC583F0A3C582CCC582C583CDC58303
:10081300DAE5D0E0CA22CAC0E0E0A3C582CCC58233
:10082300C583CDC583F0A3C582CCC582C583CDC5A1
:1008330083DAE6D0E0CA22C008C3E096F50808A32D
:10084300E096420808A3E096420808A3E09645080C
:100853007001D3D00822C0E0E493A3D39C5010E4EA
:1008630093A3C39C400AD0E0D0E0D0E002079EA34C
:10087300A3A3D0E0227009080808226016181818EC
:10088300C6C333C608C633C608C633C608C633C68E
:10089300D5E0EA22C09FF59FE473D09F22D083D096
:1008A30082C09FE493C0E0740193C0E0740293F5A7
:1008B3009F22C5822518C582C583351910AF07F558
:1008C300198582188007F519858218D2AFC583224E
:1008D3002518F58210AF08F518400C15198008F596
:1008E3001840021519D2AF8519832200C0D02518EC
:1008F30010AF08F518500C05198008F518500205BB
:1009030019D2AFD0D0227404800A74038006740213
:1009130080027401C0E0F4041208D3D0E0120B5437
:1009230022BB0102E722C082C08389828A83BB0083
:1009330003E08002E493D083D08222601608080883
:10094300C6C313C618C613C618C613C618C613C61D
:10095300D5E0EA22C3E0C696F608A3E0C696F608F9
:10096300A3E0C696F608A3E0C696F6222518F8E497
:100973003519F9222518FAE43519FB222518FCE468
:100983003519FD22251810AF08F518400C151980EC
:1009930008F51840021519D2AF22C0E0E493A36C06
:1009A3007009D0E0D0E0D0E002079EA3A3D0E022FC
:1009B300E76670100809E766700A0809E7667004BD
:1009C3000809E76622E066701008A3E066700A086B
:1009D300A3E066700408A3E06622C3E09608A3E0E0
:1009E3009608A3E09608A3E096A2D265D03322C36B
:1009F300E096F008A3E096F008A3E096F008A3E0E1
:100A030096F022C3E697F60809E697F60809E697F3
:100A1300F60809E697F622C3E493960874019396C1
:100A23000874029396087403939622700422600D4F
:100A330018C6C333C608C633C6D5E0F41822E64742
:100A4300F60809E647F60809E647F60809E647F611
:100A530022E026F008A3E036F008A3E036F008A36E
:100A6300E036F022E627F60809E637F60809E63706
:100A7300F60809E637F622E657F60809E657F608B8
:100A830009E657F60809E657F622E056F608A3E00A
:100A930056F608A3E056F608A3E056F622E026F63B
:100AA30008A3E036F608A3E036F608A3E036F622FC
:100AB300E056F008A3E056F008A3E056F008A3E0E0
:100AC30056F022E4C396F608E496F608E496F60890
:100AD300E496F622C3E7960809E7960809E796081D
:100AE30009E79622C6F4C608C6F4C608C6F4C608C3
:100AF300C6F4C622600D08C6A2E713C618C613C6FD
:100B0300D5E0F322C3E09608A3E09608A3E0960895
:100B1300A3E0962275D00075813F751801751903FE
:100B23000002053BE6F008A3E6F008A3E6F008A3FD
:100B3300E6F022600C08C6C313C618C613C6D5E078
:100B4300F422E0F608A3E0F608A3E0F608A3E0F633
:100B530022CAC0E0E6F0A308DAFAD0E0FA22E8F00D
:100B6300A3E9F0A3EAF0A3EBF022E0F8A3E0F9A3F2
:100B7300E0FAA3E0FB22ECF0A3EDF0A3EEF0A3EF89
:100B8300F022E0FCA3E0FDA3E0FEA3E0FF22E0FAF5
:100B9300A3E0FBA3E0FCA3E0FD22E5C754F8440176
:100BA300F5C77901222518F582E43519F58322C2A8
:100BB300AF75D69F020000221208A051B40212089A
:100BC300A0AAB5021208A03DB6021208A0C7B60239
:100BD3001208A02DB7021208A06CB7021208A0E2F7
:100BE300B7021208A037B9021208A0DAB902120834
:100BF300A0F2B9021208A095BA021208A01FBD0202
:100C03001208A0C0BE021208A0DEBE021208A0A7EE
:100C130028001208A00129001208A06B290012085D
:100C2300A0F429001208A0B02A001208A03F2B004C
:100C33001208A0582B001208A07D2B001208A0BB9D
:100C43002B001208A00A2C001208A0332C00120853
:100C5300A0822C001208A02E2D001208A0F62D0051
:100C63001208A05B2E001208A0282F001208A06E05
:100C73002F001208A08A2F001208A0BC2F00120810
:100C8300A06431001208A03B32001208A0673200B2
:100C93001208A09B32001208A0BC32001208A0CB9D
:100CA30032001208A0D632001208A08A33001208BC
:100CB300A0FD33001208A06F34001208A07734009F
:100CC3001208A09A35001208A0CD35001208A08F93
:100CD30036001208A03E37001208A086370012081B
:100CE300A0E837001208A00D38001208A0853800CC
:100CF3001208A00D39001208A07139001208A0567D
:100D03003A001208A07B3A001208A09C3B0012088C
:100D1300A0AF3B001208A0433C001208A08D3D0089
:100D23001208A09D3D001208A0AC3E001208A025A9
:100D33003F001208A0673F001208A0A33F0012085B
:100D4300A07741001208A0DC43001208A0F0430082
:100D53001208A0FA43001208A00444001208A00ECF
:100D630044001208A01844001208A03144001208DD
:100D7300A03B44001208A04544001208A04F4400C1
:100D83001208A07744001208A08244001208A0CCE5
:100D930044001208A0D644001208A0E1440012083F
:100DA300A00545001208A02945001208A08A4500A5
:100DB3001208A0D545001208A0F145001208A05B57
:100DC30046001208A0A746001208A0EF460012082A
:100DD300A06A47001208A00448001208A0C84900EE
:100DE3001208A0364A001208A0684B001208A08E11
:100DF3004B001208A0FE4C001208A0B250001208CB
:100E0300A0B252001208A08A54001208A023550071
:100E13001208A03557001208A0F757001208A04384
:100E230058001208A0A958001208A0BB58001208C5
:100E3300A00B5B001208A0385C001208A08A5C00BB
:100E43001208A02F5D001208A0EA5E001208A01B82
:100E530060001208A03960001208A08E600012081A
:100E6300A08C61001208A0B461001208A0176200F0
:100E73001208A01863001208A08B63001208A0B91F
:100E830064001208A02465001208A014660012086A
:100E9300A07A68001208A0A868001208A0A369003D
:100EA3001208A0416B001208A0916B001208A04920
:100EB3006C001208A0FE6C001208A0626D001208FC
:100EC300A01B6E001208A0BB6E001208A01F6F00CB
:100ED3001208A0696F001208A0A66F001208A00EE6
:100EE30071001208A0DB82011208A013830112080B
:100EF300A0EC85011208A03286011208A04F8701D9
:100F03001208A0B487011208A00589011208A0F6EF
:100F13008B011208A0158D011208A0EA970112088F
:100F2300A08B98011208A07E9B011208A07E9C0151
:100F33001208A0069D011208A0569E011208A03DAA
:100F43009F011208A0A6A1011208A0B4A3011208D0
:100F5300A041A4011208A01DA5011208A046A501E5
:100F63001208A0F3A5011208A0DEA6011208A0B67C
:100F7300A7011208A016A8011208A03FA801120891
:100F8300A06CA8011208A0BDAA011208A098AB0189
:100F93001208A0DCAB011208A04DAC011208A00698
:100FA300AD011208A038AD011208A07FAD011208EF
:100FB300A0B2AD011208A017AE011208A066AE01DF
:100FC3001208A06BAE011208A0BFAE011208A0095F
:100FD300AF011208A005B0011208A06AB0011208FF
:100FE300A0D1B0011208A0F6B3011208A0CAB4013F
:100FF3001208A034B6011208A00EB9011208A0B657
:10100300B9011208A0DDBB011208A082BC011208BD
:10101300A0C0BC011208A099BE011208A0ACBE0179
:101023001208A0B5BE011208A0BEBE011208A0D3CB
:10103300BE011208A0F2BE011208A0D1C00112081D
:10104300A03BC1011208A08AC2011208A0D3C201A9
:101053001208A0B3C3011208A0DEC4011208A094B1
:10106300C5011208A096C6011208A098C70112086C
:10107300A07EC8011208A095C8011208A0D2C80119
:101083001208A0DCC8011208A0E7C8011208A005D5
:10109300C9011208A047C9011208A0A5C901120875
:1010A300A0CAC9011208A0E4C9011208A071CA01AB
:1010B3001208A0AACA011208A0F8CB011208A04A7C
:1010C300CC011208A064CD011208A08BCD01120837
:1010D300A027CE011208A0A3CE011208A0EFCF01D2
:1010E3001208A00AD1011208A0D0D1011208A07AD7
:1010F300D2011208A0FFD2011208A067D30112087F
:10110300A01CD4011208A06ED4011208A0D4D401EB
:101113001208A09DD5011208A0C0D5011208A0781D
:10112300D6011208A09CD6011208A0BED60112084F
:10113300A01FD7011208A06AD9011208A045DA013D
:101143001208A0EFDA011208A030DD011208A07E18
:10115300DD011208A0C1DD011208A019DE01120889
:10116300A077DE011208A0A1DE011208A0C5DE01EE
:101173001208A0F6DE011208A020DF011208A06702
:10118300DF011208A0BBDF011208A017E00112085B
:10119300A018E1011208A082E2011208A0C0E20136
:1011A3001208A0E9E2011208A07AE3011208A0C420
:1011B300E3011208A0E8E3011208A03BE4011208CE
:1011C300A056E4011208A011E5011208A03BE501B5
:1011D3001208A07EE5011208A0D4E5011208A0E0E0
:1011E300E8011208A013E9011208A0D0E9011208CE
:1011F300A0ABEA011208A03BEB011208A07CEB01B3
:101203001208A00080041208A03880041208A05914
:1012130080041208A09B80041208A0FF8004120817
:10122300A00981041208A01981041208A0508104A6
:101233001208A0F984041208A0C186041208A0B5FC
:1012430088041208A05389041208A0DA890412083A
:10125300A064BF021208A00DC0021208A0ECC002D5
:101263001208A007C2021208A027C2021208A0494E
:10127300C3021208A0E6C4021208A053C502120852
:10128300A029C6021208A02FC7021208A094C70201
:101293001208A0D0C7021208A029C8021208A0622F
:1012A300C8021208A0ABC8021208A03DC902120866
:1012B300A0DAC9021208A0AFCA021208A07CCB02AE
:1012C3001208A009CC021208A02FCC021208A05CBD
:1012D300CC021208A08DCC021208A062CD02120823
:1012E300A072CD021208A0C5CD021208A0D2CD0271
:1012F3001208A0DFCD021208A0E8CD021208A04C0C
:10130300CE021208A0AACE021208A0F5CE0212083D
:10131300A010CF021208A037CF021208A054CF02A8
:101323001208A060CF021208A004D1021208A01D67
:10133300D1021208A099D1021208A0ACD10212085E
:10134300A0BCD1021208A062D2021208A0D2D3021A
:101353001208A0E5D4021208A085D5021208A08FB6
:10136300D5021208A0FDD5021208A00ED60212085B
:10137300A04DD6021208A07BD6021208A048D702BD
:101383001208A09FD7021208A0E4D7021208A03ABD
:10139300D8021208A058D8021208A0A6D802120830
:1013A300A074D9021208A0C2D9021208A004DA025A
:1013B3001208A087DA021208A0B1DA021208A0E725
:1013C300DA021208A0F6DA021208A054DB021208AD
:1013D300A0CCDB021208A00DDC021208A05CDC0228
:1013E3001208A087DC021208A0A1DC021208A0BB2D
:1013F300DC021208A090DD021208A09ADD02120896
:10140300A0D5DD021208A0E5DD021208A036DE0237
:101413001208A04ADE021208A068DF021208A07DAB
:10142300DF021208A017E0021208A096E0021208D9
:10143300A039E1021208A044E1021208A091E202DD
:101443001208A0ADE2021208A005E3021208A0737D
:10145300E3021208A0BFE3021208A0D9E3021208B4
:10146300A039E4021208A0D7E4021208A022E50280
:101473001208A085E7021208A01DE8021208A09432
:10148300E8021208A0DAEA021208A0F2EA0212083D
:10149300A0F5EA021208A001EB021208A015EB0264
:1014A3001208A01DEB021208A054EB021208A04878
:1014B300EC021208A0D2EC021208A054ED021208AA
:1014C300A0C9ED021208A0A1EE021208A0C3EE0209
:1014D3001208A05AEF021208A066EF021208A0C376
:1014E300EF021208A0C6EF021208A035F00212089C
:1014F300A081F1021208A094F2021208A01FF302C5
:101503001208A032F4021208A0FCF4021208A02D63
:10151300F5021208A053F5021208A05CF5021208A6
:10152300A08BF5021208A03BF6021208A0EBF6020C
:101533001208A05EF7021208A010F8021208A08396
:10154300F8021208A0C2F8021208A00BF90212084E
:10155300A063E8031208A0CEE8031208A01AE90367
:101563001208A06AE9031208A0EEE9031208A032E8
:10157300EC031208A050EE031208A0D0F1031208E6
:10158300A00BF2031208A029F2031208A089F203A8
:101593001208A0B1F2031208A0E2F2031208A00F8E
:1015A300F3031208A078F3031208A03DEC0112081C
:1015B300A0B9EC011208A0E5EC011208A017ED0197
:1015C3001208A079EE011208A095EE011208A0D32B
:1015D300EE011208A060EF011208A0BCEF0112088F
:1015E300A082F0011208A041F1011208A086F101C6
:1015F3001208A0E7F1011208A05CF2011208A0850D
:10160300F2011208A0C6F2011208A06DF40112083B
:10161300A051F5011208A008F6011208A0F5F60181
:101623001208A02FF7011208A087F7011208A0A93A
:10163300F7011208A041F8011208A0E8F801120806
:10164300A077F9041208A0CAC3041208A0E9C304CE
:101653001208A0F7C3041208A0D7C4041208A0C23A
:10166300C6041208A0ECB7041208A055B804120867
:10167300A017F6041208A028F6041208A0C6F60460
:101683001208A04CFE021208A05AFE021208A0ED96
:10169300FF031208A080F7041208A090F7041208B1
:1016A300A0A8F7041208A010F8041208A020F4045C
:1016B3001208A0A4F4041208A00AF5041208A05CFE
:1016C300F0041208A07EF0041208A0EBF004120844
:1016D300A033F1041208A08CF1041208A09EE904BF
:1016E3001208A0C3E9041208A0FBE9041208A01C15
:1016F300EA041208A0ACA3021208A072EB041208B9
:10170300A072CE041208A080CE041208A0F9CE0461
:101713001208A0CECF041208A08DD1041208A04253
:10172300FA041208A0A5D7041208A0F8D7041208D7
:10173300A0CDD8041208A03FD9041208A0BED90432
:101743001208A0D6D9041208A00ADA041208A00DC0
:10175300DA041208A046DA041208A0C4B10212087F
:10176300A0FDCA041208A0C3CB041208A093CC04A2
:101773001208A01ECD041208A03ECD041208A0C773
:10178300CD041208A03ECE041208A035F9011208B8
:10179300A061F9011208A007FC011208A05EFC0178
:1017A3001208A09AFC011208A0AEFC011208A0C7FF
:1017B300FC011208A0B8FD011208A094FE01120852
:1017C300A0A8FE011208A0E8EE041208A00CEF0482
:1017D3001208A025EF041208A063EF041208A099D1
:1017E300EF041208A0CCEF041208A038F00412088A
:1017F300A03BF0041208A045F0041208A052F00424
:101803001208A03BDD041208A05EDD041208A0A9A3
:10181300DD041208A0C7DD041208A0E2DD041208EB
:10182300A048DE041208A054DE041208A0B1DE04AE
:101833001208A0D5DE041208A09BDF041208A0A89A
:10184300DF041208A0B9DF041208A001FA04120889
:10185300A019FA041208A03FFA041208A049B3041D
:101863001208A0DFB4041208A0EDB4041208A0010A
:10187300B5041208A01EB5041208A033B50412085B
:10188300A046B5041208A0C8B5041208A02DB604DA
:101893001208A0C3B6041208A09CB7041208A0AC97
:1018A300B7041208A0BBB7041208A0E7F604120895
:1018B300A00BF7041208A033F7041208A05BF70487
:1018C3001208A0DBD4041208A047D5041208A066AE
:1018D300D5041208A0DBD5041208A06EDA0412089E
:1018E300A087DA041208A09EDA041208A0A7DA047B
:1018F3001208A0C5DA041208A0CFDA041208A0D98E
:10190300DA041208A0ECDA041208A079DB04120846
:10191300A0E2DB041208A010DC041208A061DC04BE
:101923001208A0ADDC041208A0C8DC041208A0D27F
:10193300DC041208A0E3DC041208A026DD0412086C
:10194300A08FF8041208A0CC9D041208A0F89D04EF
:101953001208A01B9E041208A02E9E041208A04980
:101963009E041208A0A99E041208A0D79E04120880
:10197300A0DBA2041208A018A4041208A04AA4041D
:101983001208A0B1A4041208A031A6041208A05999
:10199300A6041208A06EA6041208A07EA6041208CC
:1019A300A0BEA6041208A000A7041208A010A70452
:1019B3001208A0A2FE031208A0B2FE031208A0D6CA
:1019C300FE031208A0FFFE031208A029FF0312085A
:1019D300A04DFF031208A064FF031208A092FF03A7
:1019E3001208A0B5FF031208A0BDF9041208A05DF8
:1019F300C7041208A06DC7041208A089C8041208FE
:101A0300A0BBC8041208A0E1C8041208A009C904B5
:101A13001208A01BC9041208A057C9041208A0BDCC
:101A2300C9041208A0F9C9041208A03ECA04120886
:101A3300A06BCA041208A097CA041208A0CBF10431
:101A43001208A0E9F1041208A04BF2041208A0F84E
:101A5300F2041208A023F5041208A048ED041208AA
:101A6300A099EE041208A0C3F3031208A079F403AB
:101A73001208A09EF4031208A0BEF4031208A0D219
:101A8300F4031208A02EF5031208A052F50312085E
:101A9300A0CDF6031208A0F5F7031208A0CFF803B0
:101AA3001208A02CF9031208A062F9031208A0E49B
:101AB300F9031208A03DFA031208A05EFA03120804
:101AC300A0E0FA031208A015FB031208A078FB0399
:101AD3001208A036FD031208A002FE031208A03A62
:101AE300FE031208A08EFE031208A07DEB04120869
:101AF300A09EEB041208A0D1EC041208A0FBEC0496
:101B03001208A0E7DF041208A05BE0041208A06635
:101B1300E0041208A087E0041208A08171001208F3
:101B2300A08471001208A05672001208A0927200DD
:101B33001208A0D272001208A00473001208A03287
:101B430073001208A06F73001208A09D730012089F
:101B5300A09B74001208A0E274001208A024750070
:101B63001208A09D75001208A03A76001208A05D25
:101B730076001208A0C776001208A0357800120874
:101B8300A0ED78001208A0DA79001208A0C77A0045
:101B93001208A0807B001208A0B57B001208A021C8
:101BA3007C001208A0BC7C001208A0EA7C0012088A
:101BB300A0927E001208A0107F001208A0507F00A0
:101BC3001208A07AE7041208A09DE7041208A08E69
:101BD300E8041208A06EE9041208A0BCFE01120872
:101BE300A0F2FE011208A00EFF011208A050FF018F
:101BF3001208A060FF011208A0F3FF011208A0FD64
:101C0300FF011208A0868A041208A0908A04120811
:101C1300A0D78A041208A0408B041208A0618B0489
:101C23001208A07A8B041208A02C8C041208A09628
:101C33008E041208A09F8E041208A0F08E041208CE
:101C4300A0268F041208A03D8F041208A0AA8F04B7
:101C53001208A03A90041208A07090041208A0B9C8
:101C630090041208A01A91041208A05491041208B7
:101C7300A0BC91041208A00F92041208A05292046F
:101C83001208A08F92041208A0A192041208A0B314
:101C930092041208A0D292041208A0DB9204120844
:101CA300A0A093041208A0EC93041208A040F90228
:101CB3001208A086FA021208A0AFFA021208A0C006
:101CC300FA021208A0D8FC021208A0F8FC021208BB
:101CD300A0DAF8041208A036E5041208A06CE504A3
:101CE3001208A0BBE5041208A017E7041208A0DC41
:101CF300C8031208A01ACA031208A056CA0312087E
:101D0300A025CC031208A04FCC031208A0E6CE03F3
:101D13001208A026CF031208A0BCD0031208A051BA
:101D2300D1031208A0AFD1031208A035D2031208C1
:101D3300A06DD2031208A0AFD2031208A020D403CF
:101D43001208A0A4D5031208A0CDD7031208A0FB44
:101D5300D7031208A027D8031208A030D80312080B
:101D6300A086D8031208A016D9031208A019DC0311
:101D73001208A09BDC031208A006FB041208A01C97
:101D8300FB041208A0FABB041208A013BC04120837
:101D9300A0B8BC041208A0F8BC041208A011BD042A
:101DA3001208A044BD041208A091BD041208A0C5E6
:101DB300BD041208A007BE041208A0F0BF04120855
:101DC300A00DF3041208A07FF3041208A0BDF304CE
:101DD3001208A0FEF3041208A0E29E031208A03A20
:101DE3009F031208A0C29F031208A0CAA0031208EF
:101DF300A0A8A1031208A04FA2031208A09BA2034C
:101E03001208A0F4A2031208A049A3031208A0B861
:101E1300A3031208A0F8A3031208A0F4A403120852
:101E2300A04FA5031208A06BA5031208A0BBA5032E
:101E33001208A0F4A5031208A013A6031208A05EBB
:101E4300A6031208A074A6031208A08BA603120807
:101E5300A0BAA6031208A0CCA6031208A097A70352
:101E63001208A0A2A7031208A01CA8031208A06FBF
:101E7300A8031208A0AEA8031208A0DFA803120843
:101E8300A042AB031208A073AB031208A095AC03E6
:101E93001208A0B9AC031208A034AD031208A006BF
:101EA300AE031208A048AE031208A0B2AE03120894
:101EB300A05DAF031208A087AF031208A091AF0380
:101EC3001208A09BAF031208A09EAF031208A0063E
:101ED300B0031208A03FB0031208A052B0031208C7
:101EE300A07FB0031208A0BAB0031208A0BDB003CC
:101EF3001208A0C7B0031208A0F6B0031208A0107E
:101F0300B1031208A02BB1031208A05AB10312089F
:101F1300A07AB1031208A0B7B1031208A0F2B1036B
:101F23001208A0FEB2031208A02AF9041208A04264
:101F3300F9041208A0FAFF021208A040A70412082D
:101F4300A08FA7041208A04DA9041208A021AB0476
:101F53001208A05FAB041208A06AAC041208A074B4
:101F6300AD041208A096AD041208A0F2AD04120845
:101F7300A073AE041208A00080031208A01F800300
:101F83001208A0B080031208A0F980031208A0571A
:101F930081031208A0D281031208A0498203120808
:101FA300A09A82031208A00083031208A09283035D
:101FB3001208A00A84031208A04984031208A0B1DE
:101FC30088031208A0CE8A031208A0078B03120805
:101FD300A0468B031208A0D88C031208A0DB8C0345
:101FE3001208A0A28D031208A0CC8E031208A0C66B
:101FF30090031208A04793031208A0169403120833
:10200300A03495031208A07E98031208A08E9803AB
:102013001208A0129A031208A0B09A031208A0E9AA
:102023009B031208A0599C031208A0B79D03120832
:10203300A01E9E031208A05DB4031208A0F8B40307
:102043001208A06BB5031208A07BB5031208A00306
:10205300B6031208A05FB6031208A09AB7031208CA
:10206300A0BEB7031208A035B8031208A086B803B0
:102073001208A0E4B8031208A03FB9031208A0ECA9
:10208300BB031208A0E3BC031208A059BD03120846
:10209300A030BF031208A0D3BF031208A08CC00353
:1020A3001208A0F1C0031208A060C1031208A083A4
:1020B300C2031208A049C4031208A069C503120889
:1020C300A0F6C5031208A066C6031208A078C703CA
:1020D3001208A0F8DC031208A05DDD031208A0A516
:1020E300DD031208A0F8DD031208A05EDE03120868
:1020F300A0C0DE031208A035DF031208A06CE003C2
:102103001208A094E0031208A072E1031208A0834E
:10211300E1031208A09BE1031208A092E203120854
:10212300A0D2E2031208A0DBE2031208A0F2E2034A
:102133001208A010E3031208A0EDE3031208A0A7FE
:10214300E4031208A0B1E4031208A0B3E5031208E4
:10215300A09EE6031208A040E7031208A0ADE70320
:102163001208A0C2E7031208A0F2D1041208A0A526
:10217300D2041208A06DD3041208A0D5D304120808
:10218300A049D4041208A0FDBF041208A01BC00478
:102193001208A05FC0041208A085C0041208A0A7FB
:1021A300C0041208A0BFC0041208A0D7C0041208BC
:1021B300A0EFC0041208A099C1041208A0DBC10457
:1021C3001208A0E5C1041208A0FAC2041208A00371
:1021D300C3041208A00CC3041208A015C3041208F8
:1021E300A01FC3041208A0A3AE041208A0CFB20418
:1021F3001208A0DDB2041208A0E2B2041208A0BCC7
:10220300E3041208A02A94041208A060940412089C
:10221300A09C94041208A00395041208A0B1FA0428
:102223001208A01AF8041208A07AFA041208A0DD12
:10223300FA041208A026FB041208A033A302120812
:10224300A009A3021208A051A2021208A084A002AE
:102253001208A054A0021208A018A0021208A00499
:10226300A0021208A0459F021208A0929E02120823
:10227300A0419C021208A0169C021208A0B79B0260
:102283001208A0289A021208A0B699021208A09375
:1022930099021208A0D798021208A07A970212088E
:1022A300A03197021208A00B97021208A0479602CA
:1022B3001208A09194021208A03194021208A002FD
:1022C30094021208A0FF93021208A046B10212085A
:1022D300A0FFB0021208A066B0021208A057B00215
:1022E3001208A044AD021208A091AA021208A05835
:1022F300A9021208A079A8021208A0EA9302120800
:10230300A0AA93021208A09193021208A09B920222
:102313001208A0A5A6021208A05A92021208A0E76A
:1023230091021208A0B491021208A0599102120856
:10233300A02891021208A066A4021208A0F18D023F
:102343001208A0EBCA041208A0038D021208A0BD54
:102353008B021208A0698B021208A05D8B0212087F
:10236300A0C48A021208A09289021208A0ED860274
:102373001208A09084021208A04484021208A02923
:1023830083021208A0BE82021208A0E8810212088A
:10239300A0A481021208A06B80021208A005A40267
:1023A3001208A03280021208A00080021208A09135
:1023B300EA0400000080FBE47300013636010100EB
:1023C30001020100010301000104010606050200E8
:1023D30000070100340801000F090401010D010089
:1023E300FF0E08000017020000190100FF1A010088
:1023F300011B0100FE1C0100081D0200001F01005B
:102403000120010001210200002301000F2402002A
:10241300002601000127010008280200FF2A01000D
:10242300072B0102402C0100002D0100012E0100A9
:10243300012F0100FF30010B1C310800003A01009D
:10244300083B01000F3C0100013D0100FF3E040079
:102453000042040000460400004A0400004E040049
:102463000052040000560400005A0400005E20FFDE
:10247300FF00202020202020202020282828282872
:102483002020202020202020202020202020202049
:1024930020208810101010101010101010101010A1
:1024A30010100404040404040404040410101010A1
:1024B300101010414141414141010101010101015C
:1024C30001010101010101010101010101101010CC
:1024D300101010424242424242020202020202022F
:1024E300020202020202020202020202021010109F
:1024F300102036000100060000000F00000000005D
:10250300000000000000000003FFFF00000403FFC1
:10251300FF0000FFFF0FF4010005C40403200001C6
:1025230000000B000000000000000003010F00008A
:102533000000000000000000000000000000000098
:102543000000000000000000000000000000000088
:102553000000000000000000000000000000000078
:102563000000000000000000000000000000000068
:1025730001037103010301030103010301032203A7
:10258300020301031003000300030003000300031D
:1025930000030003420300032403060300030003B4
:1025A3000403120325032303250323030403040362
:1025B3000003000300034403000300032303000399
:1025C30065032100350381030003050300030003B2
:1025D3000003000325032303030271023001600299
:1025E3001102700201020202020280021002610261
:1025F3003A00410063027302720262024302000264
:102603001302380000020002040212020002000258
:102613000002000204020402370037003C024402B5
:102623000002390000020002650200023502810245
:1026330000020502820283020002030071003001DE
:10264300600011007000310220035004800010006C
:102653006100000014006300730072006200430015
:102663000000130006000000000004001200000038
:1026730000000000000004000400370037003C02A3
:102683004400000000000000000065000000350069
:1026930081000000050000008300000001017101BA
:1026A3000101010111010101310101010101800158
:1026B300100161013B0014006301730172016201A7
:1026C30043010001130106013D013500040112011C
:1026D3000001000100010001040104013301330181
:1026E3003C01440132013600000100016501000193
:1026F300350081010001050182018301000103040A
:10270300710402046004110470040204020401044D
:1027130002041004610400041404630473047204C7
:1027230062044304000413040604000400040404C4
:1027330012040004000400040004510464000004B3
:1027430000040004440400040004000400046504BD
:1027530000043504810464000504000483040004B8
:10276300000079201300E91F0100792002009B1F5C
:102773000300A11F0400A71F0500AD1F0600B91F1A
:102783001100DD1F1400E31F1500CB1F1F00D11F15
:10279300FFFF000001210F06510F084B0F0B5D0FC8
:1027A30010970E02270F053F0F072D0F0C090F0D72
:1027B300150F64DB0CFF000007ECFDFDFDECDCDC1A
:1027C300CCBCACAC9C9C8C7C7C6C6C5C5C5C4C4CE6
:1027D3003C3C2C2C1C1C03EAF5E5D5D5C5B5A595C9
:1027E3009585857575656555554545353525251596
:1027F300150500160F00000B150B020002220F3304
:1028030000000E5A6967426565416C6C69616E63CD
:1028130065303901030507090B0D0F000204060893
:102823000A0C0D0001191618161618230300003997
:102833003D3F373C3C362C442D0C0E020B040B0A57
:102843000708000F303016181920231A1C1E3030C9
:102853003017181921301B1D1F3000034A49434EFE
:10286300181A2505020204020101010109020000F0
:102873000000000000BE040AE8030000000000009E
:102883000E003C003C007F00E8030A050308090032
:1028930003000CFF1E1E1005090C01040428081573
:1028A300040C0308C082C0837900EA122AAC3BF50A
:1028B30083C082C083900342126EB1D083D082C39F
:1028C300E09CA3E09D500CEA240B1228F91228D9AE
:1028D300600109023F60EA75F00BA4FAA8F075F0F5
:1028E3000BEBA428FB900344E02AF8A3E03B888287
:1028F300F583E0540F22F582E43B1250AA2274F7C9
:102903001204188908124743A3E0F9E875F00BA4F1
:10291300F8ACF075F00BE9A42C122B27E8FEE9FFC5
:102923007401650860067402650870228A828B83CD
:10293300122E53740265087021EA2403FA50010B26
:10294300120C33E970148E828F83E4F0800CEA2436
:1029530003FCE43B122E4A120C2D8E828F83E0D2AD
:10296300E7F0121EC30243EB74F4120418122F0D86
:1029730079008E828F83E06075890A890B8064E514
:102983000A75F00BA4FAA8F075F00BE50B1228E515
:102993007049E50A75F00BA4F8AAF075F00BE50B86
:1029A300122B088E828F83E0850882850983123F6C
:1029B30014122DCAEE2403FCE43F122A9F120C2D9D
:1029C30012457E125ADB123904D2E7F0121EC37984
:1029D30001900342E0F50AA3E0F50B050AE50A704E
:1029E30002050B122D26E50A9AE50B9B4091024A3C
:1029F3003174F5120418EAFEEBFF750A01740B1229
:102A03000BA81234F7EC4D6015EC122AAC3D122FD3
:102A13001B7901120C15E508450960758023E5084B
:102A230045096044122AAA3509122F1B122AA01243
:102A33000C33E96401701BEEFAEFFB120C1BE9F592
:102A43000A850882850983122DC27902AA08AB0977
:102A53008011122E4B120C33E9640170347903EEAA
:102A6300FAEFFB120C1580298E828F83A3E064FE9C
:102A73007003A3E0F4700B122E4B120C33E96401C4
:102A8300700CEEFAEFFB120C1BE9F50A8003750AD2
:102A930000023383E50A2403FCE4350BFDE5082437
:102AA30003FAE43509FB22E508125EE02274F7120B
:102AB300041890034212469BEA4B602FEA75F00B11
:102AC300A4FAA8F075F00BEBA428FBEAFEEBFF12C7
:102AD3001CE390034412469B9003441250956012EA
:102AE300EEFCEFFD7900121C178007900344E4F01D
:102AF300A3F00243EBF9023296E875F00BA4F8AAAF
:102B0300F075F00BE9A42AF9900344E028F508A333
:102B1300E039F50922F9E875F00BA4F8AAF075F08D
:102B23000BE9A42AF9900344E028F8A3E039F92239
:102B33009003421243D2C3EE98EF9922C082C0831E
:102B4300EC4D6005121DD380097C087D00790012CD
:102B53001C17023F6074F61204187900EA4B6017E1
:102B63007800EA28F582E41257F2600479017808C4
:102B730008E8C3940840EB02329674F71204187401
:102B8300F3120987ECFEEDFF851882851983E4F0C3
:102B930004120BA8EAF0A3EB1243C4120C51740302
:102BA300120BA8AC82AD83EEFAEFFB120C2DEEFAFA
:102BB300EFFB120C330243E674F712041874F3129A
:102BC3000987ECFEEDFF851882851983E4F0EAFCA2
:102BD300EBFD7403120BA8AA82AB83120C2DAA1867
:102BE300AB19120C577401120BA8123F218E828F5E
:102BF300831243B574FE68700374FF69600479013E
:102C0300800279000243E674F7120418EAFEEBFF30
:102C1300120C0FE9F508740165087011122C73F496
:102C2300FA88828983E05A4480F0121EC3023879FD
:102C330074F7120418EAFEEBFF7508008E828F8387
:102C4300E0602A120C0FE9F50874016508701E1282
:102C53002C73FA88828983E05A70128E828F83E004
:102C63004480FA88828983E04AF0121EC3023879CD
:102C7300124582123A51122B188E828F83E02274EE
:102C8300F41204188A088B097C007D00EA122AA238
:102C9300120C2DE508122DE479008508828509833D
:102CA300A3E064FE7003A3E0F460757E007F008000
:102CB30066EEFAEFFB1228D96058EEFAEFFBEA75DD
:102CC300F00BA4FAA8F075F00BEBA428FB900344D7
:102CD300E02AF50AA3E03BF50B850882850983A367
:102CE3001257CD850A82850B83A3E06A7003A3E0A4
:102CF3006B701FE50A2403FAE4350BFB120C33E96E
:102D030064017006122A97120C2D122DD979011223
:102D13006CE50EEE70010F122D26EE9AEF9B40919B
:102D2300024A319003421250ACC32274F3120418C6
:102D33008A088B098A828B83122DC2EA122DE475CD
:102D43000C00EA122AA2120C33E96401706A7E00B5
:102D53007F00805FEEF8EFF9E875F00BA4F8AAF0B6
:102D630075F00BE9A42AF9900344126D57E0540F50
:102D7300603CEEF8EFF9E875F00BA4F8AAF075F0F3
:102D83000BE9A42AF9900344E028F50AA3E039F5F6
:102D93000B122A97121DCDE964017012850A8285F0
:102DA3000B83122DCA122DD9750C01126CE50EEE90
:102DB30070010F122B33409CA90C7F0502062DA333
:102DC30074FEF0A304F022A31243D285088285097E
:102DD30083A3123C3D22E508122DEEEEF0A3EFF0A3
:102DE30022122DEE74FEF0A304F022125EE43509E4
:102DF300F5832274F5120418EAFEEBFF8E828F83AB
:102E0300122DC27C007D00122E4B120C2DEEFAEF18
:102E1300FB120C0FE9F50A7401650A70271243CB04
:102E2300122AFC850882F583122E53122AA0120C53
:102E330033E96401700EE5082403FCE43509122E1E
:102E43004A120C2D023383FDEE2403FAE43FFB22E6
:102E5300A31257D7123C3D2274F212041874E612DF
:102E63000987122F0D750C01750800750900750A85
:102E730000750B00851882851983E4F0EE2403FCAA
:102E8300E43FFD7403120BA8AA82AB83120C2DAA94
:102E930018AB19120C57E96401701F740B120BA8BD
:102EA300122F1D7401120BA81257D17003A3E069EE
:102EB300604AA818A91988088909740D120BA81269
:102EC3003F13A3123F21740E120BA81243B5740DC6
:102ED300120977120C51E964017009740D12096F1C
:102EE300880A890B780A120911AC08AD09EEFAEFCA
:102EF300FB120C2174021208EEE9F50CEEFAEFFB5B
:102F0300120C4BA90C741A02572DEAFEEBFF124563
:102F13008274FEF0A304F022F583123A51F91245AC
:102F230082123C3D22C082C083780079008005086C
:102F3300E8700109122D26E89AE99B5029E8FAE97D
:102F4300FBEA75F00BA4FAACF075F00BEBA42CFBC9
:102F5300900344E02AFCA3E03B8C82F583E0540F0A
:102F630070CD790080027901023F60C082C08390F6
:102F730028A2E49375F016A4FCADF079FF7A987B50
:102F83000B121C17023F6074F6120418EAF8750856
:102F9300007D008012ED1257E4C3994009E0FAE87E
:102FA300C39A400205080D9028A2E493FAEDC39A50
:102FB30040E3AA087B0002329674F012041874F3FB
:102FC3001209878A0C8B0D8C088D09890AEC450937
:102FD3006016AA08AB09120C9F8A0E8B0FAE0EAFB8
:102FE3000FEE4F60030230AF7B0080010B125AD10A
:102FF300500F12315770F5749828FE740B39FF8007
:10300300047E007F00EE4F7003023103902881128B
:10301300312A60217403650A60067404650A701519
:103023007A047903120C759028A2E493FC9028810A
:10303300123130502990287F12312A60287401659B
:103043000A60067402650A701C7A027901120C7513
:103053009028A2E493FC90287F12313040077A0035
:103063007B000231278518828519837401F0120BC6
:10307300A8E50CF0A3E50DF0AC08AD097403120B41
:10308300A8AA82AB83120C2DAA18AB19120C637475
:103093000B120BA8123C368E828F83A3A3A3A3A388
:1030A300A3E4126EADAA0CAB0D1211677800E50A0A
:1030B3006007C39405500278048E828F83E50CF079
:1030C300A3E50D126491E50AF0E88E828F83A3A332
:1030D300A3A3A3125AE25001097A027B0012022F22
:1030E30012353DA312570DA3123581E50A600DC3B6
:1030F3009403500812350C1231488003123523F023
:103103007A047900120C758A089028A2E493FAC312
:10311300E5089AEB940040059012C1E4F0121041C7
:10312300EEFAEFFB0234E1123140E849221231405A
:10313300ECC398F8E499F9C3EA98EB9922E493F87D
:10314300740193F922F9EE2414F582E43FF583E840
:10315300F0A3E922EB75F016A4F8A9F0123576F482
:103163002274F212041874F31209878A088B09EC8B
:10317300FEEDFF750A00EEFAEFFB120C9F8A0C8B33
:103183000DA80CA90DE849700302322888828983AF
:10319300E065087004A3E0650970030232288882A1
:1031A3008983A3A3A3A3E0C3940550798882898369
:1031B3001263111247FFE0603488828983A3A3A3BB
:1031C300A3E0C394035026902885E493FA740193F3
:1031D300FB123777902887E493FA740193FBE82472
:1031E30014F582E439F583EAF0A3EB800DE82412A9
:1031F30012322FF0E8241412322FF0851882851929
:10320300837401F0120BA8126311F0EEFCEFFD744E
:1032130003120BA8AA82AB83120C2DAA18AB1912A6
:103223000C63750A01A90A740D02572DF582E4395E
:10323300F58374FEF0A3042274F6120418120C9999
:103243008A088B09A808A909E84960148882898338
:10325300A3A3A3A3E06009C39405500479018002EA
:103263007900802F74F6120418120C998A088B09BE
:10327300A808A909E849601488828983A3A3A3A3A2
:10328300E06009C39403500479018002790080034C
:103293001208EE7F0202062D74F6120418120C991E
:1032A3008A828B83E5824583600BA3A3A3A3E0708B
:1032B3000479018002790080DAC082C083EAFCEBE2
:1032C300FD7A007B00023F5DC082C0837C007D00ED
:1032D300023F5D74F512041874F3120987EAFEEBDA
:1032E300FF8C088D09C3EC94F8ED94FF4004EE4F76
:1032F300606A750A00801974FF6508700474FF65BD
:1033030009600B12660E7004A3E06509603B050AB1
:103313009028A2E493F8E50AC3985040E50A1231D5
:103323005860EBEE4F60D012336A120BA81243C001
:10333300120C5DE960D87403120BA8AC82AD83EE66
:10334300FAEFFB121DCDE960C5E50A75F016A4F886
:10335300A9F0749828FA740B39FB80047A007B0077
:10336300740D1208EE801B8518828519837401F091
:10337300749A28F582740B39F5831243D2740B22A5
:10338300A90A7F0302062D74F412041874F31209B8
:1033930087750800120C9F8A0A8B0BAE0AAF0BEEDF
:1033A3004F601F1233ED12337D120BA81243C0126C
:1033B3000C457C167D0079FFEEFAEFFB121C1775A6
:1033C30008017A047900120C758A0A9028A2E49302
:1033D300FAC3E50A9AEB940050099012C17401F004
:1033E300121041A908740D024A2E8518828519838B
:1033F3007401F08E828F83A3A32274F7120418E959
:10340300FC74FE6A700374FF6B7D007003802C0DE7
:1034130012345F5026ED12315860F41270F26A7064
:1034230003A3E06B70E98012ED75F016A4F8A9F020
:103433001270E56018E0640360130D12345F5015D9
:10344300EC60E512356A60F2C3940550ED126852E0
:103453001257CA80047AFE7BFF0243EB9028A2E452
:1034630093F8EDC39822120CB1023F60C082C0836F
:10347300790180F274F01204188A0A8B0B7A0479AA
:1034830001120C758A0C8B0DEA450D6040EA2AFA8D
:10349300EB33FB121CE38A088B09AE08AF09EE4F2E
:1034A30060267AFE7BFF120CB774FE6A700374FF0A
:1034B3006B601E85088285098312469BE5082402FA
:1034C300F50850E2050980DE750C0080047E007F5C
:1034D30000850A82850B83E50C1245CF8005740DA8
:1034E3001208EE7F0802062DE493F8ECC39822122B
:1034F3006EB5EC22E0F508A3E0F509221208EE7F91
:103503000C02062D7F0702062D902885123140EE0E
:10351300126849123C3D902887E493F87401932282
:10352300EE2412123531F0EE241412353122F582D5
:10353300E43FF58374FEF0A30422E88E828F83A315
:10354300A3A3A3A3A3A3A31235627401123562A399
:1035530074AAF0EE2410F582E43FF583E4F022121E
:1035630064B4A3A3A3A322ED75F016A4F8A9F012E3
:10357300357622749C28F582740B126FA122A3F076
:10358300124582E4F0EE240CF582E43FF583E4F087
:10359300A3F0A3F0A3F022C082C0837D008009EAD8
:1035A30024FF1AEB34FFFB0D12345F501612356AF9
:1035B300C3940550F2EA4B70E6749828FA740B39F9
:1035C300FB80047A007B00023F6074F712041874D6
:1035D300F31209877E00023665EF75F017A4F8A988
:1035E300F01270C81258B375F016A4FAABF07498C1
:1035F3002AF582740B125B057003A3E0696040EF48
:1036030075F017A4F8AAF0EAF91270C839F5831215
:103613003F217401120BA8E0687003A3E069601FE7
:10362300EF75F017A4F8EAF9746828FC740D39FDF6
:103633007403120BA8AA82AB83121DCDE96013EFAA
:1036430075F017A4F8A9F0746628FA740D39FB1203
:1036530011730F902899E493F8EFC3985003023540
:10366300DC0E9028A2126C37501FEE1270EBF47030
:1036730003A3E0F460EB12336A120BA81243C012E7
:103683000C5DE960DC7F0080CA0243E674F7120434
:103693001874F312098790041512509570030237BA
:1036A3003B750800802BE50875F016A4F8EAF97459
:1036B300AC28F582740B126F9D64FE7003A3E0F4D3
:1036C300600D74AA28F582740B39F583125723050C
:1036D300089028A21256EC505FE50875F016A4F87E
:1036E300AAF0EAF912357260E6C3940350E174AAB2
:1036F30028F582740B12509270ACE50875F016A48D
:10370300F8EAF9749828F8740B39F9E8FEE9FF121E
:1037130037D91237CF1223BA1233ED12337D120B7E
:10372300A81243C0120C5DE960A57403120BA8AA8A
:1037330082AB83120CAB80970243E674F612041833
:10374300120C998A088B09A808A909E849602088FE
:10375300828983A3A3A3A3E06011C39403500CE85D
:103763002414F582E41257CA12377779018002795B
:1037730000023296E82412F582E439F583EAF0A3D5
:10378300EBF02274F7120418EAFEEBFF90040F1219
:1037930050956030900415125095602890041912CA
:1037A300509560201269931223BAE970171237CA31
:1037B3001223BAE96401700C8E828F83A3A312696A
:1037C300801223BA0243EB1237D9A3A31250AC9051
:1037D300041512698A22902887E493FC740193FDEF
:1037E3008E828F8322C082C08390034B7439F0A3EF
:1037F300740FF090034D7433F0A3740FF0900351E2
:10380300744DF0A3740DF0023F6074F7120418EACC
:10381300FEEBFF900385E06408601CE0640460171E
:103823008E828F83E0540364017041125485F81231
:10383300387EE0640670358E828F83A3A3E064FE36
:103843007003A3E0F460258E828F83A3A3125EC668
:103853007003A3E0697008EE2415125EBB600512C5
:103863000FE18003120FE7E9F50880037508C2EE44
:10387300FAEFFB121CE9A9080243EBA3E0F58388E6
:10388300822274F41204188A088B09123A4DFAE85A
:103893002AFAE43400FB121CE38A0A8B0BAE0AAF4C
:1038A3000BEE4F6055850882850983E0FC7D007926
:1038B30000121C178E828F83A3122DC212101D8E2D
:1038C300828F83A3A3A3A3EAF0A3EB123904F8EE38
:1038D30028F8E43F122F20850882850983A3E0C0DE
:1038E300E0125AC7D0E0F012102F125ABDE9123C71
:1038F3002CE0C0E0123C22D0E0F0EEFAEFFB024AEB
:1039030031F0850882850983E02274F41204187467
:10391300E81209878A088B098C0A8D0BE9FE90034C
:1039230085E064046005E06408700479C2803CA308
:103933007808120B27EE90038C123B90121C17850C
:1039430018828519837808120B277405120BA8EEC9
:10395300F07404120BA87401F07407120BA8E4F0BE
:1039630090038574021243C41221B1024A2C74F4E9
:1039730012041874E8120987EAFEEBFF900346125B
:1039830050956003023A487A077B00121CE39003C8
:103993004612469B9003461250957003023A448E9A
:1039A300828F83120B6D900346E0FCA3E0F5838CBA
:1039B30082120B61EE2404F50AE43FF50B850A82BB
:1039C300F583E0C0E0900346125069A3A3A3D0E0BF
:1039D300F0EE2405F508E43FF509850882F583E058
:1039E300C0E0900346125077D0E01243BAC0E09093
:1039F3000346123A51C82406F582E438F583D0E031
:103A0300123B90121C178E828F83120B6D851882C6
:103A1300851983120B61850A82850B83E0C0E074EC
:103A230005120BA8D0E0123904C0E07404120BA8ED
:103A3300D0E0F07407120BA8E41243C41221B18042
:103A430006791080027901024A2C8A828B83E0F87E
:103A5300A3E022C082C08390034612509560109069
:103A630003461257CD121CE9900346E4F0A3F0126B
:103A73000F57121113023F6074F412041874E81202
:103A830009878A0A8B0BECFEEDFF89087428120B59
:103A9300A8E0FC7429120BA8E0FD740F6C70057488
:103AA3000F6D6012901337E064026005ECC39D5004
:103AB3000579C1023B8D7424120BA8120B6D900380
:103AC30086120B61E50890038CF0EC90038AF0ED0D
:103AD300A3F0742A120BA8E090038DF074FF650A1B
:103AE300700474FF650B7024901349E0F47003A312
:103AF300E0F4700C121C2F900383EAF0A3EB801206
:103B030090134912686FE8F0A3E9800690038312CB
:103B13005ADBF0EE4F6017EEFAEFFB1211C7E964C0
:103B230001700BEEFCEFFD7A977B03121DD390031C
:103B330076E4F0A3F0900379F0A3F0900396F0906D
:103B43001337E06402700890038A740FF0A3F090B7
:103B530003857405123B90121C177404120BA8E41E
:103B6300F0900386120B6D851882851983120B6101
:103B730090038CE0C0E07405120BA8D0E0F074074A
:103B8300120BA8E41243C41221B1024A2CF07C1890
:103B93007D007900AA18AB1922C082C08390034A22
:103BA300E07003121FD7120D11023F6074F012046C
:103BB3001890034AE09012C0700FE060057900127C
:103BC3001E8D9012C0E4F0804AE064016008900307
:103BD3004AE0F9121E8D9012C07401F090034AE07E
:103BE300F46030E0F50CE4F50DF50EF50FF090827E
:103BF300C57808120B45780C7908120329780C1242
:103C030009097A807B009003D0E0F9121D9D7404AA
:103C13001208EE7AC07B1279411221990234E6EE42
:103C23002411F582E43FF58322F085088285098318
:103C3300A3A322125AFD123C3D22E8F0A3E9F0228D
:103C430074F612041874E2120987851882851983A1
:103C5300ECF0A3EDF0EAFEEBFF8908900385E06446
:103C6300046005E06408700579C2023D6D74291291
:103C73000BA8E064FE7003A3E0F4700579C3023D72
:103C83006D7C197D0079007405120977121C179059
:103C9300038574031243C4795012219974291209BC
:103CA30077794B122199851882851983123D86E510
:103CB30008900378F07429120BA8123D7C74281223
:103CC3000BA8E0F509900370123D72121DD374CE58
:103CD30055094480C0E0741D120BA8D0E0F0742B8A
:103CE300120BA8E004900396F0741A120BA8740246
:103CF300F07429120BA8123F217412120BA8E8F0DA
:103D0300A3E9123F1A741B120BA81243B5741012C5
:103D13000BA8E508F0740D120BA8E4F090038B7464
:103D23000FF07A8B7B03795412219990038A740FD5
:103D3300F07A8A7B03794712219990038AE0C3942E
:103D43000F501F7410120BA8E0C0E07402120BA8EE
:103D5300D0E0F07404120BA87401F0041209771276
:103D630021BD740512097712219F741E023293F04C
:103D7300EEFCEFFD7A977B03221243D29003791274
:103D83003C3D22126873123C3D2274F7120418EB77
:103D930090038DF0120F450243EB74F7120418746D
:103DA300E9120987EAFEEBFF7508008E828F83A371
:103DB300A3A3E0C0E07406120BA8D0E01233F5E031
:103DC300C0E07408120BA8D0E0F07409120BA874B9
:103DD30001123F14125095600D8E828F831257CDBE
:103DE300120C33E970357407120BA8E4F0121017A4
:103DF3007404120BA812469B900385E06404700EB2
:103E03001210237402120BA8EAF0A3EB8048740289
:103E1300120BA874FDF0A374FF803BAC18AD198E90
:103E2300828F831257CD120C3F8E828F83A3A3A35D
:103E3300A3E070307407120BA87401123F1A7402C6
:103E4300120BA81243B58E828F83123F2174041282
:103E53000BA8E8F0A3E9F0740212097712105FE9E6
:103E6300F508803E123F1B740A120BA81243B57467
:103E730014120BA81233F3A3E0C0E07415120BA8BD
:103E8300D0E0F07416120BA8123F13126EB1740C2B
:103E9300120BA8AA82AB83121DD3740A12097712DC
:103EA3001EA5A90874170243E874F712041874F8DE
:103EB300120987EAFEEBFF7900900385E06408604E
:103EC30005E06404704585188285198374FDF0A3A9
:103ED30074FFF01210177402120BA812469B74059C
:103EE300120BA8123F13A3E0C0E07404120BA8D076
:103EF300E0123F14E0C0E07406120BA8D0E0F074A7
:103F030007120BA8E41243C412105F74080243E8BB
:103F1300E4F08E828F8322F0851882851983124301
:103F2300D222C082C08390035774E9F0A3740DF0CA
:103F33009003FD74B9F0A37410F090035B741FF049
:103F4300A3740EF090035D74E9F0A3740DF0900375
:103F53005F7425F0A3740EF08003120CA5D083D0F8
:103F63008202089D74F412041874F91209878A08EE
:103F73008B098C0A8D0B8518828519837808120B9F
:103F8300277404120BA8E9F07405120BA8E4F0746B
:103F930006120BA8E41243C4120CF97407024A2E4A
:103FA30074F51204188A088B098A828B83126CE8D1
:103FB300EE4F700302415B90031412509560158A13
:103FC300828B83A3A3E0F9EEFAEFFB90031512387B
:103FD3007F1223BA8E828F83A3A3A3A3A3A3A3A336
:103FE300A3E0640260030240C48E828F83A3A3A371
:103FF300A3A3A3E0540270030240E8850882850965
:1040030083A3A3E064E970030240E885088285097D
:1040130083A3A3E064CD70030240E8850882850989
:1040230083A3A3E064F070030240E88E828F83A32E
:10403300A3A3A3A3A3A3A3A3A3E0701690133BE09E
:10404300048E828F83A3A3A3A3A3A3A3A3A3A3F0F9
:10405300801012416C12108FE970077A307B0112C5
:104063001F35850882850983A3A3E0701F750A00A5
:1040730080097A367B01121F35050A850882850976
:1040830083A3A3A3E0F8E50AC39840E68E828F8357
:10409300A3A3A3A3A3A3A3A31264A8A3A3A3A374E7
:1040A30004F090133C125AF7E812415E121DAFEA76
:1040B3004B4C4D700C7A207B009003D0E0F9121C1E
:1040C300778E828F83A3A3A3A3A3A3A3A3A3E06455
:1040D3000260128E828F83A3A3A3A3A3A3A3A3A38C
:1040E300E0640670738E828F83A3A3A3A3A3A3E0CC
:1040F300A2E05064850882850983A3A3E0F9EEFA60
:10410300EFFB1222598E828F83A3A3A3A3A3A3E061
:1041130054FEF012416C12108FE9850882850983E1
:10412300A3A3702AE070237A2F7B01121F357E0030
:10413300850882850983A3A3A3E0F8EEC3985018EA
:104143007A367B01121F350E80E67A318005E070E6
:10415300077A2D7B01121F35023385F0A3E9F07A2C
:10416300207B009003D0E0F9228E828F8312698A2C
:104173001250AC2274EC12041874DB120987EAFEA5
:10418300EBFF8C108D11750E00740512097F121749
:104193005B7412120BA8E070087415120BA8E06090
:1041A300207405120BA8E0A2E6501B8E828F83A316
:1041B300A3A3A3A3A3A3A3A31257CD12108FE960B4
:1041C300057A350242C07405120BA8E0540C64044E
:1041D3007005750D018003750D00E0A2E550307583
:1041E3000E01E50DA2E0402712101D8A088B09A8D5
:1041F30008A909125485687003A3E0696011740566
:1042030012097F125ED5122277E960030242BE745F
:1042130005120BA8E0A2E650227406120BA8E05484
:104223000370187405120BA8E0540C640C600CE0C6
:10423300540C64086005750C018003750C0074054B
:10424300120BA8E05403F8740268700E7405120987
:104253007F125ED5120BC70243AA7401687041E551
:104263000CA2E0500B740512097F125ED5120BBB32
:10427300740512096F7403120BA8E8F0A3E9124343
:10428300CA851882851983E8F0A3E91243BAC0E00E
:104293007402120BA8D0E01243C412238B0243AA68
:1042A300E860030243AA90036DE0640170178E82F5
:1042B3008F83A3A3A3A3A3A3E0700A7A347B011281
:1042C3001F350243AA7424120BA874021243CA7442
:1042D3001C120BA81243B5E50CA2E0500B74051297
:1042E300097F125ED5120BBB7439120BA878081222
:1042F3000B45E50DA2E0EE5072240F125EBBC0E049
:104303007417120BA8D0E0F09003161250957003A7
:104313000243AA12101D8A128B13A812A913741C2C
:10432300120BA8E0687003A3E069707B7808120998
:1043330009E50EF50878081209158E828F83A3A369
:10434300A3A3E0F50878081209157810120911A93A
:104353000C740D12097F74241209779003161258F6
:104363003F1223BA74081208EE803C125EB9F50CB2
:10437300780C1209157808120909E50EF508780872
:1043830012091578101209119003831206FCEE240A
:1043930012125EBBF9742612097F740F1209771289
:1043A300224D740A1208EE74250234FFA3A3A3A3BB
:1043B300A3A3E8123C3E221264B0A3E022E8F0A3D8
:1043C300E9F0AA18AB1922F01245821243D2221245
:1043D30043D622E0F8A3E0F92274F7120418121E60
:1043E3006F8005740D1208EE7F0102062D74F7121B
:1043F3000418121E7580F174F7120418121E8180BE
:10440300E7C082C083121E7B023F6074F712041858
:10441300121E8780D374F71204187409120BA8E0D4
:10442300F5087808120915121E99740180B7C08225
:10443300C083121EA5023F60C082C083121EAB025E
:104443003F6074F7120418121EB1809C74F71204B3
:1044530018EAFEEBFF8908740165087014790012ED
:104463000E61902897E493FC7900EEFAEFFB120DAE
:10447300D70243EB74F7120418121E9F0243EB7426
:10448300F412041874F9120987E9FE8A088B098C5F
:104493000A8D0B9011F5125095602BEE85188285CD
:1044A3001983F07401120BA87808120B27741312E6
:1044B3000BA8123F217405120BA81243C09011F5EB
:1044C30012583F1223BA023F9EC082C083121EEDD0
:1044D300023F6074F7120418121EBD0243EB74F717
:1044E3001204189012C3E0F97E00800B1247515456
:1044F3000D64017001190E1246E85003E970ED02D4
:1045030043EB74F71204189012C4E0F97E00800B99
:10451300124751548D64817001190E1246E85003FD
:10452300E970ED0243EB74F2120418890BE975F09C
:1045330006A4A9F0240CF508E439F509E5082AFADC
:10454300E43509FB121CE38A0C8B0DAE0CAF0DEEA8
:104553004F6021AC08AD097900121C1712457EE5A6
:104563000BF0EE2508F8EF3509F98E828F83A3A3AC
:10457300A31243AFEEFAEFFB02573012458222EE4D
:10458300125EE43FF5832274F6120418EAFEEBFF91
:10459300120DB39012C2E0F8E9C398400990035397
:1045A3001257CD120DB9EE2402F8E43FF9880889B9
:1045B30009900355125BF3900355E0041245CF12A3
:1045C3000DBF850882850983E0022AF8F0EEFAEF31
:1045D300FB22C082C08379009003538001091257E4
:1045E300CD8A828B83E582458370F2023F6074F744
:1045F300120418EAFEEBFFEE4F605A900353125079
:10460300956052888289837A007B00EE658270030D
:10461300EF65836013AA82AB83123F21888289836B
:10462300E5824583602F80E39003531258B6687088
:1046330002EF698E828F837008123F2190035380AB
:10464300031269781243B5EEFAEFFB12235BEEFA1D
:10465300EFFB121CE90243EBC082C083900353803B
:104663000488828983125095600A88828983123470
:10467300F24D70ED8A828B83E4F0A3F0E849600683
:1046830088828983800390035312469B023F60EE26
:10469300241AF582E43FF583EAF0A3EBF0221250EB
:1046A300ACEA4B2274F712041890035380048A82F5
:1046B3008B831246A160277E0080010E1246E850CC
:1046C300EDEE75F006A4FCADF0EA2CFCEB3DFDEC41
:1046D3002410F582E43DF583E06970DF80047A00FD
:1046E3007B000243EB124747EEC3982274F7120490
:1046F300187D0080010D124743EDC398503BED75C3
:10470300F006A4FEA8F0E8FFEA2EFEEB3FFFEE243E
:1047130010125EBB6970DEED75F006A4FEE8FFEAD9
:104723002EFAEB3FFBEA2411F582E41257F24CF028
:10473300EA240CFA50070B80047A007B000243EB57
:1047430012474722EA125EE43BF583E0F822EE7556
:10475300F006A4FCADF0EA2CFCEB3DFDEC2411F5D6
:1047630082E43DF583E02274F6120418120ECD7B29
:10477300008016EB75F006A4F8A9F0125C21E41290
:1047830047FFF0A3125BE9F00B90289C125AD44028
:10479300E27A0080168A0875090074037808120A01
:1047A3002E1256F4125AF2A3E4F00A9028A6E493C8
:1047B300F8EAC39840DF7900801A89087509007404
:1047C300037808120A2E748E126CF07410126B297F
:1047D300122DC3099028911262F740DE90289DE4C0
:1047E30093900361F09082C51206F87A107B0090D3
:1047F30003D0E0F9121DA37404023293126305A3DC
:104803002274F012041874F51209878A088B098937
:104813000A8C0BE9A2E050147508FC7509FFA2E1AC
:104823005005D2E40248CDD2E30248CD120EB58A38
:104833000C8B0DA80CA90D900376E0687003A3E020
:1048430069600EAC0A7902AA08AB09120EAFE970CF
:1048530005790002499EE50AF50C780C12091579D1
:10486300027CFE7DFFAA08AB09120E2B740112080D
:10487300EEE9600302499CE50AC2E5F50A9003C329
:10488300E07049E50AA2E64043740312097FAA08CF
:10489300AB09120C39E9702E1250701211558A0CA3
:1048A3008B0DAE0CAF0DEE4F6022EE2402FAE43F07
:1048B300FB120C33E96015EE2402FCE43FFD7403A4
:1048C300120977121DD3E50AD2E5F50A900356E0E3
:1048D300F50C900376124B60780E1209117D017C62
:1048E30000900356E0F9AA0EAB0F120E6D7402127C
:1048F30008EEE9F8900356E004F0E8600302499CEF
:10490300E50AA2E55004740E80027406C0E0740147
:10491300120BA8D0E01243C41210778A0E8B0FAE8D
:104923000EAF0FEE4F606E125462121017124692C2
:104933001249B57401F07478550AA3126F1AE50C85
:10494300126F1AA3E508F0E5091249A3E4F0E50A9A
:10495300A2E5500F740312097FE82406FAE439FB39
:10496300121DD38E828F83A3A374FDF0A374FFF073
:10497300E50B6018902898E493F8E50BC398500C66
:10498300EE2413F582E43FF583E50BF0EEFAEFFB3B
:10499300120CE780067910800279C7740B0234E3A6
:1049A30088828983A3A3A3A31249AF22126309A315
:1049B300A322EE125EE03F1249BE22F5831243D6D4
:1049C300888289832274F41204187A007B1090037E
:1049D300D0E0F9121DAFEA4B4C4D60089003E2742E
:1049E30001F080439012A6E064019013387006E052
:1049F300FC79018004E0FC79037A007B00120DD777
:104A030090288BE493F508740193F509E4F50AF50E
:104A13000B78081209097A007B109003D0E0F91291
:104A23001D9D74041208EE800574181208EE7F04AD
:104A330002062D74F01204188A088B098C0A8D0B58
:104A4300890C12108FE960057AFF024B249013370B
:104A5300E064026003024B5090288FE493F9AA08A4
:104A6300AB09120EDFE96003024B4A7900AA08ABD7
:104A730009120EB5A90C120EA98A0E8B0FAE0EAF3A
:104A83000FEE4F7003024B368E828F83A3A3A3A333
:104A9300A312620D70731257CD8E828F83A3A3A3CB
:104AA300A3A3A3E05418604D902896E4938E828FBD
:104AB30083A3A3A3A3F07410120BA8126EB17412F4
:104AC300120BA8124B60EA650A7003EB650B6012C8
:104AD300EA6C7002EB6D600AEA650E7003EB650F1A
:104AE300701B780E120911AA0AAB0B1211917402F2
:104AF3001208EE800890037512649FA3F074FE6A97
:104B0300700374FF6B601E8051A3A3A3E064036072
:104B13002A8E828F83A3A3A3A3A3E0640470067ADF
:104B2300FE7BFF80358E828F83A3A3A3A3A3E064C0
:104B33000270089003C2E0640270127907AA08ABFE
:104B430009120EDFE96006AA08AB09800DAA08ABBB
:104B53000990035712583F1223BA0234E6E0F50EC8
:104B6300A3E0F50F2274F7120418EAFEEBFF120C10
:104B730087E9700AEEFAEFFB120C93E96006EEFA8E
:104B8300EFFB80047AFE7BFF0243EB74EE12041802
:104B93008A0A8B0B8C0C8D0D890E75080012108FF1
:104BA300E979006003024CF4AA0AAB0B120EB5A913
:104BB3000E120EA98A108B11AE10AF11EE4F6019B1
:104BC3008E828F83A3A3A3A3A3E0640270529003F6
:104BD300C2E064027003024CF2AA0AAB0B12583C07
:104BE3001223BA120C998A108B11A810A911E84943
:104BF3007003024CF288828983A3A3A3A3A3E0A238
:104C0300E04003024CF2750901A2E1504B7901AC7B
:104C13000AAD0BAA0CAB0D120E07E97047024CF25A
:104C23008E828F83A3A3A3A3A3E0640360258E8254
:104C33008F83A3A3A3A3A3E064016003024CF279CF
:104C4300078E828F83A3A31257CD120EDFE9600371
:104C5300024CF2750902801088828983A3A3A3A35F
:104C6300A3D2E1F0EE4F603A8E828F83A3A3A3A376
:104C7300A3A3E05418602B7508018E828F83A3A32E
:104C83001206FC7510FE7511FF78101209117900D8
:104C9300AC0AAD0BAA0CAB0D120EC174041208EED4
:104CA300804D7900AA0CAB0D120EB58A108B11A89A
:104CB30010A911900376E0687003A3E06970149063
:104CC3002897E493FCA90EAA0AAB0B120DD775081B
:104CD30001801CA909AC0AAD0BAA0CAB0D120E077F
:104CE300E9700C750801A90EAA0AAB0B120E61A993
:104CF3000880031208EE7F0A02062D74EB120418D3
:104D030074F01209878A0C8B0D8C088D09751206B5
:104D1300900403125095601712507012117F8A107D
:104D23008B11EA451160088A828B83A3E06068E5F2
:104D33000C241DF50EE4350DF50F850E8212528CF1
:104D4300F51488828983A3A3A3E0FA88828983A3C5
:104D5300A3A3A3E0F8E4C8F9EA28FEE439FFAA080C
:104D6300AB09120E67850E82850F83125077E029F7
:104D7300F50BE50AA2E5500375120E7487550A7008
:104D83000F7418550A6418600712505A6512600CA4
:104D93007AD37B00121F357900025044530A78C33B
:104DA300EE94F8EF94FF50247900EEFAEFFB120E25
:104DB300A98A0E8B0FA80EA90FE849600F88828974
:104DC30083A3A3A3A3A3A3E0541870CB7808120969
:104DD300117D00AC0BA9141250A1120E6D740212B6
:104DE30008EEE9F874036860AE7425120BA8126C20
:104DF300F56003024EBB7418550A7003024F76E543
:104E03000AD2E0F50AA2E45004D2E1F50AA90A1293
:104E130050A1120EA98A128B13A812A913E8496094
:104E23005C88828983A3A3A3A3A3A3E05418604D42
:104E330088828983A3A3A3A3A3E06401703FE51041
:104E430045116039126EAE88828983A3A31257CDB0
:104E530012117F8A128B13A812A913E849601E88C6
:104E6300828983A3E06016851082851183A3E0FA0B
:104E730088828983A3E0C39A5003024D9AE50AF519
:104E830010781012091512509B120E2B7401120880
:104E9300EEE970247C007D00850E82850F8374FF0C
:104EA300F012547DA3A3A3E0600612504E126EB11C
:104EB300A90B1250A1120D83850E82850F83E0F496
:104EC3007003A3E0F4603C9003C2E0640270030249
:104ED3004D9A1250A190035912583F1223BAEA6512
:104EE300087003EB65096003024D9AEEFAEFFB903D
:104EF300035912583F1223BA850E82850F83EAF0B5
:104F0300A3EBF078081209117D01AC0BA914125020
:104F1300A1120E6D74021208EEA90AEEFAEFFB124B
:104F23000EB58A088B09A808A909900376E0687072
:104F330003A3E0696003025036EEFAEFFB120C990B
:104F43008A088B09A808A909E849606F88828983C0
:104F5300A3A3A3A3E06401600D88828983A3A3A311
:104F6300A3E064027055AC18AD19EEFAEFFB120C16
:104F730039805690036FE06014E50AF5107810123B
:104F8300091512509B120E2B74011208EEE50AF557
:104F930010781012091579027CFE7DFFEEFAEFFB03
:104FA300120E2B74011208EEE96003024EBB850E4C
:104FB30082850F8374FFF0A3024F05121017EAFCDA
:104FC300EBFDAA18AB19121DD3850C82850D83A3A3
:104FD300A3A3A3A3A3A3A3E06401700E12504E12D4
:104FE3006EB17408120977121DD3125274125067EE
:104FF300E04430F5087808120915740112096F8826
:105003000889097808120911740B12096F88088935
:10501300097808120911E514F508780812091579B9
:1050230000EEFCEFFD1250A1120E0174061208EE01
:10503300024D9A125274F583125077E50BF0121059
:105043002F74101208EE7F0D02062DE50C2415F5C2
:1050530082E4350DF58322E50C2417F582E4350D42
:10506300F583E022F583E0F812387EA322900383D0
:105073001252A82212698AA3A3A3A3A322E50D7542
:10508300F006A4F8AAF0EAF974F228F582740F394D
:10509300F5831243D2E849227901AC08AD09125EC7
:1050A300DE350D1250AA22F583E0FAA3E0FB227449
:1050B300EE12041874F01209878A0C8B0DECFAEDCA
:1050C300FB750F089004031250956031126EAE12F7
:1050D300117F8A088B09AC08AD09EC4D601F8C82E7
:1050E3008D83A3E07017125AE75001097A027B00FF
:1050F30012022FE88C828D83F0A37407F01252748E
:1051030012528CF50E8882898312527EE0FAE4CA29
:10511300FBEC2AFEE43BFF88828983A3A312527E21
:10512300A3A3E0FBECF508E43BF50988828983A39C
:10513300A3A3A3A3A3A3E0F50BE50AA2E45003757D
:105143000F10A2E550067408250FF50F748F550A4A
:10515300700712505A650F600A7AD37B00121F350D
:1051630002526F530A707800E50AA2E4501FE50C5F
:10517300241D12505E2408FCA3E03400FD740812C1
:105183000977121DD37808E50AC2E4F50AE50AA2F5
:10519300E55022E50C241D12505E28F8A3E03400EC
:1051A300F9E82408FCE439FDAA18AB19121DD3E56C
:1051B3000AC2E5F50AA90EEEFAEFFB120EA3902838
:1051C300A61262F750298910751100740378101222
:1051D3000A2E74532510F58274103511F583E0F807
:1051E300E50BC3985007E50BF078008004807D78C9
:1051F30004900376E06E7003A3E06F605FE87019BC
:10520300E50AF50F780F12091512529B120E2B7433
:10521300011208EEE970558005740468704E780A2F
:10522300120915740112096F880C890D780C120983
:1052330011740B12096F880C890D780C120911E592
:105243000EF50A780A120915A90BAC08AD09EEFA96
:10525300EFFB120E0174061208EE8010780A120991
:105263001512529B120E2B74011208EE7410024C8D
:10527300F6E50C241DF582E4350D22A3A3A3E0FC7F
:1052830088828983A3A3A3A3221249BEA3E0F50ABC
:1052930088828983A3A3E0227901125EDE350DF5AE
:1052A300831252A822E0FCA3E0FDAA08AB092274F2
:1052B300EB12041874F51209878A088B098C0A8D7E
:1052C3000B89147420120BA8E0F511F9120EA3E94F
:1052D300F50C9028A61262F7501B750D0074037825
:1052E3000C120A2E7451250CF5827410350DF583BA
:1052F300124B60801E9003591250956010AA08ABA0
:105303000912387F1223BA8A0E8B0F8006750EFEA0
:10531300750FFF7401120BA87408F07425120BA803
:10532300E0F510A2E450087401120BA87410F0E524
:1053330010A2E550097401120BA8E02408F0AA1882
:10534300AB191210778A0C8B0DAE0CAF0DEE4F70AC
:105353000302545D12546212101712469274211202
:105363000BA8E0F512A3E0F513740312097FAA0E4C
:10537300AB0F120C39E96013EE2416125465740353
:1053830012096FEE241812314C8027E510A2E45065
:1053930022E50E65087004E50F65097016EE241604
:1053A300125465EE2418F582E43FF583E512F0A369
:1053B300E513F0125485F50CA3E0F50D850C82F589
:1053C300837402F0A3E51012546FE51112546FA316
:1053D300E508F0E509850C82850D83A3A3A3125488
:1053E3007DE50AF0E50B850C82850D83A3A3A3A3BA
:1053F300A3A3F0AA0EAB0F120E67E92514850C8246
:10540300850D83A3A3A3A3A3A3A3F0750800E510AD
:10541300A2E45013AC12AD13E50C2408FAE4350DE5
:10542300FB121DD3750808E510A2E5501B74231267
:105433000BA8126EB1E50C2508F8E4350DF9E82444
:1054430008FAE439FB121DD38E828F83A3A3E50EE2
:10545300F0A3E50F1245CF120CE7740B025046EE92
:105463002417F582E43FF5837401F022125473226A
:10547300F0850C82850D83A3A322A3125473A3A3E7
:10548300A322124582E02274F41204188A088B09BD
:10549300ECFEEDFF750B01900376E065087004A345
:1054A300E065096013750B00780B1209151210D112
:1054B30074011208EEE9F50B7900AA08AB09120E84
:1054C300B58A088B09A808A909900376E0687003D8
:1054D300A3E06970467900EEFAEFFB120EA9EA4BDE
:1054E30060308A828B83A3A3A3A3A3A3E054186091
:1054F300217508FE7509FF78081209118A828B83CA
:10550300A3A31206FC126E0B120EC174041208EE52
:1055130080097901EEFAEFFB120D7DA90B024A31E6
:1055230074F21204187ED67F0E7A107B009003D09B
:10553300E0F9121DAFEA4B4C4D70179082C512066D
:10554300F87A107B009003D0E0F9121DA3740412C3
:1055530008EE900361E014F0600302560590289D65
:10556300E493900361F07C0079057A007B00120FCD
:10557300A58A088B090255FC7C007905AA08AB09AA
:10558300120FA58A0A8B0B850882850983A3A3A31F
:10559300A3125095605DE5082404F8E43509F98801
:1055A3008289831257238882898312509570448598
:1055B3000882850983A3A3A3A3A3A3E054046013D0
:1055C300850882850983A3A3A3A3A3A3A3A3E0F9C7
:1055D300120E91850882850983A3A3A3A3A3A3A382
:1055E300A3A37406F07AF085088285098312637C8D
:1055F300120EFD850A08850B09E5084509600302BB
:10560300557B75080080608E828F83A3A3A3A3E0DC
:10561300604CF46049EE2404125EBB14F0703F8EBC
:10562300828F83A3A3A3A3A3E06403701579028EDF
:10563300828F83126EB18E828F83A3A31257CD12F2
:105643000E078E828F83A3A3A3A3A3E06401600E3E
:105653008E828F8374FEF0A30412570DE4F00508C5
:10566300EE2407FE50010F9028A01256EC40987EBE
:10567300008039120FC98E08750900740378081267
:105683000A2E744E2508FC74103509FD7A137B0E1F
:10569300120FB7EA4B70DC8E0875090074037808A3
:1056A300120A2E1256F4125BE9E4F00E9028A612A9
:1056B3006C37501B8E0875090074037808120A2E84
:1056C300125702E82407126F9A14F070DE80A77B4A
:1056D300008009EB125711600214F00B90289C1202
:1056E3005AD440EF804790289CE493F8E508C39888
:1056F3002212570288828983A374FEF0A3042274C2
:105703004E2508F874103509F9221264B02275F099
:1057130006A4F8A9F074EE28F582740F126FA12283
:10572300E024FFF0A3E034FFF0221208EE7F06022C
:10573300062D74F712041874DF120987ECFEEDFFCF
:10574300750800EE4F6069123A4DC8241FF582E4D4
:1057530038125093605A8A828B831257CDAC18AD9E
:1057630019EA241EF582E41257F2F9EA241F1228DB
:10577300F9120FFF740B120BA81257D17003A3E099
:1057830069702D7402120BA8E064017023741D125A
:105793000BA812583FE064017016741D120BA81277
:1057A300506BA3E0F88E828F83E068700375080165
:1057B300A90874210243E8E50D75F006A4F8EAF997
:1057C30074F228F582740F39F5831250AC22125704
:1057D300D7E068221257DB221243D68E828F83A32F
:1057E3002275F016A4FAABF0749C2AF582740B3B75
:1057F300F583E02274F4120418E97024790090030D
:105803005B12583F1223BA8A0A8B0BAE0AAF0B7492
:10581300FE6E700374FF6F701A902892E493601306
:10582300790190035B12583F1223BA8A0A8B0BAE9D
:105833000AAF0B1210410238FD90035D12698A22F0
:1058430074F612041874F3120987121C2F8A088B3A
:1058530009AE08AF09900376E06E7003A3E06F60B2
:10586300E9121023EA6E7002EB6F60DEEEFAEFFBD3
:1058730012108FE970D4EE4F60D08518828519839A
:10588300E4F004120BA8EEF0A3EF1243C4120C5180
:10589300E970B774FE6E700374FF6F60ADEEFAEFDC
:1058A300FB740D023293C082C083121041023F6029
:1058B30039F5831243D2EE2274F2120418EAFEEB96
:1058C300FF8C0A8D0B890874FC6E700374FF6F7074
:1058D30003025AAE7900120EB58A0C8B0DAE0CAFD3
:1058E3000D740E120BA8E0F509900376E06E7003B9
:1058F300A3E06F7009E509A2E64003025AAEA909C5
:10590300120EA98A0C8B0DA80CA90DE849704679D3
:10591300007AFE7BFF120EA98A0C8B0DA80CA90D31
:10592300E84970317418550960267B0080010B909B
:1059330028A0125AD45019EB75F007A4F8A9F01255
:105943006C3E541870E874D628F8740E39F9801D2B
:105953007902025AB088828983A3A3A3A3A3A3E0F5
:1059630054186009741855097003025AAE88828965
:1059730083EEF0A3EFF074FE650A700474FF650B09
:10598300600A88828983A3A3125ADBF08882898301
:10599300A3A3A3A3A3A3E509F0A2E0500D888289E2
:1059A30083A3A3A3A3A3A3D2E2F07401650888820F
:1059B3008983A3A3A3A3A370357401125AF2E054FD
:1059C300186025902896E49388828983A3A3A3A3D0
:1059D300126EADAA0AAB0B12117F8B0DEA450D6057
:1059E30003025AAE7E008031900375E080DAE064F2
:1059F300017003025AAE88828983A3A3A3A3A3A33E
:105A0300E054186007902896E4938004900374E0B0
:105A13001249A3E508025AAD0E902899126C37403B
:105A230003025AAE7D00802BED75F007A4F8A9F0B0
:105A330074D828F582740E1258B375F017A4FAAB14
:105A4300F074662AF582740D125B057003A3E06996
:105A530060C60D9028A012346240CDE4936D70B8F7
:105A6300EE75F017A4F8A9F0746628FE740D39FFDB
:105A73007C177D007900EEFAEFFB121C178E828FE4
:105A830083125ADBF0900383125AF71243AF125A70
:105A9300B374AAF0125ABD7401125AE25001097A82
:105AA300027B0012022F125AC7E8F0790002573026
:105AB300EE240FF582E43FF58322EE240EF582E413
:105AC3003FF58322EE240DF582E43FF583229028EF
:105AD300A2E493F8EBC39822E50AF0A3E50B22F0C6
:105AE300125AE7229028A5E49379002401F82212A0
:105AF30049AFA322125AFDA3A3221257DBA322F517
:105B030082E43BF583E0682274F21204188A088B5E
:105B130009890C1262F040057905025BE6121EF357
:105B2300AA08AB09120E3DE9F50D90289CE4936594
