:020000040000FA
:06000000020A840201D493
:03002B00020713B6
:0300330002073988
:0300430002075F52
:0300530002011493
:1000830002016801FF01010503010F10FEFF19259D
:1000930000000000ED2300000000FF000000FF004F
:1000A3000101881300000020FD000200008C1900EC
:1000B3000000000000461A000000000000000000DD
:1000C300000000000000000000000000000000002D
:1000D3000000000000000006FFFF010200490F00BE
:1000E3000000E803FFFFBE0FE803640002020008FC
:1000F30000000502070101051E02051E020A0A018E
:1001030003B80B02803E0102E8030A050001220442
:1001130014C0E074F21203EBA2AFE433F508D2AFDC
:10012300AFA7AEA1EE5F5410600612171675A1EFCC
:10013300EE5F5408600812171C75A1F78023EEA226
:10014300E092F0EFA2E082F05017906198E0F8900F
:10015300085FE0C398A2D265D0335002E8F075A1DE
:10016300FEE5088063C0E074F21203EBA2AFE43350
:10017300FED2AF9061A4E0F8759B00E59158540856
:1001830060087591F71217648023E5915854106045
:10019300087591EF12176A8014E591A2E092F0E8D6
:1001A300A2E082F05007E0C2E0F01218B49061A31D
:1001B300E0F8E5E9585404600E12188A75E9FB90DB
:1001C3006193E0A2E640F2EEA2E092AF7F01020467
:1001D3004AC0E074F21203EBA2AFE433FED2AF9055
:1001E30061A5E0F8E5BF585404600675BFFB12181B
:1001F300CC80D4C3E498F8E499F91202378026C37B
:10020300E49AFAE49BFBE920E7E9120237E498F861
:10021300E499F922C3E498F8E499F9120237E498CF
:10022300F8E499F9C3E49AFAE49BFB22EB20E7CFC5
:10023300E920E7E0B90010BB0008E88AF084F8AAD7
:10024300F022E4FBC8FA22EB70227B10C833C8C942
:1002530033C9335007C39AC3DBF280069A50012A8D
:10026300DBEAC833F4C8C933F4C9FA2275F008E4E9
:10027300C833C8C933C933C99AC99B5004C92AC9E9
:100283003BD5F0ECFBC833F4C8E4C9FA22080808EC
:10029300EAC0E0EBC0E086F0E7A4FA180986F0E7CD
:1002A300A42AFA180986F0E7A42AFA180986F0E7BF
:1002B300A42AFA1986F0E7A4FBE5F02AFA190886BE
:1002C300F0E7A42BFBE5F03AFA190886F0E7A42B34
:1002D300FBE5F03AFA18180986F0E7A4C5F02BFB02
:1002E300E43AFA1908E7C5F0C6A426F6E5F03BFBA5
:1002F300E43AFA1886F0E7A4F6E5F00826F6E43BBC
:1003030008F6E43A08F6D0E0FBD0E0FA22E4CFC0E6
:10031300E0E4CEC0E0E4CDC0E0E4CCC0E075F02082
:10032300E626F608E633F608E633F608E633F6186B
:100333001818EC33FCED33FDEE33FEEF33FFC3EC63
:100343009709ED9709EE9709EF97191919400FFFD0
:10035300EC97FC09ED97FD09EE97FE191906D5F008
:10036300BFECF709EDF709EEF709EFF7191919D003
:10037300E0FCD0E0FDD0E0FED0E0FF222518C582EE
:10038300C0E0E51934FFC583C0E0E518C3958224B6
:10039300F810AF088583198582188008858319852D
:1003A3008218D2AFCEF0A3E520F0A37808E608F0D8
:1003B300A3DEFAEFF0A3E58124FAF8E608F0A3E65A
:1003C30008F0A3E608F0A30808E608F0A3E608F09F
:1003D300A315811581D0E0FED0E0F81581158115B4
:1003E30081E8C0E0EEC0E022C0D02518C582C0E09D
:1003F300E51934FFC583C0E0E518C3958224F310E3
:10040300AF0885831985821880088583198582182A
:10041300D2AFC8F0A3E9F0A3EAF0A3EBF0A3790805
:10042300E709F0A3D8FAECF0A3EDF0A3EEF0A3EF05
:10043300F0A3D0E0F0A3D0E0F0A3D0E0F0A3E52058
:10044300F0A3E5F0F0A322851983851882E0C0E0CC
:10045300A3E0F9A3E0FAA3E0FBA37808E0F608A37E
:10046300DFFAE0FCA3E0FDA3E0FEA3E0FFA3E0C00E
:10047300E0A3E0C0E0A3E0F5D0A3E0F520A3E0A370
:10048300F5F010AF088583198582188008858319D4
:10049300858218D2AFD082D083D0E0F8D0E0321278
:1004A3000AF2B900030204E1E49003017847790EEC
:1004B3008002F0A3D8FCD9FA7A477B1090008678A3
:1004C3008F79018015E493A3AD82AE838A828B83F7
:1004D300F0A3AA82AB838D828E83D8E9D9E7758294
:1004E300907583D074041208227582B075832274C8
:1004F300001208220C75F0108E1A8F1B85821F853F
:10050300831E851882851983E0CEA3E0CF851F82E1
:10051300851E83EBC9EAC8EDCBECCAC3E833C8E94F
:1005230033C9EA33CAEB33CBC3EA9EF51DEB9FF520
:100533001CB35004AB1CAA1DEC33CCED33CDD5F06A
:10054300DAAE1AAF1B22D083D082ECC0E0EDC0E05C
:10055300E493A3FCE493A3FDED4C600D120621ECA0
:1005630024FFFCED34FFFD80EFE493A3FCE493A3AD
:10057300FDED4C600D1206BEEC24FFFCED34FFFDD7
:1005830080EFD0E0FDD0E0FCE493A3C0E0E493C0AF
:10059300E022D083D082E9C0E0E493A3C386F0C510
:1005A300F095F0F908E493A386F0C5F095F0700B8D
:1005B300E493A3C3994005E9048002A3E475F00220
:1005C300A42582F582E5F03583F583D0E0F9E49341
:1005D300A3C0E0E493C0E022851983851882E0A3D9
:1005E300FEE0A3F5207808E0A3F608DFFAE0A3FF16
:1005F300E0A3C0E0E0A3C0E0E0A3C0E0E0A3C0E06C
:10060300E0A3C0E010AF08858218858319800885B0
:100613008218858319D2AFD083D082020828C0E024
:10062300C3E49396087401939618400FE49366709D
:100633000808740193661870007019A3A3C3E493A8
:1006430096087401939618A3A3400DD0E0D0E0D090
:10065300E0020585A3A3A3A3A3A3D0E0227404808F
:100663000474028000CCC0E0EDC0E0E518C39CCC6C
:10067300AD1950011D10AF068C188D1980068C180A
:100683008D19D2AF1207A4D0E0FDD0E0FC22740292
:100693008000CCC0E0EDC0E0E518C39CCCAD1950A0
:1006A300011D10AF068C188D1980068C188D19D278
:1006B300AF120782D0E0FDD0E0FC22C0E0C0F0889A
:1006C300F0E4936670080874019366187000A8F04C
:1006D300A3A3700BD0F0D0E0D0E0D0E0020585A357
:1006E300A3D0F0D0E022D083D082CCC0E0E493A3A7
:1006F30060061208031470FAE493A360061208F468
:100703001470FAD0E0FCE493A3C0E0E493C0E022C9
:10071300C0E0C0D0E8C0E0E9C0E0A9A8D2AFC2C73A
:10072300E9A2E7E433F8E9A2E792AFD0E0F9D0E039
:10073300F8D0D0D0E032C0E074F21203EBA2AFE401
:1007430033FED2AFE58BA2E050031222AA758B00D1
:10075300C2E8EEA2E092AF7F0102044AC0E074F265
:100763001203EBA2AFE433FED2AFC2C0E5D1A2E4E1
:100773005003121686EEA2E092AF7F0102044ACA2A
:10078300C0E0E493A3C582CCC582C583CDC583F005
:10079300A3C582CCC582C583CDC583DAE5D0E0CAC3
:1007A30022CAC0E0E0A3C582CCC582C583CDC58380
:1007B300F0A3C582CCC582C583CDC583DAE6D0E07C
:1007C300CA227009080808226016181818C6C3330D
:1007D300C608C633C608C633C608C633C6D5E0EA5C
:1007E30022C008C3E096F50808A3E096420808A3D0
:1007F300E096420808A3E09645087001D3D008228A
:10080300C0E0E493A3D39C5010E493A3C39C400A99
:10081300D0E0D0E0D0E0020706A3A3A3D0E022C03B
:100823009FF59FE473D09F22D083D082C09FE4932F
:10083300C0E0740193C0E0740293F59F22740480B6
:100843000A74038006740280027401C0E0F4041287
:10085300085BD0E0120AC1222518F58210AF08F513
:1008630018400C15198008F51840021519D2AF85E8
:1008730019832200C0D0251810AF08F518500C05B5
:10088300198008F51850020519D2AFD0D022BB0148
:1008930002E722C082C08389828A83BB0003E0808F
:1008A30002E493D083D082226016080808C6C313DB
:1008B300C618C613C618C613C618C613C6D5E0EAAB
:1008C30022C3E0C696F608A3E0C696F608A3E0C6E0
:1008D30096F608A3E0C696F6222518F8E43519F92A
:1008E300222518FAE43519FB222518FCE43519FDF5
:1008F30022C0E0E493A36C7009D0E0D0E0D0E00222
:100903000706A3A3D0E022251810AF08F518400C62
:1009130015198008F51840021519D2AF22E7667041
:10092300100809E766700A0809E76670040809E712
:100933006622C3E09608A3E09608A3E09608A3E026
:1009430096A2D265D03322E066701008A3E06670E9
:100953000A08A3E066700408A3E06622C3E096F0E9
:1009630008A3E096F008A3E096F008A3E096F0222F
:10097300C3E697F60809E697F60809E697F6080925
:10098300E697F622C3E493960874019396087402DB
:100993009396087403939622700422600D18C6C3BD
:1009A30033C608C633C6D5E0F41822E647F608096D
:1009B300E647F60809E647F60809E647F622E02681
:1009C300F008A3E036F008A3E036F008A3E036F021
:1009D30022E627F60809E637F60809E637F6080996
:1009E300E637F622E657F60809E657F60809E6570A
:1009F300F60809E657F622E056F608A3E056F6088D
:100A0300A3E056F608A3E056F622E026F608A3E094
:100A130036F608A3E036F608A3E036F622E056F0F1
:100A230008A3E056F008A3E056F008A3E056F0222E
:100A3300E4C396F608E496F608E496F608E496F618
:100A430022600D08C6A2E713C618C613C6D5E0F385
:100A530022C6F4C608C6F4C608C6F4C608C6F4C659
:100A630022C3E7960809E7960809E7960809E79677
:100A730022C3E09608A3E09608A3E09608A3E096B5
:100A83002275D00075813F751801751903000204A2
:100A9300A2E6F008A3E6F008A3E6F008A3E6F02236
:100AA300600C08C6C313C618C613C6D5E0F422E00B
:100AB300F608A3E0F608A3E0F608A3E0F622CAC00E
:100AC300E0E6F0A308DAFAD0E0FA22E8F0A3E9F0CE
:100AD300A3EAF0A3EBF022E0F8A3E0F9A3E0FAA382
:100AE300E0FB22E0FAA3E0FBA3E0FCA3E0FD22E5A8
:100AF300C754F84401F5C77901222518F582E43576
:100B030019F58322C2AF75D69F0200002212082B6B
:100B1300FFB00212082B46B10212082BC4B1021215
:100B2300082B51B40212082BAAB50212082B3DB6AA
:100B33000212082BC7B60212082B2DB70212082B7C
:100B43006CB70212082BE2B70212082B37B9021254
:100B5300082BDAB90212082BF2B90212082B95BA44
:100B63000212082B1FBD0212082BC0BE0212082B53
:100B7300DEBE0212082B20270012082B7A27001250
:100B8300082BE4270012082B6D280012082B2929B3
:100B93000012082BB8290012082BD1290012082BA8
:100BA300F6290012082B342A0012082B832A00127C
:100BB300082BAC2A0012082BFB2A0012082BA72BA8
:100BC3000012082B6F2C0012082BD42C0012082BB8
:100BD300A12D0012082BE72D0012082B032E001263
:100BE300082B352E0012082BDD2F0012082BB430F2
:100BF3000012082BE0300012082B14310012082BCE
:100C030035310012082B44310012082B4F310012EA
:100C1300082B03320012082B76320012082BE8321D
:100C23000012082BF0320012082B13340012082B89
:100C330046340012082B08350012082BB735001272
:100C4300082BFF350012082B61360012082B86365D
:100C53000012082BFE360012082B86370012082BD1
:100C6300EA370012082BCF380012082BF438001291
:100C7300082B153A0012082B283A0012082BBC3A0D
:100C83000012082B063C0012082B163C0012082BFE
:100C9300253D0012082B9E3D0012082BE03D00125B
:100CA300082B1C3E0012082BF03F0012082B554264
:100CB3000012082B69420012082B73420012082B02
:100CC3007D420012082B87420012082B914200122A
:100CD300082BAA420012082BB4420012082BBE4272
:100CE3000012082BC8420012082BF0420012082BF6
:100CF300FB420012082B45430012082B4F430012FE
:100D0300082B5A430012082B7E430012082BA243E0
:100D13000012082B03440012082B4E440012082B28
:100D23006A440012082BD4440012082B20450012F9
:100D3300082B68450012082BE3450012082B7D465B
:100D43000012082B41480012082BAF480012082B51
:100D5300E1490012082B074A0012082B774B0012B7
:100D6300082B2B4F0012082B2B510012082B035377
:100D73000012082B9C530012082BAE550012082BAF
:100D830070560012082BBC560012082B2257001273
:100D9300082B34570012082B84590012082BB15A20
:100DA3000012082B035B0012082BA85B0012082B10
:100DB300635D0012082B945E0012082BB25E0012D2
:100DC300082B075F0012082B05600012082B2D600B
:100DD3000012082B90600012082B91610012082B5F
:100DE30004620012082B32630012082B9D63001269
:100DF300082B8D640012082BF3660012082B216761
:100E03000012082B1C680012082BBA690012082B69
:100E13000A6A0012082BC26A0012082B776B0012B1
:100E2300082BDB6B0012082B946C0012082B346D1B
:100E33000012082B986D0012082BE26D0012082B8C
:100E43001F6E0012082B876F0012082B21840112DA
:100E5300082B59840112082B32870112082B78873B
:100E63000112082B95880112082BFA880112082B0E
:100E73004B8A0112082B3C8D0112082B5B8E011249
:100E8300082B30990112082BD1990112082BC49C0D
:100E93000112082BC49D0112082B4C9E0112082B32
:100EA3009C9F0112082B83A00112082BECA20112B4
:100EB300082BFAA40112082B87A50112082B63A69D
:100EC3000112082B8CA60112082B39A70112082B3B
:100ED30024A80112082BFCA80112082B5CA90112FB
:100EE300082B85A90112082BB2A90112082B03AC08
:100EF3000112082BDEAC0112082B22AD0112082BC4
:100F030093AD0112082B4CAE0112082B7EAE0112D9
:100F1300082BC5AE0112082BF8AE0112082B5DAFEA
:100F23000112082BACAF0112082BB1AF0112082B31
:100F330005B00112082B4FB00112082B4BB101125F
:100F4300082BB0B10112082B17B20112082B3CB5C4
:100F53000112082B10B60112082B7AB70112082BC5
:100F630054BA0112082BFCBA0112082B23BD01123B
:100F7300082BC8BD0112082B06BE0112082BDFBFC8
:100F83000112082BF2BF0112082BFBBF0112082B21
:100F930004C00112082B19C00112082B38C001121A
:100FA300082B17C20112082B81C20112082BD0C3D0
:100FB3000112082B19C40112082BF9C40112082BC2
:100FC30024C60112082BDAC60112082BDCC7011252
:100FD300082BDEC80112082BC4C90112082BDBC978
:100FE3000112082B18CA0112082B22CA0112082B5E
:100FF3002DCA0112082B4BCA0112082B8DCA0112EC
:10100300082BEBCA0112082B10CB0112082B2ACB99
:101013000112082BB7CB0112082BF0CB0112082BBE
:101023003ECD0112082B90CD0112082BAACE01123E
:10103300082BD1CE0112082B6DCF0112082BE9CF5B
:101043000112082B35D10112082B50D20112082BA3
:1010530016D30112082BC0D30112082B45D4011259
:10106300082BADD40112082B62D50112082BB4D57D
:101073000112082B1AD60112082BE3D60112082BF2
:1010830006D70112082BBED70112082BE2D7011293
:10109300082B04D80112082B65D80112082BB0DAEB
:1010A3000112082B8BDB0112082B35DC0112082BF4
:1010B30076DE0112082BC4DE0112082B07DF0112B2
:1010C300082B5FDF0112082BBDDF0112082BE7DFBE
:1010D3000112082B0BE00112082B3CE00112082B34
:1010E30066E00112082BADE00112082B01E10112A9
:1010F300082B5DE10112082B5EE20112082BC8E305
:101103000112082B06E40112082B2FE40112082B0D
:10111300C0E40112082B0AE50112082B2EE5011287
:10112300082B81E50112082B9CE50112082B57E6D9
:101133000112082B81E60112082BC4E60112082BC9
:101143001AE70112082B26EA0112082B59EA0112A9
:10115300082B16EB0112082BF1EB0112082B81EC83
:101163000112082BC2EC0112082B00800412082B79
:1011730038800412082B59800412082B9B80041218
:10118300082BFF800412082B09810412082B1981F4
:101193000412082B50810412082BF9840412082B23
:1011A300C1860412082BB5880412082B5389041234
:1011B300082BDA890412082B64BF0212082B0DC016
:1011C3000212082BECC00212082B07C20212082BD2
:1011D30027C20212082B49C30212082BE6C40212CB
:1011E300082B53C50212082B29C60212082B2FC73E
:1011F3000212082B94C70212082BD0C70212082B25
:1012030029C80212082B62C80212082BABC80212AB
:10121300082B3DC90212082BDAC90212082BAFCAE8
:101223000212082B7CCB0212082B09CC0212082BCA
:101233002FCC0212082B5CCC0212082B8DCC02128D
:10124300082B62CD0212082B72CD0212082BC5CDDA
:101253000212082BD2CD0212082BDFCD0212082B6B
:10126300E8CD0212082B4CCE0212082BAACE021292
:10127300082BF5CE0212082B10CF0212082B37CF02
:101283000212082B54CF0212082B60CF0212082B34
:1012930004D10212082B1DD10212082B99D102127C
:1012A300082BACD10212082BBCD10212082B62D23C
:1012B3000212082BD2D30212082BE5D40212082BF8
:1012C30085D50212082B8FD50212082BFDD50212E9
:1012D300082B0ED60212082B4DD60212082B7BD6F2
:1012E3000212082B48D70212082B9FD70212082B91
:1012F300E4D70212082B3AD80212082B58D802124C
:10130300082BA6D80212082B74D90212082BC2D9B3
:101313000212082B04DA0212082B87DA0212082BB6
:10132300B1DA0212082BE7DA0212082BF6DA0212FC
:10133300082B54DB0212082BCCDB0212082B0DDC2A
:101343000212082B5CDC0212082B87DC0212082B2A
:10135300A1DC0212082BBBDC0212082B90DD021267
:10136300082B9ADD0212082BD5DD0212082BE5DDCE
:101373000212082B36DE0212082B4ADE0212082B59
:1013830068DF0212082B7DDF0212082B17E002121E
:10139300082B96E00212082B39E10212082B44E1D4
:1013A3000212082B91E20212082BADE20212082B63
:1013B30005E30212082B73E30212082BBFE30212A8
:1013C300082BD9E30212082B39E40212082BD7E4C5
:1013D3000212082B22E50212082B85E70212082BC2
:1013E3001DE80212082B94E80212082BDAEA021213
:1013F300082BF2EA0212082BF5EA0212082B01EB82
:101403000212082B15EB0212082B1DEB0212082BFC
:1014130054EB0212082B48EC0212082BD2EC0212F6
:10142300082B54ED0212082BC9ED0212082BA1EE72
:101433000212082BC3EE0212082B5AEF0212082BDA
:1014430066EF0212082BC3EF0212082BC6EF02123B
:10145300082B35F00212082B81F10212082B94F2AB
:101463000212082B1FF30212082B32F40212082B6C
:10147300FCF40212082B2DF50212082B53F502126D
:10148300082B5CF50212082B8BF50212082B3BF696
:101493000212082BEBF60212082B5EF70212082B3E
:1014A30010F80212082B83F80212082BC2F802125A
:1014B300082B0BF90212082B63E80312082BCEE862
:1014C3000312082B1AE90312082B6AE90312082BEB
:1014D300EEE90312082B32EC0312082B50EE031231
:1014E300082BD0F10312082B0BF20312082B29F25D
:1014F3000312082B89F20312082BB1F20312082BF3
:10150300E2F20312082B0FF30312082B78F30312F2
:10151300082B83ED0112082BFFED0112082B2BEE94
:101523000112082B5DEE0112082BBFEF0112082BED
:10153300DBEF0112082B19F00112082BA6F00112A0
:10154300082B02F10112082BC8F10112082B87F2B4
:101553000112082BCCF20112082B2DF30112082BD8
:10156300A2F30112082BCBF30112082B0CF4011286
:10157300082BB3F50112082B97F60112082B4EF72F
:101583000112082B3BF80112082B75F80112082BE6
:10159300CDF80112082BEFF80112082B87F901127D
:1015A300082B2EFA0112082B40F90212082BA3F97B
:1015B3000212082B4AFC0212082BE7FD0212082B29
:1015C300EAE50412082BFBE50412082B99E6041242
:1015D300082B96DB0412082BA4DB0412082BEC7FE8
:1015E3000012082B53E70412082B63E70412082B9D
:1015F3007EE70412082BE6E70412082BF3E3041238
:10160300082B77E40412082BDDE40412082BE4DE34
:101613000412082B06DF0412082B73DF0412082BB5
:10162300BBDF0412082B33A30212082B6ED504125E
:10163300082B83D50412082BA8D50412082BE0D558
:101643000412082B01D60412082B76D60412082B99
:1016530057D70412082B6CD70412082B77D7041220
:10166300082B2FBF0412082B3DBF0412082BB6BF53
:101673000412082B8BC00412082B4AC20412082B35
:1016830012E90412082B68FF0212082B66B002123B
:10169300082BAFFF0212082BB4FF0212082BB7FF6F
:1016A3000212082BE0FF0212082BE3FF0212082BA1
:1016B30001A50412082B2DA50412082BD3A704128D
:1016C300082B2AA80412082B66A80412082B7AA850
:1016D3000412082B93A80412082B84A90412082BC4
:1016E30060AA0412082B74AA0412082B787E001235
:1016F300082B9C7E0012082BB57E0012082BF37E6C
:101703000012082B297F0012082B5C7F0012082B84
:10171300C87F0012082BCB7F0012082BD57F001245
:10172300082BE27F0012082B2FCB0412082B52CB7D
:101733000412082B9DCB0412082BBBCB0412082BDD
:10174300D6CB0412082B3CCC0412082B48CC041231
:10175300082BA5CC0412082BC9CC0412082B8FCD5F
:101763000412082B9CCD0412082BADCD0412082BB8
:10177300D1E80412082BE9E80412082B0FE904123C
:10178300082B2EAF0412082BC4B00412082BD2B0BE
:101793000412082BE6B00412082B03B10412082B21
:1017A30018B10412082B2BB10412082BADB104128B
:1017B300082B12B20412082BA8B20412082B81B30F
:1017C3000412082B91B30412082BA0B30412082BA4
:1017D300BAE60412082BDEE60412082B06E704120D
:1017E300082B2EE70412082B98C50412082B04C6F5
:1017F3000412082B23C60412082B98C60412082BC4
:1018030062C80412082B7BC80412082B92C8041266
:10181300082B9BC80412082BB9C80412082BC3C891
:101823000412082BCDC80412082BE0C80412082B9D
:101833006DC90412082BD6C90412082B04CA04125A
:10184300082B55CA0412082BA1CA0412082BBCCAC0
:101853000412082BC6CA0412082BD7CA0412082B79
:101863001ACB0412082B8FFF0112082B2A9404129F
:10187300082B56940412082B79940412082B8C9489
:101883000412082BA7940412082B07950412082BA3
:1018930035950412082B39990412082B769A0412F1
:1018A300082BA89A0412082B0F9B0412082B8F9C59
:1018B3000412082BB79C0412082BCC9C0412082B8F
:1018C300DC9C0412082B1C9D0412082B5E9D041241
:1018D300082B6E9D0412082B53E00412082B63E0BF
:1018E3000412082B87E00412082BB0E00412082B23
:1018F300DAE00412082BFEE00412082B15E10412AF
:10190300082B43E10412082B66E10412082B8DE82F
:101913000412082BA1BB0412082BB1BB0412082B21
:10192300CDBC0412082BFFBC0412082B25BD0412E6
:10193300082B4DBD0412082B5FBD0412082B9BBD61
:101943000412082B01BE0412082B3DBE0412082BFF
:1019530082BE0412082BAFBE0412082BDBBE041296
:10196300082B9EE10412082BBCE10412082B1EE293
:101973000412082BCBE20412082BF6E40412082B02
:1019830044DD0412082B95DE0412082BC3F3031263
:10199300082B79F40312082B9EF40312082BBEF4D0
:1019A3000312082BD2F40312082B2EF50312082B73
:1019B30052F50312082BCDF60312082BF5F7031289
:1019C300082BCFF80312082B2CF90312082B62F90A
:1019D3000312082BE4F90312082B3DFA0312082B18
:1019E3005EFA0312082BE0FA0312082B15FB03120D
:1019F300082B78FB0312082B36FD0312082B02FE7B
:101A03000312082B3AFE0312082B8EFE0312082B37
:101A1300CBD90412082BECD90412082B1FDB0412B8
:101A2300082B49DB0412082BDBCD0412082B4FCE05
:101A33000412082B5ACE0412082B7BCE0412082B57
:101A4300FA6F0012082BFD6F0012082BCF700012E3
:101A5300082B0B710012082B4B710012082B7D71A0
:101A63000012082BAB710012082BE8710012082B2F
:101A730016720012082B14730012082B5B730012EA
:101A8300082B9D730012082B16740012082BB374D5
:101A93000012082BD6740012082B40750012082B75
:101AA300AE760012082B66770012082B53780012CB
:101AB300082B40790012082BF9790012082B2E7A93
:101AC3000012082B9A7A0012082B357B0012082B80
:101AD300637B0012082B0B7D0012082B897D0012FB
:101AE300082BC97D0012082BA7D70412082BCAD7CD
:101AF3000412082BBBD80412082B9BD90412082B01
:101B0300A2FE0312082BD8FE0312082BF4FE0312C5
:101B1300082B36FF0312082B46FF0312082BD9FFAD
:101B23000312082BE3FF0312082BE6FF0312082B13
:101B3300868A0412082B908A0412082BD78A04126F
:101B4300082B408B0412082B618B0412082B7A8B11
:101B53000412082B2C8C0412082B968E0412082BCB
:101B63009F8E0412082BF08E0412082B268F04126A
:101B7300082B3D8F0412082BAA8F0412082B3A90CE
:101B83000412082B70900412082BB9900412082B2E
:101B93001A910412082B54910412082BBC910412BD
:101BA300082B0F920412082B52920412082B8F92C7
:101BB3000412082BA1920412082BB3920412082BCF
:101BC300D2920412082BDB920412082BA093041266
:101BD300082BEC930412082B7BFA0112082BC1FB90
:101BE3000112082BEAFB0112082BFBFB0112082B45
:101BF30013FE0112082B33FE0112082BF0E7041227
:101C0300082B2AD30412082B60D30412082BAFD35A
:101C13000412082B0BD50412082BDCC80312082B63
:101C23001ACA0312082B56CA0312082B25CC031217
:101C3300082B4FCC0312082BE6CE0312082B26CF1A
:101C43000312082BBCD00312082B51D10312082B0B
:101C5300AFD10312082B35D20312082B6DD2031216
:101C6300082BAFD20312082B20D40312082BA4D5C0
:101C73000312082BCDD70312082BFBD70312082B13
:101C830027D80312082B30D80312082B86D8031247
:101C9300082B16D90312082B19DC0312082B9BDC23
:101CA3000312082BDAFF0112082BF0FF0112082B95
:101CB300D1B30412082BEAB30412082B8FB4041215
:101CC300082BCFB40412082BE8B40412082B1BB55D
:101CD3000412082B68B50412082B9CB50412082BB8
:101CE300DEB50412082BC7B70412082BE0E2041276
:101CF300082B52E30412082B90E30412082BD1E3C0
:101D03000412082BE29E0312082B3A9F0312082B9E
:101D1300C29F0312082BCAA00312082BA8A1031207
:101D2300082B4FA20312082B9BA20312082BF4A229
:101D33000312082B49A30312082BB8A30312082B81
:101D4300F8A30312082BF4A40312082B4FA50312C4
:101D5300082B6BA50312082BBBA50312082BF4A5B4
:101D63000312082B13A60312082B5EA60312082BDB
:101D730074A60312082B8BA60312082BBAA6031210
:101D8300082BCCA60312082B97A70312082BA2A794
:101D93000312082B1CA80312082B6FA80312082B8D
:101DA300AEA80312082BDFA80312082B42AB0312C1
:101DB300082B73AB0312082B95AC0312082BB9AC99
:101DC3000312082B34AD0312082B06AE0312082BA3
:101DD30048AE0312082BB2AE0312082B5DAF0312F9
:101DE300082B87AF0312082B91AF0312082B9BAF6D
:101DF3000312082B9EAF0312082B06B00312082B05
:101E03003FB00312082B52B00312082B7FB003120A
:101E1300082BBAB00312082BBDB00312082BC7B0AE
:101E23000312082BF6B00312082B10B10312082B70
:101E33002BB10312082B5AB10312082B7AB10312E8
:101E4300082BB7B10312082BF2B10312082BFEB211
:101E53000312082B40E80412082B58E80412082B3D
:101E6300FAFF0112082B9E9D0412082BED9D04120C
:101E7300082BAB9F0412082B7FA10412082BBDA1D2
:101E83000412082BC8A20412082BD2A30412082B95
:101E9300F4A30412082B50A40412082BD1A4041297
:101EA300082B00800312082B1F800312082BB0801D
:101EB3000312082BF9800312082B57810312082BF6
:101EC300D2810312082B49820312082B9A82031230
:101ED300082B00830312082B92830312082B0A8416
:101EE3000312082B49840312082BB1880312082B11
:101EF300CE8A0312082B078B0312082B468B03127F
:101F0300082BD88C0312082BDB8C0312082BA28D11
:101F13000312082BCC8E0312082BC6900312082B36
:101F230047930312082B16940312082B34950312BC
:101F3300082B7E980312082B8E980312082B129AF3
:101F43000312082BB09A0312082BE99B0312082BE8
:101F5300599C0312082BB79D0312082B1E9E0312D4
:101F6300082B5DB40312082BF8B40312082B6BB5CE
:101F73000312082B7BB50312082B03B60312082B9D
:101F83005FB60312082B9AB70312082BBEB70312CE
:101F9300082B35B80312082B86B80312082BE4B8B4
:101FA3000312082B3FB90312082BECBB0312082BB7
:101FB300E3BC0312082B59BD0312082B30BF0312D5
:101FC300082BD3BF0312082B8CC00312082BF1C0BC
:101FD3000312082B60C10312082B83C20312082BC0
:101FE30049C40312082B69C50312082BF6C5031253
:101FF300082B66C60312082B78C70312082BF8DCDC
:102003000312082B5DDD0312082BA5DD0312082B39
:10201300F8DD0312082B5EDE0312082BC0DE031269
:10202300082B35DF0312082B6CE00312082B94E016
:102033000312082B72E10312082B83E10312082B0E
:102043009BE10312082B92E20312082BD2E2031244
:10205300082BDBE20312082BF2E20312082B10E336
:102063000312082BEDE30312082BA7E40312082B3A
:10207300B1E40312082BB3E50312082B9EE6031207
:10208300082B40E70312082BADE70312082BC2E726
:102093000312082BAFC20412082B62C30412082BCD
:1020A3002AC40412082B92C40412082B06C5041276
:1020B300082BD4B70412082BF2B70412082B36B836
:1020C3000412082B5CB80412082B7EB80412082BE8
:1020D30096B80412082BAEB80412082BC6B8041223
:1020E300082B70B90412082BB2B90412082BBCB91F
:1020F3000412082BD1BA0412082BDABA0412082BE3
:10210300E3BA0412082BECBA0412082BF6BA041231
:10211300082B88AA0412082BB4AE0412082BC2AEF3
:102123000412082BC7AE0412082BB0D10412082BDB
:1021330081E90412082B4AE90412082BADE90412C1
:10214300082BD6E90412082B09A30212082B51A26B
:102153000212082B84A00212082B54A00212082B8F
:1021630018A00212082B04A00212082B459F02128A
:10217300082B929E0212082B419C0212082B169CDC
:102183000212082BB79B0212082B289A0212082B63
:10219300B6990212082B93990212082BD7980212B0
:1021A300082B7A970212082B31970212082B0B97F0
:1021B3000212082B47960212082B91940212082B45
:1021C30031940212082B02940212082BFF9302127D
:1021D300082BEA930212082B57B00212082B44ADC6
:1021E3000212082B91AA0212082B58A90212082BDB
:1021F30079A80212082BA5A60212082BAA93021291
:10220300082B91930212082B9B920212082B5A92CD
:102213000212082B66A40212082BE7910212082B64
:10222300B4910212082B59910212082B2891021221
:10223300082B05A40212082BF18D0212082BACFF08
:102243000212082B038D0212082BBD8B0212082BDE
:10225300698B0212082B5D8B0212082BC48A0212AF
:10226300082B92890212082BED860212082B908408
:102273000212082B44840212082B29830212082B12
:10228300BE820212082BE8810212082BA4810212DB
:10229300082B6B800212082BACA30212082B32808E
:1022A3000212082B00800212082B14E00400000025
:1022B30080FBE473000136360101000102010001D5
:1022C30003010001040106060502000007010034B2
:1022D3000801000F090401010D0100FF0E080000B1
:1022E30017020000190100FF1A0100011B0100FE83
:1022F3001C0100081D0200001F0100012001000154
:10230300210200002301000F240200002601000126
:1023130027010008280200FF2A0100072B010240C1
:102323002C0100002D0100012E0100012F0100FFEF
:1023330030010B1C310800003A0100083B01000F7B
:102343003C0100013D0100FF3E0400004204000087
:10235300460400004A0400004E040000520400003A
:10236300560400005A0400005E20FFFF36000100FF
:10237300060000000F000000000000000000000045
:10238300000003FFFF00000403FFFF0000FFFF0F37
:10239300F4010005C4040320000100000B00000049
:1023A300000000000003010F000000000000000017
:1023B300000000000000000000000000000000001A
:1023C300000000000000000000000000000000000A
:1023D30000000000000000000000000000000000FA
:1023E300000000000000000000000103710301036E
:1023F3000103010301030103220302030103100389
:10240300000300030003000300030003000342036F
:10241300000324030603000300030403120325033C
:10242300230325032303040304030003000300031E
:102433004403000300032303000365032100350362
:1024430081030003050300030003000300032503C6
:1024530023030304710402046004110470040204DE
:10246300020401040204100461040004140463045C
:102473007304720462044304000413040604000496
:1024830000040404120400040004000400045104C2
:102493006400000400040004440400040004000475
:1024A3000004650400043504810464000504000489
:1024B30083040004030271023001600211027002FE
:1024C3000102020202028002100261023A0041008C
:1024D30063027302720262024302000213023800B3
:1024E30000020002040212020002000200020002C3
:1024F30004020402370037003C02440200023900A0
:102503000002000265020002350281020002050298
:102513008202830200020300710030016000110097
:10252300700031022003500480001000610000009D
:102533001400630073007200620043000000130084
:10254300060000000000040012000000000000006C
:10255300000004000400370037003C024400000080
:10256300000000000000650000003500810000004D
:102573000500000083000000010171010101010158
:10258300110101013101010101018001100161010A
:102593003B001400630173017201620143010001F6
:1025A300130106013D013500040112010001000180
:1025B3000001000104010401330133013C01440122
:1025C300320136000001000165010001350081017F
:1025D300000105018201830100010000A41F130013
:1025E300141F0100A41F0200C61E0300CC1E04001A
:1025F300D21E0500D81E0600E41E1100081F140099
:102603000E1F1500F61E1F00FC1EFFFF00000188B1
:102613000E06B80E08B20E0BC40E10FE0D028E0E7F
:1026230005A60E07940E0C700E0D7C0E64420CFF73
:10263300000007ECFDFDFDECDCDCCCBCACAC9C9CF1
:102643008C7C7C6C6C5C5C5C4C4C3C3C2C2C1C1C77
:1026530003EAF5E5D5D5C5B5A59595858575756564
:1026630065555545453535252515150500160F00C6
:10267300000B150B020002220F3300000E5A69678C
:10268300426565416C6C69616E63653039010305B0
:1026930007090B0D0F00020406080A0C0D30301752
:1026A300181921301B1D1F30303016181920231A1A
:1026B3001C1E3000393D3F373C3C362C442D000373
:1026C3004A49434E181A2505020001191618161611
:1026D300182303000C0E020B040B0A0708000F0259
:1026E3000402010101010902000000000000E803E7
:1026F300000000BE040A3C00000000003C007F0014
:10270300E8030E000A0305080910040008FF1E1E53
:102713000C05280903040400081501030CC082C03A
:10272300837900EA1229253BF583C082C083900395
:1027330042126D2AD083D082C3E09CA3E09D500C4B
:10274300EA240B122772122752600109023DD9EACB
:1027530075F00BA4FAA8F075F00BEBA428FB90031B
:1027630044E02AF8A3E03B8882F583E0540F22F586
:1027730082E43B124F232274F712037F8908124528
:10278300BCA3E0F9E875F00BA4F8ACF075F00BE925
:10279300A42C1229A0E8FEE9FF7401650860067401
:1027A30002650870228A828B83122CCC740265081E
:1027B3007021EA2403FA50010B120B9AE970148E6C
:1027C300828F83E4F0800CEA2403FCE43B122CC3E5
:1027D300120B948E828F83E0D2E7F0121DEE024239
:1027E3006474F412037F122D8679008E828F83E046
:1027F3006075890A890B8064E50A75F00BA4FAA851
:10280300F075F00BE50B12275E7049E50A75F00BC6
:10281300A4F8AAF075F00BE50B1229818E828F8341
:10282300E0850882850983123D8D122C43EE240333
:10283300FCE43F122918120B941243F71259541255
:10284300377DD2E7F0121DEE7901900342E0F50ADD
:10285300A3E0F50B050AE50A7002050B122B9FE5B1
:102863000A9AE50B9B40910248AA74F512037FEA8A
:10287300FEEBFF750A01740B120AFD123370EC4D67
:102883006015EC1229253D122D947901120B7CE57C
:1028930008450960758023E508450960441229232A
:1028A3003509122D94122919120B9AE96401701B30
:1028B300EEFAEFFB120B82E9F50A8508828509839C
:1028C300122C3B7902AA08AB098011122CC4120BFB
:1028D3009AE9640170347903EEFAEFFB120B7C8002
:1028E300298E828F83A3E064FE7003A3E0F4700B50
:1028F300122CC4120B9AE96401700CEEFAEFFB126E
:102903000B82E9F50A8003750A000231FCE50A240B
:1029130003FCE4350BFDE5082403FAE43509FB2247
:10292300E508125D592274F712037F9003421245A2
:1029330014EA4B602FEA75F00BA4FAA8F075F00BBC
:10294300EBA428FBEAFEEBFF121C0E900344124596
:1029530014900344124F0E6012EEFCEFFD79001247
:102963001B428007900344E4F0A3F0024264F9029F
:10297300310FE875F00BA4F8AAF075F00BE9A42A5F
:10298300F9900344E028F508A3E039F50922F9E8B2
:1029930075F00BA4F8AAF075F00BE9A42AF99003DB
:1029A30044E028F8A3E039F92290034212424BC3D2
:1029B300EE98EF9922C082C083EC4D6005121CFE95
:1029C30080097C087D007900121B42023DD974F610
:1029D30012037F7900EA4B60177800EA28F582E456
:1029E30012566B60047901780808E8C3940840EB39
:1029F30002310F74F712037F74F312090AECFEED30
:102A0300FF851882851983E4F004120AFDEAF0A316
:102A1300EB12423D120BB87403120AFDAC82AD8374
:102A2300EEFAEFFB120B94EEFAEFFB120B9A024253
:102A33005F74F712037F74F312090AECFEEDFF854E
:102A43001882851983E4F0EAFCEBFD7403120AFD96
:102A5300AA82AB83120B94AA18AB19120BBE740192
:102A6300120AFD123D9A8E828F8312422E74FE68E3
:102A7300700374FF69600479018002790002425F88
:102A830074F712037FEAFEEBFF120B76E9F5087485
:102A93000165087011122AECF4FA88828983E05ADE
:102AA3004480F0121DEE0236F274F712037FEAFE41
:102AB300EBFF7508008E828F83E0602A120B76E9A4
:102AC300F50874016508701E122AECFA888289835E
:102AD300E05A70128E828F83E04480FA8882898361
:102AE300E04AF0121DEE0236F21243FB1238CA120C
:102AF30029918E828F83E02274F412037F8A088BDC
:102B0300097C007D00EA12291B120B94E508122CA4
:102B13005D7900850882850983A3E064FE7003A3C1
:102B2300E0F460757E007F008066EEFAEFFB12270B
:102B3300526058EEFAEFFBEA75F00BA4FAA8F075B1
:102B4300F00BEBA428FB900344E02AF50AA3E03B37
:102B5300F50B850882850983A3125646850A82856B
:102B63000B83A3E06A7003A3E06B701FE50A2403E1
:102B7300FAE4350BFB120B9AE96401700612291073
:102B8300120B94122C527901126B5E0EEE70010F30
:102B9300122B9FEE9AEF9B40910248AA9003421298
:102BA3004F25C32274F312037F8A088B098A828B11
:102BB30083122C3BEA122C5D750C00EA12291B12BE
:102BC3000B9AE96401706A7E007F00805FEEF8EF84
:102BD300F9E875F00BA4F8AAF075F00BE9A42AF94B
:102BE300900344126BD0E0540F603CEEF8EFF9E829
:102BF30075F00BA4F8AAF075F00BE9A42AF9900379
:102C030044E028F50AA3E039F50B122910121CF849
:102C1300E964017012850A82850B83122C43122CFE
:102C230052750C01126B5E0EEE70010F1229AC404F
:102C33009CA90C7F050205DBA374FEF0A304F0221C
:102C4300A312424B850882850983A3123AB622E573
:102C530008122C67EEF0A3EFF022122C6774FEF03B
:102C6300A304F022125D5D3509F5832274F5120386
:102C73007FEAFEEBFF8E828F83122C3B7C007D006C
:102C8300122CC4120B94EEFAEFFB120B76E9F50A41
:102C93007401650A7027124244122975850882F56A
:102CA30083122CCC122919120B9AE96401700EE5D8
:102CB300082403FCE43509122CC3120B940231FCE3
:102CC300FDEE2403FAE43FFB22A3125650123AB658
:102CD3002274F212037F74E612090A122D86750C10
:102CE30001750800750900750A00750B00851882C7
:102CF300851983E4F0EE2403FCE43FFD7403120A18
:102D0300FDAA82AB83120B94AA18AB19120BBEE96E
:102D13006401701F740B120AFD122D967401120ABE
:102D2300FD12564A7003A3E069604AA818A91988DE
:102D3300088909740D120AFD123D8CA3123D9A7481
:102D43000E120AFD12422E740D1208E4120BB8E99A
:102D530064017009740D1208DC880A890B780A1261
:102D63000848AC08AD09EEFAEFFB120B88740212A7
:102D73000876E9F50CEEFAEFFB120BB2A90C741A04
:102D83000255A6EAFEEBFF1243FB74FEF0A304F028
:102D930022F5831238CAF91243FB123AB622C082D3
:102DA300C08378007900800508E8700109122B9F21
:102DB300E89AE99B5029E8FAE9FBEA75F00BA4FAD3
:102DC300ACF075F00BEBA42CFB900344E02AFCA3BE
:102DD300E03B8C82F583E0540F70CD79008002795B
:102DE30001023DD9C082C08390271CE49375F0167D
:102DF300A4FCADF079FF7A217B09121B42023DD975
:102E030074F612037FEAF87508007D008012ED1254
:102E1300565DC3994009E0FAE8C39A400205080DDC
:102E230090271CE493FAEDC39A40E3AA087B0002BF
:102E3300310F74F012037F74F312090A8A0C8B0D9D
:102E43008C088D09890AEC45096016AA08AB09129A
:102E53000C068A0E8B0FAE0EAF0FEE4F6003022FE0
:102E6300287B0080010B12594A500F122FD070F5A6
:102E7300742128FE740939FF80047E007F00EE4F21
:102E83007003022F7C9026FD122FA360217403652B
:102E93000A60067404650A70157A047903120BDC60
:102EA30090271CE493FC9026FD122FA9502990260D
:102EB300FB122FA360287401650A60067402650A79
:102EC300701C7A027901120BDC90271CE493FC90AE
:102ED30026FB122FA940077A007B00022FA085183A
:102EE300828519837401F0120AFDE50CF0A3E50D48
:102EF300F0AC08AD097403120AFDAA82AB83120B6E
:102F030094AA18AB19120BCA740B120AFD123AAF2A
:102F13008E828F83A3A3A3A3A3A3E4126D26AA0C7B
:102F2300AB0D1210CE7800E50A6007C3940550027A
:102F330078048E828F83E50CF0A3E50D12630AE516
:102F43000AF0E88E828F83A3A3A3A3A312595B5035
:102F530001097A027B0012022F1233B6A31255869F
:102F6300A31233FAE50A600DC394035008123385A4
:102F7300122FC1800312339CF07A047900120BDC08
:102F83008A0890271CE493FAC3E5089AEB9400405F
:102F93000590104AE4F0120FA8EEFAEFFB02335A41
:102FA300122FB9E84922122FB9ECC398F8E499F922
:102FB300C3EA98EB9922E493F8740193F922F9EEAA
:102FC3002414F582E43FF583E8F0A3E922EB75F0DE
:102FD30016A4F8A9F01233EFF42274F212037F74EB
:102FE300F312090A8A088B09ECFEEDFF750A00EE5D
:102FF300FAEFFB120C068A0C8B0DA80CA90DE849FD
:1030030070030230A188828983E065087004A3E01D
:10301300650970030230A188828983A3A3A3A3E077
:10302300C3940550798882898312618A124678E0B5
:10303300603488828983A3A3A3A3E0C394035026A7
:103043009026F9E493FA740193FB1235F09026FF6E
:10305300E493FA740193FBE82414F582E439F583CD
:10306300EAF0A3EB800DE824121230A8F0E8241450
:103073001230A8F08518828519837401F0120AFDB5
:1030830012618AF0EEFCEFFD7403120AFDAA82AB13
:1030930083120B94AA18AB19120BCA750A01A90A59
:1030A300740D0255A6F582E439F58374FEF0A3048A
:1030B3002274F612037F120C008A088B09A808A950
:1030C30009E849601488828983A3A3A3A3E0600964
:1030D300C394055004790180027900802F74F6129D
:1030E300037F120C008A088B09A808A909E8496024
:1030F3001488828983A3A3A3A3E06009C394035024
:103103000479018002790080031208767F020205A8
:10311300DB74F612037F120C008A828B83E58245EF
:1031230083600BA3A3A3A3E0700479018002790059
:1031330080DAC082C083EAFCEBFD7A007B00023DAB
:10314300D6C082C0837C007D00023DD674F5120395
:103153007F74F312090AEAFEEBFF8C088D09C3ECB6
:1031630094F8ED94FF4004EE4F606A750A008019ED
:1031730074FF6508700474FF6509600B126487703F
:1031830004A3E06509603B050A90271CE493F8E576
:103193000AC3985040E50A122FD160EBEE4F60D07E
:1031A3001231E3120AFD124239120BC4E960D874DA
:1031B30003120AFDAC82AD83EEFAEFFB121CF8E9B1
:1031C30060C5E50A75F016A4F8A9F0742128FA740D
:1031D3000939FB80047A007B00740D120876801B8A
:1031E3008518828519837401F0742328F582740984
:1031F30039F58312424B740B22A90A7F030205DBC4
:1032030074F412037F74F312090A750800120C0692
:103213008A0A8B0BAE0AAF0BEE4F601F1232661297
:1032230031F6120AFD124239120BAC7C167D00797D
:10323300FFEEFAEFFB121B427508017A04790012C4
:103243000BDC8A0A90271CE493FAC3E50A9AEB94F1
:1032530000500990104A7401F0120FA8A908740DC8
:103263000248A78518828519837401F08E828F83A3
:10327300A3A32274F712037FE9FC74FE6A7003743C
:10328300FF6B7D007003802C0D1232D85026ED1297
:103293002FD160F4126F6B6A7003A3E06B70E98047
:1032A30012ED75F016A4F8A9F0126F5E6018E064D1
:1032B3000360130D1232D85015EC60E51233E3604E
:1032C300F2C3940550ED1266CB12564380047AFE86
:1032D3007BFF02426490271CE493F8EDC39822120B
:1032E3000C18023DD9C082C083790180F274F012B8
:1032F300037F8A0A8B0B7A047901120BDC8A0C8B0D
:103303000DEA450D6040EA2AFAEB33FB121C0E8AE4
:10331300088B09AE08AF09EE4F60267AFE7BFF12D9
:103323000C1E74FE6A700374FF6B601E8508828531
:103333000983124514E5082402F50850E2050980C3
:10334300DE750C0080047E007F00850A82850B8376
:10335300E50C1244488005740D1208767F080205B7
:10336300DBE493F8ECC39822126D2EEC22E0F5080F
:10337300A3E0F509221208767F0C0205DB7F070222
:1033830005DB9026F9122FB9EE1266C2123AB690F7
:1033930026FFE493F874019322EE24121233AAF069
:1033A300EE24141233AA22F582E43FF58374FEF06F
:1033B300A30422E88E828F83A3A3A3A3A3A3A3A31F
:1033C3001233DB74011233DBA374AAF0EE2410F57D
:1033D30082E43FF583E4F02212632DA3A3A3A32287
:1033E300ED75F016A4F8A9F01233EF22742528F531
:1033F300827409126E1A22A3F01243FBE4F0EE2446
:103403000CF582E43FF583E4F0A3F0A3F0A3F022EC
:10341300C082C0837D008009EA24FF1AEB34FFFBDE
:103423000D1232D850161233E3C3940550F2EA4B0F
:1034330070E6742128FA740939FB80047A007B0052
:10344300023DD974F712037F74F312090A7E000256
:1034530034DEEF75F017A4F8A9F0126F4112572C60
:1034630075F016A4FAABF074212AF5827409125987
:103473007E7003A3E0696040EF75F017A4F8AAF02B
:10348300EAF9126F4139F583123D9A7401120AFD6C
:10349300E0687003A3E069601FEF75F017A4F8EA12
:1034A300F974F128FC740A39FD7403120AFDAA8227
:1034B300AB83121CF8E96013EF75F017A4F8A9F0B9
:1034C30074EF28FA740A39FB1210DA0F90270CE410
:1034D30093F8EFC39850030234550E90271C126AD9
:1034E300B0501FEE126F64F47003A3E0F460EB12AC
:1034F30031E3120AFD124239120BC4E960DC7F008A
:1035030080CA02425F74F712037F74F312090A90B0
:103513000415124F0E70030235B4750800802BE5B5
:103523000875F016A4F8EAF9743528F582740912BF
:103533006E1664FE7003A3E0F4600D743328F58205
:10354300740939F58312559C050890271C1255659B
:10355300505FE50875F016A4F8AAF0EAF91233EB08
:1035630060E6C3940350E1743328F5827409124F63
:103573000B70ACE50875F016A4F8EAF9742128F885
:10358300740939F9E8FEE9FF12365212364812225D
:10359300B51232661231F6120AFD124239120BC409
:1035A300E960A57403120AFDAA82AB83120C128090
:1035B3009702425F74F612037F120C008A088B098C
:1035C300A808A909E849602088828983A3A3A3A343
:1035D300E06011C39403500CE82414F582E41256FE
:1035E300431235F079018002790002310FE8241289
:1035F300F582E439F583EAF0A3EBF02274F71203C2
:103603007FEAFEEBFF90040F124F0E60309004151B
:10361300124F0E6028900419124F0E602012680C8E
:103623001222B5E970171236431222B5E96401700C
:103633000C8E828F83A3A31267F91222B502426410
:10364300123652A3A3124F25900415126803229039
:1036530026FFE493FC740193FD8E828F8322C08244
:10366300C08390034B74A0F0A3740EF090034D74C9
:103673009AF0A3740EF090035174B4F0A3740CF099
:10368300023DD974F712037FEAFEEBFF900385E056
:103693006408601CE0640460178E828F83E0540327
:1036A300640170411252FEF81236F7E06406703579
:1036B3008E828F83A3A3E064FE7003A3E0F46025EE
:1036C3008E828F83A3A3125D3F7003A3E06970080A
:1036D300EE2415125D346005120F488003120F4E5D
:1036E300E9F50880037508C2EEFAEFFB121C14A972
:1036F30008024264A3E0F58388822274F412037FF4
:103703008A088B091238C6FAE82AFAE43400FB1255
:103713001C0E8A0A8B0BAE0AAF0BEE4F6055850861
:1037230082850983E0FC7D007900121B428E828F23
:1037330083A3122C3B120F848E828F83A3A3A3A394
:10374300EAF0A3EB12377DF8EE28F8E43F122D9947
:10375300850882850983A3E0C0E0125940D0E0F0D8
:10376300120F96125936E9123AA5E0C0E0123A9BBD
:10377300D0E0F0EEFAEFFB0248AAF0850882850953
:1037830083E02274F412037F74E812090A8A088B17
:10379300098C0A8D0BE9FE900385E064046005E063
:1037A3006408700479C2803CA37808120A94EE90EE
:1037B300038C123A09121B428518828519837808F3
:1037C300120A947405120AFDEEF07404120AFD74D1
:1037D30001F07407120AFDE4F090038574021242AB
:1037E3003D1220DC0248A574F412037F74E8120929
:1037F3000AEAFEEBFF900346124F0E60030238C144
:103803007A077B00121C0E90034612451490034660
:10381300124F0E70030238BD8E828F83120ADA9024
:103823000346E0FCA3E0F5838C82120ACEEE240467
:10383300F50AE43FF50B850A82F583E0C0E09003C7
:1038430046124EE2A3A3A3D0E0F0EE2405F508E46C
:103853003FF509850882F583E0C0E0900346124EE8
:10386300F0D0E0124233C0E09003461238CAC824B5
:1038730006F582E438F583D0E0123A09121B428E32
:10388300828F83120ADA851882851983120ACE85FC
:103893000A82850B83E0C0E07405120AFDD0E012B2
:1038A300377DC0E07404120AFDD0E0F07407120AF9
:1038B300FDE412423D1220DC80067910800279017A
:1038C3000248A58A828B83E0F8A3E022C082C083EA
:1038D300900346124F0E6010900346125646121C78
:1038E30014900346E4F0A3F0120EBE12107A023DC8
:1038F300D974F412037F74E812090A8A0A8B0BEC59
:10390300FEEDFF89087428120AFDE0FC7429120AEF
:10391300FDE0FD740F6C7005740F6D60129010C0A4
:10392300E064026005ECC39D500579C1023A067458
:1039330024120AFD120ADA900386120ACEE50890D1
:10394300038CF0EC90038AF0EDA3F0742A120AFDC5
:10395300E090038DF074FF650A700474FF650B70CB
:10396300249010D2E0F47003A3E0F4700C121B5AFD
:10397300900383EAF0A3EB80129010D21266E8E87A
:10398300F0A3E98006900383125954F0EE4F6017B9
:10399300EEFAEFFB12112EE96401700BEEFCEFFD62
:1039A3007A977B03121CFE900376E4F0A3F0900356
:1039B30079F0A3F0900396F09010C0E064027008D1
:1039C30090038A740FF0A3F09003857405123A09EB
:1039D300121B427404120AFDE4F0900386120ADA01
:1039E300851882851983120ACE90038CE0C0E07497
:1039F30005120AFDD0E0F07407120AFDE412423DFD
:103A03001220DC0248A5F07C187D007900AA18ABCF
:103A13001922C082C08390034AE07003121F02126E
:103A23000C78023DD974F012037F90034AE09010A2
:103A330049700FE060057900121DB8901049E4F059
:103A4300804AE06401600890034AE0F9121DB890CF
:103A530010497401F090034AE0F46030E0F50CE49F
:103A6300F50DF50EF50FF090840E7808120AB27872
:103A73000C7908120290780C1208407A807B00902F
:103A830003D0E0F9121CC874041208767A497B103B
:103A930079411220C402335FEE2411F582E43FF52D
:103AA3008322F0850882850983A3A3221259761203
:103AB3003AB622E8F0A3E9F02274F612037F74E227
:103AC30012090A851882851983ECF0A3EDF0EAFE4A
:103AD300EBFF8908900385E064046005E0640870E7
:103AE3000579C2023BE67429120AFDE064FE700305
:103AF300A3E0F4700579C3023BE67C197D007900ED
:103B030074051208E4121B42900385740312423DAC
:103B130079501220C474291208E4794B1220C48509
:103B23001882851983123BFFE508900378F0742906
:103B3300120AFD123BF57428120AFDE0F509900301
:103B430070123BEB121CFE74CE55094480C0E07426
:103B53001D120AFDD0E0F0742B120AFDE00490035D
:103B630096F0741A120AFD7402F07429120AFD12F7
:103B73003D9A7412120AFDE8F0A3E9123D93741BF7
:103B8300120AFD12422E7410120AFDE508F0740D9C
:103B9300120AFDE4F090038B740FF07A8B7B0379A8
:103BA300541220C490038A740FF07A8A7B037947F6
:103BB3001220C490038AE0C3940F501F7410120A9A
:103BC300FDE0C0E07402120AFDD0E0F07404120AB2
:103BD300FD7401F0041208E41220E874051208E4ED
:103BE3001220CA741E02310CF0EEFCEFFD7A977BB3
:103BF300032212424B900379123AB6221266EC1258
:103C03003AB62274F712037FEB90038DF0120EACD9
:103C130002426474F712037F74E912090AEAFEEBA5
:103C2300FF7508008E828F83A3A3A3E0C0E0740610
:103C3300120AFDD0E012326EE0C0E07408120AFDF1
:103C4300D0E0F07409120AFD7401123D8D124F0E7B
:103C5300600D8E828F83125646120B9AE97035746B
:103C630007120AFDE4F0120F7E7404120AFD1245D6
:103C730014900385E06404700E120F8A7402120A12
:103C8300FDEAF0A3EB80487402120AFD74FDF0A371
:103C930074FF803BAC18AD198E828F831256461287
:103CA3000BA68E828F83A3A3A3A3E07030740712A5
:103CB3000AFD7401123D937402120AFD12422E8E04
:103CC300828F83123D9A7404120AFDE8F0A3E9F08F
:103CD30074021208E4120FC6E9F508803E123D94FF
:103CE300740A120AFD12422E7414120AFD12326C67
:103CF300A3E0C0E07415120AFDD0E0F07416120AB6
:103D0300FD123D8C126D2A740C120AFDAA82AB833C
:103D1300121CFE740A1208E4121DD0A908741702BB
:103D2300426174F712037F74F812090AEAFEEBFF8B
:103D33007900900385E064086005E06404704585BC
:103D4300188285198374FDF0A374FFF0120F7E743B
:103D530002120AFD1245147405120AFD123D8CA3CA
:103D6300E0C0E07404120AFDD0E0123D8DE0C0E033
:103D73007406120AFDD0E0F07407120AFDE4124241
:103D83003D120FC67408024261E4F08E828F8322D3
:103D9300F085188285198312424B22C082C083901A
:103DA30003577450F0A3740DF09003FD7420F0A337
:103DB3007410F090035B7486F0A3740DF090035DB0
:103DC3007450F0A3740DF090035F748CF0A3740D22
:103DD300F08003120C0CD083D08202082874F412F2
:103DE300037F74F912090A8A088B098C0A8D0B85E3
:103DF30018828519837808120A947404120AFDE95B
:103E0300F07405120AFDE4F07406120AFDE412428E
:103E13003D120C6074070248A774F512037F8A08E9
:103E23008B098A828B83126B61EE4F7003023FD43E
:103E3300900314124F0E60158A828B83A3A3E0F9BB
:103E4300EEFAEFFB9003151236F81222B58E828F2D
:103E530083A3A3A3A3A3A3A3A3A3E0640260030276
:103E63003F3D8E828F83A3A3A3A3A3A3E054027039
:103E730003023F61850882850983A3A3E064E97097
:103E830003023F61850882850983A3A3E064CD70A3
:103E930003023F61850882850983A3A3E064F07070
:103EA30003023F618E828F83A3A3A3A3A3A3A3A330
:103EB300A3A3E070169010C4E0048E828F83A3A3A3
:103EC300A3A3A3A3A3A3A3A3F08010123FE5120F00
:103ED300F6E970077A307B01121E60850882850936
:103EE30083A3A3E0701F750A0080097A367B011251
:103EF3001E60050A850882850983A3A3A3E0F8E56C
:103F03000AC39840E68E828F83A3A3A3A3A3A3A38C
:103F1300A3126321A3A3A3A37404F09010C51259A1
:103F230070E8123FD7121CDAEA4B4C4D700C7A2022
:103F33007B009003D0E0F9121BA28E828F83A3A390
:103F4300A3A3A3A3A3A3A3E0640260128E828F831F
:103F5300A3A3A3A3A3A3A3A3A3E0640670738E8266
:103F63008F83A3A3A3A3A3A3E0A2E0506485088245
:103F7300850983A3A3E0F9EEFAEFFB1221608E8299
:103F83008F83A3A3A3A3A3A3E054FEF0123FE512E0
:103F93000FF6E9850882850983A3A3702AE07023BD
:103FA3007A2F7B01121E607E00850882850983A318
:103FB300A3A3E0F8EEC39850187A367B01121E6073
:103FC3000E80E67A318005E070077A2D7B01121EA0
:103FD300600231FEF0A3E9F07A207B009003D0E089
:103FE300F9228E828F83126803124F252274EC12FA
:103FF300037F74DB12090AEAFEEBFF8C108D117547
:104003000E0074051208EC120B1C7412120AFDE068
:1040130070087415120AFDE060207405120AFDE0B1
:10402300A2E6501B8E828F83A3A3A3A3A3A3A3A360
:10403300A3125646120FF6E960057A350241397428
:1040430005120AFDE0540C64047005750D0180032C
:10405300750D00E0A2E55030750E01E50DA2E040BC
:1040630027120F848A088B09A808A9091252FE682F
:104073007003A3E069601174051208EC125D4E121F
:10408300217EE960030241377405120AFDE0A2E6CE
:1040930050227406120AFDE0540370187405120AC4
:1040A300FDE0540C640C600CE0540C64086005756E
:1040B3000C018003750C007405120AFDE05403F82B
:1040C300740268700E74051208EC125D4E120B2E0A
:1040D3000242237401687041E50CA2E0500B7405A1
:1040E3001208EC125D4E120B2274051208DC7403E5
:1040F300120AFDE8F0A3E912424385188285198369
:10410300E8F0A3E9124233C0E07402120AFDD0E0E2
:1041130012423D122286024223E8600302422390A8
:10412300036DE0640170178E828F83A3A3A3A3A3FF
:10413300A3E0700A7A347B01121E600242237424C6
:10414300120AFD7402124243741C120AFD12422E1B
:10415300E50CA2E0500B74051208EC125D4E120B35
:10416300227439120AFD7808120AB2E50DA2E0EEB4
:104173005072240F125D34C0E07417120AFDD0E0B0
:10418300F0900316124F0E7003024223120F848A1B
:10419300128B13A812A913741C120AFDE068700392
:1041A300A3E069707B7808120840E50EF5087808EB
:1041B30012084C8E828F83A3A3A3A3E0F50878088B
:1041C30012084C7810120848A90C740D1208EC74EC
:1041D300241208E49003161256B81222B57408127A
:1041E3000876803C125D32F50C780C12084C780886
:1041F300120840E50EF508780812084C78101208EA
:1042030048900383120664EE2412125D34F9742677
:104213001208EC740F1208E4122154740A1208767F
:104223007425023378A3A3A3A3A3A3E8123AB72266
:10423300126329A3E022E8F0A3E9F0AA18AB19223C
:10424300F01243FB12424B2212424F22E0F8A3E04A
:10425300F92274F712037F121D9A8005740D120858
:10426300767F010205DB74F712037F121DA080F134
:1042730074F712037F121DAC80E7C082C083121D46
:10428300A6023DD974F712037F121DB280D374F7CF
:1042930012037F7409120AFDE0F508780812084C2E
:1042A300121DC4740180B7C082C083121DD0023DA9
:1042B300D9C082C083121DD6023DD974F712037F81
:1042C300121DDC809C74F712037FEAFEEBFF890862
:1042D3007401650870147900120DC8902711E493D6
:1042E300FC7900EEFAEFFB120D3E02426474F71202
:1042F300037F121DCA02426474F412037F74F9121D
:10430300090AE9FE8A088B098C0A8D0B900F7E122D
:104313004F0E602BEE851882851983F07401120A03
:10432300FD7808120A947413120AFD123D9A74055B
:10433300120AFD124239900F7E1256B81222B502AC
:104343003E17C082C083121E18023DD974F71203B0
:104353007F121DE802426474F712037F90104CE051
:10436300F97E00800B1245CA540D64017001190EC9
:104373001245615003E970ED02426474F712037F42
:1043830090104DE0F97E00800B1245CA548D648174
:104393007001190E1245615003E970ED0242647415
:1043A300F212037F890BE975F006A4A9F0240CF53A
:1043B30008E439F509E5082AFAE43509FB121C0E6D
:1043C3008A0C8B0DAE0CAF0DEE4F6021AC08AD091E
:1043D3007900121B421243F7E50BF0EE2508F8EFC4
:1043E3003509F98E828F83A3A3A3124228EEFAEF35
:1043F300FB0255A91243FB22EE125D5D3FF58322BA
:1044030074F612037FEAFEEBFF120D1A90104BE0D5
:10441300F8E9C3984009900353125646120D20EE53
:104423002402F8E43FF988088909900355125A6C6D
:10443300900355E004124448120D2685088285092D
:1044430083E0022971F0EEFAEFFB22C082C0837988
:10445300009003538001091256468A828B83E582BA
:10446300458370F2023DD974F712037FEAFEEBFF36
:10447300EE4F605A900353124F0E60528882898325
:104483007A007B00EE65827003EF65836013AA8276
:10449300AB83123D9A88828983E5824583602F80AE
:1044A300E390035312572F687002EF698E828F8354
:1044B3007008123D9A90035380031267F112422E43
:1044C300EEFAEFFB122256EEFAEFFB121C14024235
:1044D30064C082C083900353800488828983124F0F
:1044E3000E600A8882898312336B4D70ED8A828B4A
:1044F30083E4F0A3F0E8496006888289838003900F
:104503000353124514023DD9EE241AF582E43FF514
:1045130083EAF0A3EBF022124F25EA4B2274F71241
:10452300037F90035380048A828B8312451A60278A
:104533007E0080010E12456150EDEE75F006A4FC7D
:10454300ADF0EA2CFCEB3DFDEC2410F582E43DF5E7
:1045530083E06970DF80047A007B000242641245C5
:10456300C0EEC3982274F712037F7D0080010D1201
:1045730045BCEDC398503BED75F006A4FEA8F0E8EA
:10458300FFEA2EFEEB3FFFEE2410125D346970DE6E
:10459300ED75F006A4FEE8FFEA2EFAEB3FFBEA24F2
:1045A30011F582E412566B4CF0EA240CFA50070B17
:1045B30080047A007B000242641245C022EA125D45
:1045C3005D3BF583E0F822EE75F006A4FCADF0EA5E
:1045D3002CFCEB3DFDEC2411F582E43DF583E02258
:1045E30074F612037F120E347B008016EB75F0060F
:1045F300A4F8A9F0125A9AE4124678F0A3125A6268
:10460300F00B90271F12594D40E27A0080168A085A
:104613007509007403780812099B12556D12596BC2
:10462300A3E4F00A90270FE493F8EAC39840DF79F4
:1046330000801A89087509007403780812099B74AD
:1046430017126B69740E1269A2122C3C0990270B86
:1046530012617040DE90271DE493900361F0908413
:104663000E1206607A107B009003D0E0F9121CCE84
:10467300740402310C12617EA32274F012037F745E
:10468300F512090A8A088B09890A8C0BE9A2E05002
:10469300147508FC7509FFA2E15005D2E4024746F0
:1046A300D2E3024746120E1C8A0C8B0DA80CA90DEF
:1046B300900376E0687003A3E069600EAC0A7902A8
:1046C300AA08AB09120E16E970057900024817E52E
:1046D3000AF50C780C12084C79027CFE7DFFAA08BF
:1046E300AB09120D927401120876E96003024815B2
:1046F300E50AC2E5F50A9003C3E07049E50AA2E6BC
:10470300404374031208ECAA08AB09120BA0E9702A
:104713002E124EE91210BC8A0C8B0DAE0CAF0DEEAF
:104723004F6022EE2402FAE43FFB120B9AE9601574
:10473300EE2402FCE43FFD74031208E4121CFEE5C0
:104743000AD2E5F50A900356E0F50C900376124978
:10475300D9780E1208487D017C00900356E0F9AA2F
:104763000EAB0F120DD47402120876E9F8900356BB
:10477300E004F0E86003024815E50AA2E55004747A
:104783000E80027406C0E07401120AFDD0E01242EA
:104793003D120FDE8A0E8B0FAE0EAF0FEE4F606E23
:1047A3001252DB120F7E12450B12482E7401F07465
:1047B30078550AA3126D93E50C126D93A3E508F0E7
:1047C300E50912481CE4F0E50AA2E5500F74031250
:1047D30008ECE82406FAE439FB121CFE8E828F8370
:1047E300A3A374FDF0A374FFF0E50B6018902712E8
:1047F300E493F8E50BC398500CEE2413F582E43FE1
:10480300F583E50BF0EEFAEFFB120C4E8006791000
:10481300800279C7740B02335C88828983A3A3A3C4
:10482300A312482822126182A3A322EE125D593FEC
:1048330012483722F58312424F888289832274F407
:1048430012037F7A007B109003D0E0F9121CDAEA9E
:104853004B4C4D60089003E27401F0804390102F9D
:10486300E064019010C17006E0FC79018004E0FC73
:1048730079037A007B00120D3E902703E493F50839
:10488300740193F509E4F50AF50B78081208407AE8
:10489300007B109003D0E0F9121CC8740412087650
:1048A300800574181208767F040205DB74F0120386
:1048B3007F8A088B098C0A8D0B890C120FF6E9602D
:1048C300057AFF02499D9010C0E06402600302492B
:1048D300C990271EE493F9AA08AB09120E46E960B2
:1048E300030249C37900AA08AB09120E1CA90C12D2
:1048F3000E108A0E8B0FAE0EAF0FEE4F70030249F0
:10490300AF8E828F83A3A3A3A3A3126086707312B7
:1049130056468E828F83A3A3A3A3A3A3E054186058
:104923004D902710E4938E828F83A3A3A3A3F074E7
:1049330010120AFD126D2A7412120AFD1249D9EAE5
:10494300650A7003EB650B6012EA6C7002EB6D6035
:104953000AEA650E7003EB650F701B780E120848A8
:10496300AA0AAB0B1210F87402120876800890039F
:1049730075126318A3F074FE6A700374FF6B601EF4
:104983008051A3A3A3E06403602A8E828F83A3A331
:10499300A3A3A3E0640470067AFE7BFF80358E82B6
:1049A3008F83A3A3A3A3A3E0640270089003C2E0D0
:1049B300640270127907AA08AB09120E46E9600671
:1049C300AA08AB09800DAA08AB099003571256B881
:1049D3001222B502335FE0F50EA3E0F50F2274F760
:1049E30012037FEAFEEBFF120BEEE9700AEEFAEF19
:1049F300FB120BFAE96006EEFAEFFB80047AFE7B0A
:104A0300FF02426474EE12037F8A0A8B0B8C0C8DB7
:104A13000D890E750800120FF6E979006003024B49
:104A23006DAA0AAB0B120E1CA90E120E108A108B64
:104A330011AE10AF11EE4F60198E828F83A3A3A323
:104A4300A3A3E0640270529003C2E0640270030205
:104A53004B6BAA0AAB0B1256B51222B5120C008A85
:104A6300108B11A810A911E8497003024B6B8882BF
:104A73008983A3A3A3A3A3E0A2E04003024B6B7526
:104A83000901A2E1504B7901AC0AAD0BAA0CAB0DA5
:104A9300120D6EE97047024B6B8E828F83A3A3A323
:104AA300A3A3E0640360258E828F83A3A3A3A3A3A0
:104AB300E064016003024B6B79078E828F83A3A3AB
:104AC300125646120E46E96003024B6B75090280CB
:104AD3001088828983A3A3A3A3A3D2E1F0EE4F603E
:104AE3003A8E828F83A3A3A3A3A3A3E05418602BBE
:104AF3007508018E828F83A3A31206647510FE7559
:104B030011FF78101208487900AC0AAD0BAA0CAB60
:104B13000D120E287404120876804D7900AA0CAB8E
:104B23000D120E1C8A108B11A810A911900376E0A8
:104B3300687003A3E0697014902711E493FCA90E35
:104B4300AA0AAB0B120D3E750801801CA909AC0A19
:104B5300AD0BAA0CAB0D120D6EE9700C750801A913
:104B63000EAA0AAB0B120DC8A90880031208767FA0
:104B73000A0205DB74EB12037F74F012090A8A0C34
:104B83008B0D8C088D09751206900403124F0E606D
:104B930017124EE91210E68A108B11EA45116008CC
:104BA3008A828B83A3E06068E50C241DF50EE4354F
:104BB3000DF50F850E82125105F51488828983A3A2
:104BC300A3A3E0FA88828983A3A3A3A3E0F8E4C89C
:104BD300F9EA28FEE439FFAA08AB09120DCE850EC7
:104BE30082850F83124EF0E029F50BE50AA2E5500A
:104BF3000375120E7487550A700F7418550A6418DA
:104C03006007124ED36512600C7AD37B00121E60CC
:104C13007900024EBD530A78C3EE94F8EF94FF5027
:104C2300247900EEFAEFFB120E108A0E8B0FA80EFA
:104C3300A90FE849600F88828983A3A3A3A3A3A331
:104C4300E0541870CB78081208487D00AC0BA91407
:104C5300124F1A120DD47402120876E9F87403681D
:104C630060AE7425120AFD126B6E6003024D34743C
:104C730018550A7003024DEFE50AD2E0F50AA2E4E3
:104C83005004D2E1F50AA90A124F1A120E108A1221
:104C93008B13A812A913E849605C88828983A3A3B4
:104CA300A3A3A3A3E05418604D88828983A3A3A37D
:104CB300A3A3E06401703FE51045116039126D272D
:104CC30088828983A3A31256461210E68A128B1395
:104CD300A812A913E849601E88828983A3E060169D
:104CE300851082851183A3E0FA88828983A3E0C3B8
:104CF3009A5003024C13E50AF510781012084C126F
:104D03004F14120D927401120876E970247C007D11
:104D130000850E82850F8374FFF01252F6A3A3A3BE
:104D2300E06006124EC7126D2AA90B124F1A120C1D
:104D3300EA850E82850F83E0F47003A3E0F4603C00
:104D43009003C2E064027003024C13124F1A9003E3
:104D5300591256B81222B5EA65087003EB6509606B
:104D630003024C13EEFAEFFB9003591256B81222CA
:104D7300B5850E82850F83EAF0A3EBF0780812085D
:104D8300487D01AC0BA914124F1A120DD4740212F0
:104D93000876A90AEEFAEFFB120E1C8A088B09A803
:104DA30008A909900376E0687003A3E06960030231
:104DB3004EAFEEFAEFFB120C008A088B09A808A984
:104DC30009E849606F88828983A3A3A3A3E06401F0
:104DD300600D88828983A3A3A3A3E064027055AC0A
:104DE30018AD19EEFAEFFB120BA0805690036FE09B
:104DF3006014E50AF510781012084C124F14120DC6
:104E0300927401120876E50AF510781012084C79AD
:104E1300027CFE7DFFEEFAEFFB120D927401120885
:104E230076E96003024D34850E82850F8374FFF0AB
:104E3300A3024D7E120F7EEAFCEBFDAA18AB1912FA
:104E43001CFE850C82850D83A3A3A3A3A3A3A3A305
:104E5300E06401700E124EC7126D2A74081208E442
:104E6300121CFE1250ED124EE0E04430F5087808B3
:104E730012084C74011208DC8808890978081208A2
:104E830048740B1208DC880889097808120848E579
:104E930014F508780812084C7900EEFCEFFD124F68
:104EA3001A120D687406120876024C131250EDF5AF
:104EB30083124EF0E50BF0120F9674101208767FF2
:104EC3000D0205DBE50C2415F582E4350DF583228F
:104ED300E50C2417F582E4350DF583E022F583E034
:104EE300F81236F7A322900383125121221268038A
:104EF300A3A3A3A3A322E50D75F006A4F8AAF0EAE1
:104F0300F9747B28F582740D39F58312424BE84915
:104F1300227901AC08AD09125D57350D124F2322DA
:104F2300F583E0FAA3E0FB2274EE12037F74F01220
:104F3300090A8A0C8B0DECFAEDFB750F089004033C
:104F4300124F0E6031126D271210E68A088B09ACDE
:104F530008AD09EC4D601F8C828D83A3E07017129E
:104F630059605001097A027B0012022FE88C828D6E
:104F730083F0A37407F01250ED125105F50E8882E9
:104F830089831250F7E0FAE4CAFBEC2AFEE43BFF04
:104F930088828983A3A31250F7A3A3E0FBECF5084F
:104FA300E43BF50988828983A3A3A3A3A3A3A3E076
:104FB300F50BE50AA2E45003750F10A2E550067441
:104FC30008250FF50F748F550A7007124ED3650F1E
:104FD300600A7AD37B00121E600250E8530A70788D
:104FE30000E50AA2E4501FE50C241D124ED7240845
:104FF300FCA3E03400FD74081208E4121CFE7808D8
:10500300E50AC2E4F50AE50AA2E55022E50C241DEF
:10501300124ED728F8A3E03400F9E82408FCE43959
:10502300FDAA18AB19121CFEE50AC2E5F50AA90E82
:10503300EEFAEFFB120E0A90270F126170502989C6
:10504300107511007403781012099B74DC2510F598
:1050530082740D3511F583E0F8E50BC3985007E52D
:105063000BF078008004807D7804900376E06E7006
:1050730003A3E06F605FE87019E50AF50F780F127C
:10508300084C125114120D927401120876E97055EE
:105093008005740468704E780A12084C7401120873
:1050A300DC880C890D780C120848740B1208DC8814
:1050B3000C890D780C120848E50EF50A780A1208D7
:1050C3004CA90BAC08AD09EEFAEFFB120D687406A0
:1050D3001208768010780A12084C125114120D929D
:1050E30074011208767410024B6FE50C241DF582CF
:1050F300E4350D22A3A3A3E0FC88828983A3A3A3A1
:10510300A322124837A3E0F50A88828983A3A3E088
:10511300227901125D57350DF58312512122E0FCEE
:10512300A3E0FDAA08AB092274EB12037F74F51206
:10513300090A8A088B098C0A8D0B89147420120AB8
:10514300FDE0F511F9120E0AE9F50C90270F126133
:1051530070501B750D007403780C12099B74DA25CB
:105163000CF582740D350DF5831249D9801E900319
:1051730059124F0E6010AA08AB091236F81222B565
:105183008A0E8B0F8006750EFE750FFF7401120ACF
:10519300FD7408F07425120AFDE0F510A2E450082E
:1051A3007401120AFD7410F0E510A2E550097401B0
:1051B300120AFDE02408F0AA18AB19120FDE8A0CBC
:1051C3008B0DAE0CAF0DEE4F70030252D61252DBB5
:1051D300120F7E12450B7421120AFDE0F512A3E0B3
:1051E300F51374031208ECAA0EAB0F120BA0E960BF
:1051F30013EE24161252DE74031208DCEE24181286
:105203002FC58027E510A2E45022E50E650870043F
:10521300E50F65097016EE24161252DEEE2418F51A
:1052230082E43FF583E512F0A3E513F01252FEF595
:105233000CA3E0F50D850C82F5837402F0A3E51051
:105243001252E8E5111252E8A3E508F0E509850CCE
:1052530082850D83A3A3A31252F6E50AF0E50B851D
:105263000C82850D83A3A3A3A3A3A3F0AA0EAB0F64
:10527300120DCEE92514850C82850D83A3A3A3A368
:10528300A3A3A3F0750800E510A2E45013AC12AD7C
:1052930013E50C2408FAE4350DFB121CFE7508080F
:1052A300E510A2E5501B7423120AFD126D2AE50CCA
:1052B3002508F8E4350DF9E82408FAE439FB121C53
:1052C300FE8E828F83A3A3E50EF0A3E50F1244485D
:1052D300120C4E740B024EBFEE2417F582E43FF519
:1052E300837401F0221252EC22F0850C82850D8327
:1052F300A3A322A31252ECA3A3A3221243FBE022F3
:1053030074F412037F8A088B09ECFEEDFF750B0121
:10531300900376E065087004A3E065096013750BDC
:1053230000780B12084C1210387401120876E9F554
:105333000B7900AA08AB09120E1C8A088B09A8086E
:10534300A909900376E0687003A3E06970467900C9
:10535300EEFAEFFB120E10EA4B60308A828B83A3C6
:10536300A3A3A3A3A3E0541860217508FE7509FF46
:1053730078081208488A828B83A3A3120664126CEE
:1053830084120E28740412087680097901EEFAEF6C
:10539300FB120CE4A90B0248AA74F212037F7E5F8E
:1053A3007F0C7A107B009003D0E0F9121CDAEA4BF1
:1053B3004C4D701790840E1206607A107B00900398
:1053C300D0E0F9121CCE7404120876900361E01445
:1053D300F0600302547E90271DE493900361F07CF8
:1053E3000079057A007B00120F0C8A088B0902549E
:1053F300757C007905AA08AB09120F0C8A0A8B0B7E
:10540300850882850983A3A3A3A3124F0E605DE5DC
:10541300082404F8E43509F98882898312559C88A5
:10542300828983124F0E7044850882850983A3A362
:10543300A3A3A3A3E054046013850882850983A36F
:10544300A3A3A3A3A3A3A3E0F9120DF88508828560
:105453000983A3A3A3A3A3A3A3A3A37406F07AF02E
:105463008508828509831261F5120E64850A088511
:105473000B09E508450960030253F47508008060D1
:105483008E828F83A3A3A3A3E0604CF46049EE2430
:1054930004125D3414F0703F8E828F83A3A3A3A301
:1054A300A3E06403701579028E828F83126D2A8EB6
:1054B300828F83A3A3125646120D6E8E828F83A30F
:1054C300A3A3A3A3E06401600E8E828F8374FEF016
:1054D300A304125586E4F00508EE2407FE50010FDD
:1054E30090271512556540987E008039120F308E33
:1054F300087509007403780812099B74D72508FC02
:10550300740D3509FD7A7A7B0D120F1EEA4B70DCA0
:105513008E087509007403780812099B12556D12E1
:105523005A62E4F00E90270F126AB0501B8E087572
:1055330009007403780812099B12557BE8240712AB
:105543006E1314F070DE80A77B008009EB12558A7E
:10555300600214F00B90271F12594D40EF804790C3
:10556300271FE493F8E508C3982212557B888289A4
:1055730083A374FEF0A3042274D72508F8740D35B1
:1055830009F9221263292275F006A4F8A9F07477A9
:1055930028F582740D126E1A22E024FFF0A3E03482
:1055A300FFF0221208767F060205DB74F712037FF1
:1055B30074DF12090AECFEEDFF750800EE4F606917
:1055C3001238C6C8241FF582E438124F0C605A8A79
:1055D300828B83125646AC18AD19EA241EF582E479
:1055E30012566BF9EA241F122772120F66740B12FC
:1055F3000AFD12564A7003A3E069702D7402120A61
:10560300FDE064017023741D120AFD1256B8E064B4
:10561300017016741D120AFD124EE4A3E0F88E8287
:105623008F83E0687003750801A908742102426141
:10563300E50D75F006A4F8EAF9747B28F582740D7C
:1056430039F583124F2522125650E0682212565420
:105653002212424F8E828F83A32275F016A4FAABD7
:10566300F074252AF58274093BF583E02274F41261
:10567300037FE97024790090035B1256B81222B5B8
:105683008A0A8B0BAE0AAF0B74FE6E700374FF6F46
:10569300701A90271AE4936013790190035B1256F2
:1056A300B81222B58A0A8B0BAE0AAF0B120FA802EF
:1056B300377690035D1268032274F612037F74F346
:1056C30012090A121B5A8A088B09AE08AF09900304
:1056D30076E06E7003A3E06F60E9120F8AEA6E70E2
:1056E30002EB6F60DEEEFAEFFB120FF6E970D4EE19
:1056F3004F60D0851882851983E4F004120AFDEE09
:10570300F0A3EF12423D120BB8E970B774FE6E704E
:105713000374FF6F60ADEEFAEFFB740D02310CC042
:1057230082C083120FA8023DD939F58312424BEE92
:105733002274F212037FEAFEEBFF8C0A8D0B8908B9
:1057430074FC6E700374FF6F7003025927790012A3
:105753000E1C8A0C8B0DAE0CAF0D740E120AFDE0FD
:10576300F509900376E06E7003A3E06F7009E50915
:10577300A2E64003025927A909120E108A0C8B0DC9
:10578300A80CA90DE849704679007AFE7BFF120E3A
:10579300108A0C8B0DA80CA90DE8497031741855AB
:1057A3000960267B0080010B90271512594D501973
:1057B300EB75F007A4F8A9F0126AB7541870E874EF
:1057C3005F28F8740C39F9801D79020259298882FF
:1057D3008983A3A3A3A3A3A3E05418600974185552
:1057E30009700302592788828983EEF0A3EFF074CE
:1057F300FE650A700474FF650B600A88828983A3BF
:10580300A3125954F088828983A3A3A3A3A3A3E576
:1058130009F0A2E0500D88828983A3A3A3A3A3A3C5
:10582300D2E2F07401650888828983A3A3A3A3A3AA
:105833007035740112596BE054186025902710E4F9
:105843009388828983A3A3A3A3126D26AA0AAB0B11
:105853001210E68B0DEA450D60030259277E008086
:1058630031900375E080DAE0640170030259278800
:10587300828983A3A3A3A3A3A3E05418600790275B
:1058830010E4938004900374E012481CE508025965
:10589300260E90270C126AB040030259277D008020
:1058A3002BED75F007A4F8A9F0746128F582740C48
:1058B30012572C75F017A4FAABF074EF2AF5827423
:1058C3000A12597E7003A3E06960C60D9027151272
:1058D30032DB40CDE4936D70B8EE75F017A4F8A9F0
:1058E300F074EF28FE740A39FF7C177D007900EE0F
:1058F300FAEFFB121B428E828F83125954F09003EE
:105903008312597012422812592C74AAF012593674
:10591300740112595B5001097A027B0012022F12A3
:105923005940E8F079000255A9EE240FF582E43FCF
:10593300F58322EE240EF582E43FF58322EE240D57
:10594300F582E43FF5832290271CE493F8EBC39898
:1059530022E50AF0A3E50B22F012596022902708F2
:10596300E49379002401F822124828A322125976DD
:10597300A3A322125654A322F582E43BF583E068E5
:105983002274F212037F8A088B09890C1261694021
:10599300057905025A5F121E1EAA08AB09120DA44F
:1059A300E9F50D90271FE493650D700A7AFE7BFFDE
:1059B300120DA4E9F50D90271FE493F8E50DC398A4
:1059C3004003025A5D124EF96006125633121C143C
:1059D300E50C602BE50D75F006A4F8A9F0125B9DAC
:1059E300F8500109880A890BAA0CEA2AFAE433FB66
:1059F300121C0E125A73124F0E701B7901805DE553
:105A03000D75F006A4F8A9F0747B28F582740D399E
:105A1300F583E4F0A3F0E50D125A8512618A125A58
:105A230062A3AA82AB83E50C125A688A828B83E055
:105A33006024124EF9601F8E088F09750A007808DA
:105A4300120844AC0CEC2CFCE433FD125633121B4D
:105A53003674031208767900800279070255A9F09B
:105A63008882898322F09010C2E088828983F022A1
:105A7300850A82850B83EAF0A3EBF0850A82850B06
:105A8300832275F006A4F8A9F0125A9022125B94AF
:105A930088828983A3A322125A9074FE125AA322E6
:105AA300F0A304125AAA22F088828983A32274F7EE
:105AB30012037FECFEEDFF120DA490271F126170FD
:105AC300502DE975F006A4F8A9F0125B94125AF769
:105AD30088828983A3A3A3A3123D9A7409120AFDA2
:105AE300E0FAA3E0F5838A8212422E7900800279DC
:105AF3000402426488828983A3E08E828F83F0222A
:105B030074F712037F750800801DE50875F006A47D
:105B1300F8A9F0747928F582740D126E166A700371
:105B2300A3E06B6069050812556240DEE4936508E3
:105B3300705C74FE6A700374FF6B705275080080AA
